{
  "contractName": "AssistantFactory",
  "abi": [
    {
      "inputs": [
        {
          "internalType": "address",
          "name": "_exportAssistantMaster",
          "type": "address"
        },
        {
          "internalType": "address",
          "name": "_importWrapperAssistantMaster",
          "type": "address"
        },
        {
          "internalType": "contract GovernanceFactory",
          "name": "_governanceFactory",
          "type": "address"
        },
        {
          "internalType": "contract VotedValueFactory",
          "name": "_votedValueFactory",
          "type": "address"
        },
        {
          "internalType": "contract BridgesRegistry",
          "name": "_bridgesRegistry",
          "type": "address"
        }
      ],
      "stateMutability": "nonpayable",
      "type": "constructor"
    },
    {
      "anonymous": false,
      "inputs": [
        {
          "indexed": false,
          "internalType": "address",
          "name": "contractAddress",
          "type": "address"
        },
        {
          "indexed": false,
          "internalType": "address",
          "name": "bridgeAddress",
          "type": "address"
        },
        {
          "indexed": false,
          "internalType": "address",
          "name": "manager",
          "type": "address"
        },
        {
          "indexed": false,
          "internalType": "string",
          "name": "symbol",
          "type": "string"
        }
      ],
      "name": "NewExportAssistant",
      "type": "event"
    },
    {
      "anonymous": false,
      "inputs": [
        {
          "indexed": false,
          "internalType": "address",
          "name": "contractAddress",
          "type": "address"
        },
        {
          "indexed": false,
          "internalType": "address",
          "name": "bridgeAddress",
          "type": "address"
        },
        {
          "indexed": false,
          "internalType": "address",
          "name": "precompileAddress",
          "type": "address"
        },
        {
          "indexed": false,
          "internalType": "string",
          "name": "name",
          "type": "string"
        },
        {
          "indexed": false,
          "internalType": "string",
          "name": "symbol",
          "type": "string"
        }
      ],
      "name": "NewImportWrapperAssistant",
      "type": "event"
    },
    {
      "inputs": [],
      "name": "bridgesRegistry",
      "outputs": [
        {
          "internalType": "contract BridgesRegistry",
          "name": "",
          "type": "address"
        }
      ],
      "stateMutability": "view",
      "type": "function"
    },
    {
      "inputs": [],
      "name": "exportAssistantMaster",
      "outputs": [
        {
          "internalType": "address",
          "name": "",
          "type": "address"
        }
      ],
      "stateMutability": "view",
      "type": "function"
    },
    {
      "inputs": [],
      "name": "importWrapperAssistantMaster",
      "outputs": [
        {
          "internalType": "address",
          "name": "",
          "type": "address"
        }
      ],
      "stateMutability": "view",
      "type": "function"
    },
    {
      "inputs": [
        {
          "internalType": "address",
          "name": "bridgeAddr",
          "type": "address"
        },
        {
          "internalType": "address",
          "name": "managerAddr",
          "type": "address"
        },
        {
          "internalType": "uint16",
          "name": "_management_fee10000",
          "type": "uint16"
        },
        {
          "internalType": "uint16",
          "name": "_success_fee10000",
          "type": "uint16"
        },
        {
          "internalType": "address",
          "name": "oracleAddr",
          "type": "address"
        },
        {
          "internalType": "uint8",
          "name": "_exponent",
          "type": "uint8"
        },
        {
          "internalType": "string",
          "name": "name",
          "type": "string"
        },
        {
          "internalType": "string",
          "name": "symbol",
          "type": "string"
        }
      ],
      "name": "createExportAssistant",
      "outputs": [
        {
          "internalType": "contract ExportAssistant",
          "name": "exportAssistant",
          "type": "address"
        }
      ],
      "stateMutability": "nonpayable",
      "type": "function"
    },
    {
      "inputs": [
        {
          "internalType": "address",
          "name": "bridgeAddress",
          "type": "address"
        },
        {
          "internalType": "address",
          "name": "managerAddress",
          "type": "address"
        },
        {
          "internalType": "uint16",
          "name": "management_fee10000",
          "type": "uint16"
        },
        {
          "internalType": "uint16",
          "name": "success_fee10000",
          "type": "uint16"
        },
        {
          "internalType": "uint16",
          "name": "swap_fee10000",
          "type": "uint16"
        },
        {
          "internalType": "uint8",
          "name": "exponent",
          "type": "uint8"
        },
        {
          "internalType": "string",
          "name": "name",
          "type": "string"
        },
        {
          "internalType": "string",
          "name": "symbol",
          "type": "string"
        }
      ],
      "name": "createImportWrapperAssistant",
      "outputs": [
        {
          "internalType": "contract ImportWrapperAssistant",
          "name": "",
          "type": "address"
        }
      ],
      "stateMutability": "nonpayable",
      "type": "function"
    }
  ],
  "bytecode": "0x6101203461010057601f610c2338819003918201601f19168301916001600160401b038311848410176101055780849260a09460405283398101031261010057805161009a9161004e8261011b565b602081015161005c8161011b565b60408201519061006b8261011b565b608060608401519361007c8561011b565b0151936100888561011b565b60805260a05260c05260e05261010052565b604051610af6908161012d82396080518181816102a901526104db015260a05181818161038d0152610837015260c05181818161059601526108f4015260e05181818161057501526108d30152610100518181816094015281816105d3015261093a0152f35b600080fd5b634e487b7160e01b600052604160045260246000fd5b6001600160a01b038116036101005756fe608080604052600436101561001357600080fd5b6000803560e01c9182632799f9751461008257505080632ffdf1f1146100795780638b09664014610070578063f75eb2e5146100675763fa41a7341461005a575b38600080fd5b610062610376565b610054565b506100626102d8565b50610062610292565b506100626101d8565b346100c357816003193601126100c3577f00000000000000000000000000000000000000000000000000000000000000006001600160a01b03168152602090f35b5080fd5b60009103126100d257565b600080fd5b6001600160a01b038116036100d257565b6044359061ffff821682036100d257565b6064359061ffff821682036100d257565b60a4359060ff821682036100d257565b50634e487b7160e01b600052604160045260246000fd5b6001600160401b03811161014457604052565b61014c61011a565b604052565b601f909101601f19168101906001600160401b0382119082101761014457604052565b81601f820112156100d2578035906001600160401b0382116101cb575b604051926101a9601f8401601f191660200185610151565b828452602083830101116100d257816000926020809301838601378301015290565b6101d361011a565b610191565b50346100d2576101003660031901126100d2576004356101f7816100d7565b60243590610204826100d7565b61020c6100e8565b906102156100f9565b91608435610222816100d7565b61022a61010a565b6001600160401b039490919060c4358681116100d25761024e903690600401610174565b9360e4359687116100d25761028e9761026e610274983690600401610174565b966104ca565b604051918291826001600160a01b03909116815260200190565b0390f35b50346100d25760003660031901126100d2576040517f00000000000000000000000000000000000000000000000000000000000000006001600160a01b03168152602090f35b50346100d2576101003660031901126100d2576004356102f7816100d7565b60243590610304826100d7565b61030c6100e8565b906103156100f9565b9160843561ffff811681036100d25761032c61010a565b6001600160401b039490919060c4358681116100d257610350903690600401610174565b9360e4359687116100d25761028e97610370610274983690600401610174565b96610826565b50346100d25760003660031901126100d2576040517f00000000000000000000000000000000000000000000000000000000000000006001600160a01b03168152602090f35b91908251928382526000905b8482106103f55750928060209394116103e8575b601f01601f1916010190565b60008382840101526103dc565b906020908180828501015190828601015201906103c8565b96939460ff936104609661046e9a98949360018060a01b0394858092168c521660208b015261ffff80921660408b01521660608901521660808701521660a08501526101008060c08601528401906103bc565b9160e08184039101526103bc565b90565b506040513d6000823e3d90fd5b6001600160a01b0391821681529116602082015260400190565b6001600160a01b0391821681529181166020830152909116604082015260806060820181905261046e929101906103bc565b94979692909561050b6104ff6104ff7f00000000000000000000000000000000000000000000000000000000000000006106e1565b6001600160a01b031690565b986001600160a01b038a1695863b156100d257858993899361054593600097604051998a988998633325b58560e11b8a5260048a0161040d565b038183875af180156106d4575b6106c1575b50813b156100d257604051632d6caf7960e11b8152600081806105be7f00000000000000000000000000000000000000000000000000000000000000007f00000000000000000000000000000000000000000000000000000000000000006004840161047e565b038183875af180156106b4575b6106a1575b507f00000000000000000000000000000000000000000000000000000000000000006001600160a01b031690813b156100d257604051630957a35360e41b81526001600160a01b0384166004820152600160248201527f3c30692bf37757afa3450d752453a196fcce2ed757de1e89783517c5c74637db95610676939091906000908290604490829084905af18015610694575b61067b575b5060405194859485610498565b0390a1565b8061068861068e92610131565b806100c7565b38610669565b61069c610471565b610664565b806106886106ae92610131565b386105d0565b6106bc610471565b6105cb565b806106886106ce92610131565b38610557565b6106dc610471565b610552565b6e5af43d82803e903d91602b57fd5bf390763d602d80600a3d3981f3363d3d373d3d3d363d7300000062ffffff8260881c161760005260781b17602052603760096000f0906001600160a01b0382161561073757565b60405162461bcd60e51b8152602060048201526016602482015275115490cc4c4d8dce8818dc99585d194819985a5b195960521b6044820152606490fd5b6001600160a01b0391821681529116602082015261ffff91821660408201529181166060830152909116608082015260ff9190911660a082015261010060c0820181905261046e939192610460918401906103bc565b908160209103126100d2575161046e816100d7565b6001600160a01b0391821681529181166020830152909116604082015260a06060820181905261046e939192610818918401906103bc565b9160808184039101526103bc565b93969594919061085b6104ff6104ff7f00000000000000000000000000000000000000000000000000000000000000006106e1565b976001600160a01b0389163b156100d2578787600095610891936040519889978897634e469ed360e11b89528c60048a01610775565b0381836001600160a01b038a165af18015610ab3575b610aa0575b506001600160a01b0384163b156100d257604051632d6caf7960e11b81526000818061091c7f00000000000000000000000000000000000000000000000000000000000000007f00000000000000000000000000000000000000000000000000000000000000006004840161047e565b0381836001600160a01b038a165af18015610a93575b610a80575b507f00000000000000000000000000000000000000000000000000000000000000006001600160a01b031692833b156100d257604051630957a35360e41b81526001600160a01b03861660048201526000602482018190527fd1afe03cc10a42535613a79c83846cc99450bba41ecb68a91d2712af079cc74c958290604490829084905af18015610a73575b610a60575b50604051635f23db3b60e11b8152926020846004816001600160a01b0387165afa938415610a53575b600094610a1d575b50604051938493610a17939291906001600160a01b038916866107e0565b0390a190565b610a1792919450610a449060203d8111610a4c575b610a3c8183610151565b8101906107cb565b9390916109f9565b503d610a32565b610a5b610471565b6109f1565b80610688610a6d92610131565b386109c8565b610a7b610471565b6109c3565b80610688610a8d92610131565b38610937565b610a9b610471565b610932565b80610688610aad92610131565b386108ac565b610abb610471565b6108a756fea2646970667358221220dd25b8aff02ffa73f2c4e54cc95f1a7caa0b02cbf72359cfd7199ec1afaaa49064736f6c634300080d0033",
  "immutableReferences": {
    "2042": [
      {
        "length": 32,
        "start": 681
      },
      {
        "length": 32,
        "start": 1243
      }
    ],
    "2044": [
      {
        "length": 32,
        "start": 909
      },
      {
        "length": 32,
        "start": 2103
      }
    ],
    "2047": [
      {
        "length": 32,
        "start": 1430
      },
      {
        "length": 32,
        "start": 2292
      }
    ],
    "2050": [
      {
        "length": 32,
        "start": 1397
      },
      {
        "length": 32,
        "start": 2259
      }
    ],
    "2053": [
      {
        "length": 32,
        "start": 148
      },
      {
        "length": 32,
        "start": 1491
      },
      {
        "length": 32,
        "start": 2362
      }
    ]
  },
  "source": "// SPDX-License-Identifier: MIT\npragma solidity ^0.8.3;\nimport \"@openzeppelin/contracts/proxy/Clones.sol\";\nimport \"./ExportAssistant.sol\";\nimport \"./ImportWrapperAssistant.sol\";\nimport \"./ImportWrapper.sol\";\nimport \"./CounterstakeLibrary.sol\";\nimport \"./VotedValueFactory.sol\";\nimport \"./BridgesRegistry.sol\";\n\n\ncontract AssistantFactory {\n\n\tevent NewExportAssistant(address contractAddress, address bridgeAddress, address manager, string symbol);\n\tevent NewImportWrapperAssistant(address contractAddress, address bridgeAddress, address precompileAddress, string name, string symbol);\n\n\taddress public immutable exportAssistantMaster;\n\taddress public immutable importWrapperAssistantMaster;\n\n\tGovernanceFactory private immutable governanceFactory;\n\tVotedValueFactory private immutable votedValueFactory;\n\tBridgesRegistry public immutable bridgesRegistry;\n\n\tconstructor(address _exportAssistantMaster, address _importWrapperAssistantMaster, GovernanceFactory _governanceFactory, VotedValueFactory _votedValueFactory, BridgesRegistry _bridgesRegistry) {\n\t\texportAssistantMaster = _exportAssistantMaster;\n\t\timportWrapperAssistantMaster = _importWrapperAssistantMaster;\n\t\tgovernanceFactory = _governanceFactory;\n\t\tvotedValueFactory = _votedValueFactory;\n\t\tbridgesRegistry = _bridgesRegistry;\n\t}\n\n\tfunction createExportAssistant(\n\t\taddress bridgeAddr, address managerAddr, uint16 _management_fee10000, uint16 _success_fee10000, address oracleAddr, uint8 _exponent, string memory name, string memory symbol\n\t) external returns (ExportAssistant exportAssistant) {\n\t\texportAssistant = ExportAssistant(payable(Clones.clone(exportAssistantMaster)));\n\t\texportAssistant.initExportAssistant(bridgeAddr, managerAddr, _management_fee10000, _success_fee10000, oracleAddr, _exponent, name, symbol);\n\t\texportAssistant.setupGovernance(governanceFactory, votedValueFactory);\n\t\t\n\t\t// Register the assistant in the registry\n\t\tbridgesRegistry.registerAssistant(address(exportAssistant), BridgesRegistry.AssistantType.Export);\n\t\t\n\t\temit NewExportAssistant(address(exportAssistant), bridgeAddr, managerAddr, symbol);\n\t}\n\n\tfunction createImportWrapperAssistant(\n\t\taddress bridgeAddress,\n\t\taddress managerAddress,\n\t\tuint16 management_fee10000,\n\t\tuint16 success_fee10000,\n\t\tuint16 swap_fee10000,\n\t\tuint8 exponent,\n\t\tstring memory name,\n\t\tstring memory symbol\n\t) external returns (ImportWrapperAssistant) {\n\t\tImportWrapperAssistant assistant = ImportWrapperAssistant(payable(Clones.clone(importWrapperAssistantMaster)));\n\t\tassistant.initImportWrapperAssistant(bridgeAddress, managerAddress, management_fee10000, success_fee10000, swap_fee10000, exponent, name, symbol);\n\t\tassistant.setupGovernance(governanceFactory, votedValueFactory);\n\t\t\n\t\t// Register the assistant in the registry\n\t\tbridgesRegistry.registerAssistant(address(assistant), BridgesRegistry.AssistantType.Import);\n\t\t\n\t\t// Get the precompile address from the bridge\n\t\taddress precompileAddress = ImportWrapper(bridgeAddress).precompileAddress();\n\t\temit NewImportWrapperAssistant(address(assistant), bridgeAddress, precompileAddress, name, symbol);\n\t\treturn assistant;\n\t}\n\n}\n\n",
  "sourcePath": "/Users/jm/3DP-bridge/counterstake-bridge/evm/contracts/AssistantFactory.sol",
  "compiler": {
    "name": "solc",
    "version": "0.8.13+commit.abaa5c0e.Emscripten.clang"
  },
  "schemaVersion": "3.4.16",
  "updatedAt": "2025-08-19T12:12:03.279Z",
  "devdoc": {
    "kind": "dev",
    "methods": {},
    "version": 1
  },
  "userdoc": {
    "kind": "user",
    "methods": {},
    "version": 1
  }
}