{
  "contractName": "AssistantFactory",
  "abi": [
    {
      "inputs": [
        {
          "internalType": "address",
          "name": "_exportAssistantMaster",
          "type": "address"
        },
        {
          "internalType": "address",
          "name": "_importWrapperAssistantMaster",
          "type": "address"
        },
        {
          "internalType": "contract GovernanceFactory",
          "name": "_governanceFactory",
          "type": "address"
        },
        {
          "internalType": "contract VotedValueFactory",
          "name": "_votedValueFactory",
          "type": "address"
        }
      ],
      "stateMutability": "nonpayable",
      "type": "constructor"
    },
    {
      "anonymous": false,
      "inputs": [
        {
          "indexed": false,
          "internalType": "address",
          "name": "contractAddress",
          "type": "address"
        },
        {
          "indexed": false,
          "internalType": "address",
          "name": "bridgeAddress",
          "type": "address"
        },
        {
          "indexed": false,
          "internalType": "address",
          "name": "manager",
          "type": "address"
        },
        {
          "indexed": false,
          "internalType": "string",
          "name": "symbol",
          "type": "string"
        }
      ],
      "name": "NewExportAssistant",
      "type": "event"
    },
    {
      "anonymous": false,
      "inputs": [
        {
          "indexed": false,
          "internalType": "address",
          "name": "contractAddress",
          "type": "address"
        },
        {
          "indexed": false,
          "internalType": "address",
          "name": "bridgeAddress",
          "type": "address"
        },
        {
          "indexed": false,
          "internalType": "address",
          "name": "precompileAddress",
          "type": "address"
        },
        {
          "indexed": false,
          "internalType": "string",
          "name": "name",
          "type": "string"
        },
        {
          "indexed": false,
          "internalType": "string",
          "name": "symbol",
          "type": "string"
        }
      ],
      "name": "NewImportWrapperAssistant",
      "type": "event"
    },
    {
      "inputs": [],
      "name": "exportAssistantMaster",
      "outputs": [
        {
          "internalType": "address",
          "name": "",
          "type": "address"
        }
      ],
      "stateMutability": "view",
      "type": "function"
    },
    {
      "inputs": [],
      "name": "importWrapperAssistantMaster",
      "outputs": [
        {
          "internalType": "address",
          "name": "",
          "type": "address"
        }
      ],
      "stateMutability": "view",
      "type": "function"
    },
    {
      "inputs": [
        {
          "internalType": "address",
          "name": "bridgeAddr",
          "type": "address"
        },
        {
          "internalType": "address",
          "name": "managerAddr",
          "type": "address"
        },
        {
          "internalType": "uint16",
          "name": "_management_fee10000",
          "type": "uint16"
        },
        {
          "internalType": "uint16",
          "name": "_success_fee10000",
          "type": "uint16"
        },
        {
          "internalType": "address",
          "name": "oracleAddr",
          "type": "address"
        },
        {
          "internalType": "uint8",
          "name": "_exponent",
          "type": "uint8"
        },
        {
          "internalType": "string",
          "name": "name",
          "type": "string"
        },
        {
          "internalType": "string",
          "name": "symbol",
          "type": "string"
        }
      ],
      "name": "createExportAssistant",
      "outputs": [
        {
          "internalType": "contract ExportAssistant",
          "name": "exportAssistant",
          "type": "address"
        }
      ],
      "stateMutability": "nonpayable",
      "type": "function"
    },
    {
      "inputs": [
        {
          "internalType": "address",
          "name": "bridgeAddress",
          "type": "address"
        },
        {
          "internalType": "address",
          "name": "managerAddress",
          "type": "address"
        },
        {
          "internalType": "uint16",
          "name": "management_fee10000",
          "type": "uint16"
        },
        {
          "internalType": "uint16",
          "name": "success_fee10000",
          "type": "uint16"
        },
        {
          "internalType": "uint16",
          "name": "swap_fee10000",
          "type": "uint16"
        },
        {
          "internalType": "uint8",
          "name": "exponent",
          "type": "uint8"
        },
        {
          "internalType": "string",
          "name": "name",
          "type": "string"
        },
        {
          "internalType": "string",
          "name": "symbol",
          "type": "string"
        }
      ],
      "name": "createImportWrapperAssistant",
      "outputs": [
        {
          "internalType": "contract ImportWrapperAssistant",
          "name": "",
          "type": "address"
        }
      ],
      "stateMutability": "nonpayable",
      "type": "function"
    }
  ],
  "bytecode": "0x610100346100d657601f610a7a38819003918201601f19168301916001600160401b038311848410176100db578084926080946040528339810103126100d65780516100879161004e826100f1565b602081015161005c816100f1565b606060408301519261006d846100f1565b015192610079846100f1565b60805260a05260c05260e052565b6040516109779081610103823960805181818161024a015261047d015260a05181818161032e0152610746015260c05181818161055e0152610826015260e05181818161053d01526108050152f35b600080fd5b634e487b7160e01b600052604160045260246000fd5b6001600160a01b038116036100d65756fe60806040526004361015610013575b600080fd5b6000803560e01c9081632ffdf1f114610066575080638b0966401461005d578063f75eb2e5146100545763fa41a7341461004c57600080fd5b61000e610317565b5061000e610279565b5061000e610233565b3461012057610100366003190112610120576004359061008582610127565b60243561009181610127565b610099610138565b6100a1610149565b608435916100ae83610127565b6100b661015a565b936001600160401b0360c435818111610123576100d79036906004016101c4565b9660e4359182116101205761011c6101028a8a8a8a8a8a8a6100fc3660048d016101c4565b9661046b565b604051918291826001600160a01b03909116815260200190565b0390f35b80fd5b8780fd5b6001600160a01b0381160361000e57565b6044359061ffff8216820361000e57565b6064359061ffff8216820361000e57565b60a4359060ff8216820361000e57565b50634e487b7160e01b600052604160045260246000fd5b6001600160401b03811161019457604052565b61019c61016a565b604052565b601f909101601f19168101906001600160401b0382119082101761019457604052565b81601f8201121561000e578035906001600160401b03821161021b575b604051926101f9601f8401601f1916602001856101a1565b8284526020838301011161000e57816000926020809301838601378301015290565b61022361016a565b6101e1565b600091031261000e57565b503461000e57600036600319011261000e576040517f00000000000000000000000000000000000000000000000000000000000000006001600160a01b03168152602090f35b503461000e5761010036600319011261000e5760043561029881610127565b602435906102a582610127565b6102ad610138565b906102b6610149565b9160843561ffff8116810361000e576102cd61015a565b6001600160401b039490919060c43586811161000e576102f19036906004016101c4565b9360e43596871161000e5761011c976103116101029836906004016101c4565b96610735565b503461000e57600036600319011261000e576040517f00000000000000000000000000000000000000000000000000000000000000006001600160a01b03168152602090f35b91908251928382526000905b848210610396575092806020939411610389575b601f01601f1916010190565b600083828401015261037d565b90602090818082850101519082860101520190610369565b96939460ff936104019661040f9a98949360018060a01b0394858092168c521660208b015261ffff80921660408b01521660608901521660808701521660a08501526101008060c086015284019061035d565b9160e081840391015261035d565b90565b506040513d6000823e3d90fd5b6001600160a01b0391821681529116602082015260400190565b6001600160a01b0391821681529181166020830152909116604082015260806060820181905261040f9291019061035d565b949796959290926104ad6104a16104a17f00000000000000000000000000000000000000000000000000000000000000006105f0565b6001600160a01b031690565b986001600160a01b038a1695863b1561000e5788869389936104e793600097604051998a988998633325b58560e11b8a5260048a016103ae565b038183875af180156105e3575b6105d0575b50813b1561000e577f3c30692bf37757afa3450d752453a196fcce2ed757de1e89783517c5c74637db936105a591604051632d6caf7960e11b8152600081806105867f00000000000000000000000000000000000000000000000000000000000000007f00000000000000000000000000000000000000000000000000000000000000006004840161041f565b038183895af180156105c3575b6105aa575b5060405194859485610439565b0390a1565b806105b76105bd92610181565b80610228565b38610598565b6105cb610412565b610593565b806105b76105dd92610181565b386104f9565b6105eb610412565b6104f4565b6e5af43d82803e903d91602b57fd5bf390763d602d80600a3d3981f3363d3d373d3d3d363d7300000062ffffff8260881c161760005260781b17602052603760096000f0906001600160a01b0382161561064657565b60405162461bcd60e51b8152602060048201526016602482015275115490cc4c4d8dce8818dc99585d194819985a5b195960521b6044820152606490fd5b6001600160a01b0391821681529116602082015261ffff91821660408201529181166060830152909116608082015260ff9190911660a082015261010060c0820181905261040f9391926104019184019061035d565b9081602091031261000e575161040f81610127565b6001600160a01b0391821681529181166020830152909116604082015260a06060820181905261040f9391926107279184019061035d565b91608081840391015261035d565b93969594919061076a6104a16104a17f00000000000000000000000000000000000000000000000000000000000000006105f0565b976001600160a01b0389163b1561000e5787876000956107a0936040519889978897634e469ed360e11b89528c60048a01610684565b0381836001600160a01b038a165af18015610934575b610921575b506001600160a01b0384163b1561000e57604051632d6caf7960e11b81527fd1afe03cc10a42535613a79c83846cc99450bba41ecb68a91d2712af079cc74c93906000818061084e7f00000000000000000000000000000000000000000000000000000000000000007f00000000000000000000000000000000000000000000000000000000000000006004840161041f565b0381836001600160a01b038b165af18015610914575b610901575b50604051635f23db3b60e11b8152926020846004816001600160a01b0387165afa9384156108f4575b6000946108be575b506040519384936108b8939291906001600160a01b038916866106ef565b0390a190565b6108b8929194506108e59060203d81116108ed575b6108dd81836101a1565b8101906106da565b93909161089a565b503d6108d3565b6108fc610412565b610892565b806105b761090e92610181565b38610869565b61091c610412565b610864565b806105b761092e92610181565b386107bb565b61093c610412565b6107b656fea26469706673582212201cd37f57c56f75a12824988aa81b8ee896ace742a3cb4d7dae335da397f6c50064736f6c634300080d0033",
  "immutableReferences": {
    "2033": [
      {
        "length": 32,
        "start": 586
      },
      {
        "length": 32,
        "start": 1149
      }
    ],
    "2035": [
      {
        "length": 32,
        "start": 814
      },
      {
        "length": 32,
        "start": 1862
      }
    ],
    "2038": [
      {
        "length": 32,
        "start": 1374
      },
      {
        "length": 32,
        "start": 2086
      }
    ],
    "2041": [
      {
        "length": 32,
        "start": 1341
      },
      {
        "length": 32,
        "start": 2053
      }
    ]
  },
  "source": "// SPDX-License-Identifier: MIT\npragma solidity ^0.8.3;\nimport \"@openzeppelin/contracts/proxy/Clones.sol\";\nimport \"./ExportAssistant.sol\";\nimport \"./ImportWrapperAssistant.sol\";\nimport \"./ImportWrapper.sol\";\nimport \"./CounterstakeLibrary.sol\";\nimport \"./VotedValueFactory.sol\";\n\n\ncontract AssistantFactory {\n\n\tevent NewExportAssistant(address contractAddress, address bridgeAddress, address manager, string symbol);\n\tevent NewImportWrapperAssistant(address contractAddress, address bridgeAddress, address precompileAddress, string name, string symbol);\n\n\taddress public immutable exportAssistantMaster;\n\taddress public immutable importWrapperAssistantMaster;\n\n\tGovernanceFactory private immutable governanceFactory;\n\tVotedValueFactory private immutable votedValueFactory;\n\n\tconstructor(address _exportAssistantMaster, address _importWrapperAssistantMaster, GovernanceFactory _governanceFactory, VotedValueFactory _votedValueFactory) {\n\t\texportAssistantMaster = _exportAssistantMaster;\n\t\timportWrapperAssistantMaster = _importWrapperAssistantMaster;\n\t\tgovernanceFactory = _governanceFactory;\n\t\tvotedValueFactory = _votedValueFactory;\n\t}\n\n\tfunction createExportAssistant(\n\t\taddress bridgeAddr, address managerAddr, uint16 _management_fee10000, uint16 _success_fee10000, address oracleAddr, uint8 _exponent, string memory name, string memory symbol\n\t) external returns (ExportAssistant exportAssistant) {\n\t\texportAssistant = ExportAssistant(payable(Clones.clone(exportAssistantMaster)));\n\t\texportAssistant.initExportAssistant(bridgeAddr, managerAddr, _management_fee10000, _success_fee10000, oracleAddr, _exponent, name, symbol);\n\t\texportAssistant.setupGovernance(governanceFactory, votedValueFactory);\n\t\temit NewExportAssistant(address(exportAssistant), bridgeAddr, managerAddr, symbol);\n\t}\n\n\tfunction createImportWrapperAssistant(\n\t\taddress bridgeAddress,\n\t\taddress managerAddress,\n\t\tuint16 management_fee10000,\n\t\tuint16 success_fee10000,\n\t\tuint16 swap_fee10000,\n\t\tuint8 exponent,\n\t\tstring memory name,\n\t\tstring memory symbol\n\t) external returns (ImportWrapperAssistant) {\n\t\tImportWrapperAssistant assistant = ImportWrapperAssistant(payable(Clones.clone(importWrapperAssistantMaster)));\n\t\tassistant.initImportWrapperAssistant(bridgeAddress, managerAddress, management_fee10000, success_fee10000, swap_fee10000, exponent, name, symbol);\n\t\tassistant.setupGovernance(governanceFactory, votedValueFactory);\n\t\t\n\t\t// Get the precompile address from the bridge\n\t\taddress precompileAddress = ImportWrapper(bridgeAddress).precompileAddress();\n\t\temit NewImportWrapperAssistant(address(assistant), bridgeAddress, precompileAddress, name, symbol);\n\t\treturn assistant;\n\t}\n\n}\n\n",
  "sourcePath": "/Users/jm/counterstake-bridge/evm_substrate/contracts/AssistantFactory.sol",
  "compiler": {
    "name": "solc",
    "version": "0.8.13+commit.abaa5c0e.Emscripten.clang"
  },
  "schemaVersion": "3.4.16",
  "updatedAt": "2025-08-14T11:37:37.646Z",
  "devdoc": {
    "kind": "dev",
    "methods": {},
    "version": 1
  },
  "userdoc": {
    "kind": "user",
    "methods": {},
    "version": 1
  }
}