{
  "contractName": "BridgeRegistry",
  "abi": [
    {
      "inputs": [
        {
          "internalType": "address",
          "name": "_counterstakeFactory",
          "type": "address"
        },
        {
          "internalType": "address",
          "name": "_assistantFactory",
          "type": "address"
        }
      ],
      "stateMutability": "nonpayable",
      "type": "constructor"
    },
    {
      "anonymous": false,
      "inputs": [
        {
          "indexed": true,
          "internalType": "address",
          "name": "assistantAddress",
          "type": "address"
        }
      ],
      "name": "AssistantDeactivated",
      "type": "event"
    },
    {
      "anonymous": false,
      "inputs": [
        {
          "indexed": true,
          "internalType": "address",
          "name": "assistantAddress",
          "type": "address"
        }
      ],
      "name": "AssistantReactivated",
      "type": "event"
    },
    {
      "anonymous": false,
      "inputs": [
        {
          "indexed": true,
          "internalType": "address",
          "name": "assistantAddress",
          "type": "address"
        },
        {
          "indexed": true,
          "internalType": "address",
          "name": "bridgeAddress",
          "type": "address"
        },
        {
          "indexed": false,
          "internalType": "string",
          "name": "name",
          "type": "string"
        },
        {
          "indexed": false,
          "internalType": "string",
          "name": "symbol",
          "type": "string"
        },
        {
          "indexed": false,
          "internalType": "enum BridgeRegistry.AssistantType",
          "name": "assistantType",
          "type": "uint8"
        },
        {
          "indexed": false,
          "internalType": "uint256",
          "name": "timestamp",
          "type": "uint256"
        }
      ],
      "name": "AssistantRegistered",
      "type": "event"
    },
    {
      "anonymous": false,
      "inputs": [
        {
          "indexed": true,
          "internalType": "address",
          "name": "bridgeAddress",
          "type": "address"
        }
      ],
      "name": "BridgeDeactivated",
      "type": "event"
    },
    {
      "anonymous": false,
      "inputs": [
        {
          "indexed": true,
          "internalType": "address",
          "name": "bridgeAddress",
          "type": "address"
        }
      ],
      "name": "BridgeReactivated",
      "type": "event"
    },
    {
      "anonymous": false,
      "inputs": [
        {
          "indexed": true,
          "internalType": "address",
          "name": "bridgeAddress",
          "type": "address"
        },
        {
          "indexed": false,
          "internalType": "string",
          "name": "network",
          "type": "string"
        },
        {
          "indexed": false,
          "internalType": "string",
          "name": "asset",
          "type": "string"
        },
        {
          "indexed": false,
          "internalType": "enum BridgeRegistry.BridgeType",
          "name": "bridgeType",
          "type": "uint8"
        },
        {
          "indexed": false,
          "internalType": "uint256",
          "name": "timestamp",
          "type": "uint256"
        }
      ],
      "name": "BridgeRegistered",
      "type": "event"
    },
    {
      "anonymous": false,
      "inputs": [
        {
          "indexed": true,
          "internalType": "address",
          "name": "factoryAddress",
          "type": "address"
        },
        {
          "indexed": false,
          "internalType": "string",
          "name": "factoryType",
          "type": "string"
        }
      ],
      "name": "FactoryUpdated",
      "type": "event"
    },
    {
      "anonymous": false,
      "inputs": [
        {
          "indexed": true,
          "internalType": "address",
          "name": "previousOwner",
          "type": "address"
        },
        {
          "indexed": true,
          "internalType": "address",
          "name": "newOwner",
          "type": "address"
        }
      ],
      "name": "OwnershipTransferred",
      "type": "event"
    },
    {
      "inputs": [
        {
          "internalType": "uint256",
          "name": "",
          "type": "uint256"
        }
      ],
      "name": "allAssistants",
      "outputs": [
        {
          "internalType": "address",
          "name": "",
          "type": "address"
        }
      ],
      "stateMutability": "view",
      "type": "function"
    },
    {
      "inputs": [
        {
          "internalType": "uint256",
          "name": "",
          "type": "uint256"
        }
      ],
      "name": "allBridges",
      "outputs": [
        {
          "internalType": "address",
          "name": "",
          "type": "address"
        }
      ],
      "stateMutability": "view",
      "type": "function"
    },
    {
      "inputs": [],
      "name": "assistantFactory",
      "outputs": [
        {
          "internalType": "address",
          "name": "",
          "type": "address"
        }
      ],
      "stateMutability": "view",
      "type": "function"
    },
    {
      "inputs": [
        {
          "internalType": "address",
          "name": "",
          "type": "address"
        }
      ],
      "name": "assistants",
      "outputs": [
        {
          "internalType": "address",
          "name": "assistantAddress",
          "type": "address"
        },
        {
          "internalType": "address",
          "name": "bridgeAddress",
          "type": "address"
        },
        {
          "internalType": "enum BridgeRegistry.AssistantType",
          "name": "assistantType",
          "type": "uint8"
        },
        {
          "internalType": "bool",
          "name": "isActive",
          "type": "bool"
        },
        {
          "internalType": "uint256",
          "name": "createdAt",
          "type": "uint256"
        },
        {
          "internalType": "string",
          "name": "metadata",
          "type": "string"
        }
      ],
      "stateMutability": "view",
      "type": "function"
    },
    {
      "inputs": [
        {
          "internalType": "address",
          "name": "",
          "type": "address"
        },
        {
          "internalType": "uint256",
          "name": "",
          "type": "uint256"
        }
      ],
      "name": "assistantsByBridge",
      "outputs": [
        {
          "internalType": "address",
          "name": "",
          "type": "address"
        }
      ],
      "stateMutability": "view",
      "type": "function"
    },
    {
      "inputs": [
        {
          "internalType": "address",
          "name": "",
          "type": "address"
        }
      ],
      "name": "bridges",
      "outputs": [
        {
          "internalType": "address",
          "name": "bridgeAddress",
          "type": "address"
        },
        {
          "internalType": "enum BridgeRegistry.BridgeType",
          "name": "bridgeType",
          "type": "uint8"
        },
        {
          "internalType": "bool",
          "name": "isActive",
          "type": "bool"
        },
        {
          "internalType": "uint256",
          "name": "createdAt",
          "type": "uint256"
        },
        {
          "internalType": "string",
          "name": "metadata",
          "type": "string"
        }
      ],
      "stateMutability": "view",
      "type": "function"
    },
    {
      "inputs": [],
      "name": "counterstakeFactory",
      "outputs": [
        {
          "internalType": "address",
          "name": "",
          "type": "address"
        }
      ],
      "stateMutability": "view",
      "type": "function"
    },
    {
      "inputs": [],
      "name": "owner",
      "outputs": [
        {
          "internalType": "address",
          "name": "",
          "type": "address"
        }
      ],
      "stateMutability": "view",
      "type": "function"
    },
    {
      "inputs": [],
      "name": "renounceOwnership",
      "outputs": [],
      "stateMutability": "nonpayable",
      "type": "function"
    },
    {
      "inputs": [
        {
          "internalType": "address",
          "name": "newOwner",
          "type": "address"
        }
      ],
      "name": "transferOwnership",
      "outputs": [],
      "stateMutability": "nonpayable",
      "type": "function"
    },
    {
      "inputs": [
        {
          "internalType": "address",
          "name": "bridgeAddress",
          "type": "address"
        }
      ],
      "name": "registerExportBridge",
      "outputs": [],
      "stateMutability": "nonpayable",
      "type": "function"
    },
    {
      "inputs": [
        {
          "internalType": "address",
          "name": "bridgeAddress",
          "type": "address"
        }
      ],
      "name": "registerImportWrapperBridge",
      "outputs": [],
      "stateMutability": "nonpayable",
      "type": "function"
    },
    {
      "inputs": [
        {
          "internalType": "address",
          "name": "assistantAddress",
          "type": "address"
        },
        {
          "internalType": "address",
          "name": "bridgeAddress",
          "type": "address"
        }
      ],
      "name": "registerExportAssistant",
      "outputs": [],
      "stateMutability": "nonpayable",
      "type": "function"
    },
    {
      "inputs": [
        {
          "internalType": "address",
          "name": "assistantAddress",
          "type": "address"
        },
        {
          "internalType": "address",
          "name": "bridgeAddress",
          "type": "address"
        }
      ],
      "name": "registerImportWrapperAssistant",
      "outputs": [],
      "stateMutability": "nonpayable",
      "type": "function"
    },
    {
      "inputs": [],
      "name": "getAllBridges",
      "outputs": [
        {
          "internalType": "address[]",
          "name": "",
          "type": "address[]"
        }
      ],
      "stateMutability": "view",
      "type": "function"
    },
    {
      "inputs": [],
      "name": "getAllAssistants",
      "outputs": [
        {
          "internalType": "address[]",
          "name": "",
          "type": "address[]"
        }
      ],
      "stateMutability": "view",
      "type": "function"
    },
    {
      "inputs": [
        {
          "internalType": "address",
          "name": "bridgeAddress",
          "type": "address"
        }
      ],
      "name": "getAssistantsByBridge",
      "outputs": [
        {
          "internalType": "address[]",
          "name": "",
          "type": "address[]"
        }
      ],
      "stateMutability": "view",
      "type": "function"
    },
    {
      "inputs": [],
      "name": "getActiveBridges",
      "outputs": [
        {
          "internalType": "address[]",
          "name": "",
          "type": "address[]"
        }
      ],
      "stateMutability": "view",
      "type": "function"
    },
    {
      "inputs": [],
      "name": "getActiveAssistants",
      "outputs": [
        {
          "internalType": "address[]",
          "name": "",
          "type": "address[]"
        }
      ],
      "stateMutability": "view",
      "type": "function"
    },
    {
      "inputs": [],
      "name": "getBridgeCount",
      "outputs": [
        {
          "internalType": "uint256",
          "name": "",
          "type": "uint256"
        }
      ],
      "stateMutability": "view",
      "type": "function"
    },
    {
      "inputs": [],
      "name": "getAssistantCount",
      "outputs": [
        {
          "internalType": "uint256",
          "name": "",
          "type": "uint256"
        }
      ],
      "stateMutability": "view",
      "type": "function"
    },
    {
      "inputs": [
        {
          "internalType": "address",
          "name": "bridgeAddress",
          "type": "address"
        }
      ],
      "name": "getBridgeInfo",
      "outputs": [
        {
          "components": [
            {
              "internalType": "address",
              "name": "bridgeAddress",
              "type": "address"
            },
            {
              "internalType": "enum BridgeRegistry.BridgeType",
              "name": "bridgeType",
              "type": "uint8"
            },
            {
              "internalType": "bool",
              "name": "isActive",
              "type": "bool"
            },
            {
              "internalType": "uint256",
              "name": "createdAt",
              "type": "uint256"
            },
            {
              "internalType": "string",
              "name": "metadata",
              "type": "string"
            }
          ],
          "internalType": "struct BridgeRegistry.BridgeInfo",
          "name": "",
          "type": "tuple"
        }
      ],
      "stateMutability": "view",
      "type": "function"
    },
    {
      "inputs": [
        {
          "internalType": "address",
          "name": "assistantAddress",
          "type": "address"
        }
      ],
      "name": "getAssistantInfo",
      "outputs": [
        {
          "components": [
            {
              "internalType": "address",
              "name": "assistantAddress",
              "type": "address"
            },
            {
              "internalType": "address",
              "name": "bridgeAddress",
              "type": "address"
            },
            {
              "internalType": "enum BridgeRegistry.AssistantType",
              "name": "assistantType",
              "type": "uint8"
            },
            {
              "internalType": "bool",
              "name": "isActive",
              "type": "bool"
            },
            {
              "internalType": "uint256",
              "name": "createdAt",
              "type": "uint256"
            },
            {
              "internalType": "string",
              "name": "metadata",
              "type": "string"
            }
          ],
          "internalType": "struct BridgeRegistry.AssistantInfo",
          "name": "",
          "type": "tuple"
        }
      ],
      "stateMutability": "view",
      "type": "function"
    },
    {
      "inputs": [
        {
          "internalType": "address",
          "name": "bridgeAddress",
          "type": "address"
        }
      ],
      "name": "deactivateBridge",
      "outputs": [],
      "stateMutability": "nonpayable",
      "type": "function"
    },
    {
      "inputs": [
        {
          "internalType": "address",
          "name": "bridgeAddress",
          "type": "address"
        }
      ],
      "name": "reactivateBridge",
      "outputs": [],
      "stateMutability": "nonpayable",
      "type": "function"
    },
    {
      "inputs": [
        {
          "internalType": "address",
          "name": "assistantAddress",
          "type": "address"
        }
      ],
      "name": "deactivateAssistant",
      "outputs": [],
      "stateMutability": "nonpayable",
      "type": "function"
    },
    {
      "inputs": [
        {
          "internalType": "address",
          "name": "assistantAddress",
          "type": "address"
        }
      ],
      "name": "reactivateAssistant",
      "outputs": [],
      "stateMutability": "nonpayable",
      "type": "function"
    },
    {
      "inputs": [
        {
          "internalType": "address",
          "name": "_counterstakeFactory",
          "type": "address"
        },
        {
          "internalType": "address",
          "name": "_assistantFactory",
          "type": "address"
        }
      ],
      "name": "updateFactories",
      "outputs": [],
      "stateMutability": "nonpayable",
      "type": "function"
    },
    {
      "inputs": [
        {
          "internalType": "address",
          "name": "bridgeAddress",
          "type": "address"
        },
        {
          "internalType": "string",
          "name": "metadata",
          "type": "string"
        }
      ],
      "name": "updateBridgeMetadata",
      "outputs": [],
      "stateMutability": "nonpayable",
      "type": "function"
    },
    {
      "inputs": [
        {
          "internalType": "address",
          "name": "assistantAddress",
          "type": "address"
        },
        {
          "internalType": "string",
          "name": "metadata",
          "type": "string"
        }
      ],
      "name": "updateAssistantMetadata",
      "outputs": [],
      "stateMutability": "nonpayable",
      "type": "function"
    }
  ],
  "bytecode": "0x6080346200007657601f6200226c38819003918201601f19168301916001600160401b038311848410176200007b5780849260409485528339810103126200007657806200005f602062000057620000669462000091565b920162000091565b90620000a6565b60405161215d90816200010f8239f35b600080fd5b634e487b7160e01b600052604160045260246000fd5b51906001600160a01b03821682036200007657565b600080546001600160a01b031980821633908117845560405191956001600160a01b0395909486949193918516917f8be0079c531659141344cd1fd0a4f28419497f9722a3daafe3b4186f6b6457e09190a3168360065416176006551690600754161760075556fe60806040526004361015610013575b600080fd5b60003560e01c806314bafd181461026b5780631c163683146102625780632f963ae514610259578063321b9645146102505780634419cef014610247578063466a32dc1461023e5780634abd3eb5146102355780634cbab0871461022c5780635946436914610223578063651455341461021a578063715018a61461021157806372cbdcc8146102085780637324be19146101ff578063765c7731146101f65780637c790cab146101ed5780638da5cb5b146101e457806394e43a53146101db578063a1e09f9d146101d2578063aaac4475146101c9578063b96dc33d146101c0578063bfb4670e146101b7578063c0e65565146101ae578063c3d94454146101a5578063c734f3b71461019c578063ced67f0c14610193578063d7553ade1461018a578063f2fde38b14610181578063f38f40c714610178578063f497b0961461016f5763ff691b131461016757600080fd5b61000e611742565b5061000e611718565b5061000e61168b565b5061000e6115d4565b5061000e61153c565b5061000e6114b0565b5061000e6113b7565b5061000e611348565b5061000e611237565b5061000e61114c565b5061000e611052565b5061000e610fbf565b5061000e610ed0565b5061000e610e54565b5061000e610e2a565b5061000e610da5565b5061000e610cf6565b5061000e610c92565b5061000e610c17565b5061000e610bca565b5061000e610bab565b5061000e610b20565b5061000e610920565b5061000e61088a565b5061000e6107bb565b5061000e610650565b5061000e6104c6565b5061000e61035a565b5061000e610330565b5061000e6102a0565b600435906001600160a01b038216820361000e57565b602435906001600160a01b038216820361000e57565b503461000e57602036600319011261000e576102ba610274565b6102c26117cc565b6001600160a01b0390811660008181526001602052604081205490926102ea91161515611f2c565b80825260016020526040808320805460ff60a81b1916600160a81b17905551907f5d89166f5d3f42e1d29751ed9dbd2bb3fe035a7306bd2ea4b850099776d5fcbe8383a2f35b503461000e57600036600319011261000e576007546040516001600160a01b039091168152602090f35b503461000e57604036600319011261000e57610374610274565b606061037e61028a565b916103876117cc565b60018060a01b038091169060018060a01b031993828560065416176006551680936007541617600755604051602081526013602082015272436f756e7465727374616b65466163746f727960681b60408201527f7f5012b5c5d49d6d458ba58ee1ce42594495bae37ddfbde62612f63b54ef69af928391a2604051806104328160609060208152601060208201526f417373697374616e74466163746f727960801b60408201520190565b0390a2005b50634e487b7160e01b600052603260045260246000fd5b60045481101561046a575b600460005260206000200190600090565b610472610437565b610459565b600354811015610493575b600360005260206000200190600090565b61049b610437565b610482565b80548210156104b9575b60005260206000200190600090565b6104c1610437565b6104aa565b503461000e57602036600319011261000e5760043560045481101561000e5760046000526000805160206120e883398151915201546040516001600160a01b039091168152602090f35b50634e487b7160e01b600052604160045260246000fd5b60c081019081106001600160401b0382111761054257604052565b61054a610510565b604052565b60a081019081106001600160401b0382111761054257604052565b601f909101601f19168101906001600160401b0382119082101761054257604052565b6040519061059a82610527565b565b6040519061059a8261054f565b6020906001600160401b0381116105c6575b601f01601f19160190565b6105ce610510565b6105bb565b90604060031983011261000e576004356001600160a01b038116810361000e57916024356001600160401b03811161000e578160238201121561000e5780600401359061061f826105a9565b9261062d604051948561056a565b8284526024838301011161000e5781600092602460209301838601378301015290565b503461000e5761065f366105d3565b906106686117cc565b60018060a01b038091166000928184526001916106916020948486526040872054161515611f2c565b8452818352600260408520019281519160018060401b03831161076a575b6106c3836106bd87546113d6565b876119d8565b81601f84116001146106fe575092829391839287946106f3575b50501b916000199060031b1c1916179055604051f35b0151925038806106dd565b919083601f19811661071588600052602060002090565b9489905b888383106107505750505010610737575b505050811b019055604051f35b015160001960f88460031b161c1916905538808061072a565b858701518855909601959485019487935090810190610719565b610772610510565b6106af565b6020908160408183019282815285518094520193019160005b82811061079e575050505090565b83516001600160a01b031685529381019392810192600101610790565b503461000e57600080600319360112610887576004908154916107dd83611eb3565b918091815b8581106107fe57838552604051806107fa8782610777565b0390f35b8183526020832081015461082c90600190610821906001600160a01b0316610cdc565b015460a81c60ff1690565b61083f575b61083a90611ee5565b6107e2565b9261087f61083a9161087a61086b6108568861044e565b905460039190911b1c6001600160a01b031690565b610875838a611f0a565b611964565b611ee5565b939050610831565b80fd5b503461000e57600080600319360112610887576003908154916108ac83611eb3565b918091815b8581106108c957838552604051806107fa8782610777565b81835260208084208201546001600160a01b0316845260019052604083205460a81c60ff16610901575b6108fc90611ee5565b6108b1565b926109186108fc9161087a61086b61085688610477565b9390506108f3565b503461000e57604036600319011261000e5761093a610274565b61094261028a565b9060008051602061208883398151915260018060a01b03806006541633148015610a41575b61097090611843565b610a2b81841693610982851515611cb1565b6109b36109ad6109a161099484610cdc565b546001600160a01b031690565b6001600160a01b031690565b15611d0f565b610a056109be61058d565b6109c88382611964565b6109d58860208301611964565b60006040820152600160608201525b4260808201526109f2611973565b60a0820152610a0083610cdc565b611d70565b610a0e81611b5a565b6001600160a01b0386166000908152600560205260409020611c36565b60405193169280610a3c4282611c84565b0390a3005b5060075481163314610967565b60021115610a5857565b634e487b7160e01b600052602160045260246000fd5b91908251928382526000905b848210610aa7575092806020939411610a9a575b601f01601f1916010190565b6000838284010152610a8e565b90602090818082850101519082860101520190610a7a565b60e060a0610b1d9360208452600180831b0380825116602086015260208201511660408501526040810151610af381610a4e565b606085015260608101511515608085015260808101518285015201519160c0808201520190610a6e565b90565b503461000e57602036600319011261000e576107fa610b9f6040610b42610274565b815190610b4e82610527565b606060a0600093848152846020820152848682015284838201528460808201520152610b9260018060a01b0380921691828452600260205284842054161515611fd0565b8152600260205220612028565b60405191829182610abf565b503461000e57600036600319011261000e576020600354604051908152f35b503461000e5760008060031936011261088757610be56117cc565b80546001600160a01b0319811682556040519082906001600160a01b03166000805160206120c88339815191528284a3f35b503461000e5760008060031936011261088757604051600380548083529083526020808301936000805160206120a883398151915292915b828210610c72576107fa85610c668189038261056a565b60405191829182610777565b83546001600160a01b031686529485019460019384019390910190610c4f565b503461000e57602036600319011261000e5760043560035481101561000e5760036000526000805160206120a883398151915201546040516001600160a01b039091168152602090f35b6001600160a01b0316600090815260026020526040902090565b503461000e57604036600319011261000e57610d10610274565b6024359060018060a01b0380911660005260056020526040600020805483101561000e57602092610d40916104a0565b9190546040519260031b1c168152f35b602080825282516001600160a01b031682820152820151610b1d9260c09160809190610d7b81610a4e565b604085015260408101511515606085015260608101518285015201519160a0808201520190610a6e565b503461000e57602036600319011261000e576107fa610e1e6040610dc7610274565b815190610dd38261054f565b60606080600093848152846020820152848682015284838201520152610e1160018060a01b0380921691828452600160205284842054161515611f2c565b8152600160205220611f77565b60405191829182610d50565b503461000e57600036600319011261000e576000546040516001600160a01b039091168152602090f35b503461000e5760208060031936011261000e576001600160a01b0380610e78610274565b1660005260058252604060002091604051809282855492838152019460005282600020926000915b838310610eb7576107fa86610c66818a038261056a565b8454811687529581019560019485019490920191610ea0565b503461000e57604036600319011261000e57610eea610274565b610ef261028a565b9060008051602061208883398151915260018060a01b03806006541633148015610fb2575b610f2090611843565b610f7981841693610f32851515611cb1565b610f446109ad6109a161099484610cdc565b610a05610f4f61058d565b610f598382611964565b610f668860208301611964565b60016040820152600160608201526109e4565b60405193169280610a3c42829190608083526000608084015260a06020840152600060a0840152606060c0840193600160408201520152565b5060075481163314610f17565b503461000e57602036600319011261000e57610fd9610274565b610fe16117cc565b6001600160a01b03908116600081815260026020526040812054909261100991161515611fd0565b80825260026020526040808320600101805460ff60a81b1916600160a81b17905551907f515272e6b57ae50df28a2280b172fb708599f1f7b8e1d67f7a6e3bcdfdb3dbeb8383a2f35b503461000e57602036600319011261000e5761106c610274565b600654611122906001600160a01b039081163314801561113f575b61109090611843565b82169161109e8315156118ab565b6000838152600160205260409020546110c9906110c3906001600160a01b03166109a1565b15611906565b61111d6110d461059c565b6110de8382611964565b60006020820152600160408201525b4260608201526110fb611973565b60808201526001600160a01b0383166000908152600160205260409020611a2c565b611bc8565b600080516020612108833981519152604051806104324282611c84565b5060075481163314611087565b503461000e57602036600319011261000e57611166610274565b6006546111e5906001600160a01b039081163314801561122a575b61118a90611843565b8216916111988315156118ab565b6000838152600160205260409020546111bd906110c3906001600160a01b03166109a1565b61111d6111c861059c565b6111d28382611964565b60016020820152600160408201526110ed565b6000805160206121088339815191526040518061043242829190608083526000608084015260a06020840152600060a0840152606060c0840193600160408201520152565b5060075481163314611181565b503461000e57611246366105d3565b9061124f6117cc565b60018060a01b0380911690600091808352611277602092600284526040852054161515611fd0565b8252600281526040822083516003909101916001600160401b03821161133b575b6112ac826112a685546113d6565b856119d8565b80601f83116001146112e857508394829394926112dd575b50508160011b916000199060031b1c1916179055604051f35b0151905038806112c4565b90601f198316956112fe85600052602060002090565b9286905b8882106113235750508360019596971061073757505050811b019055604051f35b80600185968294968601518155019501930190611302565b611343610510565b611298565b503461000e5760008060031936011261088757604051600480548083529083526020808301936000805160206120e883398151915292915b828210611397576107fa85610c668189038261056a565b83546001600160a01b031686529485019460019384019390910190611380565b503461000e57600036600319011261000e576020600454604051908152f35b90600182811c92168015611406575b60208310146113f057565b634e487b7160e01b600052602260045260246000fd5b91607f16916113e5565b9060405191826000825492611424846113d6565b908184526001948581169081600014611491575060011461144e575b505061059a9250038361056a565b9093915060005260209081600020936000915b81831061147957505061059a93508201013880611440565b85548884018501529485019487945091830191611461565b9550505050505060ff1916602083015261059a82604081013880611440565b503461000e57602036600319011261000e576001600160a01b03806114d3610274565b1660005260016020526040600020906107fa825460ff8160a01c169360ff611502600260018401549301611410565b926040519687968216875261151681610a4e565b602087015260a81c1615156040850152606084015260a0608084015260a0830190610a6e565b503461000e57602036600319011261000e576001600160a01b038061155f610274565b16600052600260205260406000206107fa828254169160018101549060ff808360a01c1692611595600360028501549401611410565b936040519788978852821660208801526115ae81610a4e565b604087015260a81c1615156060850152608084015260c060a084015260c0830190610a6e565b503461000e57602036600319011261000e576115ee610274565b6115f66117cc565b6001600160a01b0390811690811561163757600080546001600160a01b031981168417825560405191939192166000805160206120c88339815191528484a3f35b60405162461bcd60e51b815260206004820152602660248201527f4f776e61626c653a206e6577206f776e657220697320746865207a65726f206160448201526564647265737360d01b6064820152608490fd5b503461000e57602036600319011261000e576116a5610274565b6116ad6117cc565b6001600160a01b0390811660008181526002602052604081205490926116d591161515611fd0565b80825260026020526040808320600101805460ff60a81b1916905551907f86225e61189184b3ad3dc792d8154f28e8cc030ff18334c6d464adc78f3b60c58383a2f35b503461000e57600036600319011261000e576006546040516001600160a01b039091168152602090f35b503461000e57602036600319011261000e5761175c610274565b6117646117cc565b6001600160a01b03908116600081815260016020526040812054909261178c91161515611f2c565b80825260016020526040808320805460ff60a81b1916905551907ffc12b3bee8bca3154b57a7e2a6b542adafbb62cf635c2dcb6eaf9cf4c6bea0e28383a2f35b6000546001600160a01b031633036117e057565b606460405162461bcd60e51b815260206004820152602060248201527f4f776e61626c653a2063616c6c6572206973206e6f7420746865206f776e65726044820152fd5b80546001600160a01b0319166001600160a01b03909216919091179055565b1561184a57565b60405162461bcd60e51b815260206004820152603360248201527f42726964676552656769737472793a204f6e6c7920666163746f72792063616e6044820152721031b0b636103a3434b990333ab731ba34b7b760691b6064820152608490fd5b156118b257565b60405162461bcd60e51b815260206004820152602660248201527f42726964676552656769737472793a20496e76616c696420627269646765206160448201526564647265737360d01b6064820152608490fd5b1561190d57565b60405162461bcd60e51b815260206004820152602960248201527f42726964676552656769737472793a2042726964676520616c726561647920726044820152681959da5cdd195c995960ba1b6064820152608490fd5b6001600160a01b039091169052565b60405190602082016001600160401b03811183821017611997575b60405260008252565b61199f610510565b61198e565b60ff60a01b191660a09190911b60ff60a01b161790565b805460ff60a81b191691151560a81b60ff60a81b16919091179055565b90601f81116119e657505050565b600091825260208220906020601f850160051c83019410611a22575b601f0160051c01915b828110611a1757505050565b818155600101611a0b565b9092508290611a02565b8151611a41906001600160a01b031682611824565b6020611a6381840151611a5381610a4e565b611a5c81610a4e565b83546119a4565b8255611a7560408401511515836119bb565b6080600260608501519360019485820155019301519081519160018060401b038311611b4d575b611aaa836106bd87546113d6565b81601f8411600114611ae35750928293918392600094611ad8575b50501b916000199060031b1c1916179055565b015192503880611ac5565b919083601f198116611afa88600052602060002090565b946000905b88838310611b335750505010611b1a575b505050811b019055565b015160001960f88460031b161c19169055388080611b10565b858701518855909601959485019487935090810190611aff565b611b55610510565b611a9c565b600454600160401b811015611bbb575b6001810180600455811015611bae575b60046000526000805160206120e88339815191520180546001600160a01b0319166001600160a01b03909216919091179055565b611bb6610437565b611b7a565b611bc3610510565b611b6a565b600354600160401b811015611c29575b6001810180600355811015611c1c575b60036000526000805160206120a88339815191520180546001600160a01b0319166001600160a01b03909216919091179055565b611c24610437565b611be8565b611c31610510565b611bd8565b8054611c5491600160401b821015611c77575b6001820181556104a0565b819291549060031b9160018060a01b039283811b93849216901b16911916179055565b611c7f610510565b611c49565b9190608083526000608084015260a06020840152600060a0840152606060c0840193600060408201520152565b15611cb857565b60405162461bcd60e51b815260206004820152602960248201527f42726964676552656769737472793a20496e76616c696420617373697374616e60448201526874206164647265737360b81b6064820152608490fd5b15611d1657565b60405162461bcd60e51b815260206004820152602c60248201527f42726964676552656769737472793a20417373697374616e7420616c7265616460448201526b1e481c9959da5cdd195c995960a21b6064820152608490fd5b81516001600160a01b0390611d8790821683611824565b60a06003600193611dd5858201611da5602096878a01511682611824565b611dc66040890151611db681610a4e565b611dbf81610a4e565b82546119a4565b815560608801511515906119bb565b60808601516002820155019301519081519160018060401b038311611e80575b611e03836106bd87546113d6565b81601f8411600114611e305750928293918392600094611ad85750501b916000199060031b1c1916179055565b919083601f198116611e4788600052602060002090565b946000905b88838310611e665750505010611b1a57505050811b019055565b858701518855909601959485019487935090810190611e4c565b611e88610510565b611df5565b6020906001600160401b038111611ea6575b60051b0190565b611eae610510565b611e9f565b90611ebd82611e8d565b611eca604051918261056a565b8281528092611edb601f1991611e8d565b0190602036910137565b6000198114611ef45760010190565b634e487b7160e01b600052601160045260246000fd5b6020918151811015611f1f575b60051b010190565b611f27610437565b611f17565b15611f3357565b606460405162461bcd60e51b815260206004820152602060248201527f42726964676552656769737472793a20427269646765206e6f7420666f756e646044820152fd5b90604051611f848161054f565b6080611fcb6002839560ff815460018060a01b0381168752818160a01c16611fab81610a4e565b602088015260a81c16151560408601526001810154606086015201611410565b910152565b15611fd757565b60405162461bcd60e51b815260206004820152602360248201527f42726964676552656769737472793a20417373697374616e74206e6f7420666f6044820152621d5b9960ea1b6064820152608490fd5b9060405161203581610527565b60a0611fcb6003839560ff600180861b03808354168752600183015490811660208801528181871c1661206781610a4e565b604088015260a81c1615156060860152600281015460808601520161141056fe615e09c8ce49d22739c4846458270d604419ca376c6fdb139d03f2d738f7ea73c2575a0e9e593c00f959f8c92f12db2869c3395a3b0502d05e2516446f71f85b8be0079c531659141344cd1fd0a4f28419497f9722a3daafe3b4186f6b6457e08a35acfbc15ff81a39ae7d344fd709f28e8600b4aa8c65c6b64bfe7fe36bd19b8074e88a000e2d953b7ec9a68e1c8d5b90c86fa7eb99492191fe744f782205d0a26469706673582212203da62fc2c9f85263a3fd476f98dc2571629bfa039e3b4a1f1a613491dae863ec64736f6c634300080d0033",
  "immutableReferences": {},
  "source": "// SPDX-License-Identifier: MIT\npragma solidity ^0.8.3;\n\nimport \"@openzeppelin/contracts/access/Ownable.sol\";\nimport \"./CounterstakeFactory.sol\";\nimport \"./AssistantFactory.sol\";\n\n/**\n * @title BridgeRegistry\n * @dev Registry contract to track all bridges and assistants created by factories\n * Provides easy querying and management of bridge instances\n */\ncontract BridgeRegistry is Ownable {\n    \n    // Bridge information structure - Minimal data to avoid duplication\n    struct BridgeInfo {\n        address bridgeAddress;\n        BridgeType bridgeType;\n        bool isActive;\n        uint256 createdAt;\n        string metadata; // JSON string for additional data\n    }\n    \n    // Assistant information structure - Minimal data to avoid duplication\n    struct AssistantInfo {\n        address assistantAddress;\n        address bridgeAddress;\n        AssistantType assistantType;\n        bool isActive;\n        uint256 createdAt;\n        string metadata; // JSON string for additional data\n    }\n    \n    enum BridgeType { Export, ImportWrapper }\n    enum AssistantType { ExportAssistant, ImportWrapperAssistant }\n    \n    // Mappings to track bridges and assistants\n    mapping(address => BridgeInfo) public bridges;\n    mapping(address => AssistantInfo) public assistants;\n    \n    // Arrays to maintain order and enable enumeration\n    address[] public allBridges;\n    address[] public allAssistants;\n    \n    // Mappings for quick lookups\n    mapping(address => address[]) public assistantsByBridge;\n    \n    // Factory addresses\n    address public counterstakeFactory;\n    address public assistantFactory;\n    \n    // Events\n    event BridgeRegistered(\n        address indexed bridgeAddress,\n        string network,\n        string asset,\n        BridgeType bridgeType,\n        uint256 timestamp\n    );\n    \n    event AssistantRegistered(\n        address indexed assistantAddress,\n        address indexed bridgeAddress,\n        string name,\n        string symbol,\n        AssistantType assistantType,\n        uint256 timestamp\n    );\n    \n    event BridgeDeactivated(address indexed bridgeAddress);\n    event AssistantDeactivated(address indexed assistantAddress);\n    event BridgeReactivated(address indexed bridgeAddress);\n    event AssistantReactivated(address indexed assistantAddress);\n    \n    event FactoryUpdated(address indexed factoryAddress, string factoryType);\n    \n    modifier onlyFactory() {\n        require(\n            msg.sender == counterstakeFactory || msg.sender == assistantFactory,\n            \"BridgeRegistry: Only factory can call this function\"\n        );\n        _;\n    }\n    \n    constructor(address _counterstakeFactory, address _assistantFactory) {\n        counterstakeFactory = _counterstakeFactory;\n        assistantFactory = _assistantFactory;\n    }\n    \n    /**\n     * @dev Register a new Export bridge\n     * @param bridgeAddress The address of the created bridge\n     */\n    function registerExportBridge(\n        address bridgeAddress\n    ) external onlyFactory {\n        require(bridgeAddress != address(0), \"BridgeRegistry: Invalid bridge address\");\n        require(bridges[bridgeAddress].bridgeAddress == address(0), \"BridgeRegistry: Bridge already registered\");\n        \n        BridgeInfo memory newBridge = BridgeInfo({\n            bridgeAddress: bridgeAddress,\n            bridgeType: BridgeType.Export,\n            isActive: true,\n            createdAt: block.timestamp,\n            metadata: \"\"\n        });\n        \n        bridges[bridgeAddress] = newBridge;\n        allBridges.push(bridgeAddress);\n        \n        emit BridgeRegistered(bridgeAddress, \"\", \"\", BridgeType.Export, block.timestamp);\n    }\n    \n    /**\n     * @dev Register a new ImportWrapper bridge\n     * @param bridgeAddress The address of the created bridge\n     */\n    function registerImportWrapperBridge(\n        address bridgeAddress\n    ) external onlyFactory {\n        require(bridgeAddress != address(0), \"BridgeRegistry: Invalid bridge address\");\n        require(bridges[bridgeAddress].bridgeAddress == address(0), \"BridgeRegistry: Bridge already registered\");\n        \n        BridgeInfo memory newBridge = BridgeInfo({\n            bridgeAddress: bridgeAddress,\n            bridgeType: BridgeType.ImportWrapper,\n            isActive: true,\n            createdAt: block.timestamp,\n            metadata: \"\"\n        });\n        \n        bridges[bridgeAddress] = newBridge;\n        allBridges.push(bridgeAddress);\n        \n        emit BridgeRegistered(bridgeAddress, \"\", \"\", BridgeType.ImportWrapper, block.timestamp);\n    }\n    \n    /**\n     * @dev Register a new ExportAssistant\n     * @param assistantAddress The address of the created assistant\n     * @param bridgeAddress The bridge address this assistant manages\n     */\n    function registerExportAssistant(\n        address assistantAddress,\n        address bridgeAddress\n    ) external onlyFactory {\n        require(assistantAddress != address(0), \"BridgeRegistry: Invalid assistant address\");\n        require(assistants[assistantAddress].assistantAddress == address(0), \"BridgeRegistry: Assistant already registered\");\n        \n        AssistantInfo memory newAssistant = AssistantInfo({\n            assistantAddress: assistantAddress,\n            bridgeAddress: bridgeAddress,\n            assistantType: AssistantType.ExportAssistant,\n            isActive: true,\n            createdAt: block.timestamp,\n            metadata: \"\"\n        });\n        \n        assistants[assistantAddress] = newAssistant;\n        allAssistants.push(assistantAddress);\n        assistantsByBridge[bridgeAddress].push(assistantAddress);\n        \n        emit AssistantRegistered(assistantAddress, bridgeAddress, \"\", \"\", AssistantType.ExportAssistant, block.timestamp);\n    }\n    \n    /**\n     * @dev Register a new ImportWrapperAssistant\n     * @param assistantAddress The address of the created assistant\n     * @param bridgeAddress The bridge address this assistant manages\n     */\n    function registerImportWrapperAssistant(\n        address assistantAddress,\n        address bridgeAddress\n    ) external onlyFactory {\n        require(assistantAddress != address(0), \"BridgeRegistry: Invalid assistant address\");\n        require(assistants[assistantAddress].assistantAddress == address(0), \"BridgeRegistry: Assistant already registered\");\n        \n        AssistantInfo memory newAssistant = AssistantInfo({\n            assistantAddress: assistantAddress,\n            bridgeAddress: bridgeAddress,\n            assistantType: AssistantType.ImportWrapperAssistant,\n            isActive: true,\n            createdAt: block.timestamp,\n            metadata: \"\"\n        });\n        \n        assistants[assistantAddress] = newAssistant;\n        allAssistants.push(assistantAddress);\n        assistantsByBridge[bridgeAddress].push(assistantAddress);\n        \n        emit AssistantRegistered(assistantAddress, bridgeAddress, \"\", \"\", AssistantType.ImportWrapperAssistant, block.timestamp);\n    }\n    \n    // Query functions\n    \n    /**\n     * @dev Get all bridges\n     * @return Array of bridge addresses\n     */\n    function getAllBridges() external view returns (address[] memory) {\n        return allBridges;\n    }\n    \n    /**\n     * @dev Get all assistants\n     * @return Array of assistant addresses\n     */\n    function getAllAssistants() external view returns (address[] memory) {\n        return allAssistants;\n    }\n    \n\n    \n    /**\n     * @dev Get assistants by bridge\n     * @param bridgeAddress The bridge address\n     * @return Array of assistant addresses for the bridge\n     */\n    function getAssistantsByBridge(address bridgeAddress) external view returns (address[] memory) {\n        return assistantsByBridge[bridgeAddress];\n    }\n    \n\n    \n    /**\n     * @dev Get active bridges\n     * @return Array of active bridge addresses\n     */\n    function getActiveBridges() external view returns (address[] memory) {\n        address[] memory activeBridges = new address[](allBridges.length);\n        uint256 activeCount = 0;\n        \n        for (uint256 i = 0; i < allBridges.length; i++) {\n            if (bridges[allBridges[i]].isActive) {\n                activeBridges[activeCount] = allBridges[i];\n                activeCount++;\n            }\n        }\n        \n        // Resize array to actual count\n        assembly {\n            mstore(activeBridges, activeCount)\n        }\n        \n        return activeBridges;\n    }\n    \n    /**\n     * @dev Get active assistants\n     * @return Array of active assistant addresses\n     */\n    function getActiveAssistants() external view returns (address[] memory) {\n        address[] memory activeAssistants = new address[](allAssistants.length);\n        uint256 activeCount = 0;\n        \n        for (uint256 i = 0; i < allAssistants.length; i++) {\n            if (assistants[allAssistants[i]].isActive) {\n                activeAssistants[activeCount] = allAssistants[i];\n                activeCount++;\n            }\n        }\n        \n        // Resize array to actual count\n        assembly {\n            mstore(activeAssistants, activeCount)\n        }\n        \n        return activeAssistants;\n    }\n    \n    /**\n     * @dev Get bridge count\n     * @return Total number of bridges\n     */\n    function getBridgeCount() external view returns (uint256) {\n        return allBridges.length;\n    }\n    \n    /**\n     * @dev Get assistant count\n     * @return Total number of assistants\n     */\n    function getAssistantCount() external view returns (uint256) {\n        return allAssistants.length;\n    }\n    \n    /**\n     * @dev Get bridge info by address\n     * @param bridgeAddress The bridge address\n     * @return BridgeInfo struct\n     */\n    function getBridgeInfo(address bridgeAddress) external view returns (BridgeInfo memory) {\n        require(bridges[bridgeAddress].bridgeAddress != address(0), \"BridgeRegistry: Bridge not found\");\n        return bridges[bridgeAddress];\n    }\n    \n    /**\n     * @dev Get assistant info by address\n     * @param assistantAddress The assistant address\n     * @return AssistantInfo struct\n     */\n    function getAssistantInfo(address assistantAddress) external view returns (AssistantInfo memory) {\n        require(assistants[assistantAddress].assistantAddress != address(0), \"BridgeRegistry: Assistant not found\");\n        return assistants[assistantAddress];\n    }\n    \n    // Admin functions\n    \n    /**\n     * @dev Deactivate a bridge (only owner)\n     * @param bridgeAddress The bridge address to deactivate\n     */\n    function deactivateBridge(address bridgeAddress) external onlyOwner {\n        require(bridges[bridgeAddress].bridgeAddress != address(0), \"BridgeRegistry: Bridge not found\");\n        bridges[bridgeAddress].isActive = false;\n        emit BridgeDeactivated(bridgeAddress);\n    }\n    \n    /**\n     * @dev Reactivate a bridge (only owner)\n     * @param bridgeAddress The bridge address to reactivate\n     */\n    function reactivateBridge(address bridgeAddress) external onlyOwner {\n        require(bridges[bridgeAddress].bridgeAddress != address(0), \"BridgeRegistry: Bridge not found\");\n        bridges[bridgeAddress].isActive = true;\n        emit BridgeReactivated(bridgeAddress);\n    }\n    \n    /**\n     * @dev Deactivate an assistant (only owner)\n     * @param assistantAddress The assistant address to deactivate\n     */\n    function deactivateAssistant(address assistantAddress) external onlyOwner {\n        require(assistants[assistantAddress].assistantAddress != address(0), \"BridgeRegistry: Assistant not found\");\n        assistants[assistantAddress].isActive = false;\n        emit AssistantDeactivated(assistantAddress);\n    }\n    \n    /**\n     * @dev Reactivate an assistant (only owner)\n     * @param assistantAddress The assistant address to reactivate\n     */\n    function reactivateAssistant(address assistantAddress) external onlyOwner {\n        require(assistants[assistantAddress].assistantAddress != address(0), \"BridgeRegistry: Assistant not found\");\n        assistants[assistantAddress].isActive = true;\n        emit AssistantReactivated(assistantAddress);\n    }\n    \n    /**\n     * @dev Update factory addresses (only owner)\n     * @param _counterstakeFactory New counterstake factory address\n     * @param _assistantFactory New assistant factory address\n     */\n    function updateFactories(address _counterstakeFactory, address _assistantFactory) external onlyOwner {\n        counterstakeFactory = _counterstakeFactory;\n        assistantFactory = _assistantFactory;\n        \n        emit FactoryUpdated(_counterstakeFactory, \"CounterstakeFactory\");\n        emit FactoryUpdated(_assistantFactory, \"AssistantFactory\");\n    }\n    \n    /**\n     * @dev Update bridge metadata (only owner)\n     * @param bridgeAddress The bridge address\n     * @param metadata The new metadata JSON string\n     */\n    function updateBridgeMetadata(address bridgeAddress, string memory metadata) external onlyOwner {\n        require(bridges[bridgeAddress].bridgeAddress != address(0), \"BridgeRegistry: Bridge not found\");\n        bridges[bridgeAddress].metadata = metadata;\n    }\n    \n    /**\n     * @dev Update assistant metadata (only owner)\n     * @param assistantAddress The assistant address\n     * @param metadata The new metadata JSON string\n     */\n    function updateAssistantMetadata(address assistantAddress, string memory metadata) external onlyOwner {\n        require(assistants[assistantAddress].assistantAddress != address(0), \"BridgeRegistry: Assistant not found\");\n        assistants[assistantAddress].metadata = metadata;\n    }\n}\n",
  "sourcePath": "/Users/jm/3DP-bridge/counterstake-bridge/evm/contracts/BridgeRegistry.sol",
  "compiler": {
    "name": "solc",
    "version": "0.8.13+commit.abaa5c0e.Emscripten.clang"
  },
  "schemaVersion": "3.4.16",
  "updatedAt": "2025-08-11T14:58:43.603Z",
  "devdoc": {
    "details": "Registry contract to track all bridges and assistants created by factories Provides easy querying and management of bridge instances",
    "kind": "dev",
    "methods": {
      "deactivateAssistant(address)": {
        "details": "Deactivate an assistant (only owner)",
        "params": {
          "assistantAddress": "The assistant address to deactivate"
        }
      },
      "deactivateBridge(address)": {
        "details": "Deactivate a bridge (only owner)",
        "params": {
          "bridgeAddress": "The bridge address to deactivate"
        }
      },
      "getActiveAssistants()": {
        "details": "Get active assistants",
        "returns": {
          "_0": "Array of active assistant addresses"
        }
      },
      "getActiveBridges()": {
        "details": "Get active bridges",
        "returns": {
          "_0": "Array of active bridge addresses"
        }
      },
      "getAllAssistants()": {
        "details": "Get all assistants",
        "returns": {
          "_0": "Array of assistant addresses"
        }
      },
      "getAllBridges()": {
        "details": "Get all bridges",
        "returns": {
          "_0": "Array of bridge addresses"
        }
      },
      "getAssistantCount()": {
        "details": "Get assistant count",
        "returns": {
          "_0": "Total number of assistants"
        }
      },
      "getAssistantInfo(address)": {
        "details": "Get assistant info by address",
        "params": {
          "assistantAddress": "The assistant address"
        },
        "returns": {
          "_0": "AssistantInfo struct"
        }
      },
      "getAssistantsByBridge(address)": {
        "details": "Get assistants by bridge",
        "params": {
          "bridgeAddress": "The bridge address"
        },
        "returns": {
          "_0": "Array of assistant addresses for the bridge"
        }
      },
      "getBridgeCount()": {
        "details": "Get bridge count",
        "returns": {
          "_0": "Total number of bridges"
        }
      },
      "getBridgeInfo(address)": {
        "details": "Get bridge info by address",
        "params": {
          "bridgeAddress": "The bridge address"
        },
        "returns": {
          "_0": "BridgeInfo struct"
        }
      },
      "owner()": {
        "details": "Returns the address of the current owner."
      },
      "reactivateAssistant(address)": {
        "details": "Reactivate an assistant (only owner)",
        "params": {
          "assistantAddress": "The assistant address to reactivate"
        }
      },
      "reactivateBridge(address)": {
        "details": "Reactivate a bridge (only owner)",
        "params": {
          "bridgeAddress": "The bridge address to reactivate"
        }
      },
      "registerExportAssistant(address,address)": {
        "details": "Register a new ExportAssistant",
        "params": {
          "assistantAddress": "The address of the created assistant",
          "bridgeAddress": "The bridge address this assistant manages"
        }
      },
      "registerExportBridge(address)": {
        "details": "Register a new Export bridge",
        "params": {
          "bridgeAddress": "The address of the created bridge"
        }
      },
      "registerImportWrapperAssistant(address,address)": {
        "details": "Register a new ImportWrapperAssistant",
        "params": {
          "assistantAddress": "The address of the created assistant",
          "bridgeAddress": "The bridge address this assistant manages"
        }
      },
      "registerImportWrapperBridge(address)": {
        "details": "Register a new ImportWrapper bridge",
        "params": {
          "bridgeAddress": "The address of the created bridge"
        }
      },
      "renounceOwnership()": {
        "details": "Leaves the contract without owner. It will not be possible to call `onlyOwner` functions. Can only be called by the current owner. NOTE: Renouncing ownership will leave the contract without an owner, thereby disabling any functionality that is only available to the owner."
      },
      "transferOwnership(address)": {
        "details": "Transfers ownership of the contract to a new account (`newOwner`). Can only be called by the current owner."
      },
      "updateAssistantMetadata(address,string)": {
        "details": "Update assistant metadata (only owner)",
        "params": {
          "assistantAddress": "The assistant address",
          "metadata": "The new metadata JSON string"
        }
      },
      "updateBridgeMetadata(address,string)": {
        "details": "Update bridge metadata (only owner)",
        "params": {
          "bridgeAddress": "The bridge address",
          "metadata": "The new metadata JSON string"
        }
      },
      "updateFactories(address,address)": {
        "details": "Update factory addresses (only owner)",
        "params": {
          "_assistantFactory": "New assistant factory address",
          "_counterstakeFactory": "New counterstake factory address"
        }
      }
    },
    "title": "BridgeRegistry",
    "version": 1
  },
  "userdoc": {
    "kind": "user",
    "methods": {},
    "version": 1
  }
}