{
  "contractName": "BridgesRegistry",
  "abi": [
    {
      "inputs": [],
      "stateMutability": "nonpayable",
      "type": "constructor"
    },
    {
      "anonymous": false,
      "inputs": [
        {
          "indexed": true,
          "internalType": "address",
          "name": "assistantAddress",
          "type": "address"
        },
        {
          "indexed": false,
          "internalType": "enum BridgesRegistry.AssistantType",
          "name": "assistantType",
          "type": "uint8"
        },
        {
          "indexed": false,
          "internalType": "uint256",
          "name": "createdAt",
          "type": "uint256"
        }
      ],
      "name": "AssistantRegistered",
      "type": "event"
    },
    {
      "anonymous": false,
      "inputs": [
        {
          "indexed": true,
          "internalType": "address",
          "name": "bridgeAddress",
          "type": "address"
        },
        {
          "indexed": false,
          "internalType": "enum BridgesRegistry.BridgeType",
          "name": "bridgeType",
          "type": "uint8"
        },
        {
          "indexed": false,
          "internalType": "uint256",
          "name": "createdAt",
          "type": "uint256"
        }
      ],
      "name": "BridgeRegistered",
      "type": "event"
    },
    {
      "inputs": [
        {
          "internalType": "uint256",
          "name": "",
          "type": "uint256"
        }
      ],
      "name": "allAssistants",
      "outputs": [
        {
          "internalType": "address",
          "name": "",
          "type": "address"
        }
      ],
      "stateMutability": "view",
      "type": "function"
    },
    {
      "inputs": [
        {
          "internalType": "uint256",
          "name": "",
          "type": "uint256"
        }
      ],
      "name": "allBridges",
      "outputs": [
        {
          "internalType": "address",
          "name": "",
          "type": "address"
        }
      ],
      "stateMutability": "view",
      "type": "function"
    },
    {
      "inputs": [],
      "name": "assistantFactory",
      "outputs": [
        {
          "internalType": "address",
          "name": "",
          "type": "address"
        }
      ],
      "stateMutability": "view",
      "type": "function"
    },
    {
      "inputs": [
        {
          "internalType": "address",
          "name": "",
          "type": "address"
        }
      ],
      "name": "assistants",
      "outputs": [
        {
          "internalType": "address",
          "name": "assistantAddress",
          "type": "address"
        },
        {
          "internalType": "enum BridgesRegistry.AssistantType",
          "name": "assistantType",
          "type": "uint8"
        },
        {
          "internalType": "uint256",
          "name": "createdAt",
          "type": "uint256"
        },
        {
          "internalType": "bool",
          "name": "exists",
          "type": "bool"
        }
      ],
      "stateMutability": "view",
      "type": "function"
    },
    {
      "inputs": [
        {
          "internalType": "address",
          "name": "",
          "type": "address"
        }
      ],
      "name": "bridges",
      "outputs": [
        {
          "internalType": "address",
          "name": "bridgeAddress",
          "type": "address"
        },
        {
          "internalType": "enum BridgesRegistry.BridgeType",
          "name": "bridgeType",
          "type": "uint8"
        },
        {
          "internalType": "uint256",
          "name": "createdAt",
          "type": "uint256"
        },
        {
          "internalType": "bool",
          "name": "exists",
          "type": "bool"
        }
      ],
      "stateMutability": "view",
      "type": "function"
    },
    {
      "inputs": [],
      "name": "counterstakeFactory",
      "outputs": [
        {
          "internalType": "address",
          "name": "",
          "type": "address"
        }
      ],
      "stateMutability": "view",
      "type": "function"
    },
    {
      "inputs": [
        {
          "internalType": "address",
          "name": "_counterstakeFactory",
          "type": "address"
        },
        {
          "internalType": "address",
          "name": "_assistantFactory",
          "type": "address"
        }
      ],
      "name": "setFactories",
      "outputs": [],
      "stateMutability": "nonpayable",
      "type": "function"
    },
    {
      "inputs": [
        {
          "internalType": "address",
          "name": "bridgeAddress",
          "type": "address"
        },
        {
          "internalType": "enum BridgesRegistry.BridgeType",
          "name": "bridgeType",
          "type": "uint8"
        }
      ],
      "name": "registerBridge",
      "outputs": [],
      "stateMutability": "nonpayable",
      "type": "function"
    },
    {
      "inputs": [
        {
          "internalType": "address",
          "name": "assistantAddress",
          "type": "address"
        },
        {
          "internalType": "enum BridgesRegistry.AssistantType",
          "name": "assistantType",
          "type": "uint8"
        }
      ],
      "name": "registerAssistant",
      "outputs": [],
      "stateMutability": "nonpayable",
      "type": "function"
    },
    {
      "inputs": [
        {
          "internalType": "address",
          "name": "bridgeAddress",
          "type": "address"
        }
      ],
      "name": "getBridge",
      "outputs": [
        {
          "components": [
            {
              "internalType": "address",
              "name": "bridgeAddress",
              "type": "address"
            },
            {
              "internalType": "enum BridgesRegistry.BridgeType",
              "name": "bridgeType",
              "type": "uint8"
            },
            {
              "internalType": "uint256",
              "name": "createdAt",
              "type": "uint256"
            },
            {
              "internalType": "bool",
              "name": "exists",
              "type": "bool"
            }
          ],
          "internalType": "struct BridgesRegistry.Bridge",
          "name": "",
          "type": "tuple"
        }
      ],
      "stateMutability": "view",
      "type": "function"
    },
    {
      "inputs": [
        {
          "internalType": "address",
          "name": "assistantAddress",
          "type": "address"
        }
      ],
      "name": "getAssistant",
      "outputs": [
        {
          "components": [
            {
              "internalType": "address",
              "name": "assistantAddress",
              "type": "address"
            },
            {
              "internalType": "enum BridgesRegistry.AssistantType",
              "name": "assistantType",
              "type": "uint8"
            },
            {
              "internalType": "uint256",
              "name": "createdAt",
              "type": "uint256"
            },
            {
              "internalType": "bool",
              "name": "exists",
              "type": "bool"
            }
          ],
          "internalType": "struct BridgesRegistry.Assistant",
          "name": "",
          "type": "tuple"
        }
      ],
      "stateMutability": "view",
      "type": "function"
    },
    {
      "inputs": [
        {
          "internalType": "address",
          "name": "bridgeAddress",
          "type": "address"
        }
      ],
      "name": "isBridgeRegistered",
      "outputs": [
        {
          "internalType": "bool",
          "name": "",
          "type": "bool"
        }
      ],
      "stateMutability": "view",
      "type": "function"
    },
    {
      "inputs": [
        {
          "internalType": "address",
          "name": "assistantAddress",
          "type": "address"
        }
      ],
      "name": "isAssistantRegistered",
      "outputs": [
        {
          "internalType": "bool",
          "name": "",
          "type": "bool"
        }
      ],
      "stateMutability": "view",
      "type": "function"
    },
    {
      "inputs": [],
      "name": "getAllBridges",
      "outputs": [
        {
          "internalType": "address[]",
          "name": "",
          "type": "address[]"
        }
      ],
      "stateMutability": "view",
      "type": "function"
    },
    {
      "inputs": [],
      "name": "getAllAssistants",
      "outputs": [
        {
          "internalType": "address[]",
          "name": "",
          "type": "address[]"
        }
      ],
      "stateMutability": "view",
      "type": "function"
    },
    {
      "inputs": [
        {
          "internalType": "enum BridgesRegistry.BridgeType",
          "name": "bridgeType",
          "type": "uint8"
        }
      ],
      "name": "getBridgesByType",
      "outputs": [
        {
          "internalType": "address[]",
          "name": "",
          "type": "address[]"
        }
      ],
      "stateMutability": "view",
      "type": "function"
    },
    {
      "inputs": [
        {
          "internalType": "enum BridgesRegistry.AssistantType",
          "name": "assistantType",
          "type": "uint8"
        }
      ],
      "name": "getAssistantsByType",
      "outputs": [
        {
          "internalType": "address[]",
          "name": "",
          "type": "address[]"
        }
      ],
      "stateMutability": "view",
      "type": "function"
    },
    {
      "inputs": [],
      "name": "getBridgeCount",
      "outputs": [
        {
          "internalType": "uint256",
          "name": "",
          "type": "uint256"
        }
      ],
      "stateMutability": "view",
      "type": "function"
    },
    {
      "inputs": [],
      "name": "getAssistantCount",
      "outputs": [
        {
          "internalType": "uint256",
          "name": "",
          "type": "uint256"
        }
      ],
      "stateMutability": "view",
      "type": "function"
    }
  ],
  "bytecode": "0x608080604052346100165761113b908161001c8239f35b600080fdfe60806040526004361015610013575b600080fd5b60003560e01c806308026c051461018f5780631c163683146101865780631cbc28d91461017d578063321b96451461017457806361cad70a1461016b578063651455341461016257806372cbdcc8146101595780637324be1914610150578063957a353014610147578063962b67721461013e5780639aa4c2e5146101355780639cf105f81461012c578063b4bdf32814610123578063c3d944541461011a578063c734f3b714610111578063ced67f0c14610108578063d7553ade146100ff578063f44c7c8f146100f65763f497b096146100ee57600080fd5b61000e610c72565b5061000e610bde565b5061000e610b82565b5061000e610b13565b5061000e610ac0565b5061000e610a51565b5061000e610a0e565b5061000e6109cb565b5061000e6108d7565b5061000e610827565b5061000e61070b565b5061000e6106c7565b5061000e610649565b5061000e61062a565b5061000e610540565b5061000e6104b8565b5061000e610394565b5061000e61030b565b5061000e6101ce565b600435906001600160a01b038216820361000e57565b602435906001600160a01b038216820361000e57565b6002111561000e57565b503461000e57604036600319011261000e576101e8610198565b6024356101f4816101c4565b6004546001600160a01b03908116331480156102fe575b61021490610ce4565b82169182156102c0577f41b69dff706f82db8ee1a9bc94c08b2497513bc4b7bd96c001a175f4d1c9a3fd916102ad8261026b610266610262600261025a6102bb98610adf565b015460ff1690565b1590565b610d2e565b6102a8610276610dd8565b6102808382610de7565b61028d8560208301610df6565b426040820152600160608201526102a383610adf565b610e02565b610e77565b604051918291429083610f53565b0390a2005b60405162461bcd60e51b8152602060048201526016602482015275496e76616c696420627269646765206164647265737360501b6044820152606490fd5b506005548116331461020b565b503461000e57600036600319011261000e576005546040516001600160a01b039091168152602090f35b6002111561033f57565b634e487b7160e01b600052602160045260246000fd5b81516001600160a01b03168152602082015160808201939260609182919061037c81610335565b60208501526040810151604085015201511515910152565b503461000e57602036600319011261000e576103ae610198565b6103b6610fb8565b506001600160a01b031660008181526001602052604090206002015460ff16156104025760005260016020526103fe6103f26040600020610fdd565b60405191829182610355565b0390f35b60405162461bcd60e51b8152602060048201526013602482015272105cdcda5cdd185b9d081b9bdd08199bdd5b99606a1b6044820152606490fd5b602090600319011261000e5760043590565b50634e487b7160e01b600052603260045260246000fd5b600254811015610482575b600260005260206000200190600090565b61048a61044f565b610471565b6003548110156104ab575b600360005260206000200190600090565b6104b361044f565b61049a565b503461000e576104c73661043d565b60035481101561000e5760036000526000805160206110e683398151915201546040516001600160a01b039091168152602090f35b6020908160408183019282815285518094520193019160005b828110610523575050505090565b83516001600160a01b031685529381019392810192600101610515565b503461000e5760208060031936011261000e5760043590610560826101c4565b600280549261056e8461104c565b92600092835b86811061058c57848652604051806103fe88826104fc565b60008281528381208201546001600160a01b0316815260208190526040902084906105bc905b5460a01c60ff1690565b6105c582610335565b6105ce81610335565b146105e2575b6105dd9061107e565b610574565b936106226105dd9161061d61060e6105f989610466565b905460039190911b1c6001600160a01b031690565b610618838b6110a3565b610de7565b61107e565b9490506105d4565b503461000e57600036600319011261000e576020600254604051908152f35b503461000e576000806003193601126106c457604051600280548083529083526020808301936000805160206110c683398151915292915b8282106106a4576103fe8561069881890382610db5565b604051918291826104fc565b83546001600160a01b031686529485019460019384019390910190610681565b80fd5b503461000e576106d63661043d565b60025481101561000e5760026000526000805160206110c683398151915201546040516001600160a01b039091168152602090f35b503461000e57604036600319011261000e57610725610198565b602435610731816101c4565b6004546001600160a01b039081163314801561081a575b61075190610ce4565b82169182156107d9577f13b83904efa79f17bc332d28f76eca10a355cbebe150d9c85b359a613cc3e227916102ad8261079c610797610262600261025a6102bb98610af9565b610f6d565b6107d46107a7610dd8565b6107b18382610de7565b6107be8560208301610df6565b426040820152600160608201526102a383610af9565b610ee5565b60405162461bcd60e51b8152602060048201526019602482015278496e76616c696420617373697374616e74206164647265737360381b6044820152606490fd5b5060055481163314610748565b503461000e5760208060031936011261000e5760043590610847826101c4565b60038054926108558461104c565b92600092835b86811061087357848652604051806103fe88826104fc565b81600052836108926105b260018060a01b038487600020015416610af9565b61089b82610335565b6108a481610335565b146108b8575b6108b39061107e565b61085b565b936108cf6108b39161061d61060e6105f98961048f565b9490506108aa565b503461000e57604036600319011261000e576108f1610198565b6108f96101ae565b6004546001600160a01b0390811615806109bf575b1561098257826109308261095293610974961615159081610976575b50610c9c565b600480546001600160a01b0319166001600160a01b0392909216919091179055565b600580546001600160a01b0319166001600160a01b0392909216919091179055565b005b9050841615153861092a565b60405162461bcd60e51b8152602060048201526015602482015274119858dd1bdc9a595cc8185b1c9958591e481cd95d605a1b6044820152606490fd5b5080600554161561090e565b503461000e57602036600319011261000e576001600160a01b036109ed610198565b166000526001602052602060ff600260406000200154166040519015158152f35b503461000e57602036600319011261000e576001600160a01b03610a30610198565b166000526000602052602060ff600260406000200154166040519015158152f35b503461000e576000806003193601126106c457604051600380548083529083526020808301936000805160206110e683398151915292915b828210610aa0576103fe8561069881890382610db5565b83546001600160a01b031686529485019460019384019390910190610a89565b503461000e57600036600319011261000e576020600354604051908152f35b6001600160a01b0316600090815260208190526040902090565b6001600160a01b0316600090815260016020526040902090565b503461000e57602036600319011261000e5760806001600160a01b0380610b38610198565b16600052600060205260406000209081549160ff8360a01c1660ff60026001840154930154169260405194168452610b6f81610335565b6020840152604083015215156060820152f35b503461000e57602036600319011261000e5760806001600160a01b0380610ba7610198565b16600052600160205260406000209081549160ff8360a01c1660ff60026001840154930154169260405194168452610b6f81610335565b503461000e57602036600319011261000e57610bf8610198565b610c00610fb8565b506001600160a01b031660008181526020819052604081206002015460ff1615610c3a576040816103fe936103f293528060205220610fdd565b60405162461bcd60e51b815260206004820152601060248201526f109c9a5919d9481b9bdd08199bdd5b9960821b6044820152606490fd5b503461000e57600036600319011261000e576004546040516001600160a01b039091168152602090f35b15610ca357565b60405162461bcd60e51b8152602060048201526019602482015278496e76616c696420666163746f72792061646472657373657360381b6044820152606490fd5b15610ceb57565b60405162461bcd60e51b815260206004820152601b60248201527a27b7363c903330b1ba37b934b2b99031b0b7103932b3b4b9ba32b960291b6044820152606490fd5b15610d3557565b60405162461bcd60e51b8152602060048201526019602482015278109c9a5919d948185b1c9958591e481c9959da5cdd195c9959603a1b6044820152606490fd5b50634e487b7160e01b600052604160045260246000fd5b608081019081106001600160401b03821117610da857604052565b610db0610d76565b604052565b601f909101601f19168101906001600160401b03821190821017610da857604052565b60405190610de582610d8d565b565b6001600160a01b039091169052565b610dff82610335565b52565b815181546001600160a01b039091166001600160a01b0319821681178355602084015160609360029390929091610e3881610335565b610e4181610335565b60ff60a01b9060a01b169160018060a81b031916171781556040840151600182015501910151151560ff80198354169116179055565b600254600160401b811015610ed8575b6001810180600255811015610ecb575b60026000526000805160206110c68339815191520180546001600160a01b0319166001600160a01b03909216919091179055565b610ed361044f565b610e97565b610ee0610d76565b610e87565b600354600160401b811015610f46575b6001810180600355811015610f39575b60036000526000805160206110e68339815191520180546001600160a01b0319166001600160a01b03909216919091179055565b610f4161044f565b610f05565b610f4e610d76565b610ef5565b6040810193929160209190610f6781610335565b81520152565b15610f7457565b60405162461bcd60e51b815260206004820152601c60248201527b105cdcda5cdd185b9d08185b1c9958591e481c9959da5cdd195c995960221b6044820152606490fd5b60405190610fc582610d8d565b60006060838281528260208201528260408201520152565b90604051610fea81610d8d565b606060ff6002839582815460018060a01b038116875260a01c1661100d81610335565b6020860152600181015460408601520154161515910152565b6020906001600160401b03811161103f575b60051b0190565b611047610d76565b611038565b9061105682611026565b6110636040519182610db5565b8281528092611074601f1991611026565b0190602036910137565b600019811461108d5760010190565b634e487b7160e01b600052601160045260246000fd5b60209181518110156110b8575b60051b010190565b6110c061044f565b6110b056fe405787fa12a823e0f2b7631cc41b3ba8828b3321ca811111fa75cd3aa3bb5acec2575a0e9e593c00f959f8c92f12db2869c3395a3b0502d05e2516446f71f85ba2646970667358221220b6acff879fd9f14a08e5ce2bf4242410e934345381e7d84395b329c527a693f264736f6c634300080d0033",
  "immutableReferences": {},
  "source": "// SPDX-License-Identifier: MIT\npragma solidity ^0.8.3;\n\ncontract BridgesRegistry {\n    \n    enum BridgeType { Export, Import }\n    enum AssistantType { Import, Export }\n    \n    struct Bridge {\n        address bridgeAddress;\n        BridgeType bridgeType;\n        uint256 createdAt;\n        bool exists;\n    }\n    \n    struct Assistant {\n        address assistantAddress;\n        AssistantType assistantType;\n        uint256 createdAt;\n        bool exists;\n    }\n    \n    // Mapping from bridge address to bridge info\n    mapping(address => Bridge) public bridges;\n    \n    // Mapping from assistant address to assistant info\n    mapping(address => Assistant) public assistants;\n    \n    // Arrays to store all bridge and assistant addresses for enumeration\n    address[] public allBridges;\n    address[] public allAssistants;\n    \n    // Events\n    event BridgeRegistered(address indexed bridgeAddress, BridgeType bridgeType, uint256 createdAt);\n    event AssistantRegistered(address indexed assistantAddress, AssistantType assistantType, uint256 createdAt);\n    \n    // Modifier to ensure only factories can register\n    modifier onlyFactory() {\n        require(msg.sender == counterstakeFactory || msg.sender == assistantFactory, \"Only factories can register\");\n        _;\n    }\n    \n    address public counterstakeFactory;\n    address public assistantFactory;\n    \n    constructor() {\n        // Factories will be set after deployment to avoid circular dependency\n    }\n    \n    /**\n     * @dev Set the factory addresses (can only be called once)\n     * @param _counterstakeFactory The address of the CounterstakeFactory\n     * @param _assistantFactory The address of the AssistantFactory\n     */\n    function setFactories(address _counterstakeFactory, address _assistantFactory) external {\n        require(counterstakeFactory == address(0) && assistantFactory == address(0), \"Factories already set\");\n        require(_counterstakeFactory != address(0) && _assistantFactory != address(0), \"Invalid factory addresses\");\n        \n        counterstakeFactory = _counterstakeFactory;\n        assistantFactory = _assistantFactory;\n    }\n    \n    /**\n     * @dev Register a new bridge\n     * @param bridgeAddress The address of the bridge contract\n     * @param bridgeType The type of bridge (Export or Import)\n     */\n    function registerBridge(address bridgeAddress, BridgeType bridgeType) external onlyFactory {\n        require(bridgeAddress != address(0), \"Invalid bridge address\");\n        require(!bridges[bridgeAddress].exists, \"Bridge already registered\");\n        \n        bridges[bridgeAddress] = Bridge({\n            bridgeAddress: bridgeAddress,\n            bridgeType: bridgeType,\n            createdAt: block.timestamp,\n            exists: true\n        });\n        \n        allBridges.push(bridgeAddress);\n        \n        emit BridgeRegistered(bridgeAddress, bridgeType, block.timestamp);\n    }\n    \n    /**\n     * @dev Register a new assistant\n     * @param assistantAddress The address of the assistant contract\n     * @param assistantType The type of assistant (Import or Export)\n     */\n    function registerAssistant(address assistantAddress, AssistantType assistantType) external onlyFactory {\n        require(assistantAddress != address(0), \"Invalid assistant address\");\n        require(!assistants[assistantAddress].exists, \"Assistant already registered\");\n        \n        assistants[assistantAddress] = Assistant({\n            assistantAddress: assistantAddress,\n            assistantType: assistantType,\n            createdAt: block.timestamp,\n            exists: true\n        });\n        \n        allAssistants.push(assistantAddress);\n        \n        emit AssistantRegistered(assistantAddress, assistantType, block.timestamp);\n    }\n    \n    /**\n     * @dev Get bridge information\n     * @param bridgeAddress The address of the bridge\n     * @return bridge info struct\n     */\n    function getBridge(address bridgeAddress) external view returns (Bridge memory) {\n        require(bridges[bridgeAddress].exists, \"Bridge not found\");\n        return bridges[bridgeAddress];\n    }\n    \n    /**\n     * @dev Get assistant information\n     * @param assistantAddress The address of the assistant\n     * @return assistant info struct\n     */\n    function getAssistant(address assistantAddress) external view returns (Assistant memory) {\n        require(assistants[assistantAddress].exists, \"Assistant not found\");\n        return assistants[assistantAddress];\n    }\n    \n    /**\n     * @dev Check if a bridge is registered\n     * @param bridgeAddress The address of the bridge\n     * @return true if registered, false otherwise\n     */\n    function isBridgeRegistered(address bridgeAddress) external view returns (bool) {\n        return bridges[bridgeAddress].exists;\n    }\n    \n    /**\n     * @dev Check if an assistant is registered\n     * @param assistantAddress The address of the assistant\n     * @return true if registered, false otherwise\n     */\n    function isAssistantRegistered(address assistantAddress) external view returns (bool) {\n        return assistants[assistantAddress].exists;\n    }\n    \n    /**\n     * @dev Get all bridge addresses\n     * @return array of all bridge addresses\n     */\n    function getAllBridges() external view returns (address[] memory) {\n        return allBridges;\n    }\n    \n    /**\n     * @dev Get all assistant addresses\n     * @return array of all assistant addresses\n     */\n    function getAllAssistants() external view returns (address[] memory) {\n        return allAssistants;\n    }\n    \n    /**\n     * @dev Get bridges by type\n     * @param bridgeType The type of bridges to return\n     * @return array of bridge addresses of the specified type\n     */\n    function getBridgesByType(BridgeType bridgeType) external view returns (address[] memory) {\n        address[] memory result = new address[](allBridges.length);\n        uint256 count = 0;\n        \n        for (uint256 i = 0; i < allBridges.length; i++) {\n            if (bridges[allBridges[i]].bridgeType == bridgeType) {\n                result[count] = allBridges[i];\n                count++;\n            }\n        }\n        \n        // Resize array to actual count\n        assembly {\n            mstore(result, count)\n        }\n        \n        return result;\n    }\n    \n    /**\n     * @dev Get assistants by type\n     * @param assistantType The type of assistants to return\n     * @return array of assistant addresses of the specified type\n     */\n    function getAssistantsByType(AssistantType assistantType) external view returns (address[] memory) {\n        address[] memory result = new address[](allAssistants.length);\n        uint256 count = 0;\n        \n        for (uint256 i = 0; i < allAssistants.length; i++) {\n            if (assistants[allAssistants[i]].assistantType == assistantType) {\n                result[count] = allAssistants[i];\n                count++;\n            }\n        }\n        \n        // Resize array to actual count\n        assembly {\n            mstore(result, count)\n        }\n        \n        return result;\n    }\n    \n    /**\n     * @dev Get total count of bridges\n     * @return total number of registered bridges\n     */\n    function getBridgeCount() external view returns (uint256) {\n        return allBridges.length;\n    }\n    \n    /**\n     * @dev Get total count of assistants\n     * @return total number of registered assistants\n     */\n    function getAssistantCount() external view returns (uint256) {\n        return allAssistants.length;\n    }\n}\n",
  "sourcePath": "/Users/jm/3DP-bridge/counterstake-bridge/evm/contracts/BridgesRegistry.sol",
  "compiler": {
    "name": "solc",
    "version": "0.8.13+commit.abaa5c0e.Emscripten.clang"
  },
  "schemaVersion": "3.4.16",
  "updatedAt": "2025-08-19T12:12:03.285Z",
  "devdoc": {
    "kind": "dev",
    "methods": {
      "getAllAssistants()": {
        "details": "Get all assistant addresses",
        "returns": {
          "_0": "array of all assistant addresses"
        }
      },
      "getAllBridges()": {
        "details": "Get all bridge addresses",
        "returns": {
          "_0": "array of all bridge addresses"
        }
      },
      "getAssistant(address)": {
        "details": "Get assistant information",
        "params": {
          "assistantAddress": "The address of the assistant"
        },
        "returns": {
          "_0": "assistant info struct"
        }
      },
      "getAssistantCount()": {
        "details": "Get total count of assistants",
        "returns": {
          "_0": "total number of registered assistants"
        }
      },
      "getAssistantsByType(uint8)": {
        "details": "Get assistants by type",
        "params": {
          "assistantType": "The type of assistants to return"
        },
        "returns": {
          "_0": "array of assistant addresses of the specified type"
        }
      },
      "getBridge(address)": {
        "details": "Get bridge information",
        "params": {
          "bridgeAddress": "The address of the bridge"
        },
        "returns": {
          "_0": "bridge info struct"
        }
      },
      "getBridgeCount()": {
        "details": "Get total count of bridges",
        "returns": {
          "_0": "total number of registered bridges"
        }
      },
      "getBridgesByType(uint8)": {
        "details": "Get bridges by type",
        "params": {
          "bridgeType": "The type of bridges to return"
        },
        "returns": {
          "_0": "array of bridge addresses of the specified type"
        }
      },
      "isAssistantRegistered(address)": {
        "details": "Check if an assistant is registered",
        "params": {
          "assistantAddress": "The address of the assistant"
        },
        "returns": {
          "_0": "true if registered, false otherwise"
        }
      },
      "isBridgeRegistered(address)": {
        "details": "Check if a bridge is registered",
        "params": {
          "bridgeAddress": "The address of the bridge"
        },
        "returns": {
          "_0": "true if registered, false otherwise"
        }
      },
      "registerAssistant(address,uint8)": {
        "details": "Register a new assistant",
        "params": {
          "assistantAddress": "The address of the assistant contract",
          "assistantType": "The type of assistant (Import or Export)"
        }
      },
      "registerBridge(address,uint8)": {
        "details": "Register a new bridge",
        "params": {
          "bridgeAddress": "The address of the bridge contract",
          "bridgeType": "The type of bridge (Export or Import)"
        }
      },
      "setFactories(address,address)": {
        "details": "Set the factory addresses (can only be called once)",
        "params": {
          "_assistantFactory": "The address of the AssistantFactory",
          "_counterstakeFactory": "The address of the CounterstakeFactory"
        }
      }
    },
    "version": 1
  },
  "userdoc": {
    "kind": "user",
    "methods": {},
    "version": 1
  }
}