{
  "contractName": "CounterstakeFactory",
  "abi": [
    {
      "inputs": [
        {
          "internalType": "address",
          "name": "_exportMaster",
          "type": "address"
        },
        {
          "internalType": "address",
          "name": "_importWrapperMaster",
          "type": "address"
        },
        {
          "internalType": "contract GovernanceFactory",
          "name": "_governanceFactory",
          "type": "address"
        },
        {
          "internalType": "contract VotedValueFactory",
          "name": "_votedValueFactory",
          "type": "address"
        },
        {
          "internalType": "contract BridgesRegistry",
          "name": "_bridgesRegistry",
          "type": "address"
        }
      ],
      "stateMutability": "nonpayable",
      "type": "constructor"
    },
    {
      "anonymous": false,
      "inputs": [
        {
          "indexed": false,
          "internalType": "address",
          "name": "contractAddress",
          "type": "address"
        },
        {
          "indexed": false,
          "internalType": "address",
          "name": "tokenAddress",
          "type": "address"
        },
        {
          "indexed": false,
          "internalType": "string",
          "name": "foreign_network",
          "type": "string"
        },
        {
          "indexed": false,
          "internalType": "string",
          "name": "foreign_asset",
          "type": "string"
        }
      ],
      "name": "NewExport",
      "type": "event"
    },
    {
      "anonymous": false,
      "inputs": [
        {
          "indexed": false,
          "internalType": "address",
          "name": "contractAddress",
          "type": "address"
        },
        {
          "indexed": false,
          "internalType": "string",
          "name": "home_network",
          "type": "string"
        },
        {
          "indexed": false,
          "internalType": "string",
          "name": "home_asset",
          "type": "string"
        },
        {
          "indexed": false,
          "internalType": "address",
          "name": "precompileAddress",
          "type": "address"
        },
        {
          "indexed": false,
          "internalType": "address",
          "name": "stakeTokenAddress",
          "type": "address"
        }
      ],
      "name": "NewImportWrapper",
      "type": "event"
    },
    {
      "inputs": [],
      "name": "bridgesRegistry",
      "outputs": [
        {
          "internalType": "contract BridgesRegistry",
          "name": "",
          "type": "address"
        }
      ],
      "stateMutability": "view",
      "type": "function"
    },
    {
      "inputs": [],
      "name": "exportMaster",
      "outputs": [
        {
          "internalType": "address",
          "name": "",
          "type": "address"
        }
      ],
      "stateMutability": "view",
      "type": "function"
    },
    {
      "inputs": [],
      "name": "importWrapperMaster",
      "outputs": [
        {
          "internalType": "address",
          "name": "",
          "type": "address"
        }
      ],
      "stateMutability": "view",
      "type": "function"
    },
    {
      "inputs": [
        {
          "internalType": "string",
          "name": "foreign_network",
          "type": "string"
        },
        {
          "internalType": "string",
          "name": "foreign_asset",
          "type": "string"
        },
        {
          "internalType": "address",
          "name": "tokenAddr",
          "type": "address"
        },
        {
          "internalType": "uint16",
          "name": "counterstake_coef100",
          "type": "uint16"
        },
        {
          "internalType": "uint16",
          "name": "ratio100",
          "type": "uint16"
        },
        {
          "internalType": "uint256",
          "name": "large_threshold",
          "type": "uint256"
        },
        {
          "internalType": "uint256[]",
          "name": "challenging_periods",
          "type": "uint256[]"
        },
        {
          "internalType": "uint256[]",
          "name": "large_challenging_periods",
          "type": "uint256[]"
        }
      ],
      "name": "createExport",
      "outputs": [
        {
          "internalType": "contract Export",
          "name": "",
          "type": "address"
        }
      ],
      "stateMutability": "nonpayable",
      "type": "function"
    },
    {
      "inputs": [
        {
          "internalType": "string",
          "name": "home_network",
          "type": "string"
        },
        {
          "internalType": "string",
          "name": "home_asset",
          "type": "string"
        },
        {
          "internalType": "address",
          "name": "precompileAddress",
          "type": "address"
        },
        {
          "internalType": "address",
          "name": "stakeTokenAddr",
          "type": "address"
        },
        {
          "internalType": "address",
          "name": "oracleAddr",
          "type": "address"
        },
        {
          "internalType": "uint16",
          "name": "counterstake_coef100",
          "type": "uint16"
        },
        {
          "internalType": "uint16",
          "name": "ratio100",
          "type": "uint16"
        },
        {
          "internalType": "uint256",
          "name": "large_threshold",
          "type": "uint256"
        },
        {
          "internalType": "uint256[]",
          "name": "challenging_periods",
          "type": "uint256[]"
        },
        {
          "internalType": "uint256[]",
          "name": "large_challenging_periods",
          "type": "uint256[]"
        }
      ],
      "name": "createImportWrapper",
      "outputs": [
        {
          "internalType": "contract ImportWrapper",
          "name": "",
          "type": "address"
        }
      ],
      "stateMutability": "nonpayable",
      "type": "function"
    }
  ],
  "bytecode": "0x61012060405234620000f1576200101560a0813803918262000021816200013c565b938492833981010312620000f15780516200008991620000418262000162565b6020810151620000518162000162565b604082015190620000628262000162565b6080606084015193620000758562000162565b015193620000838562000162565b620001f1565b604051610d219081620002f4823960805181818161043901526106bc015260a05181818161047f0152610a75015260c0518181816107c40152610b75015260e0518181816107a30152610b5401526101005181818161034b015281816108010152610bb20152f35b600080fd5b50634e487b7160e01b600052604160045260246000fd5b60405190606082016001600160401b038111838210176200012d57604052565b62000137620000f6565b604052565b6040519190601f01601f191682016001600160401b038111838210176200012d57604052565b6001600160a01b03811603620000f157565b90600191825490600391828555808310620001c3575b50836000526020806000206000925b848410620001aa5750505050509050565b805162ffffff1682559286019290860190820162000199565b600085815285846020832093840193015b838110620001e5575050506200018a565b828155018690620001d4565b604051608081016001600160401b03811182821017620002e3575b6040526203f480815260209062093a808282015262278d006040820152624f1a0060608201526000805491600492838355808410620002bb575b50818052838220905b838310620002a057505050506200028e906200027f6200026e6200010d565b62093a80815291820162278d009052565b624f1a00604082015262000174565b60805260a05260c05260e05261010052565b6001858262ffffff839451168555019201920191906200024f565b8280528385842091820191015b818110620002d7575062000246565b838155600101620002c8565b620002ed620000f6565b6200020c56fe608060405260048036101561001357600080fd5b600090813560e01c9182631d1511641461008357505080632799f9751461007a578063613ee0e2146100715780639461c5e5146100685763a80b0c201461005b575b38600080fd5b610063610468565b610055565b50610063610422565b5061006361037a565b50610063610334565b3461015d5761014036600319011261015d576001600160401b038235818111610168576100b390369085016101c6565b90602435818111610164576100cb90369086016101c6565b936100d461022f565b6100dc610245565b6100e461025b565b916100ed610271565b936100f6610282565b95610104358181116101605761010f90369084016102b5565b986101243591821161015d5761015961013f8c8c8c8c8c8c8c8c610135368d8f016102b5565b9760e43596610a63565b604051918291826001600160a01b03909116815260200190565b0390f35b80fd5b8980fd5b8380fd5b8280fd5b50634e487b7160e01b600052604160045260246000fd5b6001600160401b03811161019657604052565b61019e61016c565b604052565b601f909101601f19168101906001600160401b0382119082101761019657604052565b81601f8201121561021d578035906001600160401b038211610222575b604051926101fb601f8401601f1916602001856101a3565b8284526020838301011161021d57816000926020809301838601378301015290565b600080fd5b61022a61016c565b6101e3565b604435906001600160a01b038216820361021d57565b606435906001600160a01b038216820361021d57565b608435906001600160a01b038216820361021d57565b60a4359061ffff8216820361021d57565b60c4359061ffff8216820361021d57565b6064359061ffff8216820361021d57565b6084359061ffff8216820361021d57565b9080601f8301121561021d578135906001600160401b03821161031c575b8160051b604051936020936102ea858401876101a3565b8552838086019282010192831161021d578301905b82821061030d575050505090565b813581529083019083016102ff565b61032461016c565b6102d3565b600091031261021d57565b503461021d57600036600319011261021d576040517f00000000000000000000000000000000000000000000000000000000000000006001600160a01b03168152602090f35b503461021d5761010036600319011261021d576001600160401b0360043581811161021d576103ad9036906004016101c6565b9060243581811161021d576103c69036906004016101c6565b6103ce61022f565b926103d7610293565b906103e06102a4565b60c43585811161021d576103f89036906004016102b5565b9260e43595861161021d576101599661041861013f9736906004016102b5565b9560a435946106ac565b503461021d57600036600319011261021d576040517f00000000000000000000000000000000000000000000000000000000000000006001600160a01b03168152602090f35b503461021d57600036600319011261021d576040517f00000000000000000000000000000000000000000000000000000000000000006001600160a01b03168152602090f35b6040519060005480835282602091828201906000805283600020936000905b8282106104e5575050506104e3925003836101a3565b565b8554845260019586019588955093810193909101906104cd565b60405190816001805490818352602090818401928160005282600020926000905b828210610538575050505050906104e39103836101a3565b84548652889650948501949383019390830190610520565b90815180825260208080930193019160005b828110610570575050505090565b835185529381019392810192600101610562565b94916105c1936105cf97959260018060a01b0316875261ffff8092166020880152166040860152606085015260c0608085015260c0840190610550565b9160a0818403910152610550565b90565b506040513d6000823e3d90fd5b91908251928382526000905b84821061061857509280602093941161060b575b601f01601f1916010190565b60008382840101526105ff565b906020908180828501015190828601015201906105eb565b90916106476105cf936040845260408401906105df565b9160208184039101526105df565b6001600160a01b0391821681529116602082015260400190565b6001600160a01b039182168152911660208201526080604082018190526105cf93919261069e918401906105df565b9160608184039101526105df565b95939694909291946106ec6106e07f0000000000000000000000000000000000000000000000000000000000000000610946565b6001600160a01b031690565b855190986001600160a01b03808b1697909591921561093757925b80511561092857925b873b1561021d5760009361073a916040519687958695630942a64160e21b87528d60048801610584565b038183885af1801561091b575b610908575b50823b1561021d57604051633f8df68f60e21b815260008180610773868a60048401610630565b038183885af180156108fb575b6108e8575b50823b1561021d57604051632d6caf7960e11b8152600081806107ec7f00000000000000000000000000000000000000000000000000000000000000007f000000000000000000000000000000000000000000000000000000000000000060048401610655565b038183885af180156108db575b6108c8575b507f00000000000000000000000000000000000000000000000000000000000000001690813b1561021d576040516308026c0560e01b81526001600160a01b03841660048201526000602482018190527f68151a67649831ada6e747f91c2e4603f6344e43c00def40b79ec9b3580f02689661089c94909291908290604490829084905af180156108bb575b6108a2575b506040519485948561066f565b0390a190565b806108af6108b592610183565b80610329565b3861088f565b6108c36105d2565b61088a565b806108af6108d592610183565b386107fe565b6108e36105d2565b6107f9565b806108af6108f592610183565b38610785565b6109036105d2565b610780565b806108af61091592610183565b3861074c565b6109236105d2565b610747565b506109316104ff565b92610710565b506109406104ae565b92610707565b6e5af43d82803e903d91602b57fd5bf390763d602d80600a3d3981f3363d3d373d3d3d363d7300000062ffffff8260881c161760005260781b17602052603760096000f0906001600160a01b0382161561099c57565b60405162461bcd60e51b8152602060048201526016602482015275115490cc4c4d8dce8818dc99585d194819985a5b195960521b6044820152606490fd5b92906060926109f7610a05929796976080875260808701906105df565b9085820360208701526105df565b6001600160a01b0391821660408501529416910152565b93959490610a56608094610a4860018060a01b039586809516895260a060208a015260a08901906105df565b9087820360408901526105df565b9616606085015216910152565b96909795989492939194610a996106e07f0000000000000000000000000000000000000000000000000000000000000000610946565b8751909a6001600160a01b03808d16999096919215610cdc57925b805115610ccd57925b893b1561021d57600093610ae7916040519687958695630942a64160e21b87528c60048801610584565b0381838a5af18015610cc0575b610cad575b50843b1561021d576000610b24916040518093819263fcddcb2f60e01b8352888c8c600486016109da565b038183895af18015610ca0575b610c8d575b50833b1561021d57604051632d6caf7960e11b815260008180610b9d7f00000000000000000000000000000000000000000000000000000000000000007f000000000000000000000000000000000000000000000000000000000000000060048401610655565b038183895af18015610c80575b610c6d575b507f00000000000000000000000000000000000000000000000000000000000000001691823b1561021d576040516308026c0560e01b81526001600160a01b0385166004820152600160248201527fd9398b1ad3cdd9c599e82a3d9915fe8bd656b00c950164d0b07c9545b8d8b2089661089c949091906000908290604490829084905af18015610c60575b610c4d575b5060405195869586610a1c565b806108af610c5a92610183565b38610c40565b610c686105d2565b610c3b565b806108af610c7a92610183565b38610baf565b610c886105d2565b610baa565b806108af610c9a92610183565b38610b36565b610ca86105d2565b610b31565b806108af610cba92610183565b38610af9565b610cc86105d2565b610af4565b50610cd66104ff565b92610abd565b50610ce56104ae565b92610ab456fea2646970667358221220330b4fd587d0e861e912970a07dc9e99eb3c2442fac4ebbeafdc8d14e08f2eb264736f6c634300080d0033",
  "immutableReferences": {
    "4511": [
      {
        "length": 32,
        "start": 1081
      },
      {
        "length": 32,
        "start": 1724
      }
    ],
    "4513": [
      {
        "length": 32,
        "start": 1151
      },
      {
        "length": 32,
        "start": 2677
      }
    ],
    "4516": [
      {
        "length": 32,
        "start": 1988
      },
      {
        "length": 32,
        "start": 2933
      }
    ],
    "4519": [
      {
        "length": 32,
        "start": 1955
      },
      {
        "length": 32,
        "start": 2900
      }
    ],
    "4522": [
      {
        "length": 32,
        "start": 843
      },
      {
        "length": 32,
        "start": 2049
      },
      {
        "length": 32,
        "start": 2994
      }
    ]
  },
  "source": "// SPDX-License-Identifier: MIT\npragma solidity ^0.8.3;\nimport \"@openzeppelin/contracts/proxy/Clones.sol\";\nimport \"./Export.sol\";\nimport \"./ImportWrapper.sol\";\nimport \"./CounterstakeLibrary.sol\";\nimport \"./VotedValueFactory.sol\";\nimport \"./BridgesRegistry.sol\";\n\n\ncontract CounterstakeFactory {\n\n\tevent NewExport(address contractAddress, address tokenAddress, string foreign_network, string foreign_asset);\n\tevent NewImportWrapper(address contractAddress, string home_network, string home_asset, address precompileAddress, address stakeTokenAddress);\n    \n\tuint[] private default_challenging_periods = [72 hours, 7 days, 30 days, 60 days];\n\tuint[] private default_large_challenging_periods = [1 weeks, 30 days, 60 days];\n\n\taddress public immutable exportMaster;\n\taddress public immutable importWrapperMaster;\n\n\tGovernanceFactory private immutable governanceFactory;\n\tVotedValueFactory private immutable votedValueFactory;\n\tBridgesRegistry public immutable bridgesRegistry;\n\n\tconstructor(address _exportMaster, address _importWrapperMaster, GovernanceFactory _governanceFactory, VotedValueFactory _votedValueFactory, BridgesRegistry _bridgesRegistry) {\n\t\texportMaster = _exportMaster;\n\t\timportWrapperMaster = _importWrapperMaster;\n\t\tgovernanceFactory = _governanceFactory;\n\t\tvotedValueFactory = _votedValueFactory;\n\t\tbridgesRegistry = _bridgesRegistry;\n\t}\n\n\tfunction createExport(\n\t\tstring memory foreign_network, \n\t\tstring memory foreign_asset, \n\t\taddress tokenAddr, \n\t\tuint16 counterstake_coef100, \n\t\tuint16 ratio100, \n\t\tuint large_threshold, \n\t\tuint[] memory challenging_periods, \n\t\tuint[] memory large_challenging_periods\n\t) external returns (Export) {\n\t\tExport export = Export(Clones.clone(exportMaster));\n\t\texport.initCounterstake(\n\t\t\ttokenAddr, \n\t\t\tcounterstake_coef100, \n\t\t\tratio100, \n\t\t\tlarge_threshold, \n\t\t\tchallenging_periods.length > 0 ? challenging_periods : default_challenging_periods, \n\t\t\tlarge_challenging_periods.length > 0 ? large_challenging_periods : default_large_challenging_periods\n\t\t);\n\t\texport.initExport(foreign_network, foreign_asset);\n\t\texport.setupGovernance(governanceFactory, votedValueFactory);\n\t\t\n\t\t// Register the bridge in the registry\n\t\tbridgesRegistry.registerBridge(address(export), BridgesRegistry.BridgeType.Export);\n\t\t\n\t\temit NewExport(address(export), address(tokenAddr), foreign_network, foreign_asset);\n\t\treturn export;\n\t}\n\n\tfunction createImportWrapper(\n\t\tstring memory home_network,\n\t\tstring memory home_asset,\n\t\taddress precompileAddress,\n\t\taddress stakeTokenAddr,\n\t\taddress oracleAddr,\n\t\tuint16 counterstake_coef100,\n\t\tuint16 ratio100,\n\t\tuint large_threshold,\n\t\tuint[] memory challenging_periods,\n\t\tuint[] memory large_challenging_periods\n\t) external returns (ImportWrapper) {\n\t\tImportWrapper wrapper = ImportWrapper(Clones.clone(importWrapperMaster));\n\t\twrapper.initCounterstake(\n\t\t\tstakeTokenAddr, \n\t\t\tcounterstake_coef100, \n\t\t\tratio100, \n\t\t\tlarge_threshold, \n\t\t\tchallenging_periods.length > 0 ? challenging_periods : default_challenging_periods, \n\t\t\tlarge_challenging_periods.length > 0 ? large_challenging_periods : default_large_challenging_periods\n\t\t);\n\t\twrapper.initImportWrapper(home_network, home_asset, precompileAddress, oracleAddr);\n\t\twrapper.setupGovernance(governanceFactory, votedValueFactory);\n\t\t\n\t\t// Register the bridge in the registry\n\t\tbridgesRegistry.registerBridge(address(wrapper), BridgesRegistry.BridgeType.Import);\n\t\t\n\t\temit NewImportWrapper(address(wrapper), home_network, home_asset, precompileAddress, stakeTokenAddr);\n\t\treturn wrapper;\n\t}\n\n}\n\n",
  "sourcePath": "/Users/jm/3DP-bridge/counterstake-bridge/evm/contracts/CounterstakeFactory.sol",
  "compiler": {
    "name": "solc",
    "version": "0.8.13+commit.abaa5c0e.Emscripten.clang"
  },
  "schemaVersion": "3.4.16",
  "updatedAt": "2025-08-19T12:12:03.330Z",
  "devdoc": {
    "kind": "dev",
    "methods": {},
    "version": 1
  },
  "userdoc": {
    "kind": "user",
    "methods": {},
    "version": 1
  }
}