{
  "contractName": "CounterstakeFactory",
  "abi": [
    {
      "inputs": [
        {
          "internalType": "address",
          "name": "_exportMaster",
          "type": "address"
        },
        {
          "internalType": "address",
          "name": "_importWrapperMaster",
          "type": "address"
        },
        {
          "internalType": "contract GovernanceFactory",
          "name": "_governanceFactory",
          "type": "address"
        },
        {
          "internalType": "contract VotedValueFactory",
          "name": "_votedValueFactory",
          "type": "address"
        }
      ],
      "stateMutability": "nonpayable",
      "type": "constructor"
    },
    {
      "anonymous": false,
      "inputs": [
        {
          "indexed": false,
          "internalType": "address",
          "name": "contractAddress",
          "type": "address"
        },
        {
          "indexed": false,
          "internalType": "address",
          "name": "tokenAddress",
          "type": "address"
        },
        {
          "indexed": false,
          "internalType": "string",
          "name": "foreign_network",
          "type": "string"
        },
        {
          "indexed": false,
          "internalType": "string",
          "name": "foreign_asset",
          "type": "string"
        }
      ],
      "name": "NewExport",
      "type": "event"
    },
    {
      "anonymous": false,
      "inputs": [
        {
          "indexed": false,
          "internalType": "address",
          "name": "contractAddress",
          "type": "address"
        },
        {
          "indexed": false,
          "internalType": "string",
          "name": "home_network",
          "type": "string"
        },
        {
          "indexed": false,
          "internalType": "string",
          "name": "home_asset",
          "type": "string"
        },
        {
          "indexed": false,
          "internalType": "address",
          "name": "precompileAddress",
          "type": "address"
        },
        {
          "indexed": false,
          "internalType": "address",
          "name": "stakeTokenAddress",
          "type": "address"
        }
      ],
      "name": "NewImportWrapper",
      "type": "event"
    },
    {
      "inputs": [],
      "name": "exportMaster",
      "outputs": [
        {
          "internalType": "address",
          "name": "",
          "type": "address"
        }
      ],
      "stateMutability": "view",
      "type": "function"
    },
    {
      "inputs": [],
      "name": "importWrapperMaster",
      "outputs": [
        {
          "internalType": "address",
          "name": "",
          "type": "address"
        }
      ],
      "stateMutability": "view",
      "type": "function"
    },
    {
      "inputs": [
        {
          "internalType": "string",
          "name": "foreign_network",
          "type": "string"
        },
        {
          "internalType": "string",
          "name": "foreign_asset",
          "type": "string"
        },
        {
          "internalType": "address",
          "name": "tokenAddr",
          "type": "address"
        },
        {
          "internalType": "uint16",
          "name": "counterstake_coef100",
          "type": "uint16"
        },
        {
          "internalType": "uint16",
          "name": "ratio100",
          "type": "uint16"
        },
        {
          "internalType": "uint256",
          "name": "large_threshold",
          "type": "uint256"
        },
        {
          "internalType": "uint256[]",
          "name": "challenging_periods",
          "type": "uint256[]"
        },
        {
          "internalType": "uint256[]",
          "name": "large_challenging_periods",
          "type": "uint256[]"
        }
      ],
      "name": "createExport",
      "outputs": [
        {
          "internalType": "contract Export",
          "name": "",
          "type": "address"
        }
      ],
      "stateMutability": "nonpayable",
      "type": "function"
    },
    {
      "inputs": [
        {
          "internalType": "string",
          "name": "home_network",
          "type": "string"
        },
        {
          "internalType": "string",
          "name": "home_asset",
          "type": "string"
        },
        {
          "internalType": "address",
          "name": "precompileAddress",
          "type": "address"
        },
        {
          "internalType": "address",
          "name": "stakeTokenAddr",
          "type": "address"
        },
        {
          "internalType": "address",
          "name": "oracleAddr",
          "type": "address"
        },
        {
          "internalType": "uint16",
          "name": "counterstake_coef100",
          "type": "uint16"
        },
        {
          "internalType": "uint16",
          "name": "ratio100",
          "type": "uint16"
        },
        {
          "internalType": "uint256",
          "name": "large_threshold",
          "type": "uint256"
        },
        {
          "internalType": "uint256[]",
          "name": "challenging_periods",
          "type": "uint256[]"
        },
        {
          "internalType": "uint256[]",
          "name": "large_challenging_periods",
          "type": "uint256[]"
        }
      ],
      "name": "createImportWrapper",
      "outputs": [
        {
          "internalType": "contract ImportWrapper",
          "name": "",
          "type": "address"
        }
      ],
      "stateMutability": "nonpayable",
      "type": "function"
    }
  ],
  "bytecode": "0x61010060405234620000c85762000e6d60808138039182620000218162000113565b938492833981010312620000c85780516200007891620000418262000139565b6020810151620000518162000139565b6060604083015192620000648462000139565b015192620000728462000139565b620001c8565b604051610bac9081620002c182396080518181816103df0152610662015260a051818181610425015261098e015260c05181818161078d0152610ab1015260e05181818161076c0152610a900152f35b600080fd5b50634e487b7160e01b600052604160045260246000fd5b60405190606082016001600160401b038111838210176200010457604052565b6200010e620000cd565b604052565b6040519190601f01601f191682016001600160401b038111838210176200010457604052565b6001600160a01b03811603620000c857565b906001918254906003918285558083106200019a575b50836000526020806000206000925b848410620001815750505050509050565b805162ffffff1682559286019290860190820162000170565b600085815285846020832093840193015b838110620001bc5750505062000161565b828155018690620001ab565b604051608081016001600160401b03811182821017620002b0575b60405260b4815260209060b48282015260b46040820152624f1a006060820152600080549160049283835580841062000288575b50818052838220905b8383106200026d57505050506200025f90620002506200023f620000e4565b62093a80815291820162278d009052565b624f1a0060408201526200014b565b60805260a05260c05260e052565b6001858262ffffff8394511685550192019201919062000220565b8280528385842091820191015b818110620002a4575062000217565b83815560010162000295565b620002ba620000cd565b620001e356fe608060405260048036101561001357600080fd5b600090813560e01c9182631d1511641461006f5750508063613ee0e2146100665780639461c5e51461005d5763a80b0c2014610050575b38600080fd5b61005861040e565b61004a565b506100586103c8565b50610058610315565b3461014957610140366003190112610149576001600160401b0382358181116101545761009f90369085016101b2565b90602435818111610150576100b790369086016101b2565b936100c061021b565b6100c8610231565b6100d0610247565b916100d961025d565b936100e261026e565b956101043581811161014c576100fb90369084016102a1565b98610124359182116101495761014561012b8c8c8c8c8c8c8c8c610121368d8f016102a1565b9760e4359661097b565b604051918291826001600160a01b03909116815260200190565b0390f35b80fd5b8980fd5b8380fd5b8280fd5b50634e487b7160e01b600052604160045260246000fd5b6001600160401b03811161018257604052565b61018a610158565b604052565b601f909101601f19168101906001600160401b0382119082101761018257604052565b81601f82011215610209578035906001600160401b03821161020e575b604051926101e7601f8401601f19166020018561018f565b8284526020838301011161020957816000926020809301838601378301015290565b600080fd5b610216610158565b6101cf565b604435906001600160a01b038216820361020957565b606435906001600160a01b038216820361020957565b608435906001600160a01b038216820361020957565b60a4359061ffff8216820361020957565b60c4359061ffff8216820361020957565b6064359061ffff8216820361020957565b6084359061ffff8216820361020957565b9080601f83011215610209578135906001600160401b038211610308575b8160051b604051936020936102d68584018761018f565b85528380860192820101928311610209578301905b8282106102f9575050505090565b813581529083019083016102eb565b610310610158565b6102bf565b503461020957610100366003190112610209576001600160401b03600435818111610209576103489036906004016101b2565b90602435818111610209576103619036906004016101b2565b61036961021b565b9261037261027f565b9061037b610290565b60c435858111610209576103939036906004016102a1565b9260e43595861161020957610145966103b361012b9736906004016102a1565b9560a43594610652565b600091031261020957565b5034610209576000366003190112610209576040517f00000000000000000000000000000000000000000000000000000000000000006001600160a01b03168152602090f35b5034610209576000366003190112610209576040517f00000000000000000000000000000000000000000000000000000000000000006001600160a01b03168152602090f35b6040519060005480835282602091828201906000805283600020936000905b82821061048b575050506104899250038361018f565b565b855484526001958601958895509381019390910190610473565b60405190816001805490818352602090818401928160005282600020926000905b8282106104de5750505050509061048991038361018f565b845486528896509485019493830193908301906104c6565b90815180825260208080930193019160005b828110610516575050505090565b835185529381019392810192600101610508565b94916105679361057597959260018060a01b0316875261ffff8092166020880152166040860152606085015260c0608085015260c08401906104f6565b9160a08184039101526104f6565b90565b506040513d6000823e3d90fd5b91908251928382526000905b8482106105be5750928060209394116105b1575b601f01601f1916010190565b60008382840101526105a5565b90602090818082850101519082860101520190610591565b90916105ed61057593604084526040840190610585565b916020818403910152610585565b6001600160a01b0391821681529116602082015260400190565b6001600160a01b0391821681529116602082015260806040820181905261057593919261064491840190610585565b916060818403910152610585565b92969095939491946106926106867f000000000000000000000000000000000000000000000000000000000000000061085e565b6001600160a01b031690565b855190986001600160a01b038a169690911561084f57925b80511561084057925b863b15610209576000936106dd916040519687958695630942a64160e21b87528c6004880161052a565b038183875af18015610833575b610820575b50813b1561020957604051633f8df68f60e21b8152600081806107168886600484016105d6565b038183875af18015610813575b610800575b50813b15610209577f68151a67649831ada6e747f91c2e4603f6344e43c00def40b79ec9b3580f0268936107d491604051632d6caf7960e11b8152600081806107b57f00000000000000000000000000000000000000000000000000000000000000007f0000000000000000000000000000000000000000000000000000000000000000600484016105fb565b038183895af180156107f3575b6107da575b5060405194859485610615565b0390a190565b806107e76107ed9261016f565b806103bd565b386107c7565b6107fb610578565b6107c2565b806107e761080d9261016f565b38610728565b61081b610578565b610723565b806107e761082d9261016f565b386106ef565b61083b610578565b6106ea565b506108496104a5565b926106b3565b50610858610454565b926106aa565b6e5af43d82803e903d91602b57fd5bf390763d602d80600a3d3981f3363d3d373d3d3d363d7300000062ffffff8260881c161760005260781b17602052603760096000f0906001600160a01b038216156108b457565b60405162461bcd60e51b8152602060048201526016602482015275115490cc4c4d8dce8818dc99585d194819985a5b195960521b6044820152606490fd5b929060609261090f61091d92979697608087526080870190610585565b908582036020870152610585565b6001600160a01b0391821660408501529416910152565b9395949061096e60809461096060018060a01b039586809516895260a060208a015260a0890190610585565b908782036040890152610585565b9616606085015216910152565b96919795989094989392936109b26106867f000000000000000000000000000000000000000000000000000000000000000061085e565b8751909a6001600160a01b038c1698909115610b6757925b805115610b5857925b883b15610209576000936109fd916040519687958695630942a64160e21b87528b6004880161052a565b038183895af18015610b4b575b610b38575b50833b15610209576000610a3a916040518093819263fcddcb2f60e01b83528a888b600486016108f2565b038183885af18015610b2b575b610b18575b50823b15610209577fd9398b1ad3cdd9c599e82a3d9915fe8bd656b00c950164d0b07c9545b8d8b208946107d492604051632d6caf7960e11b815260008180610ad97f00000000000000000000000000000000000000000000000000000000000000007f0000000000000000000000000000000000000000000000000000000000000000600484016105fb565b0381838a5af18015610b0b575b610af8575b5060405195869586610934565b806107e7610b059261016f565b38610aeb565b610b13610578565b610ae6565b806107e7610b259261016f565b38610a4c565b610b33610578565b610a47565b806107e7610b459261016f565b38610a0f565b610b53610578565b610a0a565b50610b616104a5565b926109d3565b50610b70610454565b926109ca56fea2646970667358221220d5b03849bb1978c92f6d7dc6589faab2027a2d83458c4df9812d9143bf379abd64736f6c634300080d0033",
  "immutableReferences": {
    "3984": [
      {
        "length": 32,
        "start": 991
      },
      {
        "length": 32,
        "start": 1634
      }
    ],
    "3986": [
      {
        "length": 32,
        "start": 1061
      },
      {
        "length": 32,
        "start": 2446
      }
    ],
    "3989": [
      {
        "length": 32,
        "start": 1933
      },
      {
        "length": 32,
        "start": 2737
      }
    ],
    "3992": [
      {
        "length": 32,
        "start": 1900
      },
      {
        "length": 32,
        "start": 2704
      }
    ]
  },
  "source": "// SPDX-License-Identifier: MIT\npragma solidity ^0.8.3;\nimport \"@openzeppelin/contracts/proxy/Clones.sol\";\nimport \"./Export.sol\";\nimport \"./ImportWrapper.sol\";\nimport \"./CounterstakeLibrary.sol\";\nimport \"./VotedValueFactory.sol\";\n\n\ncontract CounterstakeFactory {\n\n\tevent NewExport(address contractAddress, address tokenAddress, string foreign_network, string foreign_asset);\n\tevent NewImportWrapper(address contractAddress, string home_network, string home_asset, address precompileAddress, address stakeTokenAddress);\n    \n\t// The period has been reduced to 3 min for testing.\n\t// uint[] private default_challenging_periods = [72 hours, 7 days, 30 days, 60 days];\n\tuint[] private default_challenging_periods = [3 minutes, 3 minutes, 3 minutes, 60 days];\n\tuint[] private default_large_challenging_periods = [1 weeks, 30 days, 60 days];\n\n\taddress public immutable exportMaster;\n\taddress public immutable importWrapperMaster;\n\n\tGovernanceFactory private immutable governanceFactory;\n\tVotedValueFactory private immutable votedValueFactory;\n\n\tconstructor(address _exportMaster, address _importWrapperMaster, GovernanceFactory _governanceFactory, VotedValueFactory _votedValueFactory) {\n\t\texportMaster = _exportMaster;\n\t\timportWrapperMaster = _importWrapperMaster;\n\t\tgovernanceFactory = _governanceFactory;\n\t\tvotedValueFactory = _votedValueFactory;\n\t}\n\n\tfunction createExport(\n\t\tstring memory foreign_network, \n\t\tstring memory foreign_asset, \n\t\taddress tokenAddr, \n\t\tuint16 counterstake_coef100, \n\t\tuint16 ratio100, \n\t\tuint large_threshold, \n\t\tuint[] memory challenging_periods, \n\t\tuint[] memory large_challenging_periods\n\t) external returns (Export) {\n\t\tExport export = Export(Clones.clone(exportMaster));\n\t\texport.initCounterstake(\n\t\t\ttokenAddr, \n\t\t\tcounterstake_coef100, \n\t\t\tratio100, \n\t\t\tlarge_threshold, \n\t\t\tchallenging_periods.length > 0 ? challenging_periods : default_challenging_periods, \n\t\t\tlarge_challenging_periods.length > 0 ? large_challenging_periods : default_large_challenging_periods\n\t\t);\n\t\texport.initExport(foreign_network, foreign_asset);\n\t\texport.setupGovernance(governanceFactory, votedValueFactory);\n\t\temit NewExport(address(export), address(tokenAddr), foreign_network, foreign_asset);\n\t\treturn export;\n\t}\n\n\tfunction createImportWrapper(\n\t\tstring memory home_network,\n\t\tstring memory home_asset,\n\t\taddress precompileAddress,\n\t\taddress stakeTokenAddr,\n\t\taddress oracleAddr,\n\t\tuint16 counterstake_coef100,\n\t\tuint16 ratio100,\n\t\tuint large_threshold,\n\t\tuint[] memory challenging_periods,\n\t\tuint[] memory large_challenging_periods\n\t) external returns (ImportWrapper) {\n\t\tImportWrapper wrapper = ImportWrapper(Clones.clone(importWrapperMaster));\n\t\twrapper.initCounterstake(\n\t\t\tstakeTokenAddr, \n\t\t\tcounterstake_coef100, \n\t\t\tratio100, \n\t\t\tlarge_threshold, \n\t\t\tchallenging_periods.length > 0 ? challenging_periods : default_challenging_periods, \n\t\t\tlarge_challenging_periods.length > 0 ? large_challenging_periods : default_large_challenging_periods\n\t\t);\n\t\twrapper.initImportWrapper(home_network, home_asset, precompileAddress, oracleAddr);\n\t\twrapper.setupGovernance(governanceFactory, votedValueFactory);\n\t\temit NewImportWrapper(address(wrapper), home_network, home_asset, precompileAddress, stakeTokenAddr);\n\t\treturn wrapper;\n\t}\n\n}\n\n",
  "sourcePath": "/Users/jm/3DP-bridge/counterstake-bridge/evm/contracts/CounterstakeFactory.sol",
  "compiler": {
    "name": "solc",
    "version": "0.8.13+commit.abaa5c0e.Emscripten.clang"
  },
  "schemaVersion": "3.4.16",
  "updatedAt": "2025-08-11T16:27:16.633Z",
  "devdoc": {
    "kind": "dev",
    "methods": {},
    "version": 1
  },
  "userdoc": {
    "kind": "user",
    "methods": {},
    "version": 1
  }
}