{
  "contractName": "CounterstakeLibrary",
  "abi": [
    {
      "anonymous": false,
      "inputs": [
        {
          "indexed": true,
          "internalType": "uint256",
          "name": "claim_num",
          "type": "uint256"
        },
        {
          "indexed": false,
          "internalType": "enum CounterstakeLibrary.Side",
          "name": "outcome",
          "type": "uint8"
        }
      ],
      "name": "FinishedClaim",
      "type": "event"
    },
    {
      "anonymous": false,
      "inputs": [
        {
          "indexed": true,
          "internalType": "uint256",
          "name": "claim_num",
          "type": "uint256"
        },
        {
          "indexed": false,
          "internalType": "address",
          "name": "author_address",
          "type": "address"
        },
        {
          "indexed": false,
          "internalType": "uint256",
          "name": "stake",
          "type": "uint256"
        },
        {
          "indexed": false,
          "internalType": "enum CounterstakeLibrary.Side",
          "name": "outcome",
          "type": "uint8"
        },
        {
          "indexed": false,
          "internalType": "enum CounterstakeLibrary.Side",
          "name": "current_outcome",
          "type": "uint8"
        },
        {
          "indexed": false,
          "internalType": "uint256",
          "name": "yes_stake",
          "type": "uint256"
        },
        {
          "indexed": false,
          "internalType": "uint256",
          "name": "no_stake",
          "type": "uint256"
        },
        {
          "indexed": false,
          "internalType": "uint32",
          "name": "expiry_ts",
          "type": "uint32"
        },
        {
          "indexed": false,
          "internalType": "uint256",
          "name": "challenging_target",
          "type": "uint256"
        }
      ],
      "name": "NewChallenge",
      "type": "event"
    },
    {
      "anonymous": false,
      "inputs": [
        {
          "indexed": true,
          "internalType": "uint256",
          "name": "claim_num",
          "type": "uint256"
        },
        {
          "indexed": false,
          "internalType": "address",
          "name": "author_address",
          "type": "address"
        },
        {
          "indexed": false,
          "internalType": "string",
          "name": "sender_address",
          "type": "string"
        },
        {
          "indexed": false,
          "internalType": "address",
          "name": "recipient_address",
          "type": "address"
        },
        {
          "indexed": false,
          "internalType": "string",
          "name": "txid",
          "type": "string"
        },
        {
          "indexed": false,
          "internalType": "uint32",
          "name": "txts",
          "type": "uint32"
        },
        {
          "indexed": false,
          "internalType": "uint256",
          "name": "amount",
          "type": "uint256"
        },
        {
          "indexed": false,
          "internalType": "int256",
          "name": "reward",
          "type": "int256"
        },
        {
          "indexed": false,
          "internalType": "uint256",
          "name": "stake",
          "type": "uint256"
        },
        {
          "indexed": false,
          "internalType": "string",
          "name": "data",
          "type": "string"
        },
        {
          "indexed": false,
          "internalType": "uint32",
          "name": "expiry_ts",
          "type": "uint32"
        }
      ],
      "name": "NewClaim",
      "type": "event"
    },
    {
      "inputs": [],
      "name": "P3D_PRECOMPILE",
      "outputs": [
        {
          "internalType": "address",
          "name": "",
          "type": "address"
        }
      ],
      "stateMutability": "view",
      "type": "function"
    },
    {
      "inputs": [
        {
          "internalType": "uint256[]",
          "name": "periods",
          "type": "uint256[]"
        }
      ],
      "name": "validateChallengingPeriods",
      "outputs": [],
      "stateMutability": "pure",
      "type": "function"
    },
    {
      "inputs": [
        {
          "internalType": "string",
          "name": "sender_address",
          "type": "string"
        },
        {
          "internalType": "address",
          "name": "recipient_address",
          "type": "address"
        },
        {
          "internalType": "string",
          "name": "txid",
          "type": "string"
        },
        {
          "internalType": "uint32",
          "name": "txts",
          "type": "uint32"
        },
        {
          "internalType": "uint256",
          "name": "amount",
          "type": "uint256"
        },
        {
          "internalType": "int256",
          "name": "reward",
          "type": "int256"
        },
        {
          "internalType": "string",
          "name": "data",
          "type": "string"
        }
      ],
      "name": "getClaimId",
      "outputs": [
        {
          "internalType": "string",
          "name": "",
          "type": "string"
        }
      ],
      "stateMutability": "pure",
      "type": "function"
    },
    {
      "inputs": [
        {
          "internalType": "address",
          "name": "_addr",
          "type": "address"
        }
      ],
      "name": "isContract",
      "outputs": [
        {
          "internalType": "bool",
          "name": "",
          "type": "bool"
        }
      ],
      "stateMutability": "view",
      "type": "function"
    }
  ],
  "bytecode": "0x6080806040523461001c57611f5390816100228239308160070152f35b600080fdfe6080604052307f000000000000000000000000000000000000000000000000000000000000000014600436101561003557600080fd5b6000803560e01c91826316279055146100fa57826328f1b79e146100ea5782633cd93ba8146100da578263506d3c43146100cf57826354513b15146100bc57505080635ed2a442146100b3578063d4a20daa146100aa5763fa3d060d1461009d575b38600080fd5b6100a5610b64565b610097565b506100a5610aca565b506100a5610a35565b9091506100cc57506100a5610777565b80fd5b5050506100a561075e565b9091506100cc57506100a5610663565b9091506100cc57506100a5610153565b5050506100a5610127565b6001600160a01b031690565b6001600160a01b0381160361012257565b600080fd5b50602036600319011261012257602063ffffffff60043561014781610111565b3b161515604051908152f35b5060c0366003190112610122576004356024356084356064356002821015610122577f1ea767f4ded010b74d77c472069320fb2964c6e1bdb734785d4cbca1aec1032360a43560028501936102e1855495600160ff63ffffffff986101be8a8260a01c1642106114a4565b60d01c166101cb81610de0565b6101d485610de0565b6101e0818614156114fb565b6101e981610de0565b0361052a5761021c61021560058a01545b8b5461020f9060b01c61ffff165b61ffff1690565b90611591565b6064900490565b97889161022885610de0565b60018514801561051b578b610241886005860154610dd4565b85811080159d60009290916105135761025a92506115ec565b9b5b6102668d8a6115ec565b9261027089610de0565b156104fd5760058501610284848254610dd4565b90555b610479575b506102b76102af6102a8886102a38d604435610e00565b61116b565b3390611183565b918254610dd4565b90555490600660058201549101549060405196879660ff8c8660a01c169560d01c16913389611624565b0390a2816102ec575b005b6102f68354610105565b6001600160a01b038116919061080283036103a157505050602061034c60009261032e6103296103296102ea9754610105565b610105565b9060405194858094819363a9059cbb60e01b8352336004840161168d565b03925af1908115610394575b600091610366575b50611700565b610387915060203d811161038d575b61037f8183610551565b810190611678565b38610360565b503d610375565b61039c6116a8565b610358565b63fbfbfbfa92945060801c16146000146104235760206103de6102ea9360009360405194858094819363a9059cbb60e01b8352336004840161168d565b03925af1908115610416575b6000916103f8575b506116b5565b610410915060203d811161038d5761037f8183610551565b386103f2565b61041e6116a8565b6103ea565b60405162461bcd60e51b815260206004820152602860248201527f756e737570706f7274656420746f6b656e207479706520666f722065786365736044820152671cc81c99599d5b9960c21b6064820152608490fd5b6104f6919461020f610208610215936104a96104a361049e895461ffff9060c01c1690565b611603565b88610e32565b6104b38b88610e51565b6104eb6104e56104dc6104d68a5461ffff60ff8260d81c169160c01c16866118ee565b42610dd4565b63ffffffff1690565b88610e0f565b5460b01c61ffff1690565b928b61028c565b6006850161050c848254610dd4565b9055610287565b50509b61025c565b8b610241886006860154610dd4565b61021c61021560068a01546101fa565b50634e487b7160e01b600052604160045260246000fd5b601f909101601f19168101906001600160401b0382119082101761057457604052565b61057c61053a565b604052565b6040519061012082016001600160401b0381118382101761057457604052565b604051906101e082016001600160401b0381118382101761057457604052565b6020906001600160401b0381116105de575b601f01601f19160190565b6105e661053a565b6105d3565b81601f8201121561012257803590610602826105c1565b926106106040519485610551565b8284526020838301011161012257816000926020809301838601378301015290565b6064359063ffffffff8216820361012257565b359063ffffffff8216820361012257565b359061066182610111565b565b5060031960c0368201126101225760a435906001600160401b0390818311610122576101209083360301126101225761069a610581565b908260040135818111610122576106b790600436918601016105eb565b82526106c560248401610645565b602083015260448301356040830152606483013560608301526084830135608083015260a483013560a08301526106fe60c48401610656565b60c083015260e48301358181116101225761071f90600436918601016105eb565b60e0830152610104830135908111610122576102ea92600461074492369201016105eb565b610100820152608435606435604435602435600435611218565b5060003660031901126101225760206040516108028152f35b5060803660031901126101225760643560443560243560043561079984610111565b839260028201908154956107b763ffffffff8860a01c164211611742565b6001600160a01b03908116156109bf575b8087169086161495866109a4575b86908180610996575b6107e9901561179a565b6000946108108861080b60ff6107ff888c610e00565b9560d01c16809561116b565b611183565b549060018215938415809561098f575b610829906117da565b61083281610de0565b03610984576005810154925b610953575b50505061093d575b600093610864610860845460ff9060e81c1690565b1590565b6108bb575b9461080b60009361088f610884610895956108b7999a610e00565b915460d01c60ff1690565b9061116b565b5560405193849384604091949392606082019515158252151560208201520152565b0390f35b825460ff60e81b1916600160e81b1783556001956108b7955060009361089593919261080b9261088f916108849190817fb29fe5d66641f291db1657da090dd1ebad21e549868d3514b7a7c57c99a6867161092a61091e885460ff9060d01c1690565b6040519182918261187e565b0390a2959a995095505050935050610869565b815460ff60e01b1916600160e01b17825561084b565b61097b93965090610971826006600561097695015491015490610dd4565b611591565b6115b0565b92388080610843565b60068101549261083e565b5085610820565b5060e081901c60ff166107df565b9550600160ff8760d01c166109b881610de0565b14956107d6565b3395506107c8565b918091926000905b8282106109e75750116109e0575050565b6000910152565b915080602091830151818601520182916109cf565b90602091610a15815180928185528580860191016109c7565b601f01601f1916010190565b906020610a329281815201906109fc565b90565b5060e0366003190112610122576001600160401b0360043581811161012257610a629036906004016105eb565b90602435610a6f81610111565b60443582811161012257610a879036906004016105eb565b90610a90610632565b9360c435938411610122576108b794610ab0610abe9536906004016105eb565b9360a4359360843593611ae3565b60405191829182610a21565b50602080600319360112610122576001600160401b036004358181116101225736602382011215610122578060040135918211610b4d575b8160051b60405192610b1685830185610551565b83526024848401918301019136831161012257602401905b828210610b3e576102ea84611a3d565b81358152908401908401610b2e565b610b5561053a565b610b02565b8015150361012257565b5060603660031901126101225760243561ffff8116810361012257610b9a60209160443590610b9282610b5a565b6004356118ee565b604051908152f35b15610ba957565b60405162461bcd60e51b81526020600482015260076024820152663020636c61696d60c81b6044820152606490fd5b15610bdf57565b60405162461bcd60e51b81526020600482015260166024820152751d1a19481cdd185ad9481a5cc81d1bdbc81cdb585b1b60521b6044820152606490fd5b50634e487b7160e01b600052601160045260246000fd5b9063ffffffff8080931691168092038111610c4d570190565b610c55610c1d565b0190565b15610c6057565b60405162461bcd60e51b8152602060048201526009602482015268746f6f206561726c7960b81b6044820152606490fd5b15610c9857565b60405162461bcd60e51b815260206004820152604760248201527f7468652073656e64657220646973616c6c6f7765642074686972642d7061727460448201527f7920636c61696d696e672062792073657474696e672061206e65676174697665606482015266081c995dd85c9960ca1b608482015260a490fd5b90610c55602092828151948592016109c7565b602090610d409282604051948386809551938492016109c7565b82019081520301902090565b15610d5357565b60405162461bcd60e51b815260206004820152602660248201527f74686973207472616e736665722068617320616c7265616479206265656e20636044820152651b185a5b595960d21b6064820152608490fd5b6001906001198111610c4d570190565b8019603011610dc7575b60300190565b610dcf610c1d565b610dc1565b81198111610c4d570190565b60021115610dea57565b634e487b7160e01b600052602160045260246000fd5b90600052602052604060002090565b805463ffffffff60a01b191660a09290921b63ffffffff60a01b16919091179055565b805461ffff60c01b191660c09290921b61ffff60c01b16919091179055565b906002811015610dea57815460ff60d01b191660d09190911b60ff60d01b16179055565b90600182811c92168015610ea5575b6020831014610e8f57565b634e487b7160e01b600052602260045260246000fd5b91607f1691610e84565b90601f8111610ebd57505050565b600091825260208220906020601f850160051c83019410610ef9575b601f0160051c01915b828110610eee57505050565b818155600101610ee2565b9092508290610ed9565b81519192916001600160401b038111610fd2575b610f2b81610f258454610e75565b84610eaf565b602080601f8311600114610f67575081929394600092610f5c575b50508160011b916000199060031b1c1916179055565b015190503880610f46565b90601f19831695610f7d85600052602060002090565b926000905b888210610fba57505083600195969710610fa1575b505050811b019055565b015160001960f88460031b161c19169055388080610f97565b80600185968294968601518155019501930190610f82565b610fda61053a565b610f17565b906101c0600691805184556110636001850161101e6110016020850151610105565b82546001600160a01b0319166001600160a01b0391909116178255565b611038611032604085015163ffffffff1690565b82610e0f565b606083015163ffffffff16815463ffffffff60c01b191660c09190911b63ffffffff60c01b16179055565b6111356002850161107a6110016080850151610105565b61108e61103260a085015163ffffffff1690565b6110a66110a060c085015161ffff1690565b82610e32565b6110bd60e08401516110b781610de0565b82610e51565b6110e86110ce610100850151151590565b825460ff60d81b191690151560d81b60ff60d81b16178255565b6111136110f9610120850151151590565b825460ff60e01b191690151560e01b60ff60e01b16178255565b6101408301511515815460ff60e81b191690151560e81b60ff60e81b16179055565b61114761016082015160038601610f03565b61115961018082015160048601610f03565b6101a081015160058501550151910155565b906002811015610dea57600052602052604060002090565b9060018060a01b0316600052602052604060002090565b98939261012098936111e6926111d261121199989a959e9d9e8d60018060a01b0380941690528d6101409081602082015201906109fc565b921660408c01528a820360608c01526109fc565b9363ffffffff80971660808a015260a089015260c088015260e08701528582036101008701526109fc565b9416910152565b939492604084019061122c82511515610ba2565b60808501611241815160a08801511115610bd8565b602086019661127661126e6104dc61125d8b5163ffffffff1690565b845460c01c63ffffffff1690610c34565b421015610c59565b60c087019560018060a01b03938461128e8951610105565b161561149c575b60608901926000845112611481575b60e08a01928c6112e38d8d8d8c6112bd8a519251610105565b936112ce8451915163ffffffff1690565b9151926101008d5195019e8f51961690611ae3565b6112f76112f08c83610d26565b5415610d4c565b6004840154938415159485611473575b5084611312916118a5565b61131c9042610dd4565b63ffffffff169a61132c91610d26565b558b8851928b5161133c90610105565b908651908a51928a5194516113549063ffffffff1690565b9061135d6105a1565b9788526001600160a01b0316602088015263ffffffff16604087015263ffffffff4216606087015233608087015263ffffffff8d1660a0870152600060c0870152600160e087015215156101008601526101208501600090526101408501600090526101608501526101808401526101a08301528c6101c08301600090526113e491610e00565b906113ee91610fdf565b8a84519133916113fd91610e00565b611411906001600052602052604060002090565b9061141b91611183565b5551955161142890610105565b9651975163ffffffff16935190519151925193604051988998339861144d998b61119a565b037fb4096a3b39efa6fa23e55edafbb26c619699ce4eb0b8f8c0178b1a4919ac673691a2565b895110159450611312611307565b61149761148e8a51610105565b87163314610c91565b6112a4565b338852611295565b156114ab57565b60405162461bcd60e51b815260206004820152602260248201527f746865206368616c6c656e67696e6720706572696f6420686173206578706972604482015261195960f21b6064820152608490fd5b1561150257565b60405162461bcd60e51b815260206004820152601f60248201527f74686973206f7574636f6d6520697320616c72656164792063757272656e74006044820152606490fd5b6001600160fd1b03811160011661155f575b60031b90565b611567610c1d565b611559565b6001600160ff1b038111600116611584575b60011b90565b61158c610c1d565b61157e565b80600019048211811515166115a4570290565b6115ac610c1d565b0290565b81156115ba570490565b634e487b7160e01b600052601260045260246000fd5b806013106115df575b60130390565b6115e7610c1d565b6115d9565b8181106115f7570390565b6115ff610c1d565b0390565b60019061ffff809116908114610c4d570190565b906002821015610dea5752565b94909897969263ffffffff9461165a6116649260e099956101008a019d60018060a01b03168a5260208a01526040890190611617565b6060870190611617565b608085015260a08401521660c08201520152565b908160209103126101225751610a3281610b5a565b6001600160a01b039091168152602081019190915260400190565b506040513d6000823e3d90fd5b156116bc57565b60405162461bcd60e51b815260206004820152601c60248201527b0cd114185cdcc8115490cc8c081d1c985b9cd9995c8819985a5b195960221b6044820152606490fd5b1561170757565b60405162461bcd60e51b8152602060048201526013602482015272140cd1081d1c985b9cd9995c8819985a5b1959606a1b6044820152606490fd5b1561174957565b60405162461bcd60e51b815260206004820152602360248201527f6368616c6c656e67696e6720706572696f64206973207374696c6c206f6e676f604482015262696e6760e81b6064820152608490fd5b156117a157565b60405162461bcd60e51b815260206004820152601160248201527030b63932b0b23c903bb4ba34323930bbb760791b6044820152606490fd5b156117e157565b60405162461bcd60e51b815260206004820152606360248201527f796f7520617265206e6f742074686520726563697069656e7420616e6420796f60448201527f75206469646e2774207374616b65206f6e207468652077696e6e696e67206f7560648201527f74636f6d65206f7220796f75206861766520616c72656164792077697468647260848201526230bbb760e91b60a482015260c490fd5b6020810192916106619190611617565b50634e487b7160e01b600052603260045260246000fd5b90156118e6576003015b8054600181106118d9575b156118cc575b60005260206000205490565b6118d461188e565b6118c0565b6118e1610c1d565b6118ba565b6002016118af565b909115611951576003015b805460018110611944575b61ffff6000198201848216811061193a575b505082101561192d575b6000526020600020015490565b61193561188e565b611920565b1692503880611916565b61194c610c1d565b611904565b6002016118f9565b6001906000198114610c4d570190565b602091815181101561197e575b60051b010190565b61198661188e565b611976565b1561199257565b60405162461bcd60e51b8152602060048201526024808201527f736f6d6520706572696f647320617265206c6f6e676572207468616e203320796044820152636561727360e01b6064820152608490fd5b156119ea57565b60405162461bcd60e51b815260206004820152602560248201527f73756273657175656e7420706572696f64732063616e6e6f742067657420736860448201526437b93a32b960d91b6064820152608490fd5b90815115611aa1576000805b8351821015611a9b57611a8190611a6f6305a39a80611a688588611969565b511061198b565b611a798386611969565b5110156119e3565b611a95611a8e8285611969565b5191611959565b90611a49565b50509050565b60405162461bcd60e51b815260206004820152600d60248201526c656d70747920706572696f647360981b6044820152606490fd5b605f60f81b815260010190565b94919295939095611af2611c80565b966000805b60148110611bb75750505063ffffffff16611b1190611cf4565b90611b1b90611cf4565b91611b2590611dc2565b9260405196879660208801611b3991610d13565b611b4290611ad6565b611b4b91610d13565b611b5490611ad6565b611b5d91610d13565b611b6690611ad6565b611b6f91610d13565b611b7890611ad6565b611b8191610d13565b611b8a90611ad6565b611b9391610d13565b611b9c90611ad6565b611ba591610d13565b03601f1981018252610a329082610551565b80611c57611c0e611c08611bf8611bf2611be3611bde611bd9611c7b996115d0565b611547565b611e6b565b6001600160a01b038a166115b0565b60ff1690565b60f81b6001600160f81b03191690565b60f81c90565b8c611c51611c3f611c30611bf8611c2a600f8760041c16611e86565b86611ead565b9360f41b600f60f81b16611ebf565b611c488661156c565b90881a92611cd5565b53611ebf565b611c75611c6b611c668461156c565b610da7565b91851a918d611cd5565b53611959565b611af7565b60405190606082016001600160401b03811183821017611cad575b60405260288252604082602036910137565b611cb561053a565b611c9b565b8015611cc8575b6000190190565b611cd0610c1d565b611cc1565b906020918051821015611ce757010190565b611cef61188e565b010190565b8015611d86578060008281935b611d725750611d0f836105c1565b92611d1d6040519485610551565b808452601f19611d2c826105c1565b0136602086013791805b611d405750505090565b600a90611d5d611d57611bf8611bf2858506610db7565b94611cba565b93831a611d6a8587611cd5565b530480611d36565b92611d7e600a91611959565b930480611d01565b50604080519081016001600160401b03811182821017611db5575b60405260018152600360fc1b602082015290565b611dbd61053a565b611da1565b6001600160ff1b03811215611e36576000808212611de45750610a3290611cf4565b611e01611e1b92610a3292600160ff1b8214611e29575b03611cf4565b604051602d60f81b60208201529283916021830190610d13565b03601f198101835282610551565b611e31610c1d565b611dfb565b60405162461bcd60e51b815260206004820152600d60248201526c696e7420746f6f206c6172676560981b6044820152606490fd5b60019060ff8111611e7a571b90565b611e82610c1d565b1b90565b610ff090600f60ff821611600116611ea0575b60041b1690565b611ea8610c1d565b611e99565b60ff91821691168181106115f7570390565b60f81c600a811015611ef45760cf8111611ee7575b60300160f81b6001600160f81b03191690565b611eef610c1d565b611ed4565b60a88111611f10575b60570160f81b6001600160f81b03191690565b611f18610c1d565b611efd56fea264697066735822122055ad9ccfd7ff67e53a159c68e5893f4d69c05f21bc29988f82c10078c96b1ae364736f6c634300080d0033",
  "immutableReferences": {
    "library_deploy_address": [
      {
        "length": 32,
        "start": 7
      }
    ]
  },
  "source": "// SPDX-License-Identifier: MIT\npragma solidity ^0.8.3;\nimport \"@openzeppelin/contracts/token/ERC20/IERC20.sol\";\nimport \"@openzeppelin/contracts/token/ERC20/utils/SafeERC20.sol\";\nimport \"./IP3D.sol\";\nimport \"./IPrecompileERC20.sol\";\nimport \"./IERC20WithSymbol.sol\";\n\n// The purpose of the library is to separate some of the code out of the Export/Import contracts and keep their sizes under the 24KiB limit\n\n\nlibrary CounterstakeLibrary {\n\n\tusing SafeERC20 for IERC20;\n\n\t// P3D precompile address constant\n\taddress public constant P3D_PRECOMPILE = 0x0000000000000000000000000000000000000802;\n\n\tenum Side {no, yes}\n\n\t// small values (bool, uint32, ...) are grouped together in order to be packed efficiently\n\tstruct Claim {\n\t\tuint amount;\n\t//\tint reward;\n\n\t\taddress payable recipient_address; // 20 bytes, 12 bytes left\n\t\tuint32 txts;\n\t\tuint32 ts;\n\t\t\n\t\taddress payable claimant_address;\n\t\tuint32 expiry_ts;\n\t\tuint16 period_number;\n\t\tSide current_outcome;\n\t\tbool is_large;\n\t\tbool withdrawn;\n\t\tbool finished;\n\t\t\n\t\tstring sender_address;\n\t//\tstring txid;\n\t\tstring data;\n\t\tuint yes_stake;\n\t\tuint no_stake;\n\t//\tuint challenging_target;\n\t}\n\n\tstruct Settings {\n\t\taddress tokenAddress;\n\t\tuint16 ratio100;// = 100;\n\t\tuint16 counterstake_coef100;// = 150;\n\t\tuint32 min_tx_age;\n\t\tuint min_stake;\n\t\tuint[] challenging_periods;// = [12 hours, 3 days, 1 weeks, 30 days];\n\t\tuint[] large_challenging_periods;// = [3 days, 1 weeks, 30 days];\n\t\tuint large_threshold;\n\t}\n\n\tevent NewClaim(uint indexed claim_num, address author_address, string sender_address, address recipient_address, string txid, uint32 txts, uint amount, int reward, uint stake, string data, uint32 expiry_ts);\n\tevent NewChallenge(uint indexed claim_num, address author_address, uint stake, Side outcome, Side current_outcome, uint yes_stake, uint no_stake, uint32 expiry_ts, uint challenging_target);\n\tevent FinishedClaim(uint indexed claim_num, Side outcome);\n\n\t// Helper function to detect 3DPass ERC20 precompiles\n\tfunction is3DPassERC20Precompile(address tokenAddr) internal pure returns (bool) {\n\t\t// 3DPass ERC20 precompiles have prefix 0xFBFBFBFA..\n\t\t// Check if the address starts with 0xFBFBFBFA\n\t\treturn uint160(tokenAddr) >> 128 == 0xFBFBFBFA;\n\t}\n\n\t// Helper functions for P3D handling\n\tfunction isP3D(address token) internal pure returns (bool) {\n\t\treturn token == P3D_PRECOMPILE;\n\t}\n\n\t// Helper function to get symbol from precompiles and regular ERC20 tokens\n\tfunction getPrecompileSymbol(address tokenAddr) internal view returns (string memory) {\n\t\tif (tokenAddr == P3D_PRECOMPILE) {\n\t\t\t// P3D precompile - use IP3D interface\n\t\t\treturn IP3D(tokenAddr).symbol();\n\t\t} else if (is3DPassERC20Precompile(tokenAddr)) {\n\t\t\t// Other 3DPass ERC20 precompiles - use IPrecompileERC20 interface\n\t\t\treturn IPrecompileERC20(tokenAddr).symbol();\n\t\t} else {\n\t\t\t// Regular ERC20 tokens - use IERC20WithSymbol interface\n\t\t\treturn IERC20WithSymbol(tokenAddr).symbol();\n\t\t}\n\t}\n\n\t// Approve bridge to spend ERC20 precompile tokens.\n\t// Not applicable to P3D precompile.\n\tfunction approvePrecompile(address tokenAddr, address bridgeAddr) internal {\n\t\trequire(tokenAddr != P3D_PRECOMPILE, \"not for P3D precompile\");\n\t\trequire(is3DPassERC20Precompile(tokenAddr), \"not ERC20 precompile\");\n\t\tIPrecompileERC20(tokenAddr).approve(bridgeAddr, type(uint).max);\n\t}\n\n\n\tstruct ClaimRequest {\n\t\tstring txid;\n\t\tuint32 txts;\n\t\tuint amount;\n\t\tint reward;\n\t\tuint stake;\n\t\tuint required_stake;\n\t\taddress payable recipient_address;\n\t\tstring sender_address;\n\t\tstring data;\n\t}\n\n\tfunction claim(\n\t\tSettings storage settings,\n\t\tmapping(string => uint) storage claim_nums,\n\t\tmapping(uint => Claim) storage claims,\n\t\tmapping(uint => mapping(Side => mapping(address => uint))) storage stakes,\n\t\tuint claim_num,\n\t\tClaimRequest memory req\n\t) external {\n\t\trequire(req.amount > 0, \"0 claim\");\n\t\trequire(req.stake >= req.required_stake, \"the stake is too small\");\n\t\trequire(block.timestamp >= req.txts + settings.min_tx_age, \"too early\");\n\t\tif (req.recipient_address == address(0))\n\t\t\treq.recipient_address = payable(msg.sender);\n\t\tif (req.reward < 0)\n\t\t\trequire(req.recipient_address == payable(msg.sender), \"the sender disallowed third-party claiming by setting a negative reward\");\n\t\tstring memory claim_id = getClaimId(req.sender_address, req.recipient_address, req.txid, req.txts, req.amount, req.reward, req.data);\n\t\trequire(claim_nums[claim_id] == 0, \"this transfer has already been claimed\");\n\t\tbool is_large = (settings.large_threshold > 0 && req.stake >= settings.large_threshold);\n\t\tuint32 expiry_ts = uint32(block.timestamp + getChallengingPeriod(settings, 0, is_large)); // might wrap\n\t\tclaim_nums[claim_id] = claim_num;\n\t//\tuint challenging_target = req.stake * settings.counterstake_coef100/100;\n\t\tclaims[claim_num] = Claim({\n\t\t\tamount: req.amount,\n\t\t//\treward: req.reward,\n\t\t\trecipient_address: req.recipient_address,\n\t\t\tclaimant_address: payable(msg.sender),\n\t\t\tsender_address: req.sender_address,\n\t\t//\ttxid: req.txid,\n\t\t\tdata: req.data,\n\t\t\tyes_stake: req.stake,\n\t\t\tno_stake: 0,\n\t\t\tcurrent_outcome: Side.yes,\n\t\t\tis_large: is_large,\n\t\t\tperiod_number: 0,\n\t\t\ttxts: req.txts,\n\t\t\tts: uint32(block.timestamp),\n\t\t\texpiry_ts: expiry_ts,\n\t\t//\tchallenging_target: req.stake * settings.counterstake_coef100/100,\n\t\t\twithdrawn: false,\n\t\t\tfinished: false\n\t\t});\n\t\tstakes[claim_num][Side.yes][msg.sender] = req.stake;\n\t\temit NewClaim(claim_num, msg.sender, req.sender_address, req.recipient_address, req.txid, req.txts, req.amount, req.reward, req.stake, req.data, expiry_ts);\n\t//\treturn claim_id;\n\t}\n\n\n\tfunction challenge(\n\t\tSettings storage settings, \n\t\tClaim storage c,\n\t\tmapping(uint => mapping(Side => mapping(address => uint))) storage stakes, \n\t\tuint claim_num, \n\t\tSide stake_on, \n\t\tuint stake\n\t) external {\n\t\trequire(block.timestamp < c.expiry_ts, \"the challenging period has expired\");\n\t\trequire(stake_on != c.current_outcome, \"this outcome is already current\");\n\t\tuint excess;\n\t\tuint challenging_target = (c.current_outcome == Side.yes ? c.yes_stake : c.no_stake) * settings.counterstake_coef100/100;\n\t\t{ // circumvent stack too deep\n\t\t\tuint stake_on_proposed_outcome = (stake_on == Side.yes ? c.yes_stake : c.no_stake) + stake;\n\t\t\tbool would_override_current_outcome = stake_on_proposed_outcome >= challenging_target;\n\t\t\texcess = would_override_current_outcome ? stake_on_proposed_outcome - challenging_target : 0;\n\t\t\tuint accepted_stake = stake - excess;\n\t\t\tif (stake_on == Side.yes)\n\t\t\t\tc.yes_stake += accepted_stake;\n\t\t\telse\n\t\t\t\tc.no_stake += accepted_stake;\n\t\t\tif (would_override_current_outcome){\n\t\t\t\tc.period_number++;\n\t\t\t\tc.current_outcome = stake_on;\n\t\t\t\tc.expiry_ts = uint32(block.timestamp + getChallengingPeriod(settings, c.period_number, c.is_large));\n\t\t\t\tchallenging_target = challenging_target * settings.counterstake_coef100/100;\n\t\t\t}\n\t\t\tstakes[claim_num][stake_on][msg.sender] += accepted_stake;\n\t\t}\n\t\temit NewChallenge(claim_num, msg.sender, stake, stake_on, c.current_outcome, c.yes_stake, c.no_stake, c.expiry_ts, challenging_target);\n\t\tif (excess > 0){\n\t\t\tif (isP3D(settings.tokenAddress))\n\t\t\t\trequire(IP3D(settings.tokenAddress).transfer(msg.sender, excess), \"P3D transfer failed\");\n\t\t\telse if (is3DPassERC20Precompile(settings.tokenAddress))\n\t\t\t\trequire(IPrecompileERC20(settings.tokenAddress).transfer(msg.sender, excess), \"3DPass ERC20 transfer failed\");\n\t\t\telse\n\t\t\t\trevert(\"unsupported token type for excess refund\");\n\t\t}\n\t}\n\n\n\n\tfunction finish(\n\t\tClaim storage c,\n\t\tmapping(uint => mapping(Side => mapping(address => uint))) storage stakes, \n\t\tuint claim_num, \n\t\taddress payable to_address\n\t) external \n\treturns (bool, bool, uint)\n\t{\n\t\trequire(block.timestamp > c.expiry_ts, \"challenging period is still ongoing\");\n\t\tif (to_address == address(0))\n\t\t\tto_address = payable(msg.sender);\n\t\t\n\t\tbool is_winning_claimant = (to_address == c.claimant_address && c.current_outcome == Side.yes);\n\t\trequire(!(is_winning_claimant && c.withdrawn), \"already withdrawn\");\n\t\tuint won_stake;\n\t\t{ // circumvent stack too deep\n\t\t\tuint my_stake = stakes[claim_num][c.current_outcome][to_address];\n\t\t\trequire(my_stake > 0 || is_winning_claimant, \"you are not the recipient and you didn't stake on the winning outcome or you have already withdrawn\");\n\t\t\tuint winning_stake = c.current_outcome == Side.yes ? c.yes_stake : c.no_stake;\n\t\t\tif (my_stake > 0)\n\t\t\t\twon_stake = (c.yes_stake + c.no_stake) * my_stake / winning_stake;\n\t\t}\n\t\tif (is_winning_claimant)\n\t\t\tc.withdrawn = true;\n\t\tbool finished;\n\t\tif (!c.finished){\n\t\t\tfinished = true;\n\t\t\tc.finished = true;\n\t\t//\tSide losing_outcome = outcome == Side.yes ? Side.no : Side.yes;\n\t\t//\tdelete stakes[claim_id][losing_outcome]; // can't purge the stakes that will never be claimed\n\t\t\temit FinishedClaim(claim_num, c.current_outcome);\n\t\t}\n\t\tdelete stakes[claim_num][c.current_outcome][to_address];\n\t\treturn (finished, is_winning_claimant, won_stake);\n\t}\n\n\n\n\tfunction getChallengingPeriod(Settings storage settings, uint16 period_number, bool bLarge) public view returns (uint) {\n\t\tuint[] storage periods = bLarge ? settings.large_challenging_periods : settings.challenging_periods;\n\t\tif (period_number > periods.length - 1)\n\t\t\tperiod_number = uint16(periods.length - 1);\n\t\treturn periods[period_number];\n\t}\n\n\tfunction validateChallengingPeriods(uint[] memory periods) pure external {\n\t\trequire(periods.length > 0, \"empty periods\");\n\t\tuint prev_period = 0;\n\t\tfor (uint i = 0; i < periods.length; i++) {\n\t\t\trequire(periods[i] < 3 * 365 days, \"some periods are longer than 3 years\");\n\t\t\trequire(periods[i] >= prev_period, \"subsequent periods cannot get shorter\");\n\t\t\tprev_period = periods[i];\n\t\t}\n\t}\n\n\tfunction getClaimId(string memory sender_address, address recipient_address, string memory txid, uint32 txts, uint amount, int reward, string memory data) public pure returns (string memory){\n\t\treturn string(abi.encodePacked(sender_address, '_', toAsciiString(recipient_address), '_', txid, '_', uint2str(txts), '_', uint2str(amount), '_', int2str(reward), '_', data));\n\t}\n\n\n\tfunction uint2str(uint256 _i) private pure returns (string memory) {\n\t\tif (_i == 0)\n\t\t\treturn \"0\";\n\t\tuint256 j = _i;\n\t\tuint256 length;\n\t\twhile (j != 0) {\n\t\t\tlength++;\n\t\t\tj /= 10;\n\t\t}\n\t\tbytes memory bstr = new bytes(length);\n\t\tuint256 k = length;\n\t\tj = _i;\n\t\twhile (j != 0) {\n\t\t\tbstr[--k] = bytes1(uint8(48 + j % 10));\n\t\t\tj /= 10;\n\t\t}\n\t\treturn string(bstr);\n\t}\n\n\tfunction int2str(int256 _i) private pure returns (string memory) {\n\t\trequire(_i < type(int).max, \"int too large\");\n\t\treturn _i >= 0 ? uint2str(uint(_i)) : string(abi.encodePacked('-', uint2str(uint(-_i))));\n\t}\n\n\tfunction toAsciiString(address x) private pure returns (string memory) {\n\t\tbytes memory s = new bytes(40);\n\t\tfor (uint i = 0; i < 20; i++) {\n\t\t\tbytes1 b = bytes1(uint8(uint(uint160(x)) / (2**(8*(19 - i)))));\n\t\t\tbytes1 hi = bytes1(uint8(b) / 16);\n\t\t\tbytes1 lo = bytes1(uint8(b) - 16 * uint8(hi));\n\t\t\ts[2*i] = char(hi);\n\t\t\ts[2*i+1] = char(lo);            \n\t\t}\n\t\treturn string(s);\n\t}\n\n\tfunction char(bytes1 b) private pure returns (bytes1 c) {\n\t\tif (uint8(b) < 10) return bytes1(uint8(b) + 0x30);\n\t\telse return bytes1(uint8(b) + 0x57);\n\t}\n\n\tfunction isContract(address _addr) public view returns (bool){\n\t\tuint32 size;\n\t\tassembly {\n\t\t\tsize := extcodesize(_addr)\n\t\t}\n\t\treturn (size > 0);\n\t}\n}\n",
  "sourcePath": "/Users/jm/counterstake-bridge/evm_substrate/contracts/CounterstakeLibrary.sol",
  "compiler": {
    "name": "solc",
    "version": "0.8.13+commit.abaa5c0e.Emscripten.clang"
  },
  "schemaVersion": "3.4.16",
  "updatedAt": "2025-08-14T11:37:37.743Z",
  "devdoc": {
    "kind": "dev",
    "methods": {},
    "version": 1
  },
  "userdoc": {
    "kind": "user",
    "methods": {},
    "version": 1
  }
}