{
  "contractName": "Export",
  "abi": [
    {
      "inputs": [
        {
          "internalType": "string",
          "name": "_foreign_network",
          "type": "string"
        },
        {
          "internalType": "string",
          "name": "_foreign_asset",
          "type": "string"
        },
        {
          "internalType": "address",
          "name": "_tokenAddr",
          "type": "address"
        },
        {
          "internalType": "uint16",
          "name": "_counterstake_coef100",
          "type": "uint16"
        },
        {
          "internalType": "uint16",
          "name": "_ratio100",
          "type": "uint16"
        },
        {
          "internalType": "uint256",
          "name": "_large_threshold",
          "type": "uint256"
        },
        {
          "internalType": "uint256[]",
          "name": "_challenging_periods",
          "type": "uint256[]"
        },
        {
          "internalType": "uint256[]",
          "name": "_large_challenging_periods",
          "type": "uint256[]"
        }
      ],
      "stateMutability": "nonpayable",
      "type": "constructor"
    },
    {
      "anonymous": false,
      "inputs": [
        {
          "indexed": true,
          "internalType": "uint256",
          "name": "claim_num",
          "type": "uint256"
        },
        {
          "indexed": false,
          "internalType": "enum CounterstakeLibrary.Side",
          "name": "outcome",
          "type": "uint8"
        }
      ],
      "name": "FinishedClaim",
      "type": "event"
    },
    {
      "anonymous": false,
      "inputs": [
        {
          "indexed": true,
          "internalType": "uint256",
          "name": "claim_num",
          "type": "uint256"
        },
        {
          "indexed": false,
          "internalType": "address",
          "name": "author_address",
          "type": "address"
        },
        {
          "indexed": false,
          "internalType": "uint256",
          "name": "stake",
          "type": "uint256"
        },
        {
          "indexed": false,
          "internalType": "enum CounterstakeLibrary.Side",
          "name": "outcome",
          "type": "uint8"
        },
        {
          "indexed": false,
          "internalType": "enum CounterstakeLibrary.Side",
          "name": "current_outcome",
          "type": "uint8"
        },
        {
          "indexed": false,
          "internalType": "uint256",
          "name": "yes_stake",
          "type": "uint256"
        },
        {
          "indexed": false,
          "internalType": "uint256",
          "name": "no_stake",
          "type": "uint256"
        },
        {
          "indexed": false,
          "internalType": "uint32",
          "name": "expiry_ts",
          "type": "uint32"
        },
        {
          "indexed": false,
          "internalType": "uint256",
          "name": "challenging_target",
          "type": "uint256"
        }
      ],
      "name": "NewChallenge",
      "type": "event"
    },
    {
      "anonymous": false,
      "inputs": [
        {
          "indexed": true,
          "internalType": "uint256",
          "name": "claim_num",
          "type": "uint256"
        },
        {
          "indexed": false,
          "internalType": "address",
          "name": "author_address",
          "type": "address"
        },
        {
          "indexed": false,
          "internalType": "string",
          "name": "sender_address",
          "type": "string"
        },
        {
          "indexed": false,
          "internalType": "address",
          "name": "recipient_address",
          "type": "address"
        },
        {
          "indexed": false,
          "internalType": "string",
          "name": "txid",
          "type": "string"
        },
        {
          "indexed": false,
          "internalType": "uint32",
          "name": "txts",
          "type": "uint32"
        },
        {
          "indexed": false,
          "internalType": "uint256",
          "name": "amount",
          "type": "uint256"
        },
        {
          "indexed": false,
          "internalType": "int256",
          "name": "reward",
          "type": "int256"
        },
        {
          "indexed": false,
          "internalType": "uint256",
          "name": "stake",
          "type": "uint256"
        },
        {
          "indexed": false,
          "internalType": "string",
          "name": "data",
          "type": "string"
        },
        {
          "indexed": false,
          "internalType": "uint32",
          "name": "expiry_ts",
          "type": "uint32"
        }
      ],
      "name": "NewClaim",
      "type": "event"
    },
    {
      "anonymous": false,
      "inputs": [
        {
          "indexed": false,
          "internalType": "address",
          "name": "sender_address",
          "type": "address"
        },
        {
          "indexed": false,
          "internalType": "uint256",
          "name": "amount",
          "type": "uint256"
        },
        {
          "indexed": false,
          "internalType": "int256",
          "name": "reward",
          "type": "int256"
        },
        {
          "indexed": false,
          "internalType": "string",
          "name": "foreign_address",
          "type": "string"
        },
        {
          "indexed": false,
          "internalType": "string",
          "name": "data",
          "type": "string"
        }
      ],
      "name": "NewExpatriation",
      "type": "event"
    },
    {
      "inputs": [],
      "name": "P3D_PRECOMPILE",
      "outputs": [
        {
          "internalType": "address",
          "name": "",
          "type": "address"
        }
      ],
      "stateMutability": "view",
      "type": "function"
    },
    {
      "inputs": [
        {
          "internalType": "uint256",
          "name": "claim_num",
          "type": "uint256"
        },
        {
          "internalType": "enum CounterstakeLibrary.Side",
          "name": "stake_on",
          "type": "uint8"
        },
        {
          "internalType": "uint256",
          "name": "stake",
          "type": "uint256"
        }
      ],
      "name": "challenge",
      "outputs": [],
      "stateMutability": "payable",
      "type": "function"
    },
    {
      "inputs": [
        {
          "internalType": "string",
          "name": "claim_id",
          "type": "string"
        },
        {
          "internalType": "enum CounterstakeLibrary.Side",
          "name": "stake_on",
          "type": "uint8"
        },
        {
          "internalType": "uint256",
          "name": "stake",
          "type": "uint256"
        }
      ],
      "name": "challenge",
      "outputs": [],
      "stateMutability": "payable",
      "type": "function"
    },
    {
      "inputs": [
        {
          "internalType": "string",
          "name": "txid",
          "type": "string"
        },
        {
          "internalType": "uint32",
          "name": "txts",
          "type": "uint32"
        },
        {
          "internalType": "uint256",
          "name": "amount",
          "type": "uint256"
        },
        {
          "internalType": "int256",
          "name": "reward",
          "type": "int256"
        },
        {
          "internalType": "uint256",
          "name": "stake",
          "type": "uint256"
        },
        {
          "internalType": "string",
          "name": "sender_address",
          "type": "string"
        },
        {
          "internalType": "address payable",
          "name": "recipient_address",
          "type": "address"
        },
        {
          "internalType": "string",
          "name": "data",
          "type": "string"
        }
      ],
      "name": "claim",
      "outputs": [],
      "stateMutability": "payable",
      "type": "function"
    },
    {
      "inputs": [
        {
          "internalType": "string",
          "name": "",
          "type": "string"
        }
      ],
      "name": "claim_nums",
      "outputs": [
        {
          "internalType": "uint256",
          "name": "",
          "type": "uint256"
        }
      ],
      "stateMutability": "view",
      "type": "function"
    },
    {
      "inputs": [],
      "name": "foreign_asset",
      "outputs": [
        {
          "internalType": "string",
          "name": "",
          "type": "string"
        }
      ],
      "stateMutability": "view",
      "type": "function"
    },
    {
      "inputs": [],
      "name": "foreign_network",
      "outputs": [
        {
          "internalType": "string",
          "name": "",
          "type": "string"
        }
      ],
      "stateMutability": "view",
      "type": "function"
    },
    {
      "inputs": [
        {
          "internalType": "uint16",
          "name": "period_number",
          "type": "uint16"
        },
        {
          "internalType": "bool",
          "name": "bLarge",
          "type": "bool"
        }
      ],
      "name": "getChallengingPeriod",
      "outputs": [
        {
          "internalType": "uint256",
          "name": "",
          "type": "uint256"
        }
      ],
      "stateMutability": "view",
      "type": "function"
    },
    {
      "inputs": [
        {
          "internalType": "string",
          "name": "claim_id",
          "type": "string"
        }
      ],
      "name": "getClaim",
      "outputs": [
        {
          "components": [
            {
              "internalType": "uint256",
              "name": "amount",
              "type": "uint256"
            },
            {
              "internalType": "address payable",
              "name": "recipient_address",
              "type": "address"
            },
            {
              "internalType": "uint32",
              "name": "txts",
              "type": "uint32"
            },
            {
              "internalType": "uint32",
              "name": "ts",
              "type": "uint32"
            },
            {
              "internalType": "address payable",
              "name": "claimant_address",
              "type": "address"
            },
            {
              "internalType": "uint32",
              "name": "expiry_ts",
              "type": "uint32"
            },
            {
              "internalType": "uint16",
              "name": "period_number",
              "type": "uint16"
            },
            {
              "internalType": "enum CounterstakeLibrary.Side",
              "name": "current_outcome",
              "type": "uint8"
            },
            {
              "internalType": "bool",
              "name": "is_large",
              "type": "bool"
            },
            {
              "internalType": "bool",
              "name": "withdrawn",
              "type": "bool"
            },
            {
              "internalType": "bool",
              "name": "finished",
              "type": "bool"
            },
            {
              "internalType": "string",
              "name": "sender_address",
              "type": "string"
            },
            {
              "internalType": "string",
              "name": "data",
              "type": "string"
            },
            {
              "internalType": "uint256",
              "name": "yes_stake",
              "type": "uint256"
            },
            {
              "internalType": "uint256",
              "name": "no_stake",
              "type": "uint256"
            }
          ],
          "internalType": "struct CounterstakeLibrary.Claim",
          "name": "",
          "type": "tuple"
        }
      ],
      "stateMutability": "view",
      "type": "function"
    },
    {
      "inputs": [
        {
          "internalType": "uint256",
          "name": "claim_num",
          "type": "uint256"
        }
      ],
      "name": "getClaim",
      "outputs": [
        {
          "components": [
            {
              "internalType": "uint256",
              "name": "amount",
              "type": "uint256"
            },
            {
              "internalType": "address payable",
              "name": "recipient_address",
              "type": "address"
            },
            {
              "internalType": "uint32",
              "name": "txts",
              "type": "uint32"
            },
            {
              "internalType": "uint32",
              "name": "ts",
              "type": "uint32"
            },
            {
              "internalType": "address payable",
              "name": "claimant_address",
              "type": "address"
            },
            {
              "internalType": "uint32",
              "name": "expiry_ts",
              "type": "uint32"
            },
            {
              "internalType": "uint16",
              "name": "period_number",
              "type": "uint16"
            },
            {
              "internalType": "enum CounterstakeLibrary.Side",
              "name": "current_outcome",
              "type": "uint8"
            },
            {
              "internalType": "bool",
              "name": "is_large",
              "type": "bool"
            },
            {
              "internalType": "bool",
              "name": "withdrawn",
              "type": "bool"
            },
            {
              "internalType": "bool",
              "name": "finished",
              "type": "bool"
            },
            {
              "internalType": "string",
              "name": "sender_address",
              "type": "string"
            },
            {
              "internalType": "string",
              "name": "data",
              "type": "string"
            },
            {
              "internalType": "uint256",
              "name": "yes_stake",
              "type": "uint256"
            },
            {
              "internalType": "uint256",
              "name": "no_stake",
              "type": "uint256"
            }
          ],
          "internalType": "struct CounterstakeLibrary.Claim",
          "name": "",
          "type": "tuple"
        }
      ],
      "stateMutability": "view",
      "type": "function"
    },
    {
      "inputs": [
        {
          "internalType": "uint256",
          "name": "claim_num",
          "type": "uint256"
        },
        {
          "internalType": "enum CounterstakeLibrary.Side",
          "name": "stake_on",
          "type": "uint8"
        }
      ],
      "name": "getMissingStake",
      "outputs": [
        {
          "internalType": "uint256",
          "name": "",
          "type": "uint256"
        }
      ],
      "stateMutability": "view",
      "type": "function"
    },
    {
      "inputs": [],
      "name": "getOngoingClaimNums",
      "outputs": [
        {
          "internalType": "uint64[]",
          "name": "",
          "type": "uint64[]"
        }
      ],
      "stateMutability": "view",
      "type": "function"
    },
    {
      "inputs": [],
      "name": "governance",
      "outputs": [
        {
          "internalType": "contract Governance",
          "name": "",
          "type": "address"
        }
      ],
      "stateMutability": "view",
      "type": "function"
    },
    {
      "inputs": [
        {
          "internalType": "address",
          "name": "_tokenAddr",
          "type": "address"
        },
        {
          "internalType": "uint16",
          "name": "_counterstake_coef100",
          "type": "uint16"
        },
        {
          "internalType": "uint16",
          "name": "_ratio100",
          "type": "uint16"
        },
        {
          "internalType": "uint256",
          "name": "_large_threshold",
          "type": "uint256"
        },
        {
          "internalType": "uint256[]",
          "name": "_challenging_periods",
          "type": "uint256[]"
        },
        {
          "internalType": "uint256[]",
          "name": "_large_challenging_periods",
          "type": "uint256[]"
        }
      ],
      "name": "initCounterstake",
      "outputs": [],
      "stateMutability": "nonpayable",
      "type": "function"
    },
    {
      "inputs": [],
      "name": "last_claim_num",
      "outputs": [
        {
          "internalType": "uint64",
          "name": "",
          "type": "uint64"
        }
      ],
      "stateMutability": "view",
      "type": "function"
    },
    {
      "inputs": [
        {
          "internalType": "uint256",
          "name": "",
          "type": "uint256"
        }
      ],
      "name": "num2index",
      "outputs": [
        {
          "internalType": "uint256",
          "name": "",
          "type": "uint256"
        }
      ],
      "stateMutability": "view",
      "type": "function"
    },
    {
      "inputs": [
        {
          "internalType": "uint256",
          "name": "",
          "type": "uint256"
        }
      ],
      "name": "ongoing_claim_nums",
      "outputs": [
        {
          "internalType": "uint64",
          "name": "",
          "type": "uint64"
        }
      ],
      "stateMutability": "view",
      "type": "function"
    },
    {
      "inputs": [
        {
          "internalType": "uint256[]",
          "name": "_challenging_periods",
          "type": "uint256[]"
        }
      ],
      "name": "setChallengingPeriods",
      "outputs": [],
      "stateMutability": "nonpayable",
      "type": "function"
    },
    {
      "inputs": [
        {
          "internalType": "uint256",
          "name": "_counterstake_coef100",
          "type": "uint256"
        }
      ],
      "name": "setCounterstakeCoef",
      "outputs": [],
      "stateMutability": "nonpayable",
      "type": "function"
    },
    {
      "inputs": [
        {
          "internalType": "uint256[]",
          "name": "_large_challenging_periods",
          "type": "uint256[]"
        }
      ],
      "name": "setLargeChallengingPeriods",
      "outputs": [],
      "stateMutability": "nonpayable",
      "type": "function"
    },
    {
      "inputs": [
        {
          "internalType": "uint256",
          "name": "_large_threshold",
          "type": "uint256"
        }
      ],
      "name": "setLargeThreshold",
      "outputs": [],
      "stateMutability": "nonpayable",
      "type": "function"
    },
    {
      "inputs": [
        {
          "internalType": "uint256",
          "name": "_min_stake",
          "type": "uint256"
        }
      ],
      "name": "setMinStake",
      "outputs": [],
      "stateMutability": "nonpayable",
      "type": "function"
    },
    {
      "inputs": [
        {
          "internalType": "uint256",
          "name": "_min_tx_age",
          "type": "uint256"
        }
      ],
      "name": "setMinTxAge",
      "outputs": [],
      "stateMutability": "nonpayable",
      "type": "function"
    },
    {
      "inputs": [
        {
          "internalType": "uint256",
          "name": "_ratio100",
          "type": "uint256"
        }
      ],
      "name": "setRatio",
      "outputs": [],
      "stateMutability": "nonpayable",
      "type": "function"
    },
    {
      "inputs": [],
      "name": "settings",
      "outputs": [
        {
          "internalType": "address",
          "name": "tokenAddress",
          "type": "address"
        },
        {
          "internalType": "uint16",
          "name": "ratio100",
          "type": "uint16"
        },
        {
          "internalType": "uint16",
          "name": "counterstake_coef100",
          "type": "uint16"
        },
        {
          "internalType": "uint32",
          "name": "min_tx_age",
          "type": "uint32"
        },
        {
          "internalType": "uint256",
          "name": "min_stake",
          "type": "uint256"
        },
        {
          "internalType": "uint256",
          "name": "large_threshold",
          "type": "uint256"
        }
      ],
      "stateMutability": "view",
      "type": "function"
    },
    {
      "inputs": [
        {
          "internalType": "uint256",
          "name": "",
          "type": "uint256"
        },
        {
          "internalType": "enum CounterstakeLibrary.Side",
          "name": "",
          "type": "uint8"
        },
        {
          "internalType": "address",
          "name": "",
          "type": "address"
        }
      ],
      "name": "stakes",
      "outputs": [
        {
          "internalType": "uint256",
          "name": "",
          "type": "uint256"
        }
      ],
      "stateMutability": "view",
      "type": "function"
    },
    {
      "inputs": [
        {
          "internalType": "uint256[]",
          "name": "periods",
          "type": "uint256[]"
        }
      ],
      "name": "validateChallengingPeriods",
      "outputs": [],
      "stateMutability": "pure",
      "type": "function"
    },
    {
      "inputs": [
        {
          "internalType": "uint256",
          "name": "_counterstake_coef100",
          "type": "uint256"
        }
      ],
      "name": "validateCounterstakeCoef",
      "outputs": [],
      "stateMutability": "pure",
      "type": "function"
    },
    {
      "inputs": [
        {
          "internalType": "uint256",
          "name": "_large_threshold",
          "type": "uint256"
        }
      ],
      "name": "validateLargeThreshold",
      "outputs": [],
      "stateMutability": "pure",
      "type": "function"
    },
    {
      "inputs": [
        {
          "internalType": "uint256",
          "name": "_min_stake",
          "type": "uint256"
        }
      ],
      "name": "validateMinStake",
      "outputs": [],
      "stateMutability": "pure",
      "type": "function"
    },
    {
      "inputs": [
        {
          "internalType": "uint256",
          "name": "_min_tx_age",
          "type": "uint256"
        }
      ],
      "name": "validateMinTxAge",
      "outputs": [],
      "stateMutability": "pure",
      "type": "function"
    },
    {
      "inputs": [
        {
          "internalType": "uint256",
          "name": "_ratio100",
          "type": "uint256"
        }
      ],
      "name": "validateRatio",
      "outputs": [],
      "stateMutability": "pure",
      "type": "function"
    },
    {
      "inputs": [
        {
          "internalType": "uint256",
          "name": "claim_num",
          "type": "uint256"
        },
        {
          "internalType": "address payable",
          "name": "to_address",
          "type": "address"
        }
      ],
      "name": "withdraw",
      "outputs": [],
      "stateMutability": "nonpayable",
      "type": "function"
    },
    {
      "inputs": [
        {
          "internalType": "uint256",
          "name": "claim_num",
          "type": "uint256"
        }
      ],
      "name": "withdraw",
      "outputs": [],
      "stateMutability": "nonpayable",
      "type": "function"
    },
    {
      "inputs": [
        {
          "internalType": "string",
          "name": "claim_id",
          "type": "string"
        }
      ],
      "name": "withdraw",
      "outputs": [],
      "stateMutability": "nonpayable",
      "type": "function"
    },
    {
      "inputs": [
        {
          "internalType": "string",
          "name": "claim_id",
          "type": "string"
        },
        {
          "internalType": "address payable",
          "name": "to_address",
          "type": "address"
        }
      ],
      "name": "withdraw",
      "outputs": [],
      "stateMutability": "nonpayable",
      "type": "function"
    },
    {
      "inputs": [
        {
          "internalType": "string",
          "name": "_foreign_network",
          "type": "string"
        },
        {
          "internalType": "string",
          "name": "_foreign_asset",
          "type": "string"
        }
      ],
      "name": "initExport",
      "outputs": [],
      "stateMutability": "nonpayable",
      "type": "function"
    },
    {
      "inputs": [
        {
          "internalType": "contract GovernanceFactory",
          "name": "governanceFactory",
          "type": "address"
        },
        {
          "internalType": "contract VotedValueFactory",
          "name": "votedValueFactory",
          "type": "address"
        }
      ],
      "name": "setupGovernance",
      "outputs": [],
      "stateMutability": "nonpayable",
      "type": "function"
    },
    {
      "inputs": [
        {
          "internalType": "string",
          "name": "foreign_address",
          "type": "string"
        },
        {
          "internalType": "string",
          "name": "data",
          "type": "string"
        },
        {
          "internalType": "uint256",
          "name": "amount",
          "type": "uint256"
        },
        {
          "internalType": "int256",
          "name": "reward",
          "type": "int256"
        }
      ],
      "name": "transferToForeignChain",
      "outputs": [],
      "stateMutability": "payable",
      "type": "function"
    },
    {
      "inputs": [
        {
          "internalType": "uint256",
          "name": "amount",
          "type": "uint256"
        }
      ],
      "name": "getRequiredStake",
      "outputs": [
        {
          "internalType": "uint256",
          "name": "",
          "type": "uint256"
        }
      ],
      "stateMutability": "view",
      "type": "function"
    }
  ],
  "bytecode": "0x60808060405234620000f25762004931803803809162000020828562000131565b833981019061010081830312620000f25780516001600160401b039290838111620000f257816200005391840162000176565b916020810151848111620000f257826200006f91830162000176565b6200007d604083016200020f565b6200008b6060840162000224565b906200009a6080850162000224565b9260a08501519460c0810151898111620000f25787620000bc91830162000234565b9660e0820151998a11620000f257620000e299620000db920162000234565b966200059a565b604051613dca908162000b478239f35b600080fd5b50634e487b7160e01b600052604160045260246000fd5b6001600160401b0381116200012257604052565b6200012c620000f7565b604052565b601f909101601f19168101906001600160401b038211908210176200012257604052565b6040519061010082016001600160401b038111838210176200012257604052565b9080601f83011215620000f2578151906001600160401b038211620001ff575b60405192602091620001b2601f8501601f191684018662000131565b838552828483010111620000f25782906000905b83838310620001e657505011620001dc57505090565b6000918301015290565b81935082819392010151828288010152018391620001c6565b62000209620000f7565b62000196565b51906001600160a01b0382168203620000f257565b519061ffff82168203620000f257565b9080601f83011215620000f2578151906001600160401b038211620002a2575b8160051b604051936020936200026d8584018762000131565b85528380860192820101928311620000f2578301905b82821062000292575050505090565b8151815290830190830162000283565b620002ac620000f7565b62000254565b90600182811c92168015620002e4575b6020831014620002ce57565b634e487b7160e01b600052602260045260246000fd5b91607f1691620002c2565b818110620002fb575050565b60008155600101620002ef565b90601f821162000316575050565b6200034791600d6000526020600020906020601f840160051c8301931062000349575b601f0160051c0190620002ef565b565b909150819062000339565b90601f821162000362575050565b6200034791600e6000526020600020906020601f840160051c830193106200034957601f0160051c0190620002ef565b80519091906001600160401b03811162000486575b620003bf81620003b9600d54620002b2565b62000308565b602080601f8311600114620003fe5750819293600092620003f2575b50508160011b916000199060031b1c191617600d55565b015190503880620003db565b600d600052601f198316949091907fd7b6990105719101dabeb77144f2a3385c8033acd3af97e9423a695e81ad1eb5926000905b8782106200046d57505083600195961062000453575b505050811b01600d55565b015160001960f88460031b161c1916905538808062000448565b8060018596829496860151815501950193019062000432565b62000490620000f7565b620003a7565b80519091906001600160401b0381116200058a575b620004c381620004bd600e54620002b2565b62000354565b602080601f8311600114620005025750819293600092620004f6575b50508160011b916000199060031b1c191617600e55565b015190503880620004df565b600e600052601f198316949091907fbb7b4a454dc3493923482f07822329ed19e8244eff582cc204f8554c3620c3fd926000905b8782106200057157505083600195961062000557575b505050811b01600e55565b015160001960f88460031b161c191690553880806200054c565b8060018596829496860151815501950193019062000536565b62000594620000f7565b620004ab565b93966200069f959196620006766200069995620003479a6001600055620005eb60018060a01b03620005e3620005d760015460018060a01b031690565b6001600160a01b031690565b1615620006bc565b61ffff91606483831693620006008562000923565b82166200060d8162000975565b6200061887620009f5565b6200062388620009f5565b6200062e8a62000aa3565b1115620006b257915b15620006a5576200066b905b620006606200065162000155565b6001600160a01b039099168952565b61ffff166020880152565b61ffff166040860152565b600060608501526000608085015260a084015260c083015260e082015262000879565b62000392565b62000496565b506200066b606462000643565b5060969162000637565b15620006c457565b60405162461bcd60e51b815260206004820152601360248201527f616c726561647920696e697469616c697a6564000000000000000000000000006044820152606490fd5b805190680100000000000000008211620007c2575b6004548260045580831062000784575b5060046000908152906020907f8a35acfbc15ff81a39ae7d344fd709f28e8600b4aa8c65c6b64bfe7fe36bd19b9082015b8484106200076e575050505050565b600183828293518555019201930192906200075f565b6004600052620007bb907f8a35acfbc15ff81a39ae7d344fd709f28e8600b4aa8c65c6b64bfe7fe36bd19b908101908401620002ef565b386200072e565b620007cc620000f7565b6200071e565b80519068010000000000000000821162000869575b600554826005558083106200083c575b506005600090815290602090600080516020620049118339815191529082015b84841062000826575050505050565b6001838282935185550192019301929062000817565b6005600052620008629060008051602062004911833981519152908101908401620002ef565b38620007f7565b62000873620000f7565b620007e7565b60e09060018060a01b038151166002549060208301519061ffff60b01b604085015160b01b169260018060c01b031916179061ffff60a01b9060a01b161717600255620008f6620008d1606083015163ffffffff1690565b6002805463ffffffff60c01b191660c09290921b63ffffffff60c01b16919091179055565b60808101516003556200090d60a082015162000709565b6200091c60c0820151620007d2565b0151600655565b801515908162000968575b50156200093757565b60405162461bcd60e51b815260206004820152600960248201526862616420726174696f60b81b6044820152606490fd5b61fa00915010386200092e565b606481119081620009cf575b50156200098a57565b60405162461bcd60e51b815260206004820152601560248201527f62616420636f756e7465727374616b6520636f656600000000000000000000006044820152606490fd5b61fa009150103862000981565b6000910312620000f257565b506040513d6000823e3d90fd5b73__CounterstakeLibrary___________________803b15620000f2576040518092636a5106d560e11b8252602482016020908160048501528251809152816044850193019160005b82811062000a8b575050505091818060009403915af4801562000a7b575b62000a645750565b8062000a7462000347926200010e565b80620009dc565b62000a85620009e8565b62000a5c565b83518552879550938101939281019260010162000a3e565b6001600160a01b0381166108021462000b435760801c63ffffffff1663fbfbfbfa14620003475760405162461bcd60e51b815260206004820152604560248201527f756e737570706f7274656420746f6b656e20747970653a206f6e6c792050334460448201527f20616e642033445061737320455243323020707265636f6d70696c657320616c6064820152641b1bddd95960da1b608482015260a490fd5b5056fe60806040526004361015610013575b600080fd5b60003560e01c8062f714ce1461032957806309a2b0db1461032057806323b025891461030e578063250a9904146103175780632895febe1461030e5780632bb81546146103055780632d59457f146102fc5780632dcddf82146102f35780632e1a7d4d146102ea5780632ec6a9ca146102e157806331fb67c2146102d857806348dfac50146102cf5780634dad247f146102c6578063506d3c43146102bd578063559dba01146102b4578063569f7a15146102ab5780635aa6e675146102a25780635ad95ef2146102995780635aef2447146102905780636255c27214610287578063765ef8221461027e57806389e4ae1c146102755780638c80fd901461026c578063909c20b714610263578063969117ed1461025a5780639bf31f5b146102515780639c67a762146102485780639d988a361461023f578063a8b6cf6c14610236578063b2237ba31461022d578063c08d524014610224578063cecc131c1461021b578063d4a20daa14610212578063d9d7e84314610209578063dce6636c14610200578063dd48622e146101f7578063e06174e4146101ee578063e7396396146101e5578063ebcdac02146101dc5763fe37da3c146101d457600080fd5b61000e612593565b5061000e61253c565b5061000e6123e9565b5061000e61238b565b5061000e61233d565b5061000e612316565b5061000e6121b2565b5061000e612157565b5061000e6120f3565b5061000e612082565b5061000e61201e565b5061000e611f91565b5061000e611f64565b5061000e611ed1565b5061000e611e96565b5061000e611da9565b5061000e611cd3565b5061000e611b91565b5061000e611aab565b5061000e611a4e565b5061000e6119f1565b5061000e6119b9565b5061000e6110a8565b5061000e61107e565b5061000e610fc3565b5061000e610fa6565b5061000e610f88565b5061000e610ebf565b5061000e610e33565b5061000e610e10565b5061000e610d92565b5061000e610c24565b5061000e610b1f565b5061000e610ad8565b5061000e610985565b5061000e610573565b5061000e6106d7565b5061000e610549565b5061000e61035e565b6001600160a01b031690565b6001600160a01b0381160361000e57565b60c4359061035c8261033e565b565b503461000e57604036600319011261000e5761042a6004356024356103828161033e565b61038a613061565b6001600160a01b0381161561052a575b6103a58215156130b7565b6103ae82610d72565b906103bb82541515612c81565b6040516354513b1560e01b815291606083806103dc85888660048501613124565b038173__CounterstakeLibrary___________________5af492831561051d575b6000809181956104e9575b5061043e575b60009015610436575054905b610425838383613abf565b61335c565b6104346001600055565b005b90509061041a565b61044785610d82565b54610453600854612cbd565b90818103610477575b505061046661318f565b600061047186610d82565b5561040e565b6104ba6104a96104948461048f6104e296861061314c565b6124f7565b905460039190911b1c6001600160401b031690565b91806104b484612f74565b556124f7565b9080546001600160401b0360039390931b83811b80199092169390941690931b909216179055565b388061045c565b91505061050e91935060603d8111610516575b61050681836105e0565b8101906130f7565b939138610408565b503d6104fc565b610525612b30565b6103fd565b503361039a565b600091031261000e57565b6001600160401b03169052565b503461000e57600036600319011261000e576007546040516001600160401b039091168152602090f35b503461000e57602036600319011261000e57005b6044359061ffff8216820361000e57565b6004359061ffff8216820361000e57565b50634e487b7160e01b600052604160045260246000fd5b6001600160401b0381116105d357604052565b6105db6105a9565b604052565b601f909101601f19168101906001600160401b038211908210176105d357604052565b604051906101e082016001600160401b038111838210176105d357604052565b6040519061010082016001600160401b038111838210176105d357604052565b6040519061012082016001600160401b038111838210176105d357604052565b9080601f8301121561000e578135906001600160401b0382116106ca575b8160051b60405193602093610698858401876105e0565b8552838086019282010192831161000e578301905b8282106106bb575050505090565b813581529083019083016106ad565b6106d26105a9565b610681565b503461000e5760c036600319011261000e576004356106f58161033e565b60243561ffff8116810361000e5761070b610587565b6001600160401b039260843584811161000e5761072c903690600401610663565b9160a43594851161000e57610748610434953690600401610663565b9360643592612a00565b6020906001600160401b03811161076f575b601f01601f19160190565b6107776105a9565b610764565b81601f8201121561000e5780359061079382610752565b926107a160405194856105e0565b8284526020838301011161000e57816000926020809301838601378301015290565b602060031982011261000e57600435906001600160401b03821161000e576107ed9160040161077c565b90565b600211156107fa57565b634e487b7160e01b600052602160045260246000fd5b9060028210156107fa5752565b918091926000905b82821061083d575011610836575050565b6000910152565b91508060209183015181860152018291610825565b9060209161086b8151809281855285808601910161081d565b601f01601f1916010190565b60208082528251828201528201516001600160a01b03166040820152604082015163ffffffff166060820152606082015163ffffffff16608082015260808201516001600160a01b031660a082015260a082015163ffffffff1660c082015260c082015161ffff1660e082015260e08201516108f96101009182840190610810565b82015161090d610120918284019015159052565b820151610921610140918284019015159052565b820151610935610160918284019015159052565b820151916101e090610970610957610180958487870152610200860190610852565b94820151946101a095601f198683030187870152610852565b93810151906101c09182850152015191015290565b503461000e576109a5610997366107c3565b61099f6126d9565b50611e70565b54600052600b602052610ad4604060002060066109c0610603565b9180548352610a9160ff6001830154610a4660018060a01b03916109e983821660208a01612769565b610a1e63ffffffff82610a0b82809560a01c1660408d019063ffffffff169052565b60c01c1660608a019063ffffffff169052565b610a32600287015493841660808a01612769565b8260a01c1660a088019063ffffffff169052565b60c081811c61ffff1690870152610a65828260d01c1660e08801612778565b60d881901c8216151561010087015260e081901c8216151561012087015260e81c161515610140850152565b610a9d60038201611cb8565b610160840152610aaf60048201611cb8565b61018084015260058101546101a084015201546101c082015260405191829182610877565b0390f35b503461000e57602036600319011261000e57610434600435612acc565b602060031982011261000e57600435906001600160401b03821161000e576107ed91600401610663565b503461000e57610b2e36610af5565b60019060018060a01b03825416610b736040518092630102942360e61b825233600483015281602460209586935afa908115610c17575b600091610bea575b50612b3d565b8151918190600160401b8411610bdd575b60045484600455808510610bbf575b5001600460005281600020916000915b848310610bac57005b8051845592850192918501918101610ba3565b610bd790600460005285846000209182019101612863565b38610b93565b610be56105a9565b610b84565b610c0a9150833d8511610c10575b610c0281836105e0565b810190612b1b565b38610b6d565b503d610bf8565b610c1f612b30565b610b65565b503461000e57602036600319011261000e5761042a600435610c44613061565b610c4f8115156130b7565b610c5881610d72565b610c6481541515612c81565b6040516354513b1560e01b81529060608280610c8533878660048501613124565b038173__CounterstakeLibrary___________________5af4918215610d56575b600080918194610d32575b50610cda575b60009015610cd35750545b610ccd828233613abf565b3361335c565b9050610cc2565b610ce384610d82565b54610cef600854612cbd565b90818103610d13575b5050610d0261318f565b6000610d0d85610d82565b55610cb7565b6104ba6104a96104948461048f610d2b96861061314c565b3880610cf8565b915050610d4e91925060603d81116105165761050681836105e0565b929138610cb1565b610d5e612b30565b610ca6565b60243590600282101561000e57565b600052600b602052604060002090565b6000526009602052604060002090565b503461000e57606036600319011261000e57610dac610d63565b604435610db88161033e565b6000916004358352600c60205260408320906002811015610dfc578352602090815260408084206001600160a01b0393909316845291815291819020549051908152f35b634e487b7160e01b84526021600452602484fd5b503461000e5761042a610e2a610e25366107c3565b611e70565b54610c44613061565b503461000e57602036600319011261000e57600154604051630102942360e61b8152336004820152610e8991602090829060249082906001600160a01b03165afa908115610eb2575b600091610e9a5750612b3d565b61043463ffffffff60043516612808565b610c0a915060203d8111610c1057610c0281836105e0565b610eba612b30565b610e7c565b503461000e57610ece36610af5565b60019060018060a01b03825416610f116040518092630102942360e61b825233600483015281602460209586935afa908115610c1757600091610bea5750612b3d565b8151918190600160401b8411610f7b575b60055484600555808510610f5d575b5001600560005281600020916000915b848310610f4a57005b8051845592850192918501918101610f41565b610f7590600560005285846000209182019101612863565b38610f31565b610f836105a9565b610f22565b503461000e57600036600319011261000e5760206040516108028152f35b503461000e57602036600319011261000e57610434600435612b89565b503461000e57604036600319011261000e57610ad4611058610fe3610d63565b600435600052600b60205261105361104c604060002092600160058501549161100d831515612c81565b611016816107f0565b036110735780935b600281015460019060d01c60ff16611035816107f0565b0361106857505b60025460b01c61ffff1690612844565b6064900490565b612cda565b6040519081529081906020820190565b60069150015461103c565b60068401549361101e565b503461000e57600036600319011261000e576001546040516001600160a01b039091168152602090f35b503461000e5760408060031936011261000e576004906112058235926110cd8461033e565b6111476024356110dc8161033e565b60018060a01b0392839182600254169061118560019261110f866111086111038754610332565b610332565b1615612784565b89516372ccf61760e11b8152308682019081526001600160a01b03909216602083810191909152979091889183918291604090910190565b038160009e8f9c8d91165af19081156119ac575b889161198f575b50600180546001600160a01b0319166001600160a01b0392909216919091179055565b61118f8254610332565b84808216921691866111a860025461ffff9060a01c1690565b8b51634a79346360e01b8082526001600160a01b0390951688820190815261ffff90921660208084019190915230901b632d59457f8117604090811b8185015263b2237ba391909117901b60608301529a8b918291608090910190565b03818b875af1988915611982575b8899611963575b50803b1561182f57878a518092818381631beab6f960e01b9e8f82528b82019061126f90916040815260086040820152670726174696f3130360c41b60608201526020608082019360018060a01b0316910152565b03925af18015611956575b611943575b506112ed61128d8454610332565b6002548b518481526001600160a01b03831688820190815260b09290921c61ffff1660208084019190915263559dba013090911b908117604090811b8185015263cecc131c909117901b6060830152929188169189918491829160800190565b03818c885af1918215611936575b8992611917575b50803b156117df578a518a81526040878201818152601491810191909152730636f756e7465727374616b655f636f65663130360641b60608201526001600160a01b039093166020840152918991839182908490829060800103925af1801561190a575b6118f7575b506113cf6113798454610332565b6003548b518481526001600160a01b0383168882019081526020808201939093523090921b632895febe8117604090811b81850152638c80fd9091909117901b6060830152929188169189918491829160800190565b03818c885af19182156118ea575b89926118cb575b50803b156117df578a518a81526040878201818152600991810191909152686d696e5f7374616b6560b81b60608201526001600160a01b039093166020840152918991839182908490829060800103925af180156118be575b6118ab575b506114b26114508454610332565b6002548b518481526001600160a01b03831688820190815260c09290921c63ffffffff16602080840191909152636255c2723090911b908117604090811b818501526348dfac50909117901b6060830152929188169189918491829160800190565b03818c885af191821561189e575b899261187f575b50803b156117df578a518a81526040878201818152600a91810191909152696d696e5f74785f61676560b01b60608201526001600160a01b039093166020840152918991839182908490829060800103925af18015611872575b61185f575b506115318354610332565b6006548a519283526001600160a01b0382168684019081526020808201929092523090911b6323b025898117604090811b8184015263765ef82291909117901b60608201529086169087908390819060800103818b875af1918215611852575b8892611833575b50803b1561182f5789518981526040868201818152600f918101919091526e1b185c99d957dd1a1c995cda1bdb19608a1b60608201526001600160a01b039093166020840152918891839182908490829060800103925af18015611822575b61180f575b506116078254610332565b938085169189519287848061162d631788388f60e11b9a8b8352309030908c8501613998565b03818c865af1938415611802575b89946117e3575b50803b156117df576116da946116a88a8a966116bf948f8f84908d925196879586948593845283019190916040815260136040820152726368616c6c656e67696e675f706572696f647360681b60608201526020608082019360018060a01b0316910152565b03925af180156117d2575b6117bf575b5054610332565b91821695888b518096819582948352309030908b8501613a0f565b03925af19384156117b2575b8594611783575b5050813b1561177f5785519485526040908501818152601991810191909152786c617267655f6368616c6c656e67696e675f706572696f647360381b60608201526001600160a01b039092166020830152839182908490829060800103925af18015611772575b61175c575051f35b8061176961176f926105c0565b80610531565b51f35b61177a612b30565b611754565b8380fd5b6117a3929450803d106117ab575b61179b81836105e0565b810190613983565b9138806116ed565b503d611791565b6117ba612b30565b6116e6565b806117696117cc926105c0565b386116b8565b6117da612b30565b6116b3565b8880fd5b6117fb919450883d8a116117ab5761179b81836105e0565b9238611642565b61180a612b30565b61163b565b8061176961181c926105c0565b386115fc565b61182a612b30565b6115f7565b8780fd5b61184b919250873d89116117ab5761179b81836105e0565b9038611598565b61185a612b30565b611591565b8061176961186c926105c0565b38611526565b61187a612b30565b611521565b611897919250883d8a116117ab5761179b81836105e0565b90386114c7565b6118a6612b30565b6114c0565b806117696118b8926105c0565b38611442565b6118c6612b30565b61143d565b6118e3919250883d8a116117ab5761179b81836105e0565b90386113e4565b6118f2612b30565b6113dd565b80611769611904926105c0565b3861136b565b611912612b30565b611366565b61192f919250883d8a116117ab5761179b81836105e0565b9038611302565b61193e612b30565b6112fb565b80611769611950926105c0565b3861127f565b61195e612b30565b61127a565b61197b919950873d89116117ab5761179b81836105e0565b973861121a565b61198a612b30565b611213565b6119a69150873d89116117ab5761179b81836105e0565b38611162565b6119b4612b30565b61115b565b503461000e57602036600319011261000e576119d36126d9565b50600435600052600b602052610ad4604060002060066109c0610603565b503461000e57602036600319011261000e576224ea006004351015611a1257005b60405162461bcd60e51b81526020600482015260146024820152736d696e2074782061676520746f6f206c6172676560601b6044820152606490fd5b503461000e57602036600319011261000e57600154604051630102942360e61b8152336004820152611aa391602090829060249082906001600160a01b03165afa908115610eb257600091610e9a5750612b3d565b600435600655005b50606036600319011261000e57600435611ac3610d63565b604435611ace613061565b611ad7816136b1565b6000928391818352600b60205260408320611af481541515612c81565b73__CounterstakeLibrary___________________803b15611b8d5760c492611b4a6040519788968795631478dbcf60e11b8752600260048801526024870152600c604487015260648601526084850190610810565b60a48301525af48015611b80575b611b6d575b50611b686001600055565b604051f35b80611769611b7a926105c0565b38611b5d565b611b88612b30565b611b58565b8480fd5b503461000e57602036600319011261000e57600154604051630102942360e61b8152336004820152611be691602090829060249082906001600160a01b03165afa908115610eb257600091610e9a5750612b3d565b600435600355005b90600182811c92168015611c1e575b6020831014611c0857565b634e487b7160e01b600052602260045260246000fd5b91607f1691611bfd565b9060009291805491611c3983611bee565b918282526001938481169081600014611c9b5750600114611c5b575b50505050565b90919394506000526020928360002092846000945b838610611c87575050505001019038808080611c55565b805485870183015294019385908201611c70565b60ff19166020840152505060400193503891508190508080611c55565b9061035c611ccc9260405193848092611c28565b03836105e0565b503461000e57600080600319360112611d9c5760405181600d54611cf681611bee565b80845290600190818116908115611d7b5750600114611d34575b610ad484611d20818803826105e0565b604051918291602083526020830190610852565b600d835260209450600080516020613d558339815191525b828410611d685750505081610ad493611d209282010193611d10565b8054858501870152928501928101611d4c565b60ff191660208601525050604083019350611d209150829050610ad4611d10565b80fd5b8015150361000e57565b503461000e57604036600319011261000e57611dc3610598565b602435611dcf81611d9f565b61ffff6040519263fa3d060d60e01b8452600260048501521660248301521515604482015260208160648173__CounterstakeLibrary___________________5af4908115611e63575b600091611e2c575b604051828152602090f35b6020813d8211611e5b575b81611e44602093836105e0565b81010312611e5757519050610ad4611e21565b5080fd5b3d9150611e37565b611e6b612b30565b611e19565b6020611e8991816040519382858094519384920161081d565b8101600a81520301902090565b503461000e576020611ebe81611eab366107c3565b816040519382858094519384920161081d565b8101600a81520301902054604051908152f35b503461000e57600080600319360112611d9c5760405181600e54611ef481611bee565b80845290600190818116908115611d7b5750600114611f1d57610ad484611d20818803826105e0565b600e835260209450600080516020613d358339815191525b828410611f515750505081610ad493611d209282010193611d10565b8054858501870152928501928101611f35565b503461000e57602036600319011261000e5760043560005260096020526020604060002054604051908152f35b5061010036600319011261000e576001600160401b0360043581811161000e57611fbf90369060040161077c565b6024359063ffffffff8216820361000e5760a43583811161000e57611fe890369060040161077c565b611ff061034f565b9160e43594851161000e5761200c61043495369060040161077c565b93608435916064359160443591612cf1565b503461000e57602036600319011261000e57600154604051630102942360e61b815233600482015261207391602090829060249082906001600160a01b03165afa908115610eb257600091610e9a5750612b3d565b61043461ffff600435166127c6565b50606036600319011261000e576001600160401b0360043581811161000e573660238201121561000e57806004013591821161000e57366024838301011161000e57602460206120d0610d63565b9260443594806040519485930183378101600a8152030190205491611ace613061565b503461000e57602036600319011261000e57600154604051630102942360e61b815233600482015261214891602090829060249082906001600160a01b03165afa908115610eb257600091610e9a5750612b3d565b61043461ffff600435166127e7565b503461000e5761043461216936610af5565b612be5565b6020908160408183019282815285518094520193019160005b828110612195575050505090565b83516001600160401b031685529381019392810192600101612187565b503461000e57600036600319011261000e57604080516008548082529160208201600860005292600080516020613d75833981519152906000915b8160038401106122b7579461222a928592610ad4975491818110612295575b818110612271575b81811061224b575b10612234575b5003836105e0565b519182918261216e565b906122448160209360c01c61053c565b0138612222565b9260019060209061226981608087901c6001600160401b031661053c565b01930161221c565b9260019060209061228d81868b1c6001600160401b031661053c565b019301612214565b926001906020906122af816001600160401b03871661053c565b01930161220c565b805490956004916001916001600160401b039161230b906122da8385831661053c565b6122eb6020840185838c1c1661053c565b6122fe6080948a85019083871c1661053c565b606083019060c01c61053c565b0196019201916121ed565b503461000e57602036600319011261000e576020612335600435613a86565b604051908152f35b503461000e57604036600319011261000e576004356001600160401b03811161000e5761237161042a91369060040161077c565b61238160243591610e258361033e565b549061038a613061565b503461000e57600036600319011261000e5760c06002546003546006549063ffffffff6040519360018060a01b038116855261ffff808260a01c1660208701528160b01c166040860152851c166060840152608083015260a0820152f35b50608036600319011261000e576001600160401b0360043581811161000e5761241690369060040161077c565b9060243590811161000e5761242f90369060040161077c565b906044356064359161243f613061565b612448826136b1565b60008312156124ba575b7fe7fa22cb6a93e7faaadf534496eb2c5401ff2468cbf95117e89ea148af253e0d9361249f6124ad926040519586953387526020870152604086015260a0606086015260a0850190610852565b908382036080850152610852565b0390a16104346001600055565b8183106124525760405162461bcd60e51b815260206004820152600e60248201526d72657761726420746f6f2062696760901b6044820152606490fd5b90600854821015612526576008600052600282901c600080516020613d75833981519152019160031b60181690565b634e487b7160e01b600052603260045260246000fd5b503461000e57602036600319011261000e5760043560085481101561000e576008600052600281901c600080516020613d75833981519152015460405160069290921b60c0161c6001600160401b03168152602090f35b503461000e57604036600319011261000e576001600160401b0360043581811161000e576125c590369060040161077c565b60243582811161000e576125dd90369060040161077c565b60018054919290916125f8906001600160a01b031615612784565b80519384116126cc575b61261684612611600d54611bee565b613821565b60209081601f86116001146126585750610434949260009284928361264d575b50501b916000199060031b1c191617600d556138a0565b015192503880612636565b600d600052601f19861695929091600080516020613d55833981519152926000905b8882106126b557505083610434971061269c575b505050811b01600d556138a0565b015160001960f88460031b161c1916905538808061268e565b80878596829496860151815501950193019061267a565b6126d46105a9565b612602565b604051906101e082016001600160401b0381118382101761275c575b604052816101c06000918281528260208201528260408201528260608201528260808201528260a08201528260c08201528260e082015282610100820152826101208201528261014082015260606101608201526060610180820152826101a08201520152565b6127646105a9565b6126f5565b6001600160a01b039091169052565b60028210156107fa5752565b1561278b57565b60405162461bcd60e51b8152602060048201526013602482015272185b1c9958591e481a5b9a5d1a585b1a5e9959606a1b6044820152606490fd5b6002805461ffff60a01b191660a09290921b61ffff60a01b16919091179055565b6002805461ffff60b01b191660b09290921b61ffff60b01b16919091179055565b6002805463ffffffff60c01b191660c09290921b63ffffffff60c01b16919091179055565b50634e487b7160e01b600052601160045260246000fd5b8060001904821181151516612857570290565b61285f61282d565b0290565b81811061286e575050565b60008155600101612863565b805190600160401b8211612903575b600554826005558083106128da575b506005600090815290602090600080516020613d158339815191529082015b8484106128c5575050505050565b600183828293518555019201930192906128b7565b60056000526128fd90600080516020613d15833981519152908101908401612863565b38612898565b61290b6105a9565b612889565b60018060a01b0381511660018060a01b0319600254161760025561ffff61294c6020916129418184860151166127c6565b6040840151166127e7565b61295f63ffffffff606084015116612808565b608082015160035560a0820151805191908190600160401b84116129f3575b600454846004558085106129d5575b5001906004600052806000206000925b8484106129c0575050505050806129b960c060e093015161287a565b0151600655565b6001838282935185550192019301929061299d565b6129ed90600460005285846000209182019101612863565b3861298d565b6129fb6105a9565b61297e565b9390612a969061035c9693612a2360018060a01b03611108611103600154610332565b61ffff91606483831693612a3685612acc565b8216612a4181612b89565b612a4a87612be5565b612a5388612be5565b612a5c8a613545565b1115612ac357915b15612ab857612a8b905b612a80612a79610623565b9889612769565b61ffff166020880152565b61ffff166040860152565b600060608501526000608085015260a084015260c083015260e0820152612910565b50612a8b6064612a6e565b50609691612a64565b8015159081612b0f575b5015612ade57565b60405162461bcd60e51b815260206004820152600960248201526862616420726174696f60b81b6044820152606490fd5b61fa0091501038612ad6565b9081602091031261000e57516107ed81611d9f565b506040513d6000823e3d90fd5b15612b4457565b60405162461bcd60e51b815260206004820152601d60248201527f6e6f742066726f6d20766f7465642076616c756520636f6e74726163740000006044820152606490fd5b606481119081612bd9575b5015612b9c57565b60405162461bcd60e51b81526020600482015260156024820152743130b21031b7bab73a32b939ba30b5b29031b7b2b360591b6044820152606490fd5b61fa0091501038612b94565b73__CounterstakeLibrary___________________803b1561000e576040518092636a5106d560e11b8252602482016020908160048501528251809152816044850193019160005b828110612c6a575050505091818060009403915af48015612c5d575b612c505750565b8061176961035c926105c0565b612c65612b30565b612c49565b835185528795509381019392810192600101612c2d565b15612c8857565b60405162461bcd60e51b815260206004820152600d60248201526c6e6f207375636820636c61696d60981b6044820152606490fd5b60018110612ccd575b6000190190565b612cd561282d565b612cc6565b818110612ce5570390565b612ced61282d565b0390565b9396929695949195612d01613061565b6001600160a01b0380871615612ed8575b86163314159687612ecc575b6000989697969087612eaf575b612d358a84613ce8565b612d5a612d4182613a86565b94612d4a610643565b98895263ffffffff166020890152565b60408701526060860152608085015260a0840152612d7b8560c08501612769565b60e0830152610100820152600754612dc190612d9f906001600160401b0316612f1f565b600780546001600160401b0319166001600160401b0392909216919091179055565b600754612dd6906001600160401b0316612f44565b612de1600854612cbd565b600754612df6906001600160401b0316612f74565b5560075473__CounterstakeLibrary___________________91906001600160401b031690823b1561000e5760405163079b277560e31b815292600092849283918291612e469160048401612f8e565b03915af48015612ea2575b612e8f575b50612e68575b505061035c6001600055565b81612e76612e889383613cfa565b6007546001600160401b031691613257565b3880612e5c565b80611769612e9c926105c0565b38612e56565b612eaa612b30565b612e51565b9850612ebc818a11612ee0565b612ec6818a612cda565b98612d2b565b60008912159750612d1e565b339650612d12565b15612ee757565b60405162461bcd60e51b815260206004820152601060248201526f72657761726420746f6f206c6172676560801b6044820152606490fd5b6001906001600160401b03908116908114612f38570190565b612f4061282d565b0190565b61035c906104ba600854600160401b811015612f67575b600181016008556124f7565b612f6f6105a9565b612f5b565b6001600160401b0316600090815260096020526040902090565b6107ed929160028252600a6020830152600b6040830152600c606083015260018060401b0316608082015260c060a08201528151906101c0612fde610120938460c08501526101e0840190610852565b602085015163ffffffff1660e084015292604085015161010084810191909152606086015191840191909152608085015161014084015260a085015161016084015260c08501516001600160a01b031661018084015261305160e08601519460bf199586868303016101a0870152610852565b9401519282850301910152610852565b600260005414613072576002600055565b60405162461bcd60e51b815260206004820152601f60248201527f5265656e7472616e637947756172643a207265656e7472616e742063616c6c006044820152606490fd5b156130be57565b60405162461bcd60e51b81526020600482015260116024820152706e6f207375636820636c61696d206e756d60781b6044820152606490fd5b9081606091031261000e57805161310d81611d9f565b916040602083015161311e81611d9f565b92015190565b908152600c602082015260408101919091526001600160a01b03909116606082015260800190565b1561315357565b60405162461bcd60e51b8152602060048201526014602482015273109551c81a5b99195e0818599d195c881b185cdd60621b6044820152606490fd5b60085480156131bd57600019016131a5816124f7565b81549060018060401b039060031b1b19169055600855565b634e487b7160e01b600052603160045260246000fd5b6001600160a01b03909116815260200190565b91926107ed959361321092845260208401526000604084015260c0606084015260c0830190611c28565b6001600160a01b03909316608082015280830360a09190910152611c28565b92613210926107ed97959285526020850152604084015260c0606084015260c0830190611c28565b91604051631627905560e01b81526020818061327687600483016131d3565b038173__CounterstakeLibrary___________________5af490811561334f575b600091613331575b5080613319575b6132af57505050565b6132b881610d72565b600181015490936001600160a01b0316906132d290610332565b91813b1561000e576000809461330760405197889687958694635627fd2760e11b8652600360048501940191600487016131e6565b03925af18015612c5d57612c50575b50565b5061332c6001600160a01b03841661348c565b6132a6565b613349915060203d8111610c1057610c0281836105e0565b3861329f565b613357612b30565b613297565b929091604051631627905560e01b81526020818061337d88600483016131d3565b038173__CounterstakeLibrary___________________5af490811561347f575b600091613461575b5080613449575b6133b75750505050565b6133c082610d72565b600181015490946001600160a01b031691906133db90610332565b94823b1561000e57600094613411869260405198899788968795635627fd2760e11b87526003600486019501926004880161322f565b03925af1801561343c575b613429575b808080611c55565b80611769613436926105c0565b38613421565b613444612b30565b61341c565b5061345c6001600160a01b03851661348c565b6133ad565b613479915060203d8111610c1057610c0281836105e0565b386133a6565b613487612b30565b61339e565b6040516301ffc9a760e01b60208201908152635627fd2760e11b60248084019190915282526000928392909190606081016001600160401b03811182821017613538575b6040525191617530fa3d15613531573d6134e981610752565b906134f760405192836105e0565b81523d6000602083013e5b805160208110613529578261351657505090565b6107ed9250602080918301019101612b1b565b505050600090565b6060613502565b6135406105a9565b6134d0565b6001600160a01b038116610802146133165760801c63ffffffff1663fbfbfbfa1461035c5760405162461bcd60e51b815260206004820152604560248201527f756e737570706f7274656420746f6b656e20747970653a206f6e6c792050334460448201527f20616e642033445061737320455243323020707265636f6d70696c657320616c6064820152641b1bddd95960da1b608482015260a490fd5b156135ea57565b60405162461bcd60e51b815260206004820152600e60248201526d191bdb89dd081cd95b9908140cd160921b6044820152606490fd5b1561362757565b606460405162461bcd60e51b815260206004820152602060248201527f334450617373204552433230207472616e7366657246726f6d206661696c65646044820152fd5b1561367257565b60405162461bcd60e51b8152602060048201526017602482015276140cd1081d1c985b9cd9995c919c9bdb4819985a5b1959604a1b6044820152606490fd5b6136bc600254610332565b61080291906001600160a01b03811690838203613760575050602061371b61035c936000936136eb34156135e3565b6040516323b872dd60e01b8152336004820152306024820152604481019190915293849283919082906064820190565b03925af1908115613753575b600091613735575b5061366b565b61374d915060203d8111610c1057610c0281836105e0565b3861372f565b61375b612b30565b613727565b90925060801c63ffffffff1663fbfbfbfa036137d157602061378c61035c936000936136eb34156135e3565b03925af19081156137c4575b6000916137a6575b50613620565b6137be915060203d8111610c1057610c0281836105e0565b386137a0565b6137cc612b30565b613798565b60405162461bcd60e51b815260206004820152602260248201527f756e737570706f7274656420746f6b656e207479706520666f72207374616b696044820152616e6760f01b6064820152608490fd5b90601f821161382e575050565b61035c91600d6000526020600020906020601f840160051c8301931061385c575b601f0160051c0190612863565b909150819061384f565b90601f8211613873575050565b61035c91600e6000526020600020906020601f840160051c8301931061385c57601f0160051c0190612863565b80519091906001600160401b038111613976575b6138c8816138c3600e54611bee565b613866565b602080601f831160011461390457508192936000926138f9575b50508160011b916000199060031b1c191617600e55565b0151905038806138e2565b600e600052601f19831694909190600080516020613d35833981519152926000905b87821061395e575050836001959610613945575b505050811b01600e55565b015160001960f88460031b161c1916905538808061393a565b80600185968294968601518155019501930190613926565b61397e6105a9565b6138b4565b9081602091031261000e57516107ed8161033e565b91939290608083019060018060a01b0316835260209060808285015260045480915260a08401906004600052826000209060005b8181106139fb5750505091632dcddf829163d4a20daa60609497821b1760401b60408601521b1760401b910152565b8254845292840192600192830192016139cc565b91939290608083019060018060a01b0316835260209060808285015260055480915260a08401906005600052826000209060005b818110613a725750505091634dad247f9163d4a20daa60609497821b1760401b60408601521b1760401b910152565b825484529284019260019283019201613a43565b613a9c60649161ffff60025460a01c1690612844565b04600354808211600014613aae575090565b905090565b81198111612f38570190565b90613acd9061035c93613ab3565b60025490916001600160a01b039081169116613b8c565b6001600160a01b039091168152602081019190915260400190565b15613b0657565b60405162461bcd60e51b815260206004820152601c60248201527b0cd114185cdcc8115490cc8c081d1c985b9cd9995c8819985a5b195960221b6044820152606490fd5b15613b5157565b60405162461bcd60e51b8152602060048201526013602482015272140cd1081d1c985b9cd9995c8819985a5b1959606a1b6044820152606490fd5b61080291906001600160a01b03811690838203613c1357505061035c92613bce92602092600060405180968195829463a9059cbb60e01b845260048401613ae4565b03925af1908115613c06575b600091613be8575b50613b4a565b613c00915060203d8111610c1057610c0281836105e0565b38613be2565b613c0e612b30565b613bda565b90925060801c63ffffffff1663fbfbfbfa03613c975761035c92613c5292602092600060405180968195829463a9059cbb60e01b845260048401613ae4565b03925af1908115613c8a575b600091613c6c575b50613aff565b613c84915060203d8111610c1057610c0281836105e0565b38613c66565b613c92612b30565b613c5e565b60405162461bcd60e51b8152602060048201526024808201527f756e737570706f7274656420746f6b656e207479706520666f72207472616e736044820152636665727360e01b6064820152608490fd5b61035c91613cf591613ab3565b6136b1565b60025461035c92916001600160a01b039081169116613b8c56fe036b6384b5eca791c62761152d0c79bb0604c104a5fb6f4eb0703f3154bb3db0bb7b4a454dc3493923482f07822329ed19e8244eff582cc204f8554c3620c3fdd7b6990105719101dabeb77144f2a3385c8033acd3af97e9423a695e81ad1eb5f3f7a9fe364faab93b216da50a3214154f22a0a2b415b23a84c8169e8b636ee3a2646970667358221220aa3ef163e078e241b27e92293a0844cfd4c9023d6dc0beb441d26cbb0ed36edc64736f6c634300080d0033036b6384b5eca791c62761152d0c79bb0604c104a5fb6f4eb0703f3154bb3db0",
  "immutableReferences": {},
  "source": "// SPDX-License-Identifier: MIT\npragma solidity ^0.8.3;\nimport \"@openzeppelin/contracts/utils/math/Math.sol\";\nimport \"./Counterstake.sol\";\n\ncontract Export is Counterstake {\n\n\tusing SafeERC20 for IERC20;\n\n\tevent NewExpatriation(address sender_address, uint amount, int reward, string foreign_address, string data);\n\n\t// Batch precompile address (inherited from Counterstake)\n\n\tstring public foreign_network;\n\tstring public foreign_asset;\n\n\tconstructor (string memory _foreign_network, string memory _foreign_asset, address _tokenAddr, uint16 _counterstake_coef100, uint16 _ratio100, uint _large_threshold, uint[] memory _challenging_periods, uint[] memory _large_challenging_periods)\n\tCounterstake(_tokenAddr, _counterstake_coef100, _ratio100, _large_threshold, _challenging_periods, _large_challenging_periods)\n\t{\n\t\tforeign_network = _foreign_network;\n\t\tforeign_asset = _foreign_asset;\n\t}\n\n\tfunction initExport(string memory _foreign_network, string memory _foreign_asset) public\n\t{\n\t\trequire(address(governance) == address(0), \"already initialized\");\n\t\tforeign_network = _foreign_network;\n\t\tforeign_asset = _foreign_asset;\n\t}\n\n\tfunction setupGovernance(GovernanceFactory governanceFactory, VotedValueFactory votedValueFactory) external {\n\t\tsetupCounterstakeGovernance(governanceFactory, votedValueFactory, settings.tokenAddress);\n\t}\n\n\tfunction transferToForeignChain(string memory foreign_address, string memory data, uint amount, int reward) payable nonReentrant external {\n\t\treceiveStakeAsset(amount);\n\t\tif (reward >= 0)\n\t\t\trequire(uint(reward) < amount, \"reward too big\");\n\t\temit NewExpatriation(msg.sender, amount, reward, foreign_address, data);\n\t}\n\n\tfunction getRequiredStake(uint amount) public view override returns (uint) {\n\t\treturn Math.max(amount * settings.ratio100 / 100, settings.min_stake);\n\t}\n\n\tfunction sendWithdrawals(address payable to_address, uint paid_claimed_amount, uint won_stake) internal override {\n\t\tuint total = won_stake + paid_claimed_amount;\n\t\ttransferTokens(settings.tokenAddress, to_address, total);\n\t}\n\n\tfunction receiveMoneyInClaim(uint stake, uint paid_amount) internal override {\n\t\treceiveStakeAsset(stake + paid_amount);\n\t}\n\n\tfunction sendToClaimRecipient(address payable to_address, uint paid_amount) internal override {\n\t\ttransferTokens(settings.tokenAddress, to_address, paid_amount);\n\t}\n\n}\n",
  "sourcePath": "/Users/jm/3DP-bridge/counterstake-bridge/evm/contracts/Export.sol",
  "compiler": {
    "name": "solc",
    "version": "0.8.13+commit.abaa5c0e.Emscripten.clang"
  },
  "schemaVersion": "3.4.16",
  "updatedAt": "2025-08-19T12:12:03.353Z",
  "devdoc": {
    "kind": "dev",
    "methods": {},
    "version": 1
  },
  "userdoc": {
    "kind": "user",
    "methods": {},
    "version": 1
  }
}