{
  "contractName": "ExportAssistant",
  "abi": [
    {
      "inputs": [
        {
          "internalType": "address",
          "name": "bridgeAddr",
          "type": "address"
        },
        {
          "internalType": "address",
          "name": "managerAddr",
          "type": "address"
        },
        {
          "internalType": "uint16",
          "name": "_management_fee10000",
          "type": "uint16"
        },
        {
          "internalType": "uint16",
          "name": "_success_fee10000",
          "type": "uint16"
        },
        {
          "internalType": "address",
          "name": "oracleAddr",
          "type": "address"
        },
        {
          "internalType": "uint8",
          "name": "_exponent",
          "type": "uint8"
        },
        {
          "internalType": "string",
          "name": "name",
          "type": "string"
        },
        {
          "internalType": "string",
          "name": "symbol",
          "type": "string"
        }
      ],
      "stateMutability": "nonpayable",
      "type": "constructor"
    },
    {
      "anonymous": false,
      "inputs": [
        {
          "indexed": true,
          "internalType": "address",
          "name": "owner",
          "type": "address"
        },
        {
          "indexed": true,
          "internalType": "address",
          "name": "spender",
          "type": "address"
        },
        {
          "indexed": false,
          "internalType": "uint256",
          "name": "value",
          "type": "uint256"
        }
      ],
      "name": "Approval",
      "type": "event"
    },
    {
      "anonymous": false,
      "inputs": [
        {
          "indexed": false,
          "internalType": "uint256",
          "name": "claim_num",
          "type": "uint256"
        },
        {
          "indexed": false,
          "internalType": "enum CounterstakeLibrary.Side",
          "name": "outcome",
          "type": "uint8"
        },
        {
          "indexed": false,
          "internalType": "uint256",
          "name": "stake",
          "type": "uint256"
        }
      ],
      "name": "AssistantChallenge",
      "type": "event"
    },
    {
      "anonymous": false,
      "inputs": [
        {
          "indexed": false,
          "internalType": "uint256",
          "name": "claim_num",
          "type": "uint256"
        },
        {
          "indexed": false,
          "internalType": "address",
          "name": "for_address",
          "type": "address"
        },
        {
          "indexed": false,
          "internalType": "string",
          "name": "txid",
          "type": "string"
        },
        {
          "indexed": false,
          "internalType": "uint32",
          "name": "txts",
          "type": "uint32"
        },
        {
          "indexed": false,
          "internalType": "uint256",
          "name": "amount",
          "type": "uint256"
        },
        {
          "indexed": false,
          "internalType": "int256",
          "name": "reward",
          "type": "int256"
        },
        {
          "indexed": false,
          "internalType": "uint256",
          "name": "stake",
          "type": "uint256"
        }
      ],
      "name": "NewClaimFor",
      "type": "event"
    },
    {
      "anonymous": false,
      "inputs": [
        {
          "indexed": false,
          "internalType": "address",
          "name": "previousManager",
          "type": "address"
        },
        {
          "indexed": false,
          "internalType": "address",
          "name": "newManager",
          "type": "address"
        }
      ],
      "name": "NewManager",
      "type": "event"
    },
    {
      "anonymous": false,
      "inputs": [
        {
          "indexed": true,
          "internalType": "address",
          "name": "from",
          "type": "address"
        },
        {
          "indexed": true,
          "internalType": "address",
          "name": "to",
          "type": "address"
        },
        {
          "indexed": false,
          "internalType": "uint256",
          "name": "value",
          "type": "uint256"
        }
      ],
      "name": "Transfer",
      "type": "event"
    },
    {
      "inputs": [
        {
          "internalType": "address",
          "name": "owner",
          "type": "address"
        },
        {
          "internalType": "address",
          "name": "spender",
          "type": "address"
        }
      ],
      "name": "allowance",
      "outputs": [
        {
          "internalType": "uint256",
          "name": "",
          "type": "uint256"
        }
      ],
      "stateMutability": "view",
      "type": "function"
    },
    {
      "inputs": [
        {
          "internalType": "address",
          "name": "spender",
          "type": "address"
        },
        {
          "internalType": "uint256",
          "name": "amount",
          "type": "uint256"
        }
      ],
      "name": "approve",
      "outputs": [
        {
          "internalType": "bool",
          "name": "",
          "type": "bool"
        }
      ],
      "stateMutability": "nonpayable",
      "type": "function"
    },
    {
      "inputs": [
        {
          "internalType": "address",
          "name": "account",
          "type": "address"
        }
      ],
      "name": "balanceOf",
      "outputs": [
        {
          "internalType": "uint256",
          "name": "",
          "type": "uint256"
        }
      ],
      "stateMutability": "view",
      "type": "function"
    },
    {
      "inputs": [],
      "name": "balance_in_work",
      "outputs": [
        {
          "internalType": "uint256",
          "name": "",
          "type": "uint256"
        }
      ],
      "stateMutability": "view",
      "type": "function"
    },
    {
      "inputs": [
        {
          "internalType": "uint256",
          "name": "",
          "type": "uint256"
        }
      ],
      "name": "balances_in_work",
      "outputs": [
        {
          "internalType": "uint256",
          "name": "",
          "type": "uint256"
        }
      ],
      "stateMutability": "view",
      "type": "function"
    },
    {
      "inputs": [],
      "name": "bridgeAddress",
      "outputs": [
        {
          "internalType": "address",
          "name": "",
          "type": "address"
        }
      ],
      "stateMutability": "view",
      "type": "function"
    },
    {
      "inputs": [
        {
          "internalType": "address",
          "name": "spender",
          "type": "address"
        },
        {
          "internalType": "uint256",
          "name": "subtractedValue",
          "type": "uint256"
        }
      ],
      "name": "decreaseAllowance",
      "outputs": [
        {
          "internalType": "bool",
          "name": "",
          "type": "bool"
        }
      ],
      "stateMutability": "nonpayable",
      "type": "function"
    },
    {
      "inputs": [],
      "name": "exit_fee10000",
      "outputs": [
        {
          "internalType": "uint16",
          "name": "",
          "type": "uint16"
        }
      ],
      "stateMutability": "view",
      "type": "function"
    },
    {
      "inputs": [],
      "name": "exponent",
      "outputs": [
        {
          "internalType": "uint8",
          "name": "",
          "type": "uint8"
        }
      ],
      "stateMutability": "view",
      "type": "function"
    },
    {
      "inputs": [],
      "name": "governance",
      "outputs": [
        {
          "internalType": "contract Governance",
          "name": "",
          "type": "address"
        }
      ],
      "stateMutability": "view",
      "type": "function"
    },
    {
      "inputs": [
        {
          "internalType": "address",
          "name": "spender",
          "type": "address"
        },
        {
          "internalType": "uint256",
          "name": "addedValue",
          "type": "uint256"
        }
      ],
      "name": "increaseAllowance",
      "outputs": [
        {
          "internalType": "bool",
          "name": "",
          "type": "bool"
        }
      ],
      "stateMutability": "nonpayable",
      "type": "function"
    },
    {
      "inputs": [],
      "name": "management_fee10000",
      "outputs": [
        {
          "internalType": "uint16",
          "name": "",
          "type": "uint16"
        }
      ],
      "stateMutability": "view",
      "type": "function"
    },
    {
      "inputs": [],
      "name": "managerAddress",
      "outputs": [
        {
          "internalType": "address",
          "name": "",
          "type": "address"
        }
      ],
      "stateMutability": "view",
      "type": "function"
    },
    {
      "inputs": [],
      "name": "mf",
      "outputs": [
        {
          "internalType": "uint256",
          "name": "",
          "type": "uint256"
        }
      ],
      "stateMutability": "view",
      "type": "function"
    },
    {
      "inputs": [],
      "name": "name",
      "outputs": [
        {
          "internalType": "string",
          "name": "",
          "type": "string"
        }
      ],
      "stateMutability": "view",
      "type": "function"
    },
    {
      "inputs": [],
      "name": "network_fee_compensation",
      "outputs": [
        {
          "internalType": "uint256",
          "name": "",
          "type": "uint256"
        }
      ],
      "stateMutability": "view",
      "type": "function"
    },
    {
      "inputs": [],
      "name": "oracleAddress",
      "outputs": [
        {
          "internalType": "address",
          "name": "",
          "type": "address"
        }
      ],
      "stateMutability": "view",
      "type": "function"
    },
    {
      "inputs": [],
      "name": "profit",
      "outputs": [
        {
          "internalType": "int256",
          "name": "",
          "type": "int256"
        }
      ],
      "stateMutability": "view",
      "type": "function"
    },
    {
      "inputs": [],
      "name": "profit_diffusion_period",
      "outputs": [
        {
          "internalType": "uint256",
          "name": "",
          "type": "uint256"
        }
      ],
      "stateMutability": "view",
      "type": "function"
    },
    {
      "inputs": [],
      "name": "recent_profit",
      "outputs": [
        {
          "internalType": "uint256",
          "name": "",
          "type": "uint256"
        }
      ],
      "stateMutability": "view",
      "type": "function"
    },
    {
      "inputs": [],
      "name": "recent_profit_ts",
      "outputs": [
        {
          "internalType": "uint256",
          "name": "",
          "type": "uint256"
        }
      ],
      "stateMutability": "view",
      "type": "function"
    },
    {
      "inputs": [],
      "name": "success_fee10000",
      "outputs": [
        {
          "internalType": "uint16",
          "name": "",
          "type": "uint16"
        }
      ],
      "stateMutability": "view",
      "type": "function"
    },
    {
      "inputs": [],
      "name": "symbol",
      "outputs": [
        {
          "internalType": "string",
          "name": "",
          "type": "string"
        }
      ],
      "stateMutability": "view",
      "type": "function"
    },
    {
      "inputs": [],
      "name": "tokenAddress",
      "outputs": [
        {
          "internalType": "address",
          "name": "",
          "type": "address"
        }
      ],
      "stateMutability": "view",
      "type": "function"
    },
    {
      "inputs": [],
      "name": "totalSupply",
      "outputs": [
        {
          "internalType": "uint256",
          "name": "",
          "type": "uint256"
        }
      ],
      "stateMutability": "view",
      "type": "function"
    },
    {
      "inputs": [
        {
          "internalType": "address",
          "name": "recipient",
          "type": "address"
        },
        {
          "internalType": "uint256",
          "name": "amount",
          "type": "uint256"
        }
      ],
      "name": "transfer",
      "outputs": [
        {
          "internalType": "bool",
          "name": "",
          "type": "bool"
        }
      ],
      "stateMutability": "nonpayable",
      "type": "function"
    },
    {
      "inputs": [
        {
          "internalType": "address",
          "name": "sender",
          "type": "address"
        },
        {
          "internalType": "address",
          "name": "recipient",
          "type": "address"
        },
        {
          "internalType": "uint256",
          "name": "amount",
          "type": "uint256"
        }
      ],
      "name": "transferFrom",
      "outputs": [
        {
          "internalType": "bool",
          "name": "",
          "type": "bool"
        }
      ],
      "stateMutability": "nonpayable",
      "type": "function"
    },
    {
      "inputs": [],
      "name": "ts",
      "outputs": [
        {
          "internalType": "uint256",
          "name": "",
          "type": "uint256"
        }
      ],
      "stateMutability": "view",
      "type": "function"
    },
    {
      "stateMutability": "payable",
      "type": "receive"
    },
    {
      "inputs": [
        {
          "internalType": "address",
          "name": "bridgeAddr",
          "type": "address"
        },
        {
          "internalType": "address",
          "name": "managerAddr",
          "type": "address"
        },
        {
          "internalType": "uint16",
          "name": "_management_fee10000",
          "type": "uint16"
        },
        {
          "internalType": "uint16",
          "name": "_success_fee10000",
          "type": "uint16"
        },
        {
          "internalType": "address",
          "name": "oracleAddr",
          "type": "address"
        },
        {
          "internalType": "uint8",
          "name": "_exponent",
          "type": "uint8"
        },
        {
          "internalType": "string",
          "name": "_name",
          "type": "string"
        },
        {
          "internalType": "string",
          "name": "_symbol",
          "type": "string"
        }
      ],
      "name": "initExportAssistant",
      "outputs": [],
      "stateMutability": "nonpayable",
      "type": "function"
    },
    {
      "inputs": [],
      "name": "approvePrecompile",
      "outputs": [],
      "stateMutability": "nonpayable",
      "type": "function"
    },
    {
      "inputs": [],
      "name": "getUnavailableProfit",
      "outputs": [
        {
          "internalType": "uint256",
          "name": "",
          "type": "uint256"
        }
      ],
      "stateMutability": "view",
      "type": "function"
    },
    {
      "inputs": [
        {
          "internalType": "string",
          "name": "txid",
          "type": "string"
        },
        {
          "internalType": "uint32",
          "name": "txts",
          "type": "uint32"
        },
        {
          "internalType": "uint256",
          "name": "amount",
          "type": "uint256"
        },
        {
          "internalType": "int256",
          "name": "reward",
          "type": "int256"
        },
        {
          "internalType": "string",
          "name": "sender_address",
          "type": "string"
        },
        {
          "internalType": "address payable",
          "name": "recipient_address",
          "type": "address"
        },
        {
          "internalType": "string",
          "name": "data",
          "type": "string"
        }
      ],
      "name": "claim",
      "outputs": [],
      "stateMutability": "nonpayable",
      "type": "function"
    },
    {
      "inputs": [
        {
          "internalType": "uint256",
          "name": "claim_num",
          "type": "uint256"
        },
        {
          "internalType": "enum CounterstakeLibrary.Side",
          "name": "stake_on",
          "type": "uint8"
        },
        {
          "internalType": "uint256",
          "name": "stake",
          "type": "uint256"
        }
      ],
      "name": "challenge",
      "outputs": [],
      "stateMutability": "nonpayable",
      "type": "function"
    },
    {
      "inputs": [
        {
          "internalType": "bytes4",
          "name": "interfaceId",
          "type": "bytes4"
        }
      ],
      "name": "supportsInterface",
      "outputs": [
        {
          "internalType": "bool",
          "name": "",
          "type": "bool"
        }
      ],
      "stateMutability": "view",
      "type": "function"
    },
    {
      "inputs": [
        {
          "internalType": "uint256",
          "name": "claim_num",
          "type": "uint256"
        },
        {
          "internalType": "uint256",
          "name": "claimed_amount",
          "type": "uint256"
        },
        {
          "internalType": "uint256",
          "name": "won_stake",
          "type": "uint256"
        },
        {
          "internalType": "string",
          "name": "",
          "type": "string"
        },
        {
          "internalType": "address",
          "name": "",
          "type": "address"
        },
        {
          "internalType": "string",
          "name": "",
          "type": "string"
        }
      ],
      "name": "onReceivedFromClaim",
      "outputs": [],
      "stateMutability": "nonpayable",
      "type": "function"
    },
    {
      "inputs": [
        {
          "internalType": "uint256",
          "name": "claim_num",
          "type": "uint256"
        }
      ],
      "name": "recordLoss",
      "outputs": [],
      "stateMutability": "nonpayable",
      "type": "function"
    },
    {
      "inputs": [
        {
          "internalType": "uint256",
          "name": "claim_num",
          "type": "uint256"
        }
      ],
      "name": "recordWin",
      "outputs": [],
      "stateMutability": "nonpayable",
      "type": "function"
    },
    {
      "inputs": [
        {
          "internalType": "uint256",
          "name": "stake_asset_amount",
          "type": "uint256"
        }
      ],
      "name": "buyShares",
      "outputs": [],
      "stateMutability": "payable",
      "type": "function"
    },
    {
      "inputs": [
        {
          "internalType": "uint256",
          "name": "shares_amount",
          "type": "uint256"
        }
      ],
      "name": "redeemShares",
      "outputs": [],
      "stateMutability": "nonpayable",
      "type": "function"
    },
    {
      "inputs": [],
      "name": "withdrawManagementFee",
      "outputs": [],
      "stateMutability": "nonpayable",
      "type": "function"
    },
    {
      "inputs": [],
      "name": "withdrawSuccessFee",
      "outputs": [],
      "stateMutability": "nonpayable",
      "type": "function"
    },
    {
      "inputs": [
        {
          "internalType": "address",
          "name": "newManager",
          "type": "address"
        }
      ],
      "name": "assignNewManager",
      "outputs": [],
      "stateMutability": "nonpayable",
      "type": "function"
    },
    {
      "inputs": [
        {
          "internalType": "contract GovernanceFactory",
          "name": "governanceFactory",
          "type": "address"
        },
        {
          "internalType": "contract VotedValueFactory",
          "name": "votedValueFactory",
          "type": "address"
        }
      ],
      "name": "setupGovernance",
      "outputs": [],
      "stateMutability": "nonpayable",
      "type": "function"
    },
    {
      "inputs": [
        {
          "internalType": "uint256",
          "name": "_profit_diffusion_period",
          "type": "uint256"
        }
      ],
      "name": "validateProfitDiffusionPeriod",
      "outputs": [],
      "stateMutability": "pure",
      "type": "function"
    },
    {
      "inputs": [
        {
          "internalType": "uint256",
          "name": "_profit_diffusion_period",
          "type": "uint256"
        }
      ],
      "name": "setProfitDiffusionPeriod",
      "outputs": [],
      "stateMutability": "nonpayable",
      "type": "function"
    },
    {
      "inputs": [
        {
          "internalType": "uint256",
          "name": "_exit_fee10000",
          "type": "uint256"
        }
      ],
      "name": "validateExitFee",
      "outputs": [],
      "stateMutability": "pure",
      "type": "function"
    },
    {
      "inputs": [
        {
          "internalType": "uint256",
          "name": "_exit_fee10000",
          "type": "uint256"
        }
      ],
      "name": "setExitFee",
      "outputs": [],
      "stateMutability": "nonpayable",
      "type": "function"
    },
    {
      "inputs": [
        {
          "internalType": "address",
          "name": "oracleAddr",
          "type": "address"
        }
      ],
      "name": "validateOracle",
      "outputs": [],
      "stateMutability": "view",
      "type": "function"
    },
    {
      "inputs": [
        {
          "internalType": "address",
          "name": "oracleAddr",
          "type": "address"
        }
      ],
      "name": "setOracle",
      "outputs": [],
      "stateMutability": "nonpayable",
      "type": "function"
    },
    {
      "inputs": [],
      "name": "decimals",
      "outputs": [
        {
          "internalType": "uint8",
          "name": "",
          "type": "uint8"
        }
      ],
      "stateMutability": "view",
      "type": "function"
    }
  ],
  "bytecode": "0x60808060405234620000e15762005fde8038038091620000208285620000fd565b8339810161010082820312620000e1576200003b8262000130565b906200004a6020840162000130565b620000586040850162000145565b620000666060860162000145565b620000746080870162000130565b9160a08701519360ff85168503620000e15760c08801516001600160401b039890898111620000e15787620000ab9183016200018d565b9660e0820151998a11620000e157620000d199620000ca92016200018d565b96620001f9565b604051614f319081620010ad8239f35b600080fd5b50634e487b7160e01b600052604160045260246000fd5b601f909101601f19168101906001600160401b038211908210176200012157604052565b6200012b620000e6565b604052565b51906001600160a01b0382168203620000e157565b519061ffff82168203620000e157565b918091926000905b8282106200017757501162000170575050565b6000910152565b915080602091830151818601520182916200015d565b81601f82011215620000e15780516001600160401b038111620001e9575b60405192620001c5601f8301601f191660200185620000fd565b81845260208284010111620000e157620001e6916020808501910162000155565b90565b620001f3620000e6565b620001ab565b86519897969594939291906001600160401b038a1162000328575b6200022c8a6200022660035462000338565b62000375565b602080601f8c1160011462000299575099806200028b9a9b6000916200028d575b508160011b916000199060031b1c1916176003555b6200026d8862000427565b620002786001600555565b62000285620d2f00600a55565b6200085a565b565b9050880151386200024d565b600360005290601f198c167fc2575a0e9e593c00f959f8c92f12db2869c3395a3b0502d05e2516446f71f85b926000905b8282106200030f575050918c916200028b9c9d60019410620002f5575b5050811b0160035562000262565b8a015160001960f88460031b161c191690553880620002e7565b80600185968294968f01518155019501930190620002ca565b62000332620000e6565b62000214565b90600182811c921680156200036a575b60208310146200035457565b634e487b7160e01b600052602260045260246000fd5b91607f169162000348565b601f811162000382575050565b6000906003825260208220906020601f850160051c83019410620003c3575b601f0160051c01915b828110620003b757505050565b818155600101620003aa565b9092508290620003a1565b601f8111620003db575050565b6000906004825260208220906020601f850160051c830194106200041c575b601f0160051c01915b8281106200041057505050565b81815560010162000403565b9092508290620003fa565b80519091906001600160401b0381116200051b575b62000454816200044e60045462000338565b620003ce565b602080601f831160011462000493575081929360009262000487575b50508160011b916000199060031b1c191617600455565b01519050388062000470565b6004600052601f198316949091907f8a35acfbc15ff81a39ae7d344fd709f28e8600b4aa8c65c6b64bfe7fe36bd19b926000905b87821062000502575050836001959610620004e8575b505050811b01600455565b015160001960f88460031b161c19169055388080620004dd565b80600185968294968601518155019501930190620004c7565b62000525620000e6565b6200043c565b80519091906001600160401b03811162000619575b62000552816200022660035462000338565b602080601f831160011462000591575081929360009262000585575b50508160011b916000199060031b1c191617600355565b0151905038806200056e565b6003600052601f198316949091907fc2575a0e9e593c00f959f8c92f12db2869c3395a3b0502d05e2516446f71f85b926000905b87821062000600575050836001959610620005e6575b505050811b01600355565b015160001960f88460031b161c19169055388080620005db565b80600185968294968601518155019501930190620005c5565b62000623620000e6565b62000540565b156200063157565b60405162461bcd60e51b815260206004820152601360248201527f616c726561647920696e697469616c697a6564000000000000000000000000006044820152606490fd5b156200067e57565b60405162461bcd60e51b815260206004820152602760248201527f6f6e6c79206578706f6e656e747320312c203220616e642034206172652073756044820152661c1c1bdc9d195960ca1b6064820152608490fd5b91908260c0910312620000e157620006eb8262000130565b91620006fa6020820162000145565b91620007096040830162000145565b91606081015163ffffffff81168103620000e1579160a0608083015192015190565b506040513d6000823e3d90fd5b156200074057565b60405162461bcd60e51b815260206004820152601c60248201527f746f6b656e20616464726573732063616e6e6f74206265207a65726f000000006044820152606490fd5b90816020910312620000e157620001e69062000130565b90816020910312620000e157518015158103620000e15790565b15620007be57565b606460405162461bcd60e51b815260206004820152602060248201527f50334420707265636f6d70696c652063616e6e6f74206265206d616e616765726044820152fd5b156200080a57565b60405162461bcd60e51b815260206004820152602260248201527f455243323020707265636f6d70696c652063616e6e6f74206265206d616e616760448201526132b960f11b6064820152608490fd5b939692620008f462000915929693620008b86200095896620008b260018060a01b039b620008ac8d620008a46200089860135460018060a01b031690565b6001600160a01b031690565b161562000629565b6200052b565b62000427565b600680546001600160a01b0319166001600160a01b0389161790556009805461ffff60a01b191660a09290921b61ffff60a01b16919091179055565b6009805461ffff60b01b191660b09290921b61ffff60b01b16919091179055565b6200093960ff82166001811490811562000c2c575b811562000c20575b5062000676565b6009805460ff60d01b191660d09290921b60ff60d01b16919091179055565b6200096242600b55565b6040516338185d3960e21b81528184169160c082600481865afa91821562000c10575b60009262000bd4575b50600780546001600160a01b0319166001600160a01b03841617905584821691620009bb83151562000738565b85604051809563506d3c4360e01b825281600460209889935afa90811562000bc4575b60009162000b90575b5016830362000b22575060405163095ea7b360e01b81526001600160a01b03919091166004820152600019602482015262000ac09562000a669390929091908290829060449082906000905af1801562000b12575b62000add575b50505b600980546001600160a01b0319166001600160a01b03831617905562000e14565b8082161562000acd5761080262000a8391925b83161415620007b6565b62000a9e63fbfbfbfa63ffffffff8360801c16141562000802565b600880546001600160a01b0319166001600160a01b0392909216919091179055565b6200028b620d2f00600a55565b5062000a83610802339262000a79565b8162000b0192903d1062000b0a575b62000af88183620000fd565b8101906200079c565b50388062000a42565b503d62000aec565b62000b1c6200072b565b62000a3c565b905063fbfbfbfa925063ffffffff915060801c160362000b4b5762000a6662000ac09362000a45565b60405162461bcd60e51b815260206004820152601660248201527f756e737570706f7274656420746f6b656e2074797065000000000000000000006044820152606490fd5b62000bb59150863d881162000bbc575b62000bac8183620000fd565b81019062000785565b38620009e7565b503d62000ba0565b62000bce6200072b565b620009de565b62000bfb91925060c03d811162000c08575b62000bf28183620000fd565b810190620006d3565b505050505090386200098e565b503d62000be6565b62000c1a6200072b565b62000985565b60049150143862000932565b6002811491506200092a565b1562000c4057565b60405162461bcd60e51b815260206004820152601d60248201527f6f7261636c652063616e6e6f74206265207a65726f20616464726573730000006044820152606490fd5b1562000c8d57565b60405162461bcd60e51b815260206004820152601f60248201527f6f7261636c652063616e6e6f742062652050334420707265636f6d70696c65006044820152606490fd5b1562000cda57565b60405162461bcd60e51b815260206004820152602160248201527f6f7261636c652063616e6e6f7420626520455243323020707265636f6d70696c6044820152606560f81b6064820152608490fd5b1562000d3157565b60405162461bcd60e51b815260206004820152600a602482015269626164206f7261636c6560b01b6044820152606490fd5b9190826040910312620000e1576020825192015190565b60a0916040825260086040830152675f4e41544956455f60c01b60608301526080602083015262000dbb815180928160808601526020868601910162000155565b601f01601f1916010190565b1562000dcf57565b60405162461bcd60e51b815260206004820152601460248201527f6e6f2070726963652066726f6d206f7261636c650000000000000000000000006044820152606490fd5b62000ef860406200028b9262000ec562000e93602060018060a01b0384169362000e4085151562000c38565b62000e5061080286141562000c85565b62000e6b63fbfbfbfa63ffffffff8360801c16141562000cd2565b8551631627905560e01b81526001600160a01b03909116600482015291829081906024820190565b038173__CounterstakeLibrary___________________5af490811562000f99575b60009162000f76575b5062000d29565b60075462000edc906001600160a01b031662000fd2565b9082518080958194631e879a6d60e11b83526004830162000d7a565b03915afa90811562000f66575b600090819262000f2e575b50159081159162000f23575b5062000dc7565b905015153862000f1c565b905062000f56915060403d811162000f5e575b62000f4d8183620000fd565b81019062000d63565b903862000f10565b503d62000f41565b62000f706200072b565b62000f05565b62000f92915060203d811162000b0a5762000af88183620000fd565b3862000ebe565b62000fa36200072b565b62000eb5565b90602082820312620000e15781516001600160401b038111620000e157620001e692016200018d565b6004906000906001600160a01b0381169061080282036200104657506040516395d89b4160e01b815292839182905afa90811562001036575b60009162001017575090565b620001e6913d8091833e6200102d8183620000fd565b81019062000fa9565b620010406200072b565b6200100b565b60801c63ffffffff1663fbfbfbfa14821462001084576040516395d89b4160e01b815292839182905afa908115620010365760009162001017575090565b6040516395d89b4160e01b815292839182905afa90811562001036576000916200101757509056fe60806040526004361015610023575b361561001957600080fd5b610021613a74565b005b60003560e01c806203c62f1461040a57806301ffc9a71461040157806306fdde03146103f8578063095ea7b3146103ef5780630b3e6c52146103e657806315b1abfa146103dd57806317cf7a48146103d457806318160ddd146103cb5780631fcd4a32146103c257806322a4d22d146103b957806323b872dd146103b0578063313ce567146103a7578063321541ce1461039e578063334c67a51461039557806336a23c811461038c57806339509351146103835780634110869c1461037a57806352f6ee58146103715780635aa6e675146103685780635ad95ef21461035f5780636022743e14610356578063664b6b0a1461034d57806366ad46651461034457806366d16cc31461033b57806370a0823114610332578063721c8da9146103295780637adbf973146103205780637df3d7b61461031757806389e4ae1c1461030e57806395d89b41146103055780639d76ea58146102fc5780639e6611a5146102f3578063a3c573eb146102ea578063a457c2d7146102e1578063a5dd3215146102d8578063a89ae4ba146102cf578063a9059cbb146102c6578063a9857bf9146102bd578063ac4ffa4e146102b4578063adba9804146102ab578063b4fc3e1f146102a2578063c2e5305614610299578063cd1a570914610290578063cf73a1bc14610287578063d1a93d181461027e578063dd62ed3e14610275578063dd8b1a151461026c578063deb8aba114610263578063e5a583a91461025a5763e86d60bf0361000e57610255612538565b61000e565b506102556124c5565b5061025561249f565b506102556123af565b5061025561235b565b5061025561209a565b50610255612070565b50610255612043565b5061025561200d565b50610255611fee565b50610255611e75565b50610255611d5c565b50610255611c82565b50610255611c57565b50610255611c2d565b50610255611c07565b50610255611b66565b50610255611b3c565b50610255611885565b5061025561185b565b506102556117b5565b50610255611596565b5061025561152f565b50610255611474565b50610255611416565b506102556113d8565b506102556113b9565b5061025561139a565b506102556112ff565b5061025561107b565b50610255610bca565b50610255610ba0565b50610255610b7b565b50610255610b55565b50610255610b0a565b50610255610aeb565b50610255610a35565b506102556109d0565b506102556109a9565b506102556108ce565b5061025561087a565b5061025561085b565b5061025561083c565b50610255610818565b50610255610790565b506102556106c5565b5061025561068f565b5061025561059b565b50610255610442565b50610255610423565b600091031261041e57565b600080fd5b503461041e57600036600319011261041e576020600d54604051908152f35b503461041e57602036600319011261041e5760043563ffffffff60e01b811680910361041e57602090635627fd2760e11b8114908115610488575b506040519015158152f35b6301ffc9a760e01b1490503861047d565b90600182811c921680156104c9575b60208310146104b357565b634e487b7160e01b600052602260045260246000fd5b91607f16916104a8565b50634e487b7160e01b600052604160045260246000fd5b6001600160401b0381116104fd57604052565b6105056104d3565b604052565b601f909101601f19168101906001600160401b038211908210176104fd57604052565b918091926000905b82821061054d575011610546575050565b6000910152565b91508060209183015181860152018291610535565b9060209161057b8151809281855285808601910161052d565b601f01601f1916010190565b906020610598928181520190610562565b90565b503461041e5760008060031936011261066057604051816003546105be81610499565b8084529060019081811690811561063f57506001146105f8575b6105f4846105e88188038261050a565b60405191829182610587565b0390f35b6003835260209450600080516020614e9c8339815191525b82841061062c57505050816105f4936105e892820101936105d8565b8054858501870152928501928101610610565b60ff1916602086015250506040830193506105e891508290506105f46105d8565b80fd5b6001600160a01b031690565b6001600160a01b0381160361041e57565b6084359061068d8261066f565b565b503461041e57604036600319011261041e576106ba6004356106b08161066f565b6024359033612795565b602060405160018152f35b503461041e57600036600319011261041e576020601254604051908152f35b604051906101e082016001600160401b038111838210176104fd57604052565b6020906001600160401b038111610721575b601f01601f19160190565b6107296104d3565b610716565b81601f8201121561041e5780359061074582610704565b92610753604051948561050a565b8284526020838301011161041e57816000926020809301838601378301015290565b63ffffffff81160361041e57565b60a4359061068d8261066f565b503461041e5760e036600319011261041e576001600160401b0360043581811161041e576107c290369060040161072e565b6024356107ce81610775565b60843583811161041e576107e690369060040161072e565b6107ee610783565b9160c43594851161041e5761080a61002195369060040161072e565b9360643591604435916131bb565b503461041e57600036600319011261041e57602061083461316b565b604051908152f35b503461041e57600036600319011261041e576020600254604051908152f35b503461041e57600036600319011261041e576020600a54604051908152f35b503461041e57602036600319011261041e57612710600435101561089a57005b60405162461bcd60e51b815260206004820152600c60248201526b62616420657869742066656560a01b6044820152606490fd5b503461041e57606036600319011261041e576004356108ec8161066f565b602435906108f98261066f565b6109076044358093836126bd565b6001600160a01b038116600090815260016020526040902061092a903390612571565b54828110610953576109479261093f9161259f565b903390612795565b60405160018152602090f35b60405162461bcd60e51b815260206004820152602860248201527f45524332303a207472616e7366657220616d6f756e74206578636565647320616044820152676c6c6f77616e636560c01b6064820152608490fd5b503461041e57600036600319011261041e5760206109c5614df6565b60ff60405191168152f35b503461041e57602036600319011261041e576301e13380600435116109f157005b606460405162461bcd60e51b815260206004820152602060248201527f70726f66697420646966667573696f6e20706572696f6420746f6f206c6f6e676044820152fd5b503461041e57600036600319011261041e57610a5c60018060a01b03600854163314613094565b610a64613688565b610a6c613794565b5050600c546000811315610ab657610a9c610a94610aa29261ffff60095460b01c169061311f565b612710900490565b33614bf9565b610aac6000600c55565b6100216001600555565b60405162461bcd60e51b815260206004820152600d60248201526c1b9bc81c1c9bd99a5d081e595d609a1b6044820152606490fd5b503461041e57600036600319011261041e576020600e54604051908152f35b503461041e57604036600319011261041e576106ba600435610b2b8161066f565b336000526001602052610b4e602435610b48836040600020612571565b546125fe565b9033612795565b503461041e57600036600319011261041e57602061ffff60095460b01c16604051908152f35b503461041e57600036600319011261041e57602060ff60095460d01c16604051908152f35b503461041e57600036600319011261041e576013546040516001600160a01b039091168152602090f35b503461041e5760408060031936011261041e57600490610cf08235610bee8161066f565b60243593610bfb8561066f565b60018060a01b0394610c2186610c1a610c15601354610663565b610663565b16156128ae565b8451916372ccf61760e11b835286610c82602094858180610c45303089840161454a565b03816000809e819c165af190811561106e575b8791611051575b50601380546001600160a01b0319166001600160a01b0392909216919091179055565b610c8d601354610663565b908080831694169385600a548a51809a8192634a79346360e01b97888452309130918b8601929363321541ce637df3d7b6929695606094608087019860018060a01b03168752602087015260201b1760401b604085015260201b1760401b910152565b03818a895af1978815611044575b8798611025575b50803b15610fd5578689518092818381610d69631beab6f960e01b9e8f83528b83019190916040815260176040820152761c1c9bd99a5d17d91a59999d5cda5bdb97dc195c9a5bd9604a1b60608201526020608082019360018060a01b0316910152565b03925af18015611018575b611005575b50610d85601354610663565b6009548282169291879160c01c61ffff168b519586526001600160a01b0390911686860190815261ffff90911660208083019190915230901b6322a4d22d8117604090811b8184015263e5a583a991909117901b60608201528490819060800103818a895af1928315610ff8575b8793610fd9575b50813b15610fd557610e5387610edc9488948b838e5180968195829483528c830191909160408152600d60408201526c0657869745f666565313030303609c1b60608201526020608082019360018060a01b0316910152565b03925af18015610fc8575b610fb5575b50610e6f601354610663565b90811694610e7e600954610663565b8a51634d89ac5560e11b81526001600160a01b039384168782019081529390911660208085019190915230901b63a5dd32158117604090811b81860152637adbf97391909117901b606084015293849283918a918391608090910190565b03925af1938415610fa8575b8594610f79575b5050813b15610f755785519485526040908501818152600d918101919091526c6f7261636c654164647265737360981b60608201526001600160a01b039092166020830152839182908490829060800103925af18015610f68575b610f52575051f35b80610f5f610f65926104ea565b80610413565b51f35b610f70612c44565b610f4a565b8380fd5b610f99929450803d10610fa1575b610f91818361050a565b810190612c9c565b913880610eef565b503d610f87565b610fb0612c44565b610ee8565b80610f5f610fc2926104ea565b38610e63565b610fd0612c44565b610e5e565b8680fd5b610ff1919350863d8811610fa157610f91818361050a565b9138610dfa565b611000612c44565b610df3565b80610f5f611012926104ea565b38610d79565b611020612c44565b610d74565b61103d919850863d8811610fa157610f91818361050a565b9638610d05565b61104c612c44565b610cfe565b6110689150863d8811610fa157610f91818361050a565b38610c5f565b611076612c44565b610c58565b503461041e5760208060031936011261041e5760e09061123360043561109f613688565b6110a7613794565b505061122e6112296110b883612033565b546110c4811515613c93565b6111fb6110d8610c15610c15600654610663565b966111d381876040519a635aef24478d1b8c5260009c8d8d819e80806111078860048795019190602083019252565b0381875afa9182156112d6575b80926112b3575b505061112981511515613e7c565b61115061114961114060a084015163ffffffff1690565b63ffffffff1690565b4211613eb8565b0160018d82519061116082613a13565b61116982613a13565b50036112a7578c6111bc81925b519161118183613a13565b6040518781806111a263176354e560e11b9788835230908c60048501613ef6565b0381895afa91821561129a575b9161127d575b5015613f1f565b604051958694859384938452309160048501613ef6565b03915afa918215611270575b8992611243575b50506111f3811515613f76565b821015613fc2565b61120d6001600160ff1b038210613b16565b61122161121c82600c546136de565b600c55565b600e5461259f565b600e55565b612033565b5561123e6001600555565b604051f35b6112629250803d10611269575b61125a818361050a565b8101906134c4565b38806111e6565b503d611250565b611278612c44565b6111df565b6112949150873d89116112695761125a818361050a565b386111b5565b6112a2612c44565b6111af565b8c6111bc600192611176565b6112cf92503d8091833e6112c7818361050a565b810190613d43565b388e61111b565b6112de612c44565b611114565b61ffff81160361041e57565b60a4359060ff8216820361041e57565b503461041e5761010036600319011261041e5760043561131e8161066f565b6024359061132b8261066f565b60443591611338836112e3565b606435611344816112e3565b61134c610680565b6113546112ef565b6001600160401b039590929060c43587811161041e5761137890369060040161072e565b9460e43597881161041e5761139461002198369060040161072e565b96612daa565b503461041e57600036600319011261041e576020601054604051908152f35b503461041e57600036600319011261041e576020600c54604051908152f35b503461041e57602036600319011261041e576004356113f68161066f565b60018060a01b031660005260006020526020604060002054604051908152f35b503461041e576000806003193601126106605761143e60018060a01b03600854163314613094565b611446613688565b61144e613794565b5050611462610a9c600d54601254906125fe565b80600d55806012556001600555604051f35b503461041e57602036600319011261041e576004356114928161066f565b601354604051630102942360e61b81523360048201526001600160a01b0392916114db91906020908290602490829088165afa908115611522575b6000916114f4575b50614564565b60098054919092166001600160a01b0319909116179055005b611515915060203d811161151b575b61150d818361050a565b810190612cbe565b386114d5565b503d611503565b61152a612c44565b6114cd565b503461041e57602036600319011261041e57601354604051630102942360e61b815233600482015261158491602090829060249082906001600160a01b03165afa908115611522576000916114f45750614564565b600435600a55005b6002111561041e57565b503461041e57606036600319011261041e576004356024356115b78161158c565b604435916115d060018060a01b03600854163314613094565b6115d8613688565b825a916115e36139ac565b60009691506115f3878213613511565b611604610c15610c15600654610663565b60405163569f7a1560e01b81529094602082806116258b8960048401613a40565b0381895afa9182156117a8575b8992611788575b5081811591821561177e575b5050611774575b506116599082111561354e565b85833b15610660576116fe611229957fabc27adb41485e9e8d95ac46268c3b9431b3a398b62cffe55e9efa2aa9a62c7f84896116ba86836117429b61174a9e6117089a8d604051968795869485936322792b8760e21b855260048501613a56565b03925af18015611767575b611754575b506116db6040519283928a84613a56565b0390a16117036116f46116ef600954610663565b614a3f565b9390925a9061259f565b6125b6565b614b5d565b9161171d611718846012546125fe565b601255565b61173b61173361172d85856125fe565b92612033565b9182546125fe565b90556125fe565b600e546125fe565b61123e6001600555565b80610f5f611761926104ea565b386116ca565b61176f612c44565b6116c5565b915061165961164c565b1190508138611645565b6117a191925060203d81116112695761125a818361050a565b9038611639565b6117b0612c44565b611632565b503461041e5760008060031936011261066057604051816004546117d881610499565b8084529060019081811690811561063f5750600114611801576105f4846105e88188038261050a565b6004835260209450600080516020614edc8339815191525b82841061183557505050816105f4936105e892820101936105d8565b8054858501870152928501928101611819565b6001600160a01b03909116815260200190565b503461041e57600036600319011261041e576007546040516001600160a01b039091168152602090f35b503461041e5760208060031936011261041e5761174a6004356118a6613688565b6118af81612033565b54906118bc821515613c93565b6118cd610c15610c15600654610663565b604051635aef244760e01b8152600481018390526000959192918682602481875afa918215611b2f575b8792611b0f575b506119ca9061190f83511515613e7c565b611925611920610140850151151590565b614009565b6119af8160e08501966001885161193b81613a13565b61194481613a13565b03611b07578a905b885161195781613a13565b6119988d61197e868c6040518093819263176354e560e11b98898452309160048501613ef6565b0381885afa918215611afa575b91611add575b5015614048565b604051809581948293835230908c60048501613ef6565b03915afa918215611ad0575b8992611ab3575b50508561259f565b92611a53611a0360808401953060018060a01b036119e88951610663565b1603611aac576119fd8551606481049061259f565b9061259f565b611a0e8115156140a0565b60018351611a1b81613a13565b611a2481613a13565b03611a9d57611a4e6101a0850151915b611a496101a08701516101c0880151906125fe565b61311f565b613155565b93611a62610c15309251610663565b149081611a7f575b5015611a77575190613b8c565b508490613b8c565b6001915051611a8d81613a13565b611a9681613a13565b1438611a6a565b611a4e6101c085015191611a34565b899061259f565b611ac99250803d106112695761125a818361050a565b38806119c2565b611ad8612c44565b6119bb565b611af49150863d88116112695761125a818361050a565b38611991565b611b02612c44565b61198b565b60019061194c565b6119ca919250611b28903d808a833e6112c7818361050a565b91906118fe565b611b37612c44565b6118f7565b503461041e57600036600319011261041e576006546040516001600160a01b039091168152602090f35b503461041e57604036600319011261041e57600435611b848161066f565b60243590336000526001602052611b9f816040600020612571565b54828110611bb45761094792610b4e9161259f565b60405162461bcd60e51b815260206004820152602560248201527f45524332303a2064656372656173656420616c6c6f77616e63652062656c6f77604482015264207a65726f60d81b6064820152608490fd5b503461041e57602036600319011261041e57610021600435611c288161066f565b614760565b503461041e57600036600319011261041e576009546040516001600160a01b039091168152602090f35b503461041e57604036600319011261041e576106ba600435611c788161066f565b60243590336126bd565b503461041e57602036600319011261041e57600435611ca08161066f565b6008546001600160a01b039081169190611cbb338414613094565b8116918215611d2857817f770e6248a70b6ac757edf422766216da592c37e3112db900fe0da8984191831b91611cf8610802610021961415612d08565b611d1163fbfbfbfa63ffffffff8460801c161415612d53565b611d206040519283928361454a565b0390a1612b5e565b60405162461bcd60e51b815260206004820152600c60248201526b7a65726f206164647265737360a01b6044820152606490fd5b503461041e5760c036600319011261041e576004356001600160401b0360643581811161041e57611d9190369060040161072e565b50611d9d60843561066f565b60a43590811161041e57611db590369060040161072e565b506006546001600160a01b03163303611e3e5780600052600f6020526040600020548015611dee57610021916044359060243590613b8c565b60405162461bcd60e51b815260206004820152602260248201527f4255473a2049206469646e2774207374616b6520696e207468697320636c61696044820152616d3f60f01b6064820152608490fd5b60405162461bcd60e51b815260206004820152600f60248201526e6e6f742066726f6d2062726964676560881b6044820152606490fd5b503461041e57602036600319011261041e57600435611e92613688565b6002543315611f9f57816119fd610a9461ffff611f94610a9c95611ece610aac98611ebc33612557565b54611ec9828210156144f3565b61259f565b611ed733612557565b55611eec611ee78760025461259f565b600255565b6040518681526000903390600080516020614ebc83398151915290602090a3611f8e611f52611f43611f1c613794565b9050611f2a60008213614420565b611f3261316b565b90611f3e828211614463565b6136de565b600e5490611ec98282116144a7565b96611f8860095498611f8260ff8b60d01c16936119fd85611f7d611f76828b6142ab565b938a61259f565b61432f565b9061311f565b926142ab565b90613155565b9360c01c168361311f565b60405162461bcd60e51b815260206004820152602160248201527f45524332303a206275726e2066726f6d20746865207a65726f206164647265736044820152607360f81b6064820152608490fd5b503461041e57600036600319011261041e576020601154604051908152f35b503461041e57600036600319011261041e57602061ffff60095460a01c16604051908152f35b600052600f602052604060002090565b503461041e57602036600319011261041e57600435600052600f6020526020604060002054604051908152f35b503461041e57600036600319011261041e576008546040516001600160a01b039091168152602090f35b5060208060031936011261041e57600435906120b4613688565b60046120c1600754610663565b826120d3610c15610c15600654610663565b60405163506d3c4360e01b815293849182905afa91821561234e575b60009261232f575b506001600160a01b03818116921682036122555750506121ca610aac926121746121e69361212534156140f7565b612136610c15610c15600754610663565b8160405180926323b872dd60e01b8252816000816121598a303360048501614134565b03925af1918215612248575b60009261222b575b50506141a1565b61217d816139fc565b60025490811591612190838515146141e7565b600092156121ed575050506121c56121bf6121b96121b46121af614df6565b614224565b614243565b84613155565b33614388565b6125fe565b611f826002546121e060095460ff9060d01c1690565b9061432f565b151561433c565b611ec9826122026121c5956122269513613511565b611f8e61222061221a6122158a856125fe565b614d83565b8561311f565b91614d83565b6121bf565b6122419250803d1061151b5761150d818361050a565b388061216d565b612250612c44565b612165565b90919060801c63ffffffff1663fbfbfbfa036122f157610aac926122c26121ca926121e69461228434156140f7565b8160405180926323b872dd60e01b8252816000816122a78a303360048501614134565b03925af19182156122e4575b6000926122c7575b5050614156565b612174565b6122dd9250803d1061151b5761150d818361050a565b38806122bb565b6122ec612c44565b6122b3565b60405162461bcd60e51b8152602060048201526016602482015275756e737570706f7274656420746f6b656e207479706560501b6044820152606490fd5b612347919250833d8511610fa157610f91818361050a565b90386120f7565b612356612c44565b6120ef565b503461041e57604036600319011261041e5760206123a660043561237e8161066f565b6024359061238b8261066f565b6001600160a01b031660009081526001845260409020612571565b54604051908152f35b503461041e57600036600319011261041e576008546001600160a01b03906123da9082163314613094565b60075481811691600654169061080283146124615760009260209261241063fbfbfbfa63ffffffff61242c9560801c16146130dc565b60405194858094819363095ea7b360e01b835260048301612cd2565b03925af18015612454575b61243d57005b6100219060203d811161151b5761150d818361050a565b61245c612c44565b612437565b60405162461bcd60e51b81526020600482015260166024820152756e6f7420666f722050334420707265636f6d70696c6560501b6044820152606490fd5b503461041e57600036600319011261041e57602061ffff60095460c01c16604051908152f35b503461041e57602036600319011261041e57601354604051630102942360e61b815233600482015261251a91602090829060249082906001600160a01b03165afa908115611522576000916114f45750614564565b6009805461ffff60c01b191660043560c01b61ffff60c01b16179055005b503461041e57600036600319011261041e576020600b54604051908152f35b6001600160a01b0316600090815260208190526040902090565b9060018060a01b0316600052602052604060002090565b50634e487b7160e01b600052601160045260246000fd5b8181106125aa570390565b6125b2612588565b0390565b620117c090620117c01981116125ca570190565b6125d2612588565b0190565b620124a890620124a81981116125ca570190565b620130b090620130b01981116125ca570190565b811981116125ca570190565b1561261157565b60405162461bcd60e51b815260206004820152602360248201527f45524332303a207472616e7366657220746f20746865207a65726f206164647260448201526265737360e81b6064820152608490fd5b1561266957565b60405162461bcd60e51b815260206004820152602660248201527f45524332303a207472616e7366657220616d6f756e7420657863656564732062604482015265616c616e636560d01b6064820152608490fd5b916001600160a01b0380841692909183156127425761272082600080516020614ebc8339815191529461273d9416966126f788151561260a565b61271a6127148561270784612557565b54611ec982821015612662565b91612557565b55612557565b61272b8282546125fe565b90556040519081529081906020820190565b0390a3565b60405162461bcd60e51b815260206004820152602560248201527f45524332303a207472616e736665722066726f6d20746865207a65726f206164604482015264647265737360d81b6064820152608490fd5b6001600160a01b03808216929190831561285d57821693841561280d57806127fc7f8c5be1e5ebec7d5bd14f71427d1e84f3dd0314c0f7b2291e5b200ac8c7c3b925946127f761273d9560018060a01b03166000526001602052604060002090565b612571565b556040519081529081906020820190565b60405162461bcd60e51b815260206004820152602260248201527f45524332303a20617070726f766520746f20746865207a65726f206164647265604482015261737360f01b6064820152608490fd5b60405162461bcd60e51b8152602060048201526024808201527f45524332303a20617070726f76652066726f6d20746865207a65726f206164646044820152637265737360e01b6064820152608490fd5b156128b557565b60405162461bcd60e51b8152602060048201526013602482015272185b1c9958591e481a5b9a5d1a585b1a5e9959606a1b6044820152606490fd5b601f81116128fc575050565b6000906003825260208220906020601f850160051c8301941061293a575b601f0160051c01915b82811061292f57505050565b818155600101612923565b909250829061291a565b601f8111612950575050565b6000906004825260208220906020601f850160051c8301941061298e575b601f0160051c01915b82811061298357505050565b818155600101612977565b909250829061296e565b80519091906001600160401b038111612a6e575b6129c0816129bb600354610499565b6128f0565b602080601f83116001146129fc57508192936000926129f1575b50508160011b916000199060031b1c191617600355565b0151905038806129da565b6003600052601f19831694909190600080516020614e9c833981519152926000905b878210612a56575050836001959610612a3d575b505050811b01600355565b015160001960f88460031b161c19169055388080612a32565b80600185968294968601518155019501930190612a1e565b612a766104d3565b6129ac565b80519091906001600160401b038111612b51575b612aa381612a9e600454610499565b612944565b602080601f8311600114612adf5750819293600092612ad4575b50508160011b916000199060031b1c191617600455565b015190503880612abd565b6004600052601f19831694909190600080516020614edc833981519152926000905b878210612b39575050836001959610612b20575b505050811b01600455565b015160001960f88460031b161c19169055388080612b15565b80600185968294968601518155019501930190612b01565b612b596104d3565b612a8f565b600880546001600160a01b0319166001600160a01b0392909216919091179055565b15612b8757565b60405162461bcd60e51b815260206004820152602760248201527f6f6e6c79206578706f6e656e747320312c203220616e642034206172652073756044820152661c1c1bdc9d195960ca1b6064820152608490fd5b519061068d826112e3565b519061068d82610775565b91908260c091031261041e578151612c098161066f565b916020810151612c18816112e3565b916040820151612c27816112e3565b916060810151612c3681610775565b9160a0608083015192015190565b506040513d6000823e3d90fd5b15612c5857565b60405162461bcd60e51b815260206004820152601c60248201527b746f6b656e20616464726573732063616e6e6f74206265207a65726f60201b6044820152606490fd5b9081602091031261041e57516105988161066f565b5190811515820361041e57565b9081602091031261041e5761059890612cb1565b6001600160a01b039091168152600019602082015260400190565b6001600160a01b039091168152602081019190915260400190565b15612d0f57565b606460405162461bcd60e51b815260206004820152602060248201527f50334420707265636f6d70696c652063616e6e6f74206265206d616e616765726044820152fd5b15612d5a57565b60405162461bcd60e51b815260206004820152602260248201527f455243323020707265636f6d70696c652063616e6e6f74206265206d616e616760448201526132b960f11b6064820152608490fd5b939692612e20612e41929693612de4612e8096612ddf60018060a01b039b612dda8d610c1a610c15601354610663565b612998565b612a7b565b600680546001600160a01b0319166001600160a01b0389161790556009805461ffff60a01b191660a09290921b61ffff60a01b16919091179055565b6009805461ffff60b01b191660b09290921b61ffff60b01b16919091179055565b612e6160ff821660018114908115613089575b811561307e575b50612b80565b6009805460ff60d01b191660d09290921b60ff60d01b16919091179055565b612e8942600b55565b6040516338185d3960e21b81528184169160c082600481865afa918215613071575b60009261303c575b50600780546001600160a01b0319166001600160a01b03841617905584821691612ede831515612c51565b85604051809563506d3c4360e01b825281600460209889935afa90811561302f575b600091613012575b50168303612fed575091600081612f3d612fa89894612f709660405194858094819363095ea7b360e01b835260048301612cd2565b03925af18015612fe0575b612fc2575b50505b600980546001600160a01b0319166001600160a01b038316179055614760565b80821615612fb457610802612f8a91925b83161415612d08565b612fa363fbfbfbfa63ffffffff8360801c161415612d53565b612b5e565b61068d620d2f00600a55565b50612f8a6108023392612f81565b81612fd892903d1061151b5761150d818361050a565b503880612f4d565b612fe8612c44565b612f48565b905063fbfbfbfa925063ffffffff915060801c16036122f157612f70612fa893612f50565b6130299150863d8811610fa157610f91818361050a565b38612f08565b613037612c44565b612f00565b61305e91925060c03d811161306a575b613056818361050a565b810190612bf2565b50505050509038612eb3565b503d61304c565b613079612c44565b612eab565b600491501438612e5b565b600281149150612e54565b1561309b57565b60405162461bcd60e51b815260206004820152601960248201527831b0b63632b91034b9903737ba103a34329036b0b730b3b2b960391b6044820152606490fd5b156130e357565b60405162461bcd60e51b81526020600482015260146024820152736e6f7420455243323020707265636f6d70696c6560601b6044820152606490fd5b8060001904821181151516613132570290565b61313a612588565b0290565b50634e487b7160e01b600052601260045260246000fd5b811561315f570490565b61316761313e565b0490565b6011548042106131ae575b600a5490420381811061318a575050600090565b601054613155918084106131a1575b83039061311f565b6131a9612588565b613199565b6131b6612588565b613176565b9381948397969392936131d960018060a01b03600854163314613094565b6131e1613688565b5a6131ef6000881215613449565b613200610c15610c15600654610663565b98604051926309a2b0db60e01b8452848b8a6132456132396020988981600481885afa90811561343c575b60009161340f575b506134a6565b6001600160401b031690565b998a9288604051809263373998db60e21b8252818061326c87600483019190602083019252565b03915afa988915613402575b6000996133dd575b505081816132918795948b9461259f565b61329b90846125fe565b9d8e6132a56139ac565b9190506132ba6001600160ff1b0382106134d3565b6132c660008313613511565b11156132d19061354e565b6040519687966132e1968861358f565b037f3aadcdfb543b53ea42ab2de8e41eb6c474a1fea158467f832b5eeeb7d5852c3791a18a3b1561041e576133b39b6112299b6117429b60006133839861334a8e97839761338b9d6133799c6040519b8c9a8b998a98632a2db3db60e21b8a5260048a016135d7565b03925af180156133d0575b6133bd575b5061170361337e61336f6116ef600954610663565b9490935a9061259f565b6125d6565b6125ea565b80941161363c565b61339a611718846012546125fe565b6133ad6133a784846125fe565b91612033565b556125fe565b61068d6001600555565b80610f5f6133ca926104ea565b3861335a565b6133d8612c44565b613355565b869493995090816133f992903d106112695761125a818361050a565b97919238613280565b61340a612c44565b613278565b61342f91508a3d8c11613435575b613427818361050a565b810190613487565b38613233565b503d61341d565b613444612c44565b61322b565b1561345057565b60405162461bcd60e51b815260206004820152600f60248201526e1b9959d85d1a5d99481c995dd85c99608a1b6044820152606490fd5b9081602091031261041e57516001600160401b038116810361041e5790565b6001906001600160401b03166002600160401b0381116125ca570190565b9081602091031261041e575190565b156134da57565b60405162461bcd60e51b815260206004820152600f60248201526e746f74616c20746f6f206c6172676560881b6044820152606490fd5b1561351857565b60405162461bcd60e51b815260206004820152600e60248201526d6e6f206e65742062616c616e636560901b6044820152606490fd5b1561355557565b60405162461bcd60e51b81526020600482015260126024820152716e6f7420656e6f7567682062616c616e636560701b6044820152606490fd5b93979695926135c29060c0969363ffffffff93875260018060a01b0316602087015260e0604087015260e0860190610562565b97166060840152608083015260a08201520152565b9490936105989896929363ffffffff6135fb61361e97610100808b528a0190610562565b9516602088015260408701526060860152608085015283820360a0850152610562565b6001600160a01b0390931660c082015280830360e090910152610562565b1561364357565b60405162461bcd60e51b815260206004820152601f60248201527f6e6574776f726b2066656520776f756c642065786365656420726577617264006044820152606490fd5b600260055414613699576002600555565b60405162461bcd60e51b815260206004820152601f60248201527f5265656e7472616e637947756172643a207265656e7472616e742063616c6c006044820152606490fd5b600082128015600160ff1b8401831216613708575b6001600160ff1b0383018213166125aa570390565b613710612588565b6136f3565b6000808213908313836001600160ff1b03838316828204861116613787575b600160ff1b93600083129390841686860584121661377a575b8260008712950586129085161661376d575b058312911616613132570290565b613775612588565b61375f565b613782612588565b61374d565b61378f612588565b613734565b61387061383860006137a7600754610663565b906137b9610c15610c15600654610663565b9060405192839263506d3c4360e01b845283600460209687935afa92831561399f575b8293613980575b506001600160a01b03818116931683036138fe5750508160405180926370a0823160e01b825281806138183060048301611848565b03915afa9182156138f1575b6000926138d4575b50505b600e54906125fe565b916138cb6138c56138bc856138b66138b16138a961388c600d54613886610a9461387c6009549d8e9961ffff809b60a01c169061311f565b611f82600b544261259f565b6301da9c00900490565b906125fe565b986138978a8c6136de565b94600c549160b01c1660010b90613715565b612710900590565b614e13565b906136de565b601254906136de565b92600d55565b61068d42600b55565b6138ea9250803d106112695761125a818361050a565b388061382c565b6138f9612c44565b613824565b90929060801c63ffffffff1663fbfbfbfa1461391c575b505061382f565b8060405180936370a0823160e01b8252818061393b3060048301611848565b03915afa928315613973575b92613956575b50503880613915565b61396c9250803d106112695761125a818361050a565b388061394d565b61397b612c44565b613947565b613998919350843d8611610fa157610f91818361050a565b91386137e3565b6139a7612c44565b6137dc565b6139bc60006137a7600754610663565b906105986138bc836138b66138b16138a9600d546138976139f660095492613886610a9461387c61387061ffff9b8c8960a01c169061311f565b8a6136de565b61383861387091611ec960006137a7600754610663565b60021115613a1d57565b634e487b7160e01b600052602160045260246000fd5b906002821015613a1d5752565b90815260408101929161068d9160200190613a33565b613a70604092959493606083019683526020830190613a33565b0152565b60075460065460405163506d3c4360e01b81526001600160a01b0392831692916020908290600490829086165afa908115613b09575b600091613aeb575b501603613abb57565b60405162461bcd60e51b8152602060048201526008602482015267503344206f6e6c7960c01b6044820152606490fd5b613b03915060203d8111610fa157610f91818361050a565b38613ab2565b613b11612c44565b613aaa565b15613b1d57565b60405162461bcd60e51b815260206004820152600e60248201526d6c6f737320746f6f206c6172676560901b6044820152606490fd5b6000811280156001600160ff1b03839003841316613b7f575b600160ff1b8290038312166125ca570190565b613b87612588565b613b6c565b91613b96916125fe565b613b9f816139fc565b505082811080613c3357908391613c26575b03906001600160ff1b03821015613be95761122e61122960009461122185613be161121c613be698600c54613b53565b613c7e565b55565b60405162461bcd60e51b8152602060048201526015602482015274746869735f70726f66697420746f6f206c6172676560581b6044820152606490fd5b613c2e612588565b613bb1565b509061122e61122984613c6985613be69660009810613c71575b8203613c616001600160ff1b038210613b16565b600c546136de565b600c55611221565b613c79612588565b613c4d565b613c8a906121c561316b565b60105542601155565b15613c9a57565b60405162461bcd60e51b815260206004820152602360248201527f7468697320636c61696d20697320616c7265616479206163636f756e746564206044820152623337b960e91b6064820152608490fd5b519061068d8261066f565b519061068d8261158c565b81601f8201121561041e578051613d1781610704565b92613d25604051948561050a565b8184526020828401011161041e57610598916020808501910161052d565b9060208282031261041e5781516001600160401b039283821161041e5701906101e08282031261041e57613d756106e4565b9282518452613d8660208401613ceb565b6020850152613d9760408401612be7565b6040850152613da860608401612be7565b6060850152613db960808401613ceb565b6080850152613dca60a08401612be7565b60a0850152613ddb60c08401612bdc565b60c0850152613dec60e08401613cf6565b60e0850152610100613dff818501612cb1565b90850152610120613e11818501612cb1565b90850152610140613e23818501612cb1565b908501526101608084015182811161041e5783613e41918601613d01565b90850152610180918284015191821161041e57613e5f918401613d01565b908301526101a080820151908301526101c0809101519082015290565b15613e8357565b60405162461bcd60e51b815260206004820152600d60248201526c6e6f207375636820636c61696d60981b6044820152606490fd5b15613ebf57565b60405162461bcd60e51b815260206004820152600f60248201526e1b9bdd08195e1c1a5c9959081e595d608a1b6044820152606490fd5b9192613f116040929594606085019685526020850190613a33565b6001600160a01b0316910152565b15613f2657565b60405162461bcd60e51b815260206004820152602260248201527f6861766520612077696e6e696e67207374616b6520696e207468697320636c61604482015261696d60f01b6064820152608490fd5b15613f7d57565b60405162461bcd60e51b815260206004820152601d60248201527f6e6f206c6f73696e67207374616b6520696e207468697320636c61696d0000006044820152606490fd5b15613fc957565b60405162461bcd60e51b81526020600482015260186024820152776c6f7374206d6f7265207468616e20696e7665737465643f60401b6044820152606490fd5b1561401057565b60405162461bcd60e51b815260206004820152601060248201526f1b9bdd08199a5b9a5cda1959081e595d60821b6044820152606490fd5b1561404f57565b60405162461bcd60e51b815260206004820152602360248201527f6d792077696e6e696e67207374616b65206973206e6f7420636c6561726564206044820152621e595d60ea1b6064820152608490fd5b156140a757565b60405162461bcd60e51b815260206004820152602260248201527f49206469646e2774207374616b65206f6e207468652077696e6e696e67207369604482015261646560f01b6064820152608490fd5b156140fe57565b60405162461bcd60e51b815260206004820152600e60248201526d191bdb89dd081cd95b9908140cd160921b6044820152606490fd5b6001600160a01b03918216815291166020820152604081019190915260600190565b1561415d57565b606460405162461bcd60e51b815260206004820152602060248201527f334450617373204552433230207472616e7366657246726f6d206661696c65646044820152fd5b156141a857565b60405162461bcd60e51b8152602060048201526017602482015276140cd1081d1c985b9cd9995c919c9bdb4819985a5b1959604a1b6044820152606490fd5b156141ee57565b60405162461bcd60e51b815260206004820152600e60248201526d62616420696e697420737461746560901b6044820152606490fd5b60ff1680601210614236575b60120390565b61423e612588565b614230565b60ff16604d8111614255575b600a0a90565b61425d612588565b61424f565b6001929091835b808211614274575050565b90928060001904811161429e575b818416614295575b800292811c90614269565b8094029361428a565b6142a6612588565b614282565b8115614328578015614321578080600114614319576002146142fd5760208210610133821016604e8310600b831016176142f957906142e991614262565b9081600019048111613132570290565b0a90565b508060ff6001921161430d571b90565b614315612588565b1b90565b505050600190565b5050600090565b5050600190565b60ff6105989216906142ab565b1561434357565b60405162461bcd60e51b815260206004820152601f60248201527f746f6f206d616e79207368617265732c20776f756c64206f766572666c6f77006044820152606490fd5b6001600160a01b0381169182156143db576020816143c56000946143bd600080516020614ebc833981519152956002546125fe565b600255612557565b6143d08282546125fe565b9055604051908152a3565b60405162461bcd60e51b815260206004820152601f60248201527f45524332303a206d696e7420746f20746865207a65726f2061646472657373006044820152606490fd5b1561442757565b60405162461bcd60e51b81526020600482015260146024820152736e65676174697665206e65742062616c616e636560601b6044820152606490fd5b1561446a57565b60405162461bcd60e51b81526020600482015260156024820152741b995d0818985b185b98d9481d1bdbc81cdb585b1b605a1b6044820152606490fd5b156144ae57565b60405162461bcd60e51b815260206004820152601e60248201527f6e65676174697665207269736b2d66726565206e65742062616c616e636500006044820152606490fd5b156144fa57565b60405162461bcd60e51b815260206004820152602260248201527f45524332303a206275726e20616d6f756e7420657863656564732062616c616e604482015261636560f01b6064820152608490fd5b6001600160a01b0391821681529116602082015260400190565b1561456b57565b60405162461bcd60e51b815260206004820152601d60248201527f6e6f742066726f6d20766f7465642076616c756520636f6e74726163740000006044820152606490fd5b156145b757565b60405162461bcd60e51b815260206004820152601d60248201527f6f7261636c652063616e6e6f74206265207a65726f20616464726573730000006044820152606490fd5b1561460357565b60405162461bcd60e51b815260206004820152601f60248201527f6f7261636c652063616e6e6f742062652050334420707265636f6d70696c65006044820152606490fd5b1561464f57565b60405162461bcd60e51b815260206004820152602160248201527f6f7261636c652063616e6e6f7420626520455243323020707265636f6d70696c6044820152606560f81b6064820152608490fd5b156146a557565b60405162461bcd60e51b815260206004820152600a602482015269626164206f7261636c6560b01b6044820152606490fd5b919082604091031261041e576020825192015190565b906080610598926040815260086040820152675f4e41544956455f60c01b60608201528160208201520190610562565b1561472457565b60405162461bcd60e51b81526020600482015260146024820152736e6f2070726963652066726f6d206f7261636c6560601b6044820152606490fd5b614823604061068d926147f56147c6602060018060a01b038416936147868515156145b0565b6147946108028614156145fc565b6147ad63fbfbfbfa63ffffffff8360801c161415614648565b855180938192631627905560e01b835260048301611848565b038173__CounterstakeLibrary___________________5af49081156148b0575b600091614892575b5061469e565b614808614803600754610663565b6148e2565b9082518080958194631e879a6d60e11b8352600483016146ed565b03915afa908115614885575b6000908192614854575b50159081159161484a575b5061471d565b9050151538614844565b9050614877915060403d811161487e575b61486f818361050a565b8101906146d7565b9038614839565b503d614865565b61488d612c44565b61482f565b6148aa915060203d811161151b5761150d818361050a565b386147ef565b6148b8612c44565b6147e7565b9060208282031261041e5781516001600160401b03811161041e576105989201613d01565b6004906000906001600160a01b03811690610802820361494c57506040516395d89b4160e01b815292839182905afa90811561493f575b600091614924575090565b610598913d8091833e614937818361050a565b8101906148bd565b614947612c44565b614919565b60801c63ffffffff1663fbfbfbfa148214614987576040516395d89b4160e01b815292839182905afa90811561493f57600091614924575090565b6040516395d89b4160e01b815292839182905afa90811561493f57600091614924575090565b156149b457565b60405162461bcd60e51b815260206004820152601a6024820152797072696365206e756d206d75737420626520706f73697469766560301b6044820152606490fd5b156149fd57565b60405162461bcd60e51b815260206004820152601a60248201527970726963652064656e206d75737420626520706f73697469766560301b6044820152606490fd5b90600491614a4e600754610663565b6020614a61610c15610c15600654610663565b60405163506d3c4360e01b815295869182905afa938415614b50575b600094614b30575b506001600160a01b0393841681851614614b2557604091614aa8614ac3926148e2565b8351958680948193631e879a6d60e11b8352600483016146ed565b0392165afa918215614b18575b6000908193614af5575b50614ae68115156149ad565b614af18315156149f6565b9190565b9050614b1091925060403d811161487e5761486f818361050a565b919038614ada565b614b20612c44565b614ad0565b505090506001908190565b614b4991945060203d8111610fa157610f91818361050a565b9238614a85565b614b58612c44565b614a7d565b90611a49613155923a9061311f565b15614b7357565b60405162461bcd60e51b815260206004820152601c60248201527b0cd114185cdcc8115490cc8c081d1c985b9cd9995c8819985a5b195960221b6044820152606490fd5b15614bbe57565b60405162461bcd60e51b8152602060048201526013602482015272140cd1081d1c985b9cd9995c8819985a5b1959606a1b6044820152606490fd5b614c04600754610663565b90614c16610c15610c15600654610663565b60405192839163506d3c4360e01b835282600460209687935afa918215614d76575b600092614d57575b506001600160a01b0381811692168203614cd45750508161068d93614c8f92614c70610c15610c15600754610663565b90600060405180968195829463a9059cbb60e01b845260048401612ced565b03925af1918215614cc7575b600092614caa575b5050614bb7565b614cc09250803d1061151b5761150d818361050a565b3880614ca3565b614ccf612c44565b614c9b565b90919060801c63ffffffff1663fbfbfbfa036122f15761068d93614d12928492600060405180968195829463a9059cbb60e01b845260048401612ced565b03925af1918215614d4a575b600092614d2d575b5050614b6c565b614d439250803d1061151b5761150d818361050a565b3880614d26565b614d52612c44565b614d1e565b614d6f919250843d8611610fa157610f91818361050a565b9038614c40565b614d7e612c44565b614c38565b60ff60095460d01c1660018114614df25760028114614de857600414614dd75760405162461bcd60e51b815260206004820152600c60248201526b18985908195e1c1bdb995b9d60a21b6044820152606490fd5b614de361059891614e26565b614e26565b5061059890614e26565b5090565b600260ff60095460d01c1611600014614e0e57600990565b601290565b600080821315614e21575090565b905090565b9060006003831115614e8e57506001828181811c6001198111614e81575b0191905b848310614e5457505050565b90919350614e6b848015614e74575b8083046125fe565b821c9190614e48565b614e7c61313e565b614e63565b614e89612588565b614e44565b91614e9557565b6001915056fec2575a0e9e593c00f959f8c92f12db2869c3395a3b0502d05e2516446f71f85bddf252ad1be2c89b69c2b068fc378daa952ba7f163c4a11628f55a4df523b3ef8a35acfbc15ff81a39ae7d344fd709f28e8600b4aa8c65c6b64bfe7fe36bd19ba2646970667358221220481949518ab50355670ce566f7eb87ad7db92df54e5e218debf360b6598cc9bb64736f6c634300080d0033",
  "immutableReferences": {},
  "source": "// SPDX-License-Identifier: MIT\npragma solidity ^0.8.3;\nimport \"@openzeppelin/contracts/utils/introspection/ERC165.sol\";\nimport \"./ERC20.sol\";\nimport \"./Export.sol\";\nimport \"./CounterstakeLibrary.sol\";\nimport \"./IOracle.sol\";\nimport \"./IERC20WithSymbol.sol\";\nimport \"./IP3D.sol\";\nimport \"./IPrecompileERC20.sol\";\n\ncontract ExportAssistant is ERC20, ReentrancyGuard, CounterstakeReceiver, ERC165\n{\n\n\tusing SafeERC20 for IERC20;\n\n\taddress public bridgeAddress;\n\taddress public tokenAddress;\n\taddress public managerAddress;\n\n\taddress public oracleAddress;\n\n\tuint16 public management_fee10000;\n\tuint16 public success_fee10000;\n\n\tuint16 public exit_fee10000; // 0 by default\n\n\tuint8 public exponent;\n\t\n\tuint constant default_profit_diffusion_period = 10 days;\n\tuint public profit_diffusion_period = default_profit_diffusion_period;\n\n\tuint public ts;\n\tint public profit;\n\tuint public mf;\n\tuint public balance_in_work;\n\n\tmapping(uint => uint) public balances_in_work;\n\n\tuint public recent_profit;\n\tuint public recent_profit_ts;\n\n\tuint public network_fee_compensation;\n\n\tGovernance public governance;\n\n\n\tevent NewClaimFor(uint claim_num, address for_address, string txid, uint32 txts, uint amount, int reward, uint stake);\n\tevent AssistantChallenge(uint claim_num, CounterstakeLibrary.Side outcome, uint stake);\n    event NewManager(address previousManager, address newManager);\n\n\n\tmodifier onlyETH(){\n\t\trequire(tokenAddress == Counterstake(bridgeAddress).P3D_PRECOMPILE(), \"P3D only\");\n\t\t_;\n\t}\n\n/*\tmodifier onlyERC20(){\n\t\trequire(tokenAddress != address(0), \"ERC20 only\");\n\t\t_;\n\t}*/\n\n\tmodifier onlyBridge(){\n\t\trequire(msg.sender == bridgeAddress, \"not from bridge\");\n\t\t_;\n\t}\n\n    modifier onlyManager() {\n        require(msg.sender == managerAddress, \"caller is not the manager\");\n        _;\n    }\n\n\n\n\n\tconstructor(address bridgeAddr, address managerAddr, uint16 _management_fee10000, uint16 _success_fee10000, address oracleAddr, uint8 _exponent, string memory name, string memory symbol) ERC20(name, symbol) {\n\t\tinitExportAssistant(bridgeAddr, managerAddr, _management_fee10000, _success_fee10000, oracleAddr, _exponent, name, symbol);\n\t}\n\n\tfunction initExportAssistant(address bridgeAddr, address managerAddr, uint16 _management_fee10000, uint16 _success_fee10000, address oracleAddr, uint8 _exponent, string memory _name, string memory _symbol) public {\n\t\trequire(address(governance) == address(0), \"already initialized\");\n\t\tname = _name;\n\t\tsymbol = _symbol;\n\t\tbridgeAddress = bridgeAddr;\n\t\tmanagement_fee10000 = _management_fee10000;\n\t\tsuccess_fee10000 = _success_fee10000;\n\t\trequire(_exponent == 1 || _exponent == 2 || _exponent == 4, \"only exponents 1, 2 and 4 are supported\");\n\t\texponent = _exponent;\n\t\tts = block.timestamp;\n\t\t(address tokenAddr, , , , , ) = Export(bridgeAddr).settings();\n\t\ttokenAddress = tokenAddr;\n\t\trequire(tokenAddr != address(0), \"token address cannot be zero\");\n\t\tif (tokenAddr == Counterstake(bridgeAddr).P3D_PRECOMPILE()) {\n\t\t     IP3D(tokenAddr).approve(bridgeAddr, type(uint).max);\n\t      } else if (!CounterstakeLibrary.is3DPassERC20Precompile(tokenAddr)) {\n\t\t\t// Only precompiles are supported\n\t\t\trevert(\"unsupported token type\");\n\t\t  }\n\t\toracleAddress = oracleAddr;\n\t\tvalidateOracle(oracleAddr);\n\t\taddress finalManager = (managerAddr != address(0)) ? managerAddr : msg.sender;\n\t\trequire(finalManager != CounterstakeLibrary.P3D_PRECOMPILE, \"P3D precompile cannot be manager\");\n\t\trequire(!CounterstakeLibrary.is3DPassERC20Precompile(finalManager), \"ERC20 precompile cannot be manager\");\n\t\tmanagerAddress = finalManager;\n\t\tprofit_diffusion_period = default_profit_diffusion_period;\n\t}\n\n\t// Approve bridge to spend this assistant's ERC20 precompile tokens.\n\t// - Manager-only\n\t// - Not applicable to P3D precompile\n\tfunction approvePrecompile() external onlyManager {\n\t\tCounterstakeLibrary.approvePrecompile(tokenAddress, bridgeAddress);\n\t}\n\n\n\n    // Only P3D and ERC20 precompiles\n    function getGrossBalance() internal view returns (uint) {\n\t\tuint bal;\n\t\tif (tokenAddress == Counterstake(bridgeAddress).P3D_PRECOMPILE()) {\n\t\t\tbal = IP3D(tokenAddress).balanceOf(address(this));\n\t\t} else if (CounterstakeLibrary.is3DPassERC20Precompile(tokenAddress)) {\n\t\t\tbal = IPrecompileERC20(tokenAddress).balanceOf(address(this));\n\t\t}\n\t\treturn bal + balance_in_work;\n\t}\n\n\tfunction updateMFAndGetBalances(uint just_received_amount, bool update) internal returns (uint gross_balance, int net_balance) {\n\t\tgross_balance = getGrossBalance() - just_received_amount;\n\t\tuint new_mf = mf + gross_balance * management_fee10000 * (block.timestamp - ts)/(360*24*3600)/1e4;\n\t\tnet_balance = int(gross_balance) - int(new_mf) - max(profit * int16(success_fee10000)/1e4, 0) - int(network_fee_compensation);\n\t\t// to save gas, we don't update mf when the balance doesn't change\n\t\tif (update) {\n\t\t\tmf = new_mf;\n\t\t\tts = block.timestamp;\n\t\t}\n\t}\n\n\t// part of the profit that has not diffused into the balance available for withdraw yet\n\tfunction getUnavailableProfit() public view returns (uint) {\n\t\tuint elapsed = block.timestamp - recent_profit_ts;\n\t\treturn (elapsed >= profit_diffusion_period) \n\t\t\t? 0\n\t\t\t: recent_profit * (profit_diffusion_period - elapsed) / profit_diffusion_period;\n\t}\n\n\tfunction addRecentProfit(uint new_profit) internal {\n\t\trecent_profit = getUnavailableProfit() + new_profit;\n\t\trecent_profit_ts = block.timestamp;\n\t}\n\n//\tevent Gas(uint left, uint consumed);\n\n\t// Export's claim() calls token functions before performing state changes therefore nonReentrant is necessary\n\tfunction claim(string memory txid, uint32 txts, uint amount, int reward, string memory sender_address, address payable recipient_address, string memory data) onlyManager nonReentrant external {\n\t\tuint initial_gas = gasleft();\n\t//\temit Gas(initial_gas, 0);\n\t\trequire(reward >= 0, \"negative reward\");\n\t\tuint claim_num = Export(bridgeAddress).last_claim_num() + 1;\n\t\tuint required_stake = Export(bridgeAddress).getRequiredStake(amount);\n\t\tuint paid_amount = amount - uint(reward);\n\t\tuint total = required_stake + paid_amount;\n\t\t{ // stack too deep\n\t\t\t(, int net_balance) = updateMFAndGetBalances(0, false);\n\t\t\trequire(total < uint(type(int).max), \"total too large\");\n\t\t\trequire(net_balance > 0, \"no net balance\");\n\t\t\trequire(total <= uint(net_balance), \"not enough balance\");\n\t\t}\n\n\t\temit NewClaimFor(claim_num, recipient_address, txid, txts, amount, reward, required_stake);\n\n\t\tExport(bridgeAddress).claim{value: 0}(txid, txts, amount, reward, required_stake, sender_address, recipient_address, data);\n\n\t\t(uint num, uint den) = getOraclePriceOfNative(oracleAddress); // price of P3D in terms of stake token\n\t\tuint remaining_gas = gasleft();\n\t//\temit Gas(remaining_gas, initial_gas - remaining_gas);\n\t\tuint network_fee = getGasCostInStakeTokens(\n\t\t\tinitial_gas - remaining_gas \n\t\t\t+ 74920 // entry and exit gas (it's larger when the initial network_fee_compensation is 0)\n\t\t\t+ 78000, // withdrawal gas\n\t\t\tnum, den\n\t\t);\n\t\trequire(uint(reward) > network_fee, \"network fee would exceed reward\");\n\t\tnetwork_fee_compensation += network_fee;\n\t\tbalances_in_work[claim_num] = total + network_fee; // network_fee will decrease the profit\n\t\tbalance_in_work += total + network_fee;\n\t}\n\n\tfunction challenge(uint claim_num, CounterstakeLibrary.Side stake_on, uint stake) onlyManager nonReentrant external {\n\t\tuint initial_gas = gasleft();\n\t\t(, int net_balance) = updateMFAndGetBalances(0, false);\n\t\trequire(net_balance > 0, \"no net balance\");\n\n\t\tuint missing_stake = Export(bridgeAddress).getMissingStake(claim_num, stake_on);\n\t\tif (stake == 0 || stake > missing_stake) // send the stake without excess as we can't account for it\n\t\t\tstake = missing_stake;\n\n\t\trequire(stake <= uint(net_balance), \"not enough balance\");\n\t\tExport(bridgeAddress).challenge{value: 0}(claim_num, stake_on, stake);\n\t\temit AssistantChallenge(claim_num, stake_on, stake);\n\t\t\n\t\t(uint num, uint den) = getOraclePriceOfNative(oracleAddress); // price of P3D in terms of stake token\n\t\tuint remaining_gas = gasleft();\n\t//\temit Gas(remaining_gas, initial_gas - remaining_gas);\n\t\tuint network_fee = getGasCostInStakeTokens(initial_gas - remaining_gas + 71616, num, den);\n\t\tnetwork_fee_compensation += network_fee;\n\t\tbalances_in_work[claim_num] += stake + network_fee;\n\t\tbalance_in_work += stake + network_fee;\n\t}\n\n\tfunction supportsInterface(bytes4 interfaceId) public view virtual override returns (bool) {\n\t\treturn interfaceId == type(CounterstakeReceiver).interfaceId || super.supportsInterface(interfaceId);\n\t}\n\n\treceive() external payable onlyETH {\n\t\t// silently receive Ether from claims\n\t}\n\n\tfunction onReceivedFromClaim(uint claim_num, uint claimed_amount, uint won_stake, string memory, address, string memory) onlyBridge override external {\n\n\t\tuint invested = balances_in_work[claim_num];\n\t\trequire(invested > 0, \"BUG: I didn't stake in this claim?\");\n\n\t\treceiveFromClaim(claim_num, claimed_amount, won_stake, invested);\n\t}\n\n\tfunction receiveFromClaim(uint claim_num, uint claimed_amount, uint won_stake, uint invested) private {\n\t\tuint total = claimed_amount + won_stake;\n\t\tupdateMFAndGetBalances(total, true); // total is already added to our balance\n\n\t\tif (total >= invested){\n\t\t\tuint this_profit = total - invested;\n\t\t\trequire(this_profit < uint(type(int).max), \"this_profit too large\");\n\t\t\tprofit += int(this_profit);\n\t\t\taddRecentProfit(this_profit);\n\t\t}\n\t\telse { // avoid negative values\n\t\t\tuint loss = invested - total;\n\t\t\trequire(loss < uint(type(int).max), \"loss too large\");\n\t\t\tprofit -= int(loss);\n\t\t}\n\n\t\tbalance_in_work -= invested;\n\t\tdelete balances_in_work[claim_num];\n\t}\n\n\t// Record a loss, called by anybody.\n\t// Should be called only if I staked on the losing side only.\n\t// If I staked on the winning side too, the above function should be called.\n\tfunction recordLoss(uint claim_num) nonReentrant external {\n\t\tupdateMFAndGetBalances(0, true);\n\n\t\tuint invested = balances_in_work[claim_num];\n\t\trequire(invested > 0, \"this claim is already accounted for\");\n\t\t\n\t\tCounterstakeLibrary.Claim memory c = Export(bridgeAddress).getClaim(claim_num);\n\t\trequire(c.amount > 0, \"no such claim\");\n\t\trequire(block.timestamp > c.expiry_ts, \"not expired yet\");\n\t\tCounterstakeLibrary.Side opposite_outcome = c.current_outcome == CounterstakeLibrary.Side.yes ? CounterstakeLibrary.Side.no : CounterstakeLibrary.Side.yes;\n\t\t\n\t\tuint my_winning_stake = Export(bridgeAddress).stakes(claim_num, c.current_outcome, address(this));\n\t\trequire(my_winning_stake == 0, \"have a winning stake in this claim\");\n\t\t\n\t\tuint my_losing_stake = Export(bridgeAddress).stakes(claim_num, opposite_outcome, address(this));\n\t\trequire(my_losing_stake > 0, \"no losing stake in this claim\");\n\t\trequire(invested >= my_losing_stake, \"lost more than invested?\");\n\n\t\trequire(invested < uint(type(int).max), \"loss too large\");\n\t\tprofit -= int(invested);\n\n\t\tbalance_in_work -= invested;\n\t\tdelete balances_in_work[claim_num];\n\t}\n\n\t// Record a win, called by anybody.\n\t// Should be called only if I missed onReceivedFromClaim (e.g. due to out-of-gas error).\n\tfunction recordWin(uint claim_num) nonReentrant external {\n\n\t\tuint invested = balances_in_work[claim_num];\n\t\trequire(invested > 0, \"this claim is already accounted for\");\n\t\t\n\t\tCounterstakeLibrary.Claim memory c = Export(bridgeAddress).getClaim(claim_num);\n\t\trequire(c.amount > 0, \"no such claim\");\n\t\trequire(c.finished, \"not finished yet\");\n\t\tCounterstakeLibrary.Side opposite_outcome = c.current_outcome == CounterstakeLibrary.Side.yes ? CounterstakeLibrary.Side.no : CounterstakeLibrary.Side.yes;\n\t\t\n\t\tuint my_winning_stake = Export(bridgeAddress).stakes(claim_num, c.current_outcome, address(this));\n\t\trequire(my_winning_stake == 0, \"my winning stake is not cleared yet\");\n\t\t\n\t\tuint my_losing_stake = Export(bridgeAddress).stakes(claim_num, opposite_outcome, address(this));\n\t\tmy_winning_stake = invested - my_losing_stake - (c.claimant_address == address(this) ? c.amount - c.amount/100 : 0); // restore it assuming 1% reward. The profit might be inaccurate if the reward is different\n\t\trequire(my_winning_stake > 0, \"I didn't stake on the winning side\");\n\t\t\n\t\tuint winning_stake = c.current_outcome == CounterstakeLibrary.Side.yes ? c.yes_stake : c.no_stake;\n\t\tuint won_stake = (c.yes_stake + c.no_stake) * my_winning_stake / winning_stake;\n\t\tuint claimed_amount = (c.claimant_address == address(this) && c.current_outcome == CounterstakeLibrary.Side.yes) ? c.amount : 0;\n\n\t\treceiveFromClaim(claim_num, claimed_amount, won_stake, invested);\n\t}\n\n\n\t// share issue/redeem functions\n\n\tfunction buyShares(uint stake_asset_amount) payable nonReentrant external {\n\t\tif (tokenAddress == Counterstake(bridgeAddress).P3D_PRECOMPILE()) {\n\t\t\trequire(msg.value == 0, \"don't send P3D\");\n\t\t\trequire(IP3D(tokenAddress).transferFrom(msg.sender, address(this), stake_asset_amount), \"P3D transferFrom failed\");\n\t\t} else if (CounterstakeLibrary.is3DPassERC20Precompile(tokenAddress)) {\n\t\t\trequire(msg.value == 0, \"don't send P3D\");\n\t\t\trequire(IPrecompileERC20(tokenAddress).transferFrom(msg.sender, address(this), stake_asset_amount), \"3DPass ERC20 transferFrom failed\");\n\t\t} else {\n\t\t\trevert(\"unsupported token type\");\n\t\t}\n\t\t(uint gross_balance, int net_balance) = updateMFAndGetBalances(stake_asset_amount, true);\n\t\trequire((gross_balance == 0) == (totalSupply() == 0), \"bad init state\");\n\t\tuint shares_amount;\n\t\tif (totalSupply() == 0)\n\t\t\tshares_amount = stake_asset_amount / 10**(18 - decimals());\n\t\telse {\n\t\t\trequire(net_balance > 0, \"no net balance\");\n\t\t\tuint new_shares_supply = totalSupply() * getShares(uint(net_balance) + stake_asset_amount) / getShares(uint(net_balance));\n\t\t\tshares_amount = new_shares_supply - totalSupply();\n\t\t}\n\t\t_mint(msg.sender, shares_amount);\n\n\t\t// this should overflow now, not when we try to redeem. We won't see the error message, will revert while trying to evaluate the expression\n\t\trequire((gross_balance + stake_asset_amount) * totalSupply()**exponent > 0, \"too many shares, would overflow\");\n\t}\n\n\tfunction redeemShares(uint shares_amount) nonReentrant external {\n\t\tuint old_shares_supply = totalSupply();\n\n\t\t_burn(msg.sender, shares_amount);\n\t\t(, int net_balance) = updateMFAndGetBalances(0, true);\n\t\trequire(net_balance > 0, \"negative net balance\");\n\t\t\n\t\tuint unavailable_balance = getUnavailableProfit();\n\t\trequire(uint(net_balance) > unavailable_balance, \"net balance too small\");\n\t\tnet_balance -= int(unavailable_balance);\n\n\t\trequire(uint(net_balance) > balance_in_work, \"negative risk-free net balance\");\n\n\t\tuint stake_asset_amount = (uint(net_balance) - balance_in_work) * (old_shares_supply**exponent - (old_shares_supply - shares_amount)**exponent) / old_shares_supply**exponent;\n\t\tstake_asset_amount -= stake_asset_amount * exit_fee10000/10000;\n\t\tpayStakeTokens(msg.sender, stake_asset_amount);\n\t}\n\n\n\t// manager functions\n\n\tfunction withdrawManagementFee() onlyManager nonReentrant external {\n\t\tupdateMFAndGetBalances(0, true);\n\t\tpayStakeTokens(msg.sender, mf + network_fee_compensation);\n\t\tmf = 0;\n\t\tnetwork_fee_compensation = 0;\n\t}\n\n\tfunction withdrawSuccessFee() onlyManager nonReentrant external {\n\t\tupdateMFAndGetBalances(0, true);\n\t\trequire(profit > 0, \"no profit yet\");\n\t\tuint sf = uint(profit) * success_fee10000/1e4;\n\t\tpayStakeTokens(msg.sender, sf);\n\t\tprofit = 0;\n\t}\n\n\t// zero address and precompiles are not allowed\n    function assignNewManager(address newManager) onlyManager external {\n\t\trequire(newManager != address(0), \"zero address\");\n\t\trequire(newManager != CounterstakeLibrary.P3D_PRECOMPILE, \"P3D precompile cannot be manager\");\n\t\trequire(!CounterstakeLibrary.is3DPassERC20Precompile(newManager), \"ERC20 precompile cannot be manager\");\n\t\temit NewManager(managerAddress, newManager);\n        managerAddress = newManager;\n    }\n\n\n\t// governance functions\n\n\tmodifier onlyVotedValueContract(){\n\t\trequire(governance.addressBelongsToGovernance(msg.sender), \"not from voted value contract\");\n\t\t_;\n\t}\n\n\t// would be happy to call this from the constructor but unfortunately `this` is not set at that time yet\n\tfunction setupGovernance(GovernanceFactory governanceFactory, VotedValueFactory votedValueFactory) external {\n\t\trequire(address(governance) == address(0), \"already initialized\");\n\t\tgovernance = governanceFactory.createGovernance(address(this), address(this));\n\n\t\tgovernance.addVotedValue(\"profit_diffusion_period\", votedValueFactory.createVotedValueUint(governance, profit_diffusion_period, this.validateProfitDiffusionPeriod, this.setProfitDiffusionPeriod));\n\t\tgovernance.addVotedValue(\"exit_fee10000\", votedValueFactory.createVotedValueUint(governance, exit_fee10000, this.validateExitFee, this.setExitFee));\n\t\tgovernance.addVotedValue(\"oracleAddress\", votedValueFactory.createVotedValueAddress(governance, oracleAddress, this.validateOracle, this.setOracle));\n\t}\n\n\n\tfunction validateProfitDiffusionPeriod(uint _profit_diffusion_period) pure external {\n\t\trequire(_profit_diffusion_period <= 365 days, \"profit diffusion period too long\");\n\t}\n\n\tfunction setProfitDiffusionPeriod(uint _profit_diffusion_period) onlyVotedValueContract external {\n\t\tprofit_diffusion_period = _profit_diffusion_period;\n\t}\n\n\tfunction validateExitFee(uint _exit_fee10000) pure external {\n\t\trequire(_exit_fee10000 < 10000, \"bad exit fee\");\n\t}\n\n\tfunction setExitFee(uint _exit_fee10000) onlyVotedValueContract external {\n\t\texit_fee10000 = uint16(_exit_fee10000);\n\t}\n\n\tfunction validateOracle(address oracleAddr) view public {\n\t\trequire(oracleAddr != address(0), \"oracle cannot be zero address\");\n\t\trequire(oracleAddr != CounterstakeLibrary.P3D_PRECOMPILE, \"oracle cannot be P3D precompile\");\n\t\trequire(!CounterstakeLibrary.is3DPassERC20Precompile(oracleAddr), \"oracle cannot be ERC20 precompile\");\n\t\trequire(CounterstakeLibrary.isContract(oracleAddr), \"bad oracle\");\n\t\tstring memory symbol = CounterstakeLibrary.getPrecompileSymbol(tokenAddress);\n\t\t\n\t\t(uint num, uint den) = IOracle(oracleAddr).getPrice(\"_NATIVE_\", symbol);\n\t\trequire(num > 0 || den > 0, \"no price from oracle\");\n\t}\n\n\tfunction setOracle(address oracleAddr) onlyVotedValueContract external {\n\t\toracleAddress = oracleAddr;\n\t}\n\n\n\t// helper functions\n\n\tfunction getOraclePriceOfNative(address oracleAddr) view private returns (uint, uint) {\n\t\tif (tokenAddress == Counterstake(bridgeAddress).P3D_PRECOMPILE())\n\t\t\treturn (1, 1);\n\t\tstring memory symbol = CounterstakeLibrary.getPrecompileSymbol(tokenAddress);\n\t\t\n\t\t(uint num, uint den) = IOracle(oracleAddr).getPrice(\"_NATIVE_\", symbol);\n\t\trequire(num > 0, \"price num must be positive\");\n\t\trequire(den > 0, \"price den must be positive\");\n\t\treturn (num, den);\n\t}\n\n\tfunction getGasCostInStakeTokens(uint gas, uint num, uint den) view internal returns (uint) {\n\t//\t(uint num, uint den) = getOraclePriceOfNative(oracleAddress); // price of P3D in terms of stake token\n\t\treturn gas * tx.gasprice * num/den;\n\t}\n\n\tfunction payStakeTokens(address to, uint amount) internal {\n\t\tif (tokenAddress == Counterstake(bridgeAddress).P3D_PRECOMPILE())\n\t\t\trequire(IP3D(tokenAddress).transfer(to, amount), \"P3D transfer failed\");\n\t\telse if (CounterstakeLibrary.is3DPassERC20Precompile(tokenAddress))\n\t\t\trequire(IPrecompileERC20(tokenAddress).transfer(to, amount), \"3DPass ERC20 transfer failed\");\n\t\telse\n\t\t\trevert(\"unsupported token type\");\n\t}\n\n\tfunction getShares(uint balance) view internal returns (uint) {\n\t\tif (exponent == 1)\n\t\t\treturn balance;\n\t\tif (exponent == 2)\n\t\t\treturn sqrt(balance);\n\t\tif (exponent == 4)\n\t\t\treturn sqrt(sqrt(balance));\n\t\trevert(\"bad exponent\");\n\t}\n\n\t// for large exponents, we need more room to **exponent without overflow\n\tfunction decimals() public view override returns (uint8) {\n\t\treturn exponent > 2 ? 9 : 18;\n\t}\n\n\tfunction max(int a, int b) internal pure returns (int) {\n\t\treturn a > b ? a : b;\n\t}\n\n\t// babylonian method (https://en.wikipedia.org/wiki/Methods_of_computing_square_roots#Babylonian_method)\n\tfunction sqrt(uint y) internal pure returns (uint z) {\n\t\tif (y > 3) {\n\t\t\tz = y;\n\t\t\tuint x = y / 2 + 1;\n\t\t\twhile (x < z) {\n\t\t\t\tz = x;\n\t\t\t\tx = (y / x + x) / 2;\n\t\t\t}\n\t\t} else if (y != 0) {\n\t\t\tz = 1;\n\t\t}\n\t}\n\n}\n\n",
  "sourcePath": "/Users/jm/3DP-bridge/counterstake-bridge/evm/contracts/ExportAssistant.sol",
  "compiler": {
    "name": "solc",
    "version": "0.8.13+commit.abaa5c0e.Emscripten.clang"
  },
  "schemaVersion": "3.4.16",
  "updatedAt": "2025-08-19T12:12:03.373Z",
  "devdoc": {
    "kind": "dev",
    "methods": {
      "allowance(address,address)": {
        "details": "See {IERC20-allowance}."
      },
      "approve(address,uint256)": {
        "details": "See {IERC20-approve}. Requirements: - `spender` cannot be the zero address."
      },
      "balanceOf(address)": {
        "details": "See {IERC20-balanceOf}."
      },
      "decimals()": {
        "details": "Returns the number of decimals used to get its user representation. For example, if `decimals` equals `2`, a balance of `505` tokens should be displayed to a user as `5,05` (`505 / 10 ** 2`). Tokens usually opt for a value of 18, imitating the relationship between Ether and Wei. This is the value {ERC20} uses, unless this function is overloaded; NOTE: This information is only used for _display_ purposes: it in no way affects any of the arithmetic of the contract, including {IERC20-balanceOf} and {IERC20-transfer}."
      },
      "decreaseAllowance(address,uint256)": {
        "details": "Atomically decreases the allowance granted to `spender` by the caller. This is an alternative to {approve} that can be used as a mitigation for problems described in {IERC20-approve}. Emits an {Approval} event indicating the updated allowance. Requirements: - `spender` cannot be the zero address. - `spender` must have allowance for the caller of at least `subtractedValue`."
      },
      "increaseAllowance(address,uint256)": {
        "details": "Atomically increases the allowance granted to `spender` by the caller. This is an alternative to {approve} that can be used as a mitigation for problems described in {IERC20-approve}. Emits an {Approval} event indicating the updated allowance. Requirements: - `spender` cannot be the zero address."
      },
      "supportsInterface(bytes4)": {
        "details": "See {IERC165-supportsInterface}."
      },
      "totalSupply()": {
        "details": "See {IERC20-totalSupply}."
      },
      "transfer(address,uint256)": {
        "details": "See {IERC20-transfer}. Requirements: - `recipient` cannot be the zero address. - the caller must have a balance of at least `amount`."
      },
      "transferFrom(address,address,uint256)": {
        "details": "See {IERC20-transferFrom}. Emits an {Approval} event indicating the updated allowance. This is not required by the EIP. See the note at the beginning of {ERC20}. Requirements: - `sender` and `recipient` cannot be the zero address. - `sender` must have a balance of at least `amount`. - the caller must have allowance for ``sender``'s tokens of at least `amount`."
      }
    },
    "version": 1
  },
  "userdoc": {
    "kind": "user",
    "methods": {},
    "version": 1
  }
}