{
  "contractName": "GovernanceFactory",
  "abi": [
    {
      "inputs": [
        {
          "internalType": "address",
          "name": "_governanceMaster",
          "type": "address"
        }
      ],
      "stateMutability": "nonpayable",
      "type": "constructor"
    },
    {
      "inputs": [],
      "name": "governanceMaster",
      "outputs": [
        {
          "internalType": "address",
          "name": "",
          "type": "address"
        }
      ],
      "stateMutability": "view",
      "type": "function"
    },
    {
      "inputs": [
        {
          "internalType": "address",
          "name": "governedContractAddress",
          "type": "address"
        },
        {
          "internalType": "address",
          "name": "votingTokenAddress",
          "type": "address"
        }
      ],
      "name": "createGovernance",
      "outputs": [
        {
          "internalType": "contract Governance",
          "name": "",
          "type": "address"
        }
      ],
      "stateMutability": "nonpayable",
      "type": "function"
    }
  ],
  "bytecode": "0x60a03461007057601f61031338819003918201601f19168301916001600160401b038311848410176100755780849260209460405283398101031261007057516001600160a01b038116810361007057608052604051610287908161008c8239608051818181605a01526101ac0152f35b600080fd5b634e487b7160e01b600052604160045260246000fdfe608080604052600436101561001357600080fd5b600090813560e01c9081637cc7a95a14610198575063e599ec2e1461003757600080fd5b34610195576040366003190112610195576100506101ef565b610058610205565b7f0000000000000000000000000000000000000000000000000000000000000000608881901c62ffffff16763d602d80600a3d3981f3363d3d373d3d3d363d7300000017845260781b6e5af43d82803e903d91602b57fd5bf3176020526001600160a01b036037600985f01691821561015757823b156101535760405163784d200b60e11b81526001600160a01b03918216600482015291166024820152610129928160448183865af18015610146575b61012d575b506040516001600160a01b0390911681529081906020820190565b0390f35b8061013a6101409261021b565b806101df565b3861010e565b61014e610244565b610109565b8380fd5b60405162461bcd60e51b8152602060048201526016602482015275115490cc4c4d8dce8818dc99585d194819985a5b195960521b6044820152606490fd5b80fd5b9050346101db57816003193601126101db577f00000000000000000000000000000000000000000000000000000000000000006001600160a01b03168152602090f35b5080fd5b60009103126101ea57565b600080fd5b600435906001600160a01b03821682036101ea57565b602435906001600160a01b03821682036101ea57565b6001600160401b03811161022e57604052565b634e487b7160e01b600052604160045260246000fd5b506040513d6000823e3d90fdfea26469706673582212209fefee9bf1bbb54d5663e0b7ed628f4c47b91f7e9b515333848c0606b98d35c464736f6c634300080d0033",
  "immutableReferences": {
    "9410": [
      {
        "length": 32,
        "start": 90
      },
      {
        "length": 32,
        "start": 428
      }
    ]
  },
  "source": "// SPDX-License-Identifier: MIT\npragma solidity ^0.8.3;\nimport \"@openzeppelin/contracts/proxy/Clones.sol\";\nimport \"./Governance.sol\";\nimport \"./VotedValue.sol\";\n\ncontract GovernanceFactory {\n\n\taddress public immutable governanceMaster;\n\n\tconstructor(address _governanceMaster) {\n\t\tgovernanceMaster = _governanceMaster;\n\t}\n\n\tfunction createGovernance(address governedContractAddress, address votingTokenAddress) external returns (Governance) {\n\t\tGovernance governance = Governance(Clones.clone(governanceMaster));\n\t\tgovernance.init(governedContractAddress, votingTokenAddress);\n\t\treturn governance;\n\t}\n\n}\n",
  "sourcePath": "/Users/jm/3DP-bridge/counterstake-bridge/evm/contracts/GovernanceFactory.sol",
  "compiler": {
    "name": "solc",
    "version": "0.8.13+commit.abaa5c0e.Emscripten.clang"
  },
  "schemaVersion": "3.4.16",
  "updatedAt": "2025-08-19T12:12:03.393Z",
  "devdoc": {
    "kind": "dev",
    "methods": {},
    "version": 1
  },
  "userdoc": {
    "kind": "user",
    "methods": {},
    "version": 1
  }
}