{
  "contractName": "Governance",
  "abi": [
    {
      "inputs": [
        {
          "internalType": "address",
          "name": "_governedContractAddress",
          "type": "address"
        },
        {
          "internalType": "address",
          "name": "_votingTokenAddress",
          "type": "address"
        }
      ],
      "stateMutability": "nonpayable",
      "type": "constructor"
    },
    {
      "anonymous": false,
      "inputs": [
        {
          "indexed": true,
          "internalType": "address",
          "name": "who",
          "type": "address"
        },
        {
          "indexed": false,
          "internalType": "uint256",
          "name": "amount",
          "type": "uint256"
        }
      ],
      "name": "Deposit",
      "type": "event"
    },
    {
      "anonymous": false,
      "inputs": [
        {
          "indexed": true,
          "internalType": "address",
          "name": "who",
          "type": "address"
        },
        {
          "indexed": false,
          "internalType": "uint256",
          "name": "amount",
          "type": "uint256"
        }
      ],
      "name": "Withdrawal",
      "type": "event"
    },
    {
      "inputs": [],
      "name": "P3D_PRECOMPILE",
      "outputs": [
        {
          "internalType": "address",
          "name": "",
          "type": "address"
        }
      ],
      "stateMutability": "view",
      "type": "function"
    },
    {
      "inputs": [
        {
          "internalType": "address",
          "name": "",
          "type": "address"
        }
      ],
      "name": "balances",
      "outputs": [
        {
          "internalType": "uint256",
          "name": "",
          "type": "uint256"
        }
      ],
      "stateMutability": "view",
      "type": "function"
    },
    {
      "inputs": [],
      "name": "governance_challenging_period",
      "outputs": [
        {
          "internalType": "uint256",
          "name": "",
          "type": "uint256"
        }
      ],
      "stateMutability": "view",
      "type": "function"
    },
    {
      "inputs": [],
      "name": "governance_freeze_period",
      "outputs": [
        {
          "internalType": "uint256",
          "name": "",
          "type": "uint256"
        }
      ],
      "stateMutability": "view",
      "type": "function"
    },
    {
      "inputs": [],
      "name": "governedContractAddress",
      "outputs": [
        {
          "internalType": "address",
          "name": "",
          "type": "address"
        }
      ],
      "stateMutability": "view",
      "type": "function"
    },
    {
      "inputs": [
        {
          "internalType": "uint256",
          "name": "",
          "type": "uint256"
        }
      ],
      "name": "votedValues",
      "outputs": [
        {
          "internalType": "contract VotedValue",
          "name": "",
          "type": "address"
        }
      ],
      "stateMutability": "view",
      "type": "function"
    },
    {
      "inputs": [
        {
          "internalType": "string",
          "name": "",
          "type": "string"
        }
      ],
      "name": "votedValuesMap",
      "outputs": [
        {
          "internalType": "contract VotedValue",
          "name": "",
          "type": "address"
        }
      ],
      "stateMutability": "view",
      "type": "function"
    },
    {
      "inputs": [],
      "name": "votingTokenAddress",
      "outputs": [
        {
          "internalType": "address",
          "name": "",
          "type": "address"
        }
      ],
      "stateMutability": "view",
      "type": "function"
    },
    {
      "inputs": [
        {
          "internalType": "address",
          "name": "_governedContractAddress",
          "type": "address"
        },
        {
          "internalType": "address",
          "name": "_votingTokenAddress",
          "type": "address"
        }
      ],
      "name": "init",
      "outputs": [],
      "stateMutability": "nonpayable",
      "type": "function"
    },
    {
      "inputs": [
        {
          "internalType": "address",
          "name": "addr",
          "type": "address"
        }
      ],
      "name": "addressBelongsToGovernance",
      "outputs": [
        {
          "internalType": "bool",
          "name": "",
          "type": "bool"
        }
      ],
      "stateMutability": "view",
      "type": "function"
    },
    {
      "inputs": [
        {
          "internalType": "address",
          "name": "addr",
          "type": "address"
        }
      ],
      "name": "isUntiedFromAllVotes",
      "outputs": [
        {
          "internalType": "bool",
          "name": "",
          "type": "bool"
        }
      ],
      "stateMutability": "view",
      "type": "function"
    },
    {
      "inputs": [
        {
          "internalType": "string",
          "name": "name",
          "type": "string"
        },
        {
          "internalType": "contract VotedValue",
          "name": "votedValue",
          "type": "address"
        }
      ],
      "name": "addVotedValue",
      "outputs": [],
      "stateMutability": "nonpayable",
      "type": "function"
    },
    {
      "inputs": [
        {
          "internalType": "address",
          "name": "from",
          "type": "address"
        },
        {
          "internalType": "uint256",
          "name": "amount",
          "type": "uint256"
        }
      ],
      "name": "deposit",
      "outputs": [],
      "stateMutability": "payable",
      "type": "function"
    },
    {
      "inputs": [
        {
          "internalType": "uint256",
          "name": "amount",
          "type": "uint256"
        }
      ],
      "name": "deposit",
      "outputs": [],
      "stateMutability": "payable",
      "type": "function"
    },
    {
      "inputs": [
        {
          "internalType": "uint256",
          "name": "amount",
          "type": "uint256"
        }
      ],
      "name": "withdraw",
      "outputs": [],
      "stateMutability": "nonpayable",
      "type": "function"
    },
    {
      "inputs": [],
      "name": "withdraw",
      "outputs": [],
      "stateMutability": "nonpayable",
      "type": "function"
    }
  ],
  "bytecode": "0x60803461006b57601f6113d638819003918201601f19168301916001600160401b0383118484101761007057808492604094855283398101031261006b5780610056602061004f61005c94610086565b9201610086565b9061009a565b6040516112bd90816101198239f35b600080fd5b634e487b7160e01b600052604160045260246000fd5b51906001600160a01b038216820361006b57565b60016000556002546001600160a01b0392908381166100d357839260018060a01b03199485911691161760025516906001541617600155565b60405162461bcd60e51b815260206004820152601e60248201527f676f7665726e616e636520616c726561647920696e697469616c697a656400006044820152606490fdfe60806040526004361015610013575b600080fd5b60003560e01c80631beab6f91461015357806327e235e31461014a5780632e1a7d4d1461014157806331863698146101385780633ccfd60b1461012f57806340a508c01461012657806347e7ef241461011d578063506d3c4314610114578063623148331461010b578063ab49d22014610102578063b6b55f25146100f9578063c219c28c146100f0578063d3455bbf146100e7578063db9f780d146100de578063e643d883146100d55763f09a4016146100cd57600080fd5b61000e610ce5565b5061000e610c89565b5061000e610c1f565b5061000e610bf7565b5061000e610bcd565b5061000e610a44565b5061000e610a25565b5061000e610a06565b5061000e6109e8565b5061000e610815565b5061000e6107e3565b5061000e610656565b5061000e6105bd565b5061000e610377565b5061000e610339565b5061000e610224565b50634e487b7160e01b600052604160045260246000fd5b601f909101601f19168101906001600160401b0382119082101761019657604052565b61019e61015c565b604052565b81601f8201121561000e578035906001600160401b0382116101fa575b604051926101d8601f8401601f191660200185610173565b8284526020838301011161000e57816000926020809301838601378301015290565b61020261015c565b6101c0565b6001600160a01b031690565b6001600160a01b0381160361000e57565b503461000e57604036600319011261000e576004356001600160401b03811161000e576102559036906004016101a3565b60243561026181610213565b6002546001600160a01b0390811633036102e9576102da926102bb9161029c600454600160401b8110156102dc575b60018101600455610c60565b819291549060031b9180831b9283918816901b1691191617905561055c565b80546001600160a01b0319166001600160a01b03909216919091179055565b005b6102e461015c565b610290565b60405162461bcd60e51b815260206004820152600e60248201526d1b9bdd08185d5d1a1bdc9a5e995960921b6044820152606490fd5b6001600160a01b0316600090815260036020526040902090565b503461000e57602036600319011261000e5760043561035781610213565b60018060a01b031660005260036020526020604060002054604051908152f35b503461000e5760208060031936011261000e5760043590610396611060565b6103a18215156110b6565b6103b66103ad3361031f565b548311156110fe565b6103c76103c233610e38565b61113f565b6103d03361031f565b6103db838254611188565b90556103e8600154610207565b6001600160a01b038116919061080283036104bb57506104569150610419610414610414600154610207565b610207565b81604051809263a9059cbb60e01b82528160008161043b8a336004840161119f565b03925af19182156104ae575b600092610481575b5050611205565b60405190815233906000805160206112488339815191529080602081015b0390a26102da6001600055565b6104a09250803d106104a7575b6104988183610173565b810190610e13565b388061044f565b503d61048e565b6104b6610e2b565b610447565b60801c63ffffffff1663fbfbfbfa0361053f5760405163a9059cbb60e01b81526105109282908290816000816104f58a336004840161119f565b03925af1918215610532575b600092610515575b50506111ba565b610456565b61052b9250803d106104a7576104988183610173565b3880610509565b61053a610e2b565b610501565b60405162461bcd60e51b81528061055860048201610f2c565b0390fd5b60405190818151916000905b8382106105935750918060209311610588575b8101600581520301902090565b60008183015261057b565b915080602080928401015181860152018391610568565b6001600160a01b03909116815260200190565b503461000e5760208060031936011261000e576004356001600160401b03811161000e576105ef9036906004016101a3565b906040518251926000905b848210610643575092806106349411610638575b60059082019081528190039091019020546040519182916001600160a01b0316826105aa565b0390f35b60008183015261060e565b81810184015183830152908301906105fa565b503461000e576000806003193601126107e0573381526020600381526040908183205490610682611060565b61068d8215156110b6565b6106996103ad3361031f565b6106a56103c233610e38565b6106ae3361031f565b6106b9838254611188565b90556106c6600154610207565b6001600160a01b03811690610802820361076457505061072a906106f1610414610414600154610207565b818551809263a9059cbb60e01b82528189816107118a336004840161119f565b03925af1918215610757575b8692610481575050611205565b815190815233906000805160206112488339815191529080602081015b0390a26107546001600055565b51f35b61075f610e2b565b61071d565b60801c63ffffffff1663fbfbfbfa036107c857835163a9059cbb60e01b81526107b692918290829081898161079d8a336004840161119f565b03925af19182156107bb575b86926105155750506111ba565b61072a565b6107c3610e2b565b6107a9565b835162461bcd60e51b81528061055860048201610f2c565b80fd5b503461000e57602036600319011261000e57602061080b60043561080681610213565b610dc5565b6040519015158152f35b5060408060031936011261000e576004359061083082610213565b6024359161083c611060565b6001600160a01b03818116919033831480156109d4575b61085c90610ef2565b610867600154610207565b9081169061080282036109345750506107476000946108ed600080516020611268833981519152936108993415610f64565b6108e86108ad610414610414600154610207565b6020895180926323b872dd60e01b8252818d816108cf8b308b60048501610fa1565b03925af1908115610927575b8a91610909575b5061100e565b61031f565b6108f8828254611054565b905584519081529081906020820190565b610921915060203d81116104a7576104988183610173565b386108e2565b61092f610e2b565b6108db565b60801c63ffffffff1663fbfbfbfa036107c8576000946108ed600080516020611268833981519152936108e86107479461096e3415610f64565b6020895180926323b872dd60e01b8252818d816109908b308b60048501610fa1565b03925af19081156109c7575b8a916109a9575b50610fc3565b6109c1915060203d81116104a7576104988183610173565b386109a3565b6109cf610e2b565b61099c565b5061085c6109e133610dc5565b9050610853565b503461000e57600036600319011261000e5760206040516108028152f35b503461000e57600036600319011261000e576020604051620d2f008152f35b503461000e57600036600319011261000e57602060405162278d008152f35b5060208060031936011261000e5760043590610a5e611060565b610a69600154610207565b6001600160a01b03811691906108028303610b3f5750610add9150610a8e3415610f64565b610a9f610414610414600154610207565b8160405180926323b872dd60e01b825281600081610ac28a303360048501610fa1565b03925af1918215610b32575b600092610b15575b505061100e565b610ae63361031f565b610af1828254611054565b90556040519081523390600080516020611268833981519152908060208101610474565b610b2b9250803d106104a7576104988183610173565b3880610ad6565b610b3a610e2b565b610ace565b60801c63ffffffff1663fbfbfbfa0361053f57610b9e91610b603415610f64565b8160405180926323b872dd60e01b825281600081610b838a303360048501610fa1565b03925af1918215610bc0575b600092610ba3575b5050610fc3565b610add565b610bb99250803d106104a7576104988183610173565b3880610b97565b610bc8610e2b565b610b8f565b503461000e57600036600319011261000e576001546040516001600160a01b039091168152602090f35b503461000e57602036600319011261000e57602061080b600435610c1a81610213565b610e38565b503461000e57600036600319011261000e576002546040516001600160a01b039091168152602090f35b50634e487b7160e01b600052603260045260246000fd5b600454811015610c7c575b600460005260206000200190600090565b610c84610c49565b610c6b565b503461000e57602036600319011261000e5760043560045481101561000e5760046000527f8a35acfbc15ff81a39ae7d344fd709f28e8600b4aa8c65c6b64bfe7fe36bd19b01546040516001600160a01b039091168152602090f35b503461000e57604036600319011261000e57600435610d0381610213565b602435610d0f81610213565b6002546001600160a01b03808216610d4d579092166001600160a01b031992831617600255600180546001600160a01b039290921691909216179055005b60405162461bcd60e51b815260206004820152601e60248201527f676f7665726e616e636520616c726561647920696e697469616c697a656400006044820152606490fd5b50634e487b7160e01b600052601160045260246000fd5b6001906000198114610db9570190565b610dc1610d92565b0190565b60009060048054925b838110610dde5750505050600090565b6000828152602090208101546001600160a01b03848116911614610e0a57610e0590610da9565b610dce565b50505050600190565b9081602091031261000e5751801515810361000e5790565b506040513d6000823e3d90fd5b60009060048054925b838110610e515750505050600190565b610e75610414610e6083610c60565b905460039190911b1c6001600160a01b031690565b604051631121d84d60e11b8152602091829082908180610e978a8a83016105aa565b03915afa918215610ee5575b600092610ec8575b5050610ebf57610eba90610da9565b610e41565b50505050600090565b610ede9250803d106104a7576104988183610173565b3880610eab565b610eed610e2b565b610ea3565b15610ef957565b60405162461bcd60e51b815260206004820152600b60248201526a1b9bdd08185b1b1bddd95960aa1b6044820152606490fd5b60609060208152601d60208201527f756e737570706f7274656420766f74696e6720746f6b656e207479706500000060408201520190565b15610f6b57565b60405162461bcd60e51b815260206004820152600e60248201526d191bdb89dd081cd95b9908140cd160921b6044820152606490fd5b6001600160a01b03918216815291166020820152604081019190915260600190565b15610fca57565b606460405162461bcd60e51b815260206004820152602060248201527f334450617373204552433230207472616e7366657246726f6d206661696c65646044820152fd5b1561101557565b60405162461bcd60e51b8152602060048201526017602482015276140cd1081d1c985b9cd9995c919c9bdb4819985a5b1959604a1b6044820152606490fd5b81198111610db9570190565b600260005414611071576002600055565b60405162461bcd60e51b815260206004820152601f60248201527f5265656e7472616e637947756172643a207265656e7472616e742063616c6c006044820152606490fd5b156110bd57565b60405162461bcd60e51b81526020600482015260196024820152781e995c9bc81dda5d1a191c985dd85b081c995c5d595cdd1959603a1b6044820152606490fd5b1561110557565b60405162461bcd60e51b81526020600482015260126024820152716e6f7420656e6f7567682062616c616e636560701b6044820152606490fd5b1561114657565b60405162461bcd60e51b815260206004820152601a6024820152791cdbdb59481d9bdd195cc81b9bdd081c995b5bdd9959081e595d60321b6044820152606490fd5b818110611193570390565b61119b610d92565b0390565b6001600160a01b039091168152602081019190915260400190565b156111c157565b60405162461bcd60e51b815260206004820152601c60248201527b0cd114185cdcc8115490cc8c081d1c985b9cd9995c8819985a5b195960221b6044820152606490fd5b1561120c57565b60405162461bcd60e51b8152602060048201526013602482015272140cd1081d1c985b9cd9995c8819985a5b1959606a1b6044820152606490fdfe7fcf532c15f0a6db0bd6d0e038bea71d30d808c7d98cb3bf7268a95bf5081b65e1fffcc4923d04b559f4d29a8bfc6cda04eb5b0d3c460751c2402c5c5cc9109ca26469706673582212208f101dbe29156a2c9c0b0ea63c81fbd3183c2b2563093d4d5bc9ce46ee65f95964736f6c634300080d0033",
  "immutableReferences": {},
  "source": "// SPDX-License-Identifier: MIT\npragma solidity ^0.8.3;\nimport \"@openzeppelin/contracts/token/ERC20/IERC20.sol\";\nimport \"@openzeppelin/contracts/token/ERC20/utils/SafeERC20.sol\";\nimport \"@openzeppelin/contracts/security/ReentrancyGuard.sol\";\nimport \"./VotedValue.sol\";\nimport \"./IP3D.sol\";\nimport \"./IPrecompileERC20.sol\";\n\ncontract Governance is ReentrancyGuard {\n\n\tusing SafeERC20 for IERC20;\n\n\tuint constant public governance_challenging_period = 10 days;\n\tuint constant public governance_freeze_period = 30 days;\n\n\t// P3D precompile address constant\n\taddress public constant P3D_PRECOMPILE = 0x0000000000000000000000000000000000000802;\n\n\taddress public votingTokenAddress;\n\taddress public governedContractAddress;\n\n\tmapping(address => uint) public balances;\n\n\tVotedValue[] public votedValues;\n\tmapping(string => VotedValue) public votedValuesMap;\n\n\tevent Deposit(address indexed who, uint amount);\n\tevent Withdrawal(address indexed who, uint amount);\n\n\n\tconstructor(address _governedContractAddress, address _votingTokenAddress){\n\t\tinit(_governedContractAddress, _votingTokenAddress);\n\t}\n\n\tfunction init(address _governedContractAddress, address _votingTokenAddress) public {\n\t\trequire(governedContractAddress == address(0), \"governance already initialized\");\n\t\tgovernedContractAddress = _governedContractAddress;\n\t\tvotingTokenAddress = _votingTokenAddress;\n\t}\n\n\tfunction addressBelongsToGovernance(address addr) public view returns (bool) {\n\t\tfor (uint i = 0; i < votedValues.length; i++)\n\t\t\tif (address(votedValues[i]) == addr)\n\t\t\t\treturn true;\n\t\treturn false;\n\t}\n\n\tfunction isUntiedFromAllVotes(address addr) public view returns (bool) {\n\t\tfor (uint i = 0; i < votedValues.length; i++)\n\t\t\tif (votedValues[i].hasVote(addr))\n\t\t\t\treturn false;\n\t\treturn true;\n\t}\n\n\tfunction addVotedValue(string memory name, VotedValue votedValue) external {\n\t\trequire(msg.sender == governedContractAddress, \"not authorized\");\n\t\tvotedValues.push(votedValue);\n\t\tvotedValuesMap[name] = votedValue;\n\t}\n\n\t// Helper function to detect 3DPass ERC20 precompiles\n\tfunction is3DPassERC20Precompile(address tokenAddr) internal pure returns (bool) {\n\t\t// 3DPass ERC20 precompiles have prefix 0xFBFBFBFA..\n\t\t// Check if the address starts with 0xFBFBFBFA\n\t\treturn uint160(tokenAddr) >> 128 == 0xFBFBFBFA;\n\t}\n\n\t// Helper functions for P3D handling\n\tfunction isP3D(address token) internal pure returns (bool) {\n\t\treturn token == P3D_PRECOMPILE;\n\t}\n\n\n\t// deposit\n\n\tfunction deposit(uint amount) payable external {\n\t\tdeposit(msg.sender, amount);\n\t}\n\n\tfunction deposit(address from, uint amount) nonReentrant payable public {\n\t\trequire(from == msg.sender || addressBelongsToGovernance(msg.sender), \"not allowed\");\n\t\tif (isP3D(votingTokenAddress)) {\n\t\t\trequire(msg.value == 0, \"don't send P3D\");\n\t\t\trequire(IP3D(votingTokenAddress).transferFrom(from, address(this), amount), \"P3D transferFrom failed\");\n\t\t} else if (is3DPassERC20Precompile(votingTokenAddress)) {\n\t\t\trequire(msg.value == 0, \"don't send P3D\");\n\t\t\trequire(IPrecompileERC20(votingTokenAddress).transferFrom(from, address(this), amount), \"3DPass ERC20 transferFrom failed\");\n\t\t} else {\n\t\t\trevert(\"unsupported voting token type\");\n\t\t}\n\t\tbalances[from] += amount;\n\t\temit Deposit(from, amount);\n\t}\n\n\n\t// withdrawal functions\n\n\tfunction withdraw() external {\n\t\twithdraw(balances[msg.sender]);\n\t}\n\n\tfunction withdraw(uint amount) nonReentrant public {\n\t\trequire(amount > 0, \"zero withdrawal requested\");\n\t\trequire(amount <= balances[msg.sender], \"not enough balance\");\n\t\trequire(isUntiedFromAllVotes(msg.sender), \"some votes not removed yet\");\n\t\tbalances[msg.sender] -= amount;\n\t\tif (isP3D(votingTokenAddress))\n\t\t\trequire(IP3D(votingTokenAddress).transfer(msg.sender, amount), \"P3D transfer failed\");\n\t\telse if (is3DPassERC20Precompile(votingTokenAddress))\n\t\t\trequire(IPrecompileERC20(votingTokenAddress).transfer(msg.sender, amount), \"3DPass ERC20 transfer failed\");\n\t\telse\n\t\t\trevert(\"unsupported voting token type\");\n\t\temit Withdrawal(msg.sender, amount);\n\t}\n}\n",
  "sourcePath": "/Users/jm/3DP-bridge/counterstake-bridge/evm/contracts/Governance.sol",
  "compiler": {
    "name": "solc",
    "version": "0.8.13+commit.abaa5c0e.Emscripten.clang"
  },
  "schemaVersion": "3.4.16",
  "updatedAt": "2025-08-11T16:27:16.700Z",
  "devdoc": {
    "kind": "dev",
    "methods": {},
    "version": 1
  },
  "userdoc": {
    "kind": "user",
    "methods": {},
    "version": 1
  }
}