{
  "contractName": "ImportWrapperAssistant",
  "abi": [
    {
      "inputs": [
        {
          "internalType": "address",
          "name": "bridgeAddr",
          "type": "address"
        },
        {
          "internalType": "address",
          "name": "managerAddr",
          "type": "address"
        },
        {
          "internalType": "uint16",
          "name": "_management_fee10000",
          "type": "uint16"
        },
        {
          "internalType": "uint16",
          "name": "_success_fee10000",
          "type": "uint16"
        },
        {
          "internalType": "uint16",
          "name": "_swap_fee10000",
          "type": "uint16"
        },
        {
          "internalType": "uint8",
          "name": "_exponent",
          "type": "uint8"
        },
        {
          "internalType": "string",
          "name": "name",
          "type": "string"
        },
        {
          "internalType": "string",
          "name": "symbol",
          "type": "string"
        }
      ],
      "stateMutability": "nonpayable",
      "type": "constructor"
    },
    {
      "anonymous": false,
      "inputs": [
        {
          "indexed": true,
          "internalType": "address",
          "name": "owner",
          "type": "address"
        },
        {
          "indexed": true,
          "internalType": "address",
          "name": "spender",
          "type": "address"
        },
        {
          "indexed": false,
          "internalType": "uint256",
          "name": "value",
          "type": "uint256"
        }
      ],
      "name": "Approval",
      "type": "event"
    },
    {
      "anonymous": false,
      "inputs": [
        {
          "indexed": false,
          "internalType": "uint256",
          "name": "claim_num",
          "type": "uint256"
        },
        {
          "indexed": false,
          "internalType": "enum CounterstakeLibrary.Side",
          "name": "outcome",
          "type": "uint8"
        },
        {
          "indexed": false,
          "internalType": "uint256",
          "name": "stake",
          "type": "uint256"
        }
      ],
      "name": "AssistantChallenge",
      "type": "event"
    },
    {
      "anonymous": false,
      "inputs": [
        {
          "indexed": false,
          "internalType": "uint256",
          "name": "claim_num",
          "type": "uint256"
        },
        {
          "indexed": false,
          "internalType": "address",
          "name": "for_address",
          "type": "address"
        },
        {
          "indexed": false,
          "internalType": "string",
          "name": "txid",
          "type": "string"
        },
        {
          "indexed": false,
          "internalType": "uint32",
          "name": "txts",
          "type": "uint32"
        },
        {
          "indexed": false,
          "internalType": "uint256",
          "name": "amount",
          "type": "uint256"
        },
        {
          "indexed": false,
          "internalType": "int256",
          "name": "reward",
          "type": "int256"
        },
        {
          "indexed": false,
          "internalType": "uint256",
          "name": "stake",
          "type": "uint256"
        }
      ],
      "name": "NewClaimFor",
      "type": "event"
    },
    {
      "anonymous": false,
      "inputs": [
        {
          "indexed": false,
          "internalType": "address",
          "name": "previousManager",
          "type": "address"
        },
        {
          "indexed": false,
          "internalType": "address",
          "name": "newManager",
          "type": "address"
        }
      ],
      "name": "NewManager",
      "type": "event"
    },
    {
      "anonymous": false,
      "inputs": [
        {
          "indexed": true,
          "internalType": "address",
          "name": "from",
          "type": "address"
        },
        {
          "indexed": true,
          "internalType": "address",
          "name": "to",
          "type": "address"
        },
        {
          "indexed": false,
          "internalType": "uint256",
          "name": "value",
          "type": "uint256"
        }
      ],
      "name": "Transfer",
      "type": "event"
    },
    {
      "inputs": [
        {
          "internalType": "address",
          "name": "owner",
          "type": "address"
        },
        {
          "internalType": "address",
          "name": "spender",
          "type": "address"
        }
      ],
      "name": "allowance",
      "outputs": [
        {
          "internalType": "uint256",
          "name": "",
          "type": "uint256"
        }
      ],
      "stateMutability": "view",
      "type": "function"
    },
    {
      "inputs": [
        {
          "internalType": "address",
          "name": "spender",
          "type": "address"
        },
        {
          "internalType": "uint256",
          "name": "amount",
          "type": "uint256"
        }
      ],
      "name": "approve",
      "outputs": [
        {
          "internalType": "bool",
          "name": "",
          "type": "bool"
        }
      ],
      "stateMutability": "nonpayable",
      "type": "function"
    },
    {
      "inputs": [
        {
          "internalType": "address",
          "name": "account",
          "type": "address"
        }
      ],
      "name": "balanceOf",
      "outputs": [
        {
          "internalType": "uint256",
          "name": "",
          "type": "uint256"
        }
      ],
      "stateMutability": "view",
      "type": "function"
    },
    {
      "inputs": [],
      "name": "balance_in_work",
      "outputs": [
        {
          "internalType": "uint256",
          "name": "stake",
          "type": "uint256"
        },
        {
          "internalType": "uint256",
          "name": "image",
          "type": "uint256"
        }
      ],
      "stateMutability": "view",
      "type": "function"
    },
    {
      "inputs": [
        {
          "internalType": "uint256",
          "name": "",
          "type": "uint256"
        }
      ],
      "name": "balances_in_work",
      "outputs": [
        {
          "internalType": "uint256",
          "name": "stake",
          "type": "uint256"
        },
        {
          "internalType": "uint256",
          "name": "image",
          "type": "uint256"
        }
      ],
      "stateMutability": "view",
      "type": "function"
    },
    {
      "inputs": [],
      "name": "bridgeAddress",
      "outputs": [
        {
          "internalType": "address",
          "name": "",
          "type": "address"
        }
      ],
      "stateMutability": "view",
      "type": "function"
    },
    {
      "inputs": [
        {
          "internalType": "address",
          "name": "spender",
          "type": "address"
        },
        {
          "internalType": "uint256",
          "name": "subtractedValue",
          "type": "uint256"
        }
      ],
      "name": "decreaseAllowance",
      "outputs": [
        {
          "internalType": "bool",
          "name": "",
          "type": "bool"
        }
      ],
      "stateMutability": "nonpayable",
      "type": "function"
    },
    {
      "inputs": [],
      "name": "exit_fee10000",
      "outputs": [
        {
          "internalType": "uint16",
          "name": "",
          "type": "uint16"
        }
      ],
      "stateMutability": "view",
      "type": "function"
    },
    {
      "inputs": [],
      "name": "exponent",
      "outputs": [
        {
          "internalType": "uint8",
          "name": "",
          "type": "uint8"
        }
      ],
      "stateMutability": "view",
      "type": "function"
    },
    {
      "inputs": [],
      "name": "governance",
      "outputs": [
        {
          "internalType": "contract Governance",
          "name": "",
          "type": "address"
        }
      ],
      "stateMutability": "view",
      "type": "function"
    },
    {
      "inputs": [
        {
          "internalType": "address",
          "name": "spender",
          "type": "address"
        },
        {
          "internalType": "uint256",
          "name": "addedValue",
          "type": "uint256"
        }
      ],
      "name": "increaseAllowance",
      "outputs": [
        {
          "internalType": "bool",
          "name": "",
          "type": "bool"
        }
      ],
      "stateMutability": "nonpayable",
      "type": "function"
    },
    {
      "inputs": [],
      "name": "management_fee10000",
      "outputs": [
        {
          "internalType": "uint16",
          "name": "",
          "type": "uint16"
        }
      ],
      "stateMutability": "view",
      "type": "function"
    },
    {
      "inputs": [],
      "name": "managerAddress",
      "outputs": [
        {
          "internalType": "address",
          "name": "",
          "type": "address"
        }
      ],
      "stateMutability": "view",
      "type": "function"
    },
    {
      "inputs": [],
      "name": "mf",
      "outputs": [
        {
          "internalType": "uint256",
          "name": "stake",
          "type": "uint256"
        },
        {
          "internalType": "uint256",
          "name": "image",
          "type": "uint256"
        }
      ],
      "stateMutability": "view",
      "type": "function"
    },
    {
      "inputs": [],
      "name": "name",
      "outputs": [
        {
          "internalType": "string",
          "name": "",
          "type": "string"
        }
      ],
      "stateMutability": "view",
      "type": "function"
    },
    {
      "inputs": [],
      "name": "network_fee_compensation",
      "outputs": [
        {
          "internalType": "uint256",
          "name": "",
          "type": "uint256"
        }
      ],
      "stateMutability": "view",
      "type": "function"
    },
    {
      "inputs": [],
      "name": "precompileAddress",
      "outputs": [
        {
          "internalType": "address",
          "name": "",
          "type": "address"
        }
      ],
      "stateMutability": "view",
      "type": "function"
    },
    {
      "inputs": [],
      "name": "profit",
      "outputs": [
        {
          "internalType": "int256",
          "name": "stake",
          "type": "int256"
        },
        {
          "internalType": "int256",
          "name": "image",
          "type": "int256"
        }
      ],
      "stateMutability": "view",
      "type": "function"
    },
    {
      "inputs": [],
      "name": "profit_diffusion_period",
      "outputs": [
        {
          "internalType": "uint256",
          "name": "",
          "type": "uint256"
        }
      ],
      "stateMutability": "view",
      "type": "function"
    },
    {
      "inputs": [],
      "name": "recent_profit",
      "outputs": [
        {
          "internalType": "uint256",
          "name": "stake",
          "type": "uint256"
        },
        {
          "internalType": "uint256",
          "name": "image",
          "type": "uint256"
        }
      ],
      "stateMutability": "view",
      "type": "function"
    },
    {
      "inputs": [],
      "name": "recent_profit_ts",
      "outputs": [
        {
          "internalType": "uint256",
          "name": "",
          "type": "uint256"
        }
      ],
      "stateMutability": "view",
      "type": "function"
    },
    {
      "inputs": [],
      "name": "success_fee10000",
      "outputs": [
        {
          "internalType": "uint16",
          "name": "",
          "type": "uint16"
        }
      ],
      "stateMutability": "view",
      "type": "function"
    },
    {
      "inputs": [],
      "name": "swap_fee10000",
      "outputs": [
        {
          "internalType": "uint16",
          "name": "",
          "type": "uint16"
        }
      ],
      "stateMutability": "view",
      "type": "function"
    },
    {
      "inputs": [],
      "name": "symbol",
      "outputs": [
        {
          "internalType": "string",
          "name": "",
          "type": "string"
        }
      ],
      "stateMutability": "view",
      "type": "function"
    },
    {
      "inputs": [],
      "name": "tokenAddress",
      "outputs": [
        {
          "internalType": "address",
          "name": "",
          "type": "address"
        }
      ],
      "stateMutability": "view",
      "type": "function"
    },
    {
      "inputs": [],
      "name": "totalSupply",
      "outputs": [
        {
          "internalType": "uint256",
          "name": "",
          "type": "uint256"
        }
      ],
      "stateMutability": "view",
      "type": "function"
    },
    {
      "inputs": [
        {
          "internalType": "address",
          "name": "recipient",
          "type": "address"
        },
        {
          "internalType": "uint256",
          "name": "amount",
          "type": "uint256"
        }
      ],
      "name": "transfer",
      "outputs": [
        {
          "internalType": "bool",
          "name": "",
          "type": "bool"
        }
      ],
      "stateMutability": "nonpayable",
      "type": "function"
    },
    {
      "inputs": [
        {
          "internalType": "address",
          "name": "sender",
          "type": "address"
        },
        {
          "internalType": "address",
          "name": "recipient",
          "type": "address"
        },
        {
          "internalType": "uint256",
          "name": "amount",
          "type": "uint256"
        }
      ],
      "name": "transferFrom",
      "outputs": [
        {
          "internalType": "bool",
          "name": "",
          "type": "bool"
        }
      ],
      "stateMutability": "nonpayable",
      "type": "function"
    },
    {
      "inputs": [],
      "name": "ts",
      "outputs": [
        {
          "internalType": "uint256",
          "name": "",
          "type": "uint256"
        }
      ],
      "stateMutability": "view",
      "type": "function"
    },
    {
      "stateMutability": "payable",
      "type": "receive"
    },
    {
      "inputs": [
        {
          "internalType": "address",
          "name": "bridgeAddr",
          "type": "address"
        },
        {
          "internalType": "address",
          "name": "managerAddr",
          "type": "address"
        },
        {
          "internalType": "uint16",
          "name": "_management_fee10000",
          "type": "uint16"
        },
        {
          "internalType": "uint16",
          "name": "_success_fee10000",
          "type": "uint16"
        },
        {
          "internalType": "uint16",
          "name": "_swap_fee10000",
          "type": "uint16"
        },
        {
          "internalType": "uint8",
          "name": "_exponent",
          "type": "uint8"
        },
        {
          "internalType": "string",
          "name": "_name",
          "type": "string"
        },
        {
          "internalType": "string",
          "name": "_symbol",
          "type": "string"
        }
      ],
      "name": "initImportWrapperAssistant",
      "outputs": [],
      "stateMutability": "nonpayable",
      "type": "function"
    },
    {
      "inputs": [],
      "name": "approvePrecompile",
      "outputs": [],
      "stateMutability": "nonpayable",
      "type": "function"
    },
    {
      "inputs": [],
      "name": "getUnavailableProfit",
      "outputs": [
        {
          "components": [
            {
              "internalType": "uint256",
              "name": "stake",
              "type": "uint256"
            },
            {
              "internalType": "uint256",
              "name": "image",
              "type": "uint256"
            }
          ],
          "internalType": "struct ImportWrapperAssistant.UintBalance",
          "name": "",
          "type": "tuple"
        }
      ],
      "stateMutability": "view",
      "type": "function"
    },
    {
      "inputs": [
        {
          "internalType": "string",
          "name": "txid",
          "type": "string"
        },
        {
          "internalType": "uint32",
          "name": "txts",
          "type": "uint32"
        },
        {
          "internalType": "uint256",
          "name": "amount",
          "type": "uint256"
        },
        {
          "internalType": "int256",
          "name": "reward",
          "type": "int256"
        },
        {
          "internalType": "string",
          "name": "sender_address",
          "type": "string"
        },
        {
          "internalType": "address payable",
          "name": "recipient_address",
          "type": "address"
        },
        {
          "internalType": "string",
          "name": "data",
          "type": "string"
        }
      ],
      "name": "claim",
      "outputs": [],
      "stateMutability": "nonpayable",
      "type": "function"
    },
    {
      "inputs": [
        {
          "internalType": "uint256",
          "name": "claim_num",
          "type": "uint256"
        },
        {
          "internalType": "enum CounterstakeLibrary.Side",
          "name": "stake_on",
          "type": "uint8"
        },
        {
          "internalType": "uint256",
          "name": "stake",
          "type": "uint256"
        }
      ],
      "name": "challenge",
      "outputs": [],
      "stateMutability": "nonpayable",
      "type": "function"
    },
    {
      "inputs": [
        {
          "internalType": "bytes4",
          "name": "interfaceId",
          "type": "bytes4"
        }
      ],
      "name": "supportsInterface",
      "outputs": [
        {
          "internalType": "bool",
          "name": "",
          "type": "bool"
        }
      ],
      "stateMutability": "view",
      "type": "function"
    },
    {
      "inputs": [
        {
          "internalType": "uint256",
          "name": "claim_num",
          "type": "uint256"
        },
        {
          "internalType": "uint256",
          "name": "claimed_amount",
          "type": "uint256"
        },
        {
          "internalType": "uint256",
          "name": "won_stake",
          "type": "uint256"
        },
        {
          "internalType": "string",
          "name": "",
          "type": "string"
        },
        {
          "internalType": "address",
          "name": "",
          "type": "address"
        },
        {
          "internalType": "string",
          "name": "",
          "type": "string"
        }
      ],
      "name": "onReceivedFromClaim",
      "outputs": [],
      "stateMutability": "nonpayable",
      "type": "function"
    },
    {
      "inputs": [
        {
          "internalType": "uint256",
          "name": "claim_num",
          "type": "uint256"
        }
      ],
      "name": "recordLoss",
      "outputs": [],
      "stateMutability": "nonpayable",
      "type": "function"
    },
    {
      "inputs": [
        {
          "internalType": "uint256",
          "name": "claim_num",
          "type": "uint256"
        }
      ],
      "name": "recordWin",
      "outputs": [],
      "stateMutability": "nonpayable",
      "type": "function"
    },
    {
      "inputs": [
        {
          "internalType": "uint256",
          "name": "stake_asset_amount",
          "type": "uint256"
        },
        {
          "internalType": "uint256",
          "name": "image_asset_amount",
          "type": "uint256"
        }
      ],
      "name": "buyShares",
      "outputs": [],
      "stateMutability": "payable",
      "type": "function"
    },
    {
      "inputs": [
        {
          "internalType": "uint256",
          "name": "shares_amount",
          "type": "uint256"
        }
      ],
      "name": "redeemShares",
      "outputs": [],
      "stateMutability": "nonpayable",
      "type": "function"
    },
    {
      "inputs": [
        {
          "internalType": "uint256",
          "name": "image_asset_amount",
          "type": "uint256"
        },
        {
          "internalType": "uint256",
          "name": "min_amount_out",
          "type": "uint256"
        }
      ],
      "name": "swapImage2Stake",
      "outputs": [],
      "stateMutability": "nonpayable",
      "type": "function"
    },
    {
      "inputs": [
        {
          "internalType": "uint256",
          "name": "stake_asset_amount",
          "type": "uint256"
        },
        {
          "internalType": "uint256",
          "name": "min_amount_out",
          "type": "uint256"
        }
      ],
      "name": "swapStake2Image",
      "outputs": [],
      "stateMutability": "payable",
      "type": "function"
    },
    {
      "inputs": [],
      "name": "withdrawManagementFee",
      "outputs": [],
      "stateMutability": "nonpayable",
      "type": "function"
    },
    {
      "inputs": [],
      "name": "withdrawSuccessFee",
      "outputs": [],
      "stateMutability": "nonpayable",
      "type": "function"
    },
    {
      "inputs": [
        {
          "internalType": "address",
          "name": "newManager",
          "type": "address"
        }
      ],
      "name": "assignNewManager",
      "outputs": [],
      "stateMutability": "nonpayable",
      "type": "function"
    },
    {
      "inputs": [
        {
          "internalType": "contract GovernanceFactory",
          "name": "governanceFactory",
          "type": "address"
        },
        {
          "internalType": "contract VotedValueFactory",
          "name": "votedValueFactory",
          "type": "address"
        }
      ],
      "name": "setupGovernance",
      "outputs": [],
      "stateMutability": "nonpayable",
      "type": "function"
    },
    {
      "inputs": [
        {
          "internalType": "uint256",
          "name": "_profit_diffusion_period",
          "type": "uint256"
        }
      ],
      "name": "validateProfitDiffusionPeriod",
      "outputs": [],
      "stateMutability": "pure",
      "type": "function"
    },
    {
      "inputs": [
        {
          "internalType": "uint256",
          "name": "_profit_diffusion_period",
          "type": "uint256"
        }
      ],
      "name": "setProfitDiffusionPeriod",
      "outputs": [],
      "stateMutability": "nonpayable",
      "type": "function"
    },
    {
      "inputs": [
        {
          "internalType": "uint256",
          "name": "_swap_fee10000",
          "type": "uint256"
        }
      ],
      "name": "validateSwapFee",
      "outputs": [],
      "stateMutability": "pure",
      "type": "function"
    },
    {
      "inputs": [
        {
          "internalType": "uint256",
          "name": "_swap_fee10000",
          "type": "uint256"
        }
      ],
      "name": "setSwapFee",
      "outputs": [],
      "stateMutability": "nonpayable",
      "type": "function"
    },
    {
      "inputs": [
        {
          "internalType": "uint256",
          "name": "_exit_fee10000",
          "type": "uint256"
        }
      ],
      "name": "validateExitFee",
      "outputs": [],
      "stateMutability": "pure",
      "type": "function"
    },
    {
      "inputs": [
        {
          "internalType": "uint256",
          "name": "_exit_fee10000",
          "type": "uint256"
        }
      ],
      "name": "setExitFee",
      "outputs": [],
      "stateMutability": "nonpayable",
      "type": "function"
    },
    {
      "inputs": [],
      "name": "decimals",
      "outputs": [
        {
          "internalType": "uint8",
          "name": "",
          "type": "uint8"
        }
      ],
      "stateMutability": "view",
      "type": "function"
    }
  ],
  "bytecode": "0x60808060405234620000e15762006c9f8038038091620000208285620000fd565b8339810161010082820312620000e1576200003b8262000130565b906200004a6020840162000130565b620000586040850162000145565b620000666060860162000145565b620000746080870162000145565b9160a08701519360ff85168503620000e15760c08801516001600160401b039890898111620000e15787620000ab91830162000155565b9660e0820151998a11620000e157620000d199620000ca920162000155565b96620001ee565b604051615ff4908162000cab8239f35b600080fd5b50634e487b7160e01b600052604160045260246000fd5b601f909101601f19168101906001600160401b038211908210176200012157604052565b6200012b620000e6565b604052565b51906001600160a01b0382168203620000e157565b519061ffff82168203620000e157565b9080601f83011215620000e1578151906001600160401b038211620001de575b6040519260209162000191601f8501601f1916840186620000fd565b838552828483010111620000e15782906000905b83838310620001c557505011620001bb57505090565b6000918301015290565b81935082819392010151828288010152018391620001a5565b620001e8620000e6565b62000175565b86519897969594939291906001600160401b038a116200031d575b620002218a6200021b6003546200032d565b6200036a565b602080601f8c116001146200028e57509980620002809a9b60009162000282575b508160011b916000199060031b1c1916176003555b62000262886200041c565b6200026d6001600555565b6200027a620d2f00600a55565b62000852565b565b90508801513862000242565b600360005290601f198c167fc2575a0e9e593c00f959f8c92f12db2869c3395a3b0502d05e2516446f71f85b926000905b82821062000304575050918c91620002809c9d60019410620002ea575b5050811b0160035562000257565b8a015160001960f88460031b161c191690553880620002dc565b80600185968294968f01518155019501930190620002bf565b62000327620000e6565b62000209565b90600182811c921680156200035f575b60208310146200034957565b634e487b7160e01b600052602260045260246000fd5b91607f16916200033d565b601f811162000377575050565b6000906003825260208220906020601f850160051c83019410620003b8575b601f0160051c01915b828110620003ac57505050565b8181556001016200039f565b909250829062000396565b601f8111620003d0575050565b6000906004825260208220906020601f850160051c8301941062000411575b601f0160051c01915b8281106200040557505050565b818155600101620003f8565b9092508290620003ef565b80519091906001600160401b03811162000510575b6200044981620004436004546200032d565b620003c3565b602080601f83116001146200048857508192936000926200047c575b50508160011b916000199060031b1c191617600455565b01519050388062000465565b6004600052601f198316949091907f8a35acfbc15ff81a39ae7d344fd709f28e8600b4aa8c65c6b64bfe7fe36bd19b926000905b878210620004f7575050836001959610620004dd575b505050811b01600455565b015160001960f88460031b161c19169055388080620004d2565b80600185968294968601518155019501930190620004bc565b6200051a620000e6565b62000431565b80519091906001600160401b0381116200060e575b62000547816200021b6003546200032d565b602080601f83116001146200058657508192936000926200057a575b50508160011b916000199060031b1c191617600355565b01519050388062000563565b6003600052601f198316949091907fc2575a0e9e593c00f959f8c92f12db2869c3395a3b0502d05e2516446f71f85b926000905b878210620005f5575050836001959610620005db575b505050811b01600355565b015160001960f88460031b161c19169055388080620005d0565b80600185968294968601518155019501930190620005ba565b62000618620000e6565b62000535565b156200062657565b60405162461bcd60e51b815260206004820152601360248201527f616c726561647920696e697469616c697a6564000000000000000000000000006044820152606490fd5b156200067357565b60405162461bcd60e51b815260206004820152602760248201527f6f6e6c79206578706f6e656e747320312c203220616e642034206172652073756044820152661c1c1bdc9d195960ca1b6064820152608490fd5b91908260c0910312620000e157620006e08262000130565b91620006ef6020820162000145565b91620006fe6040830162000145565b91606081015163ffffffff81168103620000e1579160a0608083015192015190565b506040513d6000823e3d90fd5b90816020910312620000e157620007449062000130565b90565b156200074f57565b60405162461bcd60e51b815260206004820152601c60248201527f746f6b656e20616464726573732063616e6e6f74206265207a65726f000000006044820152606490fd5b90816020910312620000e157518015158103620000e15790565b15620007b657565b606460405162461bcd60e51b815260206004820152602060248201527f50334420707265636f6d70696c652063616e6e6f74206265206d616e616765726044820152fd5b156200080257565b60405162461bcd60e51b815260206004820152602260248201527f455243323020707265636f6d70696c652063616e6e6f74206265206d616e616760448201526132b960f11b6064820152608490fd5b966200097694919593620008f16200093394620008b56200091294620008af620008a99c60018060a01b039d8e620008a16200089560175460018060a01b031690565b6001600160a01b031690565b16156200061e565b62000520565b6200041c565b600680546001600160a01b0319166001600160a01b038d161790556009805461ffff60a01b191660a09290921b61ffff60a01b16919091179055565b6009805461ffff60b01b191660b09290921b61ffff60b01b16919091179055565b6009805461ffff60c01b191660c09290921b61ffff60c01b16919091179055565b6200095760ff82166001811490811562000c9e575b811562000c92575b506200066b565b6009805460ff60e01b191660e09290921b60ff60e01b16919091179055565b6200098042600b55565b6040516338185d3960e21b81529280831660c085600481845afa94851562000c82575b60009562000c46575b50600780546001600160a01b0319166001600160a01b038716179055604051635f23db3b60e11b81526020929062000a1b908481600481875afa90811562000c36575b60009162000c14575b50600880546001600160a01b0319166001600160a01b0392909216919091179055565b846004848289169462000a3086151562000747565b60405163506d3c4360e01b815292839182905afa90811562000c04575b60009162000bd0575b5016820362000b675760405163095ea7b360e01b81526001600160a01b03919091166004820152600019602482015262000b059550908290829060449082906000905af1801562000b57575b62000b22575b50505b8082161562000b125761080262000ac891925b83161415620007ae565b62000ae363fbfbfbfa63ffffffff8360801c161415620007fa565b600980546001600160a01b0319166001600160a01b0392909216919091179055565b62000280620d2f00600a55565b5062000ac8610802339262000abe565b8162000b4692903d1062000b4f575b62000b3d8183620000fd565b81019062000794565b50388062000aa8565b503d62000b31565b62000b6162000720565b62000aa2565b5050509163ffffffff63fbfbfbfa9160801c160362000b8b5762000b059162000aab565b60405162461bcd60e51b815260206004820152601660248201527f756e737570706f7274656420746f6b656e2074797065000000000000000000006044820152606490fd5b62000bf59150853d871162000bfc575b62000bec8183620000fd565b8101906200072d565b3862000a56565b503d62000be0565b62000c0e62000720565b62000a4d565b62000c2f9150853d871162000bfc5762000bec8183620000fd565b38620009f8565b62000c4062000720565b620009ef565b62000c6d91955060c03d811162000c7a575b62000c648183620000fd565b810190620006c8565b50505050509338620009ac565b503d62000c58565b62000c8c62000720565b620009a3565b60049150143862000950565b6002811491506200094856fe60806040526004361015610023575b361561001957600080fd5b610021614778565b005b60003560e01c806203c62f1461044657806301ffc9a71461043d57806306fdde0314610434578063095ea7b31461042b5780630b3e6c521461042257806315b1abfa1461041957806317cf7a481461041057806318160ddd146104075780631fcd4a32146103fe57806322a4d22d146103f557806323b872dd146103ec578063313ce567146103e3578063321541ce146103da578063334c67a5146103d157806334e19907146103c857806336a23c81146103bf57806339509351146103b65780634110869c146103ad57806352f6ee58146103a45780635a41ff591461039b5780635aa6e675146103925780635ad95ef2146103895780636022743e1461038057806366ad46651461037757806366d16cc31461036e5780636aacd74e1461036557806370a082311461035c578063721c8da9146103535780637df3d7b61461034a57806389e4ae1c1461034157806395d89b41146103385780639c8d3da61461032f5780639d76ea58146103265780639e6611a51461031d578063a3c573eb14610314578063a457c2d71461030b578063a9059cbb14610302578063a9857bf9146102f9578063ac4ffa4e146102f0578063adba9804146102e7578063b4fc3e1f146102de578063be47b676146102d5578063beebc5da146102cc578063c2e53056146102c3578063c52e9a2a146102ba578063c714d33e146102b1578063cd1a5709146102a8578063cf73a1bc1461029f578063dd62ed3e14610296578063dd8b1a151461028d578063deb8aba114610284578063e5a583a91461027b5763e86d60bf0361000e57610276612bf3565b61000e565b50610276612b80565b50610276612b5a565b50610276612a6a565b50610276612a16565b506102766129ec565b506102766129b3565b5061027661294f565b506102766127cd565b506102766127a7565b506102766123c0565b50610276612396565b50610276612377565b5061027661218c565b50610276612073565b50610276611f99565b50610276611f6e565b50610276611ecd565b50610276611ea3565b50610276611c23565b50610276611bf9565b50610276611b4b565b50610276611a8f565b5061027661187a565b50610276611813565b5061027661179f565b50610276611761565b506102766114db565b506102766114b5565b5061027661148d565b506102766111d6565b50610276610d24565b50610276610cfa565b50610276610cd4565b50610276610caf565b50610276610c89565b50610276610c3e565b50610276610c16565b50610276610b75565b50610276610aa7565b50610276610a42565b50610276610a1b565b50610276610940565b506102766108ec565b506102766108cd565b506102766108ae565b50610276610880565b506102766107f8565b5061027661070c565b506102766106d6565b506102766105f5565b5061027661049c565b50610276610470565b600091031261045a57565b600080fd5b908152602081019190915260400190565b503461045a57600036600319011261045a57600e54600f54906104986040519283928361045f565b0390f35b503461045a57602036600319011261045a5760043563ffffffff60e01b811680910361045a57602090635627fd2760e11b81149081156104e2575b506040519015158152f35b6301ffc9a760e01b149050386104d7565b90600182811c92168015610523575b602083101461050d57565b634e487b7160e01b600052602260045260246000fd5b91607f1691610502565b50634e487b7160e01b600052604160045260246000fd5b6001600160401b03811161055757604052565b61055f61052d565b604052565b601f909101601f19168101906001600160401b0382119082101761055757604052565b918091926000905b8282106105a75750116105a0575050565b6000910152565b9150806020918301518186015201829161058f565b906020916105d581518092818552858086019101610587565b601f01601f1916010190565b9060206105f29281815201906105bc565b90565b503461045a576000806003193601126106b65760405181600354610618816104f3565b80845290600190818116908115610695575060011461064e575b6104988461064281880382610564565b604051918291826105e1565b6003835260209450600080516020615f3f8339815191525b8284106106825750505081610498936106429282010193610632565b8054858501870152928501928101610666565b60ff1916602086015250506040830193506106429150829050610498610632565b80fd5b6001600160a01b031690565b6001600160a01b0381160361045a57565b503461045a57604036600319011261045a576107016004356106f7816106c5565b6024359033612e6f565b602060405160018152f35b503461045a57600036600319011261045a576020601654604051908152f35b60408051919082016001600160401b0381118382101761055757604052565b604051906101e082016001600160401b0381118382101761055757604052565b6020906001600160401b038111610787575b601f01601f19160190565b61078f61052d565b61077c565b81601f8201121561045a578035906107ab8261076a565b926107b96040519485610564565b8284526020838301011161045a57816000926020809301838601378301015290565b63ffffffff81160361045a57565b60a435906107f6826106c5565b565b503461045a5760e036600319011261045a576001600160401b0360043581811161045a5761082a903690600401610794565b602435610836816107db565b60843583811161045a5761084e903690600401610794565b6108566107e9565b9160c43594851161045a57610872610021953690600401610794565b9360643591604435916139eb565b503461045a57600036600319011261045a57604061089c613940565b60208251918051835201516020820152f35b503461045a57600036600319011261045a576020600254604051908152f35b503461045a57600036600319011261045a576020600a54604051908152f35b503461045a57602036600319011261045a57612710600435101561090c57005b60405162461bcd60e51b815260206004820152600c60248201526b62616420657869742066656560a01b6044820152606490fd5b503461045a57606036600319011261045a5760043561095e816106c5565b6024359061096b826106c5565b610979604435809383612d97565b6001600160a01b038116600090815260016020526040902061099c903390612c2c565b548281106109c5576109b9926109b191612c79565b903390612e6f565b60405160018152602090f35b60405162461bcd60e51b815260206004820152602860248201527f45524332303a207472616e7366657220616d6f756e74206578636565647320616044820152676c6c6f77616e636560c01b6064820152608490fd5b503461045a57600036600319011261045a576020610a37615e9e565b60ff60405191168152f35b503461045a57602036600319011261045a576301e1338060043511610a6357005b606460405162461bcd60e51b815260206004820152602060248201527f70726f66697420646966667573696f6e20706572696f6420746f6f206c6f6e676044820152fd5b503461045a576000806003193601126106b657610acf60018060a01b03600954163314613832565b610ad761403c565b610adf614148565b5050600c54818113610b4a575b50600d54818113610b08575b50610b036001600555565b604051f35b610b34610b2c610b3a92610b2661ffff60095460b01c1661ffff1690565b906138f4565b612710900490565b33615d11565b610b446000600d55565b38610af8565b612710610b64610b6b9261ffff60095460b01c16906138f4565b0433615b24565b80600c5538610aec565b503461045a57602036600319011261045a57601754604051630102942360e61b8152336004820152610bcc91602090829060249082906001600160a01b03165afa908115610c09575b600091610bdb575b506156e7565b61002161ffff6004351661325a565b610bfc915060203d8111610c02575b610bf48183610564565b8101906133ea565b38610bc6565b503d610bea565b610c1161333f565b610bbe565b503461045a57600036600319011261045a57601054601154906104986040519283928361045f565b503461045a57604036600319011261045a57610701600435610c5f816106c5565b336000526001602052610c82602435610c7c836040600020612c2c565b54612cd8565b9033612e6f565b503461045a57600036600319011261045a57602061ffff60095460b01c16604051908152f35b503461045a57600036600319011261045a57602060ff60095460e01c16604051908152f35b503461045a57600036600319011261045a57602061ffff60095460c01c16604051908152f35b503461045a57600036600319011261045a576017546040516001600160a01b039091168152602090f35b503461045a5760408060031936011261045a57600490610e498235610d48816106c5565b602435610d54816106c5565b60018060a01b038095610d7b82610d74610d6f6017546106b9565b6106b9565b1615612f88565b85516372ccf61760e11b815260209390610ddc90858180610d9f30808984016156cd565b03816000809e819c165af19081156111c9575b87916111ac575b50601780546001600160a01b0319166001600160a01b0392909216919091179055565b610de76017546106b9565b8380821692169085600a548a51809a8192634a79346360e01b95868452309130918b8601929363321541ce637df3d7b6929695606094608087019860018060a01b03168752602087015260201b1760401b604085015260201b1760401b910152565b03818a865af197881561119f575b8798611180575b50823b1561117c578689518094818381631beab6f960e01b9d8e82528a820190610ec290916040815260176040820152761c1c9bd99a5d17d91a59999d5cda5bdb97dc195c9a5bd9604a1b60608201526020608082019360018060a01b0316910152565b03925af1610f449390801561116f575b61115c575b50610ee36017546106b9565b6009548a518381526001600160a01b03831687820190815260c09290921c61ffff1660208084019190915263c714d33e3090911b908117604090811b818501526334e19907909117901b606083015294918716939188918691829160800190565b03818b855af193841561114f575b8894611130575b50823b1561112c57610fb2886110339589958c838f5180968195829483528d830191909160408152600d60408201526c0737761705f666565313030303609c1b60608201526020608082019360018060a01b0316910152565b03925af1801561111f575b61110c575b50610fce6017546106b9565b60095496811696899060d01c61ffff16938c51968795869485938452309130918c860192936322a4d22d63e5a583a992969561ffff606095608088019960018060a01b0316885216602087015260201b1760401b604085015260201b1760401b910152565b03925af19384156110ff575b85946110d0575b5050813b156110cc5785519485526040908501818152600d918101919091526c0657869745f666565313030303609c1b60608201526001600160a01b039092166020830152839182908490829060800103925af180156110bf575b6110a9575051f35b806110b66110bc92610544565b8061044f565b51f35b6110c761333f565b6110a1565b8380fd5b6110f0929450803d106110f8575b6110e88183610564565b81019061334c565b913880611046565b503d6110de565b61110761333f565b61103f565b806110b661111992610544565b38610fc2565b61112761333f565b610fbd565b8780fd5b611148919450873d89116110f8576110e88183610564565b9238610f59565b61115761333f565b610f52565b806110b661116992610544565b38610ed7565b61117761333f565b610ed2565b8680fd5b611198919850863d88116110f8576110e88183610564565b9638610e5e565b6111a761333f565b610e57565b6111c39150863d88116110f8576110e88183610564565b38610db9565b6111d161333f565b610db2565b503461045a5760208060031936011261045a57600435906111f561403c565b6111fd614148565b505080611209836129a3565b9280845480151561121990614a8b565b600654611225906106b9565b61122e906106b9565b611237906106b9565b604051635aef244760e01b8152600481018490526000979192918891908282602481885afa918215996113426113d99a6113d4996113cf996113c6986113e59f6113c19961136a9860e092611480575b839161145e575b5061129b81511515614c74565b6112c26112bb6112b260a084015163ffffffff1690565b63ffffffff1690565b4211614cb0565b0190600182516112d1816146d6565b6112da816146d6565b036114535761132b81925b51916112f0836146d6565b60405187818061131163176354e560e11b9788835230908c60048501614cee565b0381895afa918215611446575b91611429575b5015614d17565b604051958694859384938452309160048501614cee565b03915afa91821561141c575b8d926113ef575b5050611362811515614d6e565b851015614dba565b6001600160ff1b03936113a39061139e9061138687821061481a565b61139660018501978854106148db565b600c54614092565b600c55565b6113b86113b38554600d54614092565b600d55565b54601054612c79565b601055565b54601154612c79565b601155565b6129a3565b60016000918281550155565b610b036001600555565b61140e9250803d10611415575b6114068183610564565b810190613d65565b3880611355565b503d6113fc565b61142461333f565b61134e565b6114409150873d8911611415576114068183610564565b38611324565b61144e61333f565b61131e565b61132b6001926112e5565b61147a91503d8085833e6114728183610564565b810190614b3b565b3861128e565b61148861333f565b611287565b503461045a57600036600319011261045a57601354601454906104986040519283928361045f565b503461045a57600036600319011261045a576040600c54600d5482519182526020820152f35b5060408060031936011261045a576004356114f461403c565b6114ff6007546106b9565b90611511610d6f610d6f6006546106b9565b835192839163506d3c4360e01b835282600460209687935afa918215611754575b600092611735575b506001600160a01b038181169216820361167e57505061163c61160f6000949361160961164a9461156b3415614ef1565b6115b961157f610d6f610d6f6007546106b9565b84895180926323b872dd60e01b8252818d816115a089303360048501614f2e565b03925af1908115611671575b8a91611654575b50614f9b565b611602816115fd6115c98261427a565b9690506115d88c885113615368565b86016115e68c8251136153c0565b8051906115f7601154809311615518565b51612c79565b6138f4565b9251612cd8565b9061392a565b611636610b2c61163061162960095461ffff9060c01c1690565b61ffff1690565b836138f4565b90612c79565b610b34602435821015615688565b6110bc6001600555565b61166b9150853d8711610c0257610bf48183610564565b386115b3565b61167961333f565b6115ac565b60801c63ffffffff1663fbfbfbfa036117195761160f6000949361160961164a946116ea61163c956116b03415614ef1565b84895180926323b872dd60e01b8252818d816116d189303360048501614f2e565b03925af190811561170c575b8a916116ef575b50614f50565b6115b9565b6117069150853d8711610c0257610bf48183610564565b386116e4565b61171461333f565b6116dd565b835162461bcd60e51b815280611731600482016133ac565b0390fd5b61174d919250843d86116110f8576110e88183610564565b903861153a565b61175c61333f565b611532565b503461045a57602036600319011261045a5760043561177f816106c5565b60018060a01b031660005260006020526020604060002054604051908152f35b503461045a576000806003193601126106b6576117c760018060a01b03600954163314613832565b6117cf61403c565b6117d7614148565b50506117f16117eb600e5460165490612cd8565b33615b24565b6117fd600f5433615d11565b80600e5580600f55806016556001600555604051f35b503461045a57602036600319011261045a57601754604051630102942360e61b815233600482015261186891602090829060249082906001600160a01b03165afa908115610c0957600091610bdb57506156e7565b600435600a55005b6002111561045a57565b503461045a57606036600319011261045a5760043560243561189b81611870565b604435916118b460018060a01b03600954163314613832565b6118bc61403c565b825a916118c76143ad565b9590506000956118d987825113614699565b6118ea610d6f610d6f6006546106b9565b60405163569f7a1560e01b815290946020828061190b8b8960048401614703565b0381895afa918215611a82575b8992611a62575b50818115918215611a58575b5050611a4e575b506119409051821115614719565b85833b156106b6576119dd6113c1957fabc27adb41485e9e8d95ac46268c3b9431b3a398b62cffe55e9efa2aa9a62c7f84896119a18683611a269b6113e59e6119ec9a8d604051968795869485936322792b8760e21b85526004850161475a565b03925af18015611a41575b611a2e575b506119c26040519283928a8461475a565b0390a16119e76119e26119d361580b565b9490935a90612c79565b612c90565b612c5a565b615a88565b91611a016119fc84601654612cd8565b601655565b611a1f611a17611a118585612cd8565b926129a3565b918254612cd8565b9055612cd8565b601054612cd8565b806110b6611a3b92610544565b386119b1565b611a4961333f565b6119ac565b9150611940611932565b119050813861192b565b611a7b91925060203d8111611415576114068183610564565b903861191f565b611a8a61333f565b611918565b503461045a576000806003193601126106b65760405181600454611ab2816104f3565b808452906001908181169081156106955750600114611adb576104988461064281880382610564565b6004835260209450600080516020615f9f8339815191525b828410611b0f5750505081610498936106429282010193610632565b8054858501870152928501928101611af3565b61ffff81160361045a57565b608435906107f682611b22565b60a4359060ff8216820361045a57565b503461045a5761010036600319011261045a57600435611b6a816106c5565b60243590611b77826106c5565b60443591611b8483611b22565b606435611b9081611b22565b611b98611b2e565b611ba0611b3b565b6001600160401b039590929060c43587811161045a57611bc4903690600401610794565b9460e43597881161045a57611be0610021983690600401610794565b966134d6565b6001600160a01b03909116815260200190565b503461045a57600036600319011261045a576007546040516001600160a01b039091168152602090f35b503461045a5760208060031936011261045a576113e560043591611c4561403c565b611c4e836129a3565b90838254611c5d811515614a8b565b611c6e610d6f610d6f6006546106b9565b604051635aef244760e01b8152600481018890526000978895919391928685602481845afa948515611e96575b8795611e66575b5091611d4284611da79593611d5c95611cbd89511515614c74565b611cd3611cce6101408b0151151590565b614e03565b600160e08a019b8c5190611ce6826146d6565b611cef826146d6565b5003611e5e578d805b61132b8d5191611d07836146d6565b604051878180611d2863176354e560e11b9788835230908c60048501614cee565b0381895afa918215611e51575b91611e34575b5015614e42565b03915afa928315611e27575b8b93611e08575b5050612c79565b611d67811515614e9a565b60018551611d74816146d6565b611d7d816146d6565b03611df957611da26101a0840151915b6115fd6101a08601516101c087015190612cd8565b61392a565b923060018060a01b03611dbd60808501516106b9565b16149081611ddb575b5015611dd3575190614963565b508490614963565b6001915051611de9816146d6565b611df2816146d6565b1438611dc6565b611da26101c084015191611d8d565b611e1f929350803d10611415576114068183610564565b903880611d55565b611e2f61333f565b611d4e565b611e4b9150873d8911611415576114068183610564565b38611d3b565b611e5961333f565b611d35565b60018e611cf8565b611d5c9391955084611da79593611e89611d42933d808d833e6114728183610564565b9793955093509450611ca2565b611e9e61333f565b611c9b565b503461045a57600036600319011261045a576006546040516001600160a01b039091168152602090f35b503461045a57604036600319011261045a57600435611eeb816106c5565b60243590336000526001602052611f06816040600020612c2c565b54828110611f1b576109b992610c8291612c79565b60405162461bcd60e51b815260206004820152602560248201527f45524332303a2064656372656173656420616c6c6f77616e63652062656c6f77604482015264207a65726f60d81b6064820152608490fd5b503461045a57604036600319011261045a57610701600435611f8f816106c5565b6024359033612d97565b503461045a57602036600319011261045a57600435611fb7816106c5565b6009546001600160a01b039081169190611fd2338414613832565b811691821561203f57817f770e6248a70b6ac757edf422766216da592c37e3112db900fe0da8984191831b9161200f610802610021961415613434565b61202863fbfbfbfa63ffffffff8460801c16141561347f565b612037604051928392836156cd565b0390a1613238565b60405162461bcd60e51b815260206004820152600c60248201526b7a65726f206164647265737360a01b6044820152606490fd5b503461045a5760c036600319011261045a576004356001600160401b0360643581811161045a576120a8903690600401610794565b506120b46084356106c5565b60a43590811161045a576120cc903690600401610794565b506006546001600160a01b0316330361215557806000526012602052604060002080541561210557610021916044359060243590614963565b60405162461bcd60e51b815260206004820152602260248201527f4255473a2049206469646e2774207374616b6520696e207468697320636c61696044820152616d3f60f01b6064820152608490fd5b60405162461bcd60e51b815260206004820152600f60248201526e6e6f742066726f6d2062726964676560881b6044820152606490fd5b503461045a57602036600319011261045a576004356121a961403c565b600254906121b7813361557f565b6121bf614148565b80929150516000126121d090615368565b602082019283516000126121e3906153c0565b6121eb613940565b83518151106121f990615418565b845190602081019182511061220d90615470565b5184519061221a91614092565b84525184519061222991614092565b8452825160105480911161223c906154c8565b84519360115480951161224e90615518565b519061225991612c79565b90600954928360e01c60ff169261227084846151e1565b8461227b8486612c79565b9061228591615265565b61228e91612c79565b612297916138f4565b6122a184846151e1565b6122aa9161392a565b9461ffff808660c01c169560d01c16956122c48787615568565b61ffff166122d290826138f4565b61271090046122e091612c79565b9651906122ec91612c79565b90836122f881856151e1565b916123039085612c79565b9061230d91615265565b61231691612c79565b61231f916138f4565b91612329916151e1565b6123329161392a565b9161233c91615568565b61ffff1661234a90826138f4565b612710900461235891612c79565b906123639033615b24565b61236d9033615d11565b6100216001600555565b503461045a57600036600319011261045a576020601554604051908152f35b503461045a57600036600319011261045a576008546040516001600160a01b039091168152602090f35b5060408060031936011261045a5760049081356024356123de61403c565b6123e96007546106b9565b6123fa610d6f610d6f6006546106b9565b908451918263506d3c4360e01b91828252818960209687935afa90811561279a575b60009161277d575b506001600160a01b039280841691841682036126e7575050838360009888612558966125749861164a9a976125529761245d3415614ef1565b6124b0612497858c612476610d6f610d6f6007546106b9565b60008b908b518096819582946323b872dd60e01b8452309033908501614f2e565b03925af19081156126da575b6000916126c35750614f9b565b816124bc6008546106b9565b1691821515918261265c575b50506125ea575b50905061254a92506124e29150866143ea565b8196915115906002546124f88115809414615039565b8d928e14612584575050508015158061257b575b612515906150fc565b61254361253d6125258684615e1e565b611609612538612533615e9e565b61515a565b615179565b336152d0565b8551612cd8565b930151612cd8565b906152be565b610b2660025461256e60095460ff9060e01c1690565b90615265565b1515615272565b5083151561250c565b6125e0826116098561259e612543976125e5975113615076565b6125ad8a8401918251136150b9565b6125d66125d08c6125ca6125c28c8851612cd8565b918551612cd8565b90615e1e565b866138f4565b9251905190615e1e565b612c79565b61253d565b612628948e61260f95518096819582946323b872dd60e01b8452309033908501614f2e565b03925af190811561264f575b8b91612632575b50614fe1565b38888284836124cf565b6126499150833d8511610c0257610bf48183610564565b38612622565b61265761333f565b61261b565b90915084612671610d6f610d6f6006546106b9565b918888518094819382525afa9081156126b6575b600091612699575b501681141538806124c8565b6126b09150853d87116110f8576110e88183610564565b3861268d565b6126be61333f565b612685565b61166b9150863d8811610c0257610bf48183610564565b6126e261333f565b6124a3565b60801c63ffffffff1663fbfbfbfa036127665793836000988882848a976125529761273d6127246125589c61164a9f6125749f6124763415614ef1565b03925af1908115612759575b6000916127425750614f50565b6124b0565b6117069150863d8811610c0257610bf48183610564565b61276161333f565b612730565b865162461bcd60e51b815280611731818b016133ac565b6127949150843d86116110f8576110e88183610564565b38612424565b6127a261333f565b61241c565b503461045a57600036600319011261045a57602061ffff60095460a01c16604051908152f35b503461045a57604036600319011261045a5761236d61286361160f6004356127f361403c565b6008546001600160a01b0390819061280a906106b9565b169081151590816128de575b50612871575b5061160961282982614445565b9290506128396000845113615368565b611602816115fd602086019561285260008851136153c0565b8051906115f76010548093116154c8565b6117eb602435821015615688565b6040516323b872dd60e01b81526128b39160209082908160008161289a89303360048501614f2e565b03925af19081156128d1575b6000916128b95750614fe1565b3861281c565b612649915060203d8111610c0257610bf48183610564565b6128d961333f565b6128a6565b9050600460206128f5610d6f610d6f6006546106b9565b60405163506d3c4360e01b815292839182905afa908115612942575b600091612924575b501681141538612816565b61293c915060203d81116110f8576110e88183610564565b38612919565b61294a61333f565b612911565b503461045a57602036600319011261045a57612710600435101561296f57005b60405162461bcd60e51b815260206004820152600c60248201526b62616420737761702066656560a01b6044820152606490fd5b6000526012602052604060002090565b503461045a57602036600319011261045a576004356000526012602052604060002060018154910154906104986040519283928361045f565b503461045a57600036600319011261045a576009546040516001600160a01b039091168152602090f35b503461045a57604036600319011261045a576020612a61600435612a39816106c5565b60243590612a46826106c5565b6001600160a01b031660009081526001845260409020612c2c565b54604051908152f35b503461045a57600036600319011261045a576009546001600160a01b0390612a959082163314613832565b6007548181169160065416906108028314612b1c57600092602092612acb63fbfbfbfa63ffffffff612ae79560801c161461387a565b60405194858094819363095ea7b360e01b8352600483016133fe565b03925af18015612b0f575b612af857005b6100219060203d8111610c0257610bf48183610564565b612b1761333f565b612af2565b60405162461bcd60e51b81526020600482015260166024820152756e6f7420666f722050334420707265636f6d70696c6560501b6044820152606490fd5b503461045a57600036600319011261045a57602061ffff60095460d01c16604051908152f35b503461045a57602036600319011261045a57601754604051630102942360e61b8152336004820152612bd591602090829060249082906001600160a01b03165afa908115610c0957600091610bdb57506156e7565b6009805461ffff60d01b191660043560d01b61ffff60d01b16179055005b503461045a57600036600319011261045a576020600b54604051908152f35b6001600160a01b0316600090815260208190526040902090565b9060018060a01b0316600052602052604060002090565b50634e487b7160e01b600052601160045260246000fd5b613a988110612c6c575b613a97190190565b612c74612c43565b612c64565b818110612c84570390565b612c8c612c43565b0390565b620117d990620117d9198111612ca4570190565b612cac612c43565b0190565b620163809062016380198111612ca4570190565b6201d4c0906201d4c0198111612ca4570190565b81198111612ca4570190565b15612ceb57565b60405162461bcd60e51b815260206004820152602360248201527f45524332303a207472616e7366657220746f20746865207a65726f206164647260448201526265737360e81b6064820152608490fd5b15612d4357565b60405162461bcd60e51b815260206004820152602660248201527f45524332303a207472616e7366657220616d6f756e7420657863656564732062604482015265616c616e636560d01b6064820152608490fd5b916001600160a01b038084169290918315612e1c57612dfa82600080516020615f7f83398151915294612e17941696612dd1881515612ce4565b612df4612dee85612de184612c12565b546125e082821015612d3c565b91612c12565b55612c12565b612e05828254612cd8565b90556040519081529081906020820190565b0390a3565b60405162461bcd60e51b815260206004820152602560248201527f45524332303a207472616e736665722066726f6d20746865207a65726f206164604482015264647265737360d81b6064820152608490fd5b6001600160a01b038082169291908315612f37578216938415612ee75780612ed67f8c5be1e5ebec7d5bd14f71427d1e84f3dd0314c0f7b2291e5b200ac8c7c3b92594612ed1612e179560018060a01b03166000526001602052604060002090565b612c2c565b556040519081529081906020820190565b60405162461bcd60e51b815260206004820152602260248201527f45524332303a20617070726f766520746f20746865207a65726f206164647265604482015261737360f01b6064820152608490fd5b60405162461bcd60e51b8152602060048201526024808201527f45524332303a20617070726f76652066726f6d20746865207a65726f206164646044820152637265737360e01b6064820152608490fd5b15612f8f57565b60405162461bcd60e51b8152602060048201526013602482015272185b1c9958591e481a5b9a5d1a585b1a5e9959606a1b6044820152606490fd5b601f8111612fd6575050565b6000906003825260208220906020601f850160051c83019410613014575b601f0160051c01915b82811061300957505050565b818155600101612ffd565b9092508290612ff4565b601f811161302a575050565b6000906004825260208220906020601f850160051c83019410613068575b601f0160051c01915b82811061305d57505050565b818155600101613051565b9092508290613048565b80519091906001600160401b038111613148575b61309a816130956003546104f3565b612fca565b602080601f83116001146130d657508192936000926130cb575b50508160011b916000199060031b1c191617600355565b0151905038806130b4565b6003600052601f19831694909190600080516020615f3f833981519152926000905b878210613130575050836001959610613117575b505050811b01600355565b015160001960f88460031b161c1916905538808061310c565b806001859682949686015181550195019301906130f8565b61315061052d565b613086565b80519091906001600160401b03811161322b575b61317d816131786004546104f3565b61301e565b602080601f83116001146131b957508192936000926131ae575b50508160011b916000199060031b1c191617600455565b015190503880613197565b6004600052601f19831694909190600080516020615f9f833981519152926000905b8782106132135750508360019596106131fa575b505050811b01600455565b015160001960f88460031b161c191690553880806131ef565b806001859682949686015181550195019301906131db565b61323361052d565b613169565b600980546001600160a01b0319166001600160a01b0392909216919091179055565b6009805461ffff60c01b191660c09290921b61ffff60c01b16919091179055565b1561328257565b60405162461bcd60e51b815260206004820152602760248201527f6f6e6c79206578706f6e656e747320312c203220616e642034206172652073756044820152661c1c1bdc9d195960ca1b6064820152608490fd5b51906107f682611b22565b51906107f6826107db565b91908260c091031261045a578151613304816106c5565b91602081015161331381611b22565b91604082015161332281611b22565b916060810151613331816107db565b9160a0608083015192015190565b506040513d6000823e3d90fd5b9081602091031261045a57516105f2816106c5565b1561336857565b60405162461bcd60e51b815260206004820152601c60248201527b746f6b656e20616464726573732063616e6e6f74206265207a65726f60201b6044820152606490fd5b606090602081526016602082015275756e737570706f7274656420746f6b656e207479706560501b60408201520190565b5190811515820361045a57565b9081602091031261045a576105f2906133dd565b6001600160a01b039091168152600019602082015260400190565b6001600160a01b039091168152602081019190915260400190565b1561343b57565b606460405162461bcd60e51b815260206004820152602060248201527f50334420707265636f6d70696c652063616e6e6f74206265206d616e616765726044820152fd5b1561348657565b60405162461bcd60e51b815260206004820152602260248201527f455243323020707265636f6d70696c652063616e6e6f74206265206d616e616760448201526132b960f11b6064820152608490fd5b966135b594919593613550613576946135146135719461350f61350a9c60018060a01b039d8e610d74610d6f6017546106b9565b613072565b613155565b600680546001600160a01b0319166001600160a01b038d161790556009805461ffff60a01b191660a09290921b61ffff60a01b16919091179055565b6009805461ffff60b01b191660b09290921b61ffff60b01b16919091179055565b61325a565b61359660ff821660018114908115613827575b811561381c575b5061327b565b6009805460ff60e01b191660e09290921b60ff60e01b16919091179055565b6135be42600b55565b6040516338185d3960e21b81529280831660c085600481845afa94851561380f575b6000956137da575b50600780546001600160a01b0319166001600160a01b038716179055604051635f23db3b60e11b815260209290613654908481600481875afa9081156137cd575b6000916137b0575b50600880546001600160a01b0319166001600160a01b0392909216919091179055565b8460048482891694613667861515613361565b60405163506d3c4360e01b815292839182905afa9081156137a3575b600091613786575b5016820361374c5761370795506136bc600092849260405194858094819363095ea7b360e01b8352600483016133fe565b03925af1801561373f575b613721575b50505b80821615613713576108026136e991925b83161415613434565b61370263fbfbfbfa63ffffffff8360801c16141561347f565b613238565b6107f6620d2f00600a55565b506136e961080233926136e0565b8161373792903d10610c0257610bf48183610564565b5038806136cc565b61374761333f565b6136c7565b5050509163ffffffff63fbfbfbfa9160801c160361376d57613707916136cf565b60405162461bcd60e51b815280611731600482016133ac565b61379d9150853d87116110f8576110e88183610564565b3861368b565b6137ab61333f565b613683565b6137c79150853d87116110f8576110e88183610564565b38613631565b6137d561333f565b613629565b6137fc91955060c03d8111613808575b6137f48183610564565b8101906132ed565b505050505093386135e8565b503d6137ea565b61381761333f565b6135e0565b600491501438613590565b600281149150613589565b1561383957565b60405162461bcd60e51b815260206004820152601960248201527831b0b63632b91034b9903737ba103a34329036b0b730b3b2b960391b6044820152606490fd5b1561388157565b60405162461bcd60e51b81526020600482015260146024820152736e6f7420455243323020707265636f6d70696c6560601b6044820152606490fd5b60408051919082016001600160401b038111838210176138e7575b60405260006020838281520152565b6138ef61052d565b6138d8565b8060001904821181151516613907570290565b61390f612c43565b0290565b50634e487b7160e01b600052601260045260246000fd5b8115613934570490565b61393c613913565b0490565b6139486138bd565b506015548042106139de575b4203600a548082101560001461397c57505061396e61072b565b600081526000602082015290565b6139af81611da261399a6013548684106139d1575b868403906138f4565b9482156139c4575b610b266014549184612c79565b906139b861072b565b92048252602082015290565b6139cc613913565b6139a2565b6139d9612c43565b613991565b6139e6612c43565b613954565b94959395613a0460018060a01b03600954163314613832565b613a0c61403c565b5a91613a1b6000861215613cea565b613a2c610d6f610d6f6006546106b9565b91613a6b613a5f6040516309a2b0db60e01b8152602081600481895afa908115613cdd575b600091613cae575b50613d47565b6001600160401b031690565b906020604051809563373998db60e21b82528180613a918b600483019190602083019252565b03915afa938415613ca1575b600094613c80575b50613ab08787612c79565b95613ace6001600160ff1b03613ac7818810613d74565b8810613dbb565b613ad66143ad565b9050613ae56000825113613dff565b613af56000602083015113613e4b565b613b028151871115613e97565b613b126020820151891115613eed565b613b216113c187601054612cd8565b7f3aadcdfb543b53ea42ab2de8e41eb6c474a1fea158467f832b5eeeb7d5852c37858c613b58898d876040519586958b8d88613f43565b0390a1613b6c610d6f610d6f6006546106b9565b94853b1561045a57613c09613bf2613be8613c569f9a6113cf9f613c4e9f8f9198613c389c613c499f988f6119fc9c613bc9613c199f96600097613c119e89956040519b8c9a8b998a98632a2db3db60e21b8a5260048a01613f8b565b03925af18015613c73575b613c60575b506119e7613bed6119d361580b565b612cb0565b612cc4565b92613c016020820151856138f4565b90519061392a565b809a11613ff0565b601654612cd8565b613c238686612cd8565b613c2b61072b565b93845260208401526129a3565b906020600191805184550151910155565b612cd8565b601154612cd8565b6107f66001600555565b806110b6613c6d92610544565b38613bd9565b613c7b61333f565b613bd4565b613c9a91945060203d602011611415576114068183610564565b9238613aa5565b613ca961333f565b613a9d565b613cd0915060203d602011613cd6575b613cc88183610564565b810190613d28565b38613a59565b503d613cbe565b613ce561333f565b613a51565b15613cf157565b60405162461bcd60e51b815260206004820152600f60248201526e1b9959d85d1a5d99481c995dd85c99608a1b6044820152606490fd5b9081602091031261045a57516001600160401b038116810361045a5790565b6001906001600160401b03166002600160401b038111612ca4570190565b9081602091031261045a575190565b15613d7b57565b60405162461bcd60e51b815260206004820152601860248201527772657175697265645f7374616b6520746f6f206c6172676560401b6044820152606490fd5b15613dc257565b60405162461bcd60e51b8152602060048201526015602482015274706169645f616d6f756e7420746f6f206c6172676560581b6044820152606490fd5b15613e0657565b60405162461bcd60e51b815260206004820152601d60248201527f6e6f206e65742062616c616e636520696e207374616b652061737365740000006044820152606490fd5b15613e5257565b60405162461bcd60e51b815260206004820152601d60248201527f6e6f206e65742062616c616e636520696e20696d6167652061737365740000006044820152606490fd5b15613e9e57565b60405162461bcd60e51b815260206004820152602160248201527f6e6f7420656e6f7567682062616c616e636520696e207374616b6520617373656044820152601d60fa1b6064820152608490fd5b15613ef457565b60405162461bcd60e51b815260206004820152602160248201527f6e6f7420656e6f7567682062616c616e636520696e20696d61676520617373656044820152601d60fa1b6064820152608490fd5b9397969592613f769060c0969363ffffffff93875260018060a01b0316602087015260e0604087015260e08601906105bc565b97166060840152608083015260a08201520152565b9490936105f29896929363ffffffff613faf613fd297610100808b528a01906105bc565b9516602088015260408701526060860152608085015283820360a08501526105bc565b6001600160a01b0390931660c082015280830360e0909101526105bc565b15613ff757565b60405162461bcd60e51b815260206004820152601f60248201527f6e6574776f726b2066656520776f756c642065786365656420726577617264006044820152606490fd5b60026005541461404d576002600555565b60405162461bcd60e51b815260206004820152601f60248201527f5265656e7472616e637947756172643a207265656e7472616e742063616c6c006044820152606490fd5b600082128015600160ff1b84018312166140bc575b6001600160ff1b038301821316612c84570390565b6140c4612c43565b6140a7565b6000808213908313836001600160ff1b0383831682820486111661413b575b600160ff1b93600083129390841686860584121661412e575b82600087129505861290851616614121575b058312911616613907570290565b614129612c43565b614113565b614136612c43565b614101565b614143612c43565b6140e8565b6141506138bd565b506141596138bd565b614161614493565b9182516020840190600e54906009549061ffff90818360a01c169081614186916138f4565b600b5494906141958642612c79565b61419e916138f4565b6301da9c00900461271090046141b391612cd8565b93600f54918651906141c4916138f4565b906141cf9042612c79565b6141d8916138f4565b6301da9c00900461271090046141ed91612cd8565b938491848951906141fd91614092565b90600c549460b01c1660010b9384614214916140c9565b612710900561422290615ebb565b61422b91614092565b60165461423791614092565b8752519061424491614092565b90600d5490614252916140c9565b612710900561426090615ebb565b61426991614092565b6020850152600e55600f5542600b55565b906142836138bd565b5061428c6138bd565b90614295614493565b928351906142a291612c79565b80845260208401600e54906009549261ffff90818560a01c1690816142c6916138f4565b600b5494906142d58642612c79565b6142de916138f4565b6301da9c00900461271090046142f391612cd8565b93600f5491845190614304916138f4565b9061430f9042612c79565b614318916138f4565b6301da9c009004612710900461432d91612cd8565b9287519061433a91614092565b90600c549460b01c1660010b9384614351916140c9565b612710900561435f90615ebb565b61436891614092565b60165461437491614092565b8552519061438191614092565b90600d549061438f916140c9565b612710900561439d90615ebb565b6143a691614092565b6020830152565b6143b56138bd565b506143be6138bd565b6143c6614493565b91825160208401600e54906009549261ffff90818560a01c1690816142c6916138f4565b916143f36138bd565b506143fc6138bd565b91614405614493565b9384519061441291612c79565b8452602084019081519061442591612c79565b8152600e5484516009549061ffff90818360a01c169081614186916138f4565b9061444e6138bd565b506144576138bd565b90614460614493565b92602084019081519061447291612c79565b8152600e548451916009549261ffff90818560a01c1690816142c6916138f4565b61449b6138bd565b9060006145916144ac6007546106b9565b916144be610d6f610d6f6006546106b9565b60405193849163506d3c4360e01b835282600460209788935afa91821561468c575b839261466d575b506001600160a01b03818116921682036145f157506040516370a0823160e01b8152915083908290818061451e3060048301611be6565b03915afa9081156145e4575b6000916145c7575b505b614545610d6f610d6f6008546106b9565b908360405180936370a0823160e01b825281806145653060048301611be6565b03915afa9182156145ba575b600092614597575b5060105461458691612cd8565b855260115490612cd8565b90830152565b6145869192506145b390853d8711611415576114068183610564565b9190614579565b6145c261333f565b614571565b6145de9150833d8511611415576114068183610564565b38614532565b6145ec61333f565b61452a565b60801c63ffffffff1663fbfbfbfa1461460b575b50614534565b8360405180926370a0823160e01b8252818061462a3060048301611be6565b03915afa918215614660575b91614643575b5038614605565b61465a9150833d8511611415576114068183610564565b3861463c565b61466861333f565b614636565b614685919250853d87116110f8576110e88183610564565b90386144e7565b61469461333f565b6144e0565b156146a057565b60405162461bcd60e51b815260206004820152600e60248201526d6e6f206e65742062616c616e636560901b6044820152606490fd5b600211156146e057565b634e487b7160e01b600052602160045260246000fd5b9060028210156146e05752565b9081526040810192916107f691602001906146f6565b1561472057565b60405162461bcd60e51b81526020600482015260126024820152716e6f7420656e6f7567682062616c616e636560701b6044820152606490fd5b6147746040929594936060830196835260208301906146f6565b0152565b60075460065460405163506d3c4360e01b81526001600160a01b0392831692916020908290600490829086165afa90811561480d575b6000916147ef575b5016036147bf57565b60405162461bcd60e51b8152602060048201526008602482015267503344206f6e6c7960c01b6044820152606490fd5b614807915060203d81116110f8576110e88183610564565b386147b6565b61481561333f565b6147ae565b1561482157565b60405162461bcd60e51b81526020600482015260146024820152737374616b65206c6f737320746f6f206c6172676560601b6044820152606490fd5b1561486457565b60405162461bcd60e51b81526020600482015260166024820152757374616b652070726f66697420746f6f206c6172676560501b6044820152606490fd5b6000811280156001600160ff1b038390038413166148ce575b600160ff1b829003831216612ca4570190565b6148d6612c43565b6148bb565b156148e257565b60405162461bcd60e51b8152602060048201526014602482015273696d616765206c6f737320746f6f206c6172676560601b6044820152606490fd5b1561492557565b60405162461bcd60e51b8152602060048201526016602482015275696d6167652070726f66697420746f6f206c6172676560501b6044820152606490fd5b906113cf6113d4916113c66113c16107f6976113b86113d99861498686826143ea565b5050825460009190808210614a3757506149a39150835490612c79565b6149b56001600160ff1b03821061485d565b6149c461139e82600c546148a2565b600183018054909660009291808210614a0d57506149e6919250875490612c79565b906149f96001600160ff1b03831061491e565b614a086113b383600d546148a2565b614a5e565b614a1d614a08926113b392612c79565b614a2f6001600160ff1b0382106148db565b600d54614092565b614a47614a599261139e92612c79565b6113966001600160ff1b03821061481a565b6149c4565b906020614a8292614a78614a70613940565b918251612cd8565b6013550151612cd8565b60145542601555565b15614a9257565b60405162461bcd60e51b815260206004820152602360248201527f7468697320636c61696d20697320616c7265616479206163636f756e746564206044820152623337b960e91b6064820152608490fd5b51906107f6826106c5565b51906107f682611870565b81601f8201121561045a578051614b0f8161076a565b92614b1d6040519485610564565b8184526020828401011161045a576105f29160208085019101610587565b9060208282031261045a5781516001600160401b039283821161045a5701906101e08282031261045a57614b6d61074a565b9282518452614b7e60208401614ae3565b6020850152614b8f604084016132e2565b6040850152614ba0606084016132e2565b6060850152614bb160808401614ae3565b6080850152614bc260a084016132e2565b60a0850152614bd360c084016132d7565b60c0850152614be460e08401614aee565b60e0850152610100614bf78185016133dd565b90850152610120614c098185016133dd565b90850152610140614c1b8185016133dd565b908501526101608084015182811161045a5783614c39918601614af9565b90850152610180918284015191821161045a57614c57918401614af9565b908301526101a080820151908301526101c0809101519082015290565b15614c7b57565b60405162461bcd60e51b815260206004820152600d60248201526c6e6f207375636820636c61696d60981b6044820152606490fd5b15614cb757565b60405162461bcd60e51b815260206004820152600f60248201526e1b9bdd08195e1c1a5c9959081e595d608a1b6044820152606490fd5b9192614d0960409295946060850196855260208501906146f6565b6001600160a01b0316910152565b15614d1e57565b60405162461bcd60e51b815260206004820152602260248201527f6861766520612077696e6e696e67207374616b6520696e207468697320636c61604482015261696d60f01b6064820152608490fd5b15614d7557565b60405162461bcd60e51b815260206004820152601d60248201527f6e6f206c6f73696e67207374616b6520696e207468697320636c61696d0000006044820152606490fd5b15614dc157565b60405162461bcd60e51b815260206004820152601a602482015279084aa8e7440d8dee6d2dcce40e6e8c2d6ca40dad2e6dac2e8c6d60331b6044820152606490fd5b15614e0a57565b60405162461bcd60e51b815260206004820152601060248201526f1b9bdd08199a5b9a5cda1959081e595d60821b6044820152606490fd5b15614e4957565b60405162461bcd60e51b815260206004820152602360248201527f6d792077696e6e696e67207374616b65206973206e6f7420636c6561726564206044820152621e595d60ea1b6064820152608490fd5b15614ea157565b60405162461bcd60e51b815260206004820152602260248201527f49206469646e2774207374616b65206f6e207468652077696e6e696e67207369604482015261646560f01b6064820152608490fd5b15614ef857565b60405162461bcd60e51b815260206004820152600e60248201526d191bdb89dd081cd95b9908140cd160921b6044820152606490fd5b6001600160a01b03918216815291166020820152604081019190915260600190565b15614f5757565b606460405162461bcd60e51b815260206004820152602060248201527f334450617373204552433230207472616e7366657246726f6d206661696c65646044820152fd5b15614fa257565b60405162461bcd60e51b8152602060048201526017602482015276140cd1081d1c985b9cd9995c919c9bdb4819985a5b1959604a1b6044820152606490fd5b15614fe857565b60405162461bcd60e51b8152602060048201526024808201527f6661696c656420746f2070756c6c20696d6167652066726f6d20707265636f6d60448201526370696c6560e01b6064820152608490fd5b1561504057565b60405162461bcd60e51b815260206004820152600e60248201526d62616420696e697420737461746560901b6044820152606490fd5b1561507d57565b60405162461bcd60e51b81526020600482015260146024820152736e6f207374616b65206e65742062616c616e636560601b6044820152606490fd5b156150c057565b60405162461bcd60e51b81526020600482015260146024820152736e6f20696d616765206e65742062616c616e636560601b6044820152606490fd5b1561510357565b60405162461bcd60e51b815260206004820152602960248201527f6d75737420737570706c7920626f74682061737365747320666f7220696e697460448201526869616c20697373756560b81b6064820152608490fd5b60ff168060121061516c575b60120390565b615174612c43565b615166565b60ff16604d811161518b575b600a0a90565b615193612c43565b615185565b6001929091835b8082116151aa575050565b9092806000190481116151d4575b8184166151cb575b800292811c9061519f565b809402936151c0565b6151dc612c43565b6151b8565b811561525e57801561525757808060011461524f576002146152335760208210610133821016604e8310600b8310161761522f579061521f91615198565b9081600019048111613907570290565b0a90565b508060ff60019211615243571b90565b61524b612c43565b1b90565b505050600190565b5050600090565b5050600190565b60ff6105f29216906151e1565b1561527957565b60405162461bcd60e51b815260206004820152601f60248201527f746f6f206d616e79207368617265732c20776f756c64206f766572666c6f77006044820152606490fd5b90808211156152cb575090565b905090565b6001600160a01b0381169182156153235760208161530d600094615305600080516020615f7f83398151915295600254612cd8565b600255612c12565b615318828254612cd8565b9055604051908152a3565b60405162461bcd60e51b815260206004820152601f60248201527f45524332303a206d696e7420746f20746865207a65726f2061646472657373006044820152606490fd5b1561536f57565b60405162461bcd60e51b815260206004820152602360248201527f6e65676174697665206e65742062616c616e636520696e207374616b652061736044820152621cd95d60ea1b6064820152608490fd5b156153c757565b60405162461bcd60e51b815260206004820152602360248201527f6e65676174697665206e65742062616c616e636520696e20696d6167652061736044820152621cd95d60ea1b6064820152608490fd5b1561541f57565b60405162461bcd60e51b8152602060048201526024808201527f6e65742062616c616e636520746f6f20736d616c6c20696e207374616b6520616044820152631cdcd95d60e21b6064820152608490fd5b1561547757565b60405162461bcd60e51b8152602060048201526024808201527f6e65742062616c616e636520746f6f20736d616c6c20696e20696d61676520616044820152631cdcd95d60e21b6064820152608490fd5b156154cf57565b60405162461bcd60e51b815260206004820152602d6024820152600080516020615f5f83398151915260448201526c1b881cdd185ad948185cdcd95d609a1b6064820152608490fd5b1561551f57565b60405162461bcd60e51b815260206004820152602d6024820152600080516020615f5f83398151915260448201526c1b881a5b5859d948185cdcd95d609a1b6064820152608490fd5b9061ffff8080931691168092038111612ca4570190565b6001600160a01b0381169081156156395761559981612c12565b548381106155e95783600080516020615f7f833981519152926155c4612dee600097612e1795612c79565b556155d96155d482600254612c79565b600255565b6040519081529081906020820190565b60405162461bcd60e51b815260206004820152602260248201527f45524332303a206275726e20616d6f756e7420657863656564732062616c616e604482015261636560f01b6064820152608490fd5b60405162461bcd60e51b815260206004820152602160248201527f45524332303a206275726e2066726f6d20746865207a65726f206164647265736044820152607360f81b6064820152608490fd5b1561568f57565b60405162461bcd60e51b81526020600482015260166024820152753bb7bab632103132903632b9b9903a3430b71036b4b760511b6044820152606490fd5b6001600160a01b0391821681529116602082015260400190565b156156ee57565b60405162461bcd60e51b815260206004820152601d60248201527f6e6f742066726f6d20766f7465642076616c756520636f6e74726163740000006044820152606490fd5b919082604091031261045a576020825192015190565b9060806105f2926040815260086040820152675f4e41544956455f60c01b606082015281602082015201906105bc565b1561578057565b60405162461bcd60e51b815260206004820152601a6024820152797072696365206e756d206d75737420626520706f73697469766560301b6044820152606490fd5b156157c957565b60405162461bcd60e51b815260206004820152601a60248201527970726963652064656e206d75737420626520706f73697469766560301b6044820152606490fd5b6158166007546106b9565b90615828610d6f610d6f6006546106b9565b60409081519363506d3c4360e01b85526020918286600481845afa95861561598b575b60009661596c575b506001600160a01b039586168287161461595f57916158b991600482869586519283809263544d725d60e11b82525afa928315615952575b60009361592d575b505061589e906159bd565b8351968780948193631e879a6d60e11b835260048301615749565b0392165afa928315615920575b60009182946158ec575b50506158dd811515615779565b6158e88315156157c2565b9190565b61591093945080919250903d10615919575b6159088183610564565b810190615733565b919038806158d0565b503d6158fe565b61592861333f565b6158c6565b61589e929350908161594a92903d106110f8576110e88183610564565b919038615893565b61595a61333f565b61588b565b5050505090506001908190565b615984919650833d85116110f8576110e88183610564565b9438615853565b61599361333f565b61584b565b9060208282031261045a5781516001600160401b03811161045a576105f29201614af9565b6004906000906001600160a01b038116906108028203615a2757506040516395d89b4160e01b815292839182905afa908115615a1a575b6000916159ff575090565b6105f2913d8091833e615a128183610564565b810190615998565b615a2261333f565b6159f4565b60801c63ffffffff1663fbfbfbfa148214615a62576040516395d89b4160e01b815292839182905afa908115615a1a576000916159ff575090565b6040516395d89b4160e01b815292839182905afa908115615a1a576000916159ff575090565b906115fd61392a923a906138f4565b15615a9e57565b60405162461bcd60e51b815260206004820152601c60248201527b0cd114185cdcc8115490cc8c081d1c985b9cd9995c8819985a5b195960221b6044820152606490fd5b15615ae957565b60405162461bcd60e51b8152602060048201526013602482015272140cd1081d1c985b9cd9995c8819985a5b1959606a1b6044820152606490fd5b615b2f6007546106b9565b90615b41610d6f610d6f6006546106b9565b60405192839163506d3c4360e01b835282600460209687935afa918215615ca1575b600092615c82575b506001600160a01b0381811692168203615bff575050816107f693615bba92615b9b610d6f610d6f6007546106b9565b90600060405180968195829463a9059cbb60e01b845260048401613419565b03925af1918215615bf2575b600092615bd5575b5050615ae2565b615beb9250803d10610c0257610bf48183610564565b3880615bce565b615bfa61333f565b615bc6565b90919060801c63ffffffff1663fbfbfbfa0361376d576107f693615c3d928492600060405180968195829463a9059cbb60e01b845260048401613419565b03925af1918215615c75575b600092615c58575b5050615a97565b615c6e9250803d10610c0257610bf48183610564565b3880615c51565b615c7d61333f565b615c49565b615c9a919250843d86116110f8576110e88183610564565b9038615b6b565b615ca961333f565b615b63565b15615cb557565b60405162461bcd60e51b815260206004820152602e60248201527f6661696c656420746f207472616e7366657220696d616765206173736574206660448201526d726f6d20707265636f6d70696c6560901b6064820152608490fd5b6008546001600160a01b0391908290615d29906106b9565b16918215159081615dad575b50615d3f57505050565b6107f692615d6892602092600060405180968195829463a9059cbb60e01b845260048401613419565b03925af1908115615da0575b600091615d82575b50615cae565b615d9a915060203d8111610c0257610bf48183610564565b38615d7c565b615da861333f565b615d74565b905060046020615dc4610d6f610d6f6006546106b9565b60405163506d3c4360e01b815292839182905afa908115615e11575b600091615df3575b501682141538615d35565b615e0b915060203d81116110f8576110e88183610564565b38615de8565b615e1961333f565b615de0565b615e3091615e2b916138f4565b615ec9565b60ff60095460e01c1660018114615e9a5760028114615e9057600414615e845760405162461bcd60e51b815260206004820152600c60248201526b18985908195e1c1bdb995b9d60a21b6044820152606490fd5b615e2b6105f291615ec9565b506105f290615ec9565b5090565b600260ff60095460e01c1611600014615eb657600990565b601290565b6000808213156152cb575090565b9060006003831115615f3157506001828181811c6001198111615f24575b0191905b848310615ef757505050565b90919350615f0e848015615f17575b808304612cd8565b821c9190615eeb565b615f1f613913565b615f06565b615f2c612c43565b615ee7565b91615f3857565b6001915056fec2575a0e9e593c00f959f8c92f12db2869c3395a3b0502d05e2516446f71f85b6e65676174697665207269736b2d66726565206e65742062616c616e63652069ddf252ad1be2c89b69c2b068fc378daa952ba7f163c4a11628f55a4df523b3ef8a35acfbc15ff81a39ae7d344fd709f28e8600b4aa8c65c6b64bfe7fe36bd19ba26469706673582212207c5bbca597a50bad2e0bb651307a1f8fd797ac74ea0902a5a3c4f43f26bd8add64736f6c634300080d0033",
  "immutableReferences": {},
  "source": "// SPDX-License-Identifier: MIT\npragma solidity ^0.8.3;\nimport \"@openzeppelin/contracts/token/ERC20/IERC20.sol\";\nimport \"@openzeppelin/contracts/utils/math/Math.sol\";\nimport \"@openzeppelin/contracts/utils/introspection/ERC165.sol\";\nimport \"./ERC20.sol\";\nimport \"./ImportWrapper.sol\";\nimport \"./CounterstakeLibrary.sol\";\nimport \"./IP3D.sol\";\nimport \"./IPrecompileERC20.sol\";\nimport \"./CounterstakeLibrary.sol\";\n\ncontract ImportWrapperAssistant is ERC20, ReentrancyGuard, CounterstakeReceiver, ERC165 {\n\n\tusing SafeERC20 for IERC20;\n\n\tstruct UintBalance {\n\t\tuint stake;\n\t\tuint image;\n\t}\n\n\tstruct IntBalance {\n\t\tint stake;\n\t\tint image;\n\t}\n\n\taddress public bridgeAddress;\n\taddress public tokenAddress;\n\taddress public precompileAddress; // The precompile address for the image asset\n\taddress public managerAddress;\n\n\tuint16 public management_fee10000;\n\tuint16 public success_fee10000;\n\n\tuint16 public swap_fee10000;\n\tuint16 public exit_fee10000; // 0 by default\n\n\tuint8 public exponent;\n\t\n\tuint constant default_profit_diffusion_period = 10 days;\n\tuint public profit_diffusion_period = default_profit_diffusion_period;\n\n\tuint public ts;\n\tIntBalance public profit;\n\tUintBalance public mf;\n\tUintBalance public balance_in_work;\n\n\tmapping(uint => UintBalance) public balances_in_work;\n\n\tUintBalance public recent_profit;\n\tuint public recent_profit_ts;\n\n\tuint public network_fee_compensation;\n\n\tGovernance public governance;\n\n\n\tevent NewClaimFor(uint claim_num, address for_address, string txid, uint32 txts, uint amount, int reward, uint stake);\n\tevent AssistantChallenge(uint claim_num, CounterstakeLibrary.Side outcome, uint stake);\n    event NewManager(address previousManager, address newManager);\n\n\n\tmodifier onlyETH(){\n\t\trequire(tokenAddress == Counterstake(bridgeAddress).P3D_PRECOMPILE(), \"P3D only\");\n\t\t_;\n\t}\n\n\tmodifier onlyBridge(){\n\t\trequire(msg.sender == bridgeAddress, \"not from bridge\");\n\t\t_;\n\t}\n\n    modifier onlyManager() {\n        require(msg.sender == managerAddress, \"caller is not the manager\");\n        _;\n    }\n\n\n\n\n\tconstructor(address bridgeAddr, address managerAddr, uint16 _management_fee10000, uint16 _success_fee10000, uint16 _swap_fee10000, uint8 _exponent, string memory name, string memory symbol) ERC20(name, symbol) {\n\t\tinitImportWrapperAssistant(bridgeAddr, managerAddr, _management_fee10000, _success_fee10000, _swap_fee10000, _exponent, name, symbol);\n\t}\n\n\tfunction initImportWrapperAssistant(address bridgeAddr, address managerAddr, uint16 _management_fee10000, uint16 _success_fee10000, uint16 _swap_fee10000, uint8 _exponent, string memory _name, string memory _symbol) public {\n\t\trequire(address(governance) == address(0), \"already initialized\");\n\t\tname = _name;\n\t\tsymbol = _symbol;\n\t\tbridgeAddress = bridgeAddr;\n\t\tmanagement_fee10000 = _management_fee10000;\n\t\tsuccess_fee10000 = _success_fee10000;\n\t\tswap_fee10000 = _swap_fee10000;\n\t\trequire(_exponent == 1 || _exponent == 2 || _exponent == 4, \"only exponents 1, 2 and 4 are supported\");\n\t\texponent = _exponent;\n\t\tts = block.timestamp;\n\t\t\n\t\t// Get settings from ImportWrapper\n\t\t(address tokenAddr, , , , , ) = ImportWrapper(bridgeAddr).settings();\n\t\ttokenAddress = tokenAddr;\n\t\t\n\t\t// Get the precompile address from the ImportWrapper\n\t\tprecompileAddress = ImportWrapper(bridgeAddr).precompileAddress();\n\t\t\n\t\trequire(tokenAddr != address(0), \"token address cannot be zero\");\n\t\tif (tokenAddr == Counterstake(bridgeAddr).P3D_PRECOMPILE()) {\n\t\t\tIP3D(tokenAddr).approve(bridgeAddr, type(uint).max);\n\t\t} else if (!CounterstakeLibrary.is3DPassERC20Precompile(tokenAddr)) {\n\t\t\t// Only precompiles are supported\n\t\t\trevert(\"unsupported token type\");\n\t\t}\n\t\t\n\t\t\n\t\taddress finalManager = (managerAddr != address(0)) ? managerAddr : msg.sender;\n\t\trequire(finalManager != CounterstakeLibrary.P3D_PRECOMPILE, \"P3D precompile cannot be manager\");\n\t\trequire(!CounterstakeLibrary.is3DPassERC20Precompile(finalManager), \"ERC20 precompile cannot be manager\");\n\t\tmanagerAddress = finalManager;\n\t\tprofit_diffusion_period = default_profit_diffusion_period;\n\t}\n\n\t// Approve bridge to spend this assistant's ERC20 precompile stake token.\n\t// - Manager-only\n\t// - Not applicable to P3D precompile\n\tfunction approvePrecompile() external onlyManager {\n\t\tCounterstakeLibrary.approvePrecompile(tokenAddress, bridgeAddress);\n\t}\n\n\n\t// Only P3D and ERC20 precompiles\n\tfunction getGrossBalance() internal view returns (UintBalance memory bal) {\n\t\tuint stake_bal;\n\t\tif (tokenAddress == Counterstake(bridgeAddress).P3D_PRECOMPILE()) {\n\t\t\tstake_bal = IP3D(tokenAddress).balanceOf(address(this));\n\t\t} else if (CounterstakeLibrary.is3DPassERC20Precompile(tokenAddress)) {\n\t\t\tstake_bal = IPrecompileERC20(tokenAddress).balanceOf(address(this));\n\t\t}\n\n\t\tuint image_bal = IPrecompileERC20(precompileAddress).balanceOf(address(this));\n\t\tbal.stake = stake_bal + balance_in_work.stake;\n\t\tbal.image = image_bal + balance_in_work.image;\n\t}\n\n\tfunction updateMFAndGetBalances(uint just_received_stake_amount, uint just_received_image_amount, bool update) internal returns (UintBalance memory gross_balance, IntBalance memory net_balance) {\n\t\tgross_balance = getGrossBalance();\n\t\tgross_balance.stake -= just_received_stake_amount;\n\t\tgross_balance.image -= just_received_image_amount;\n\t\tuint new_mf_stake = mf.stake + gross_balance.stake * management_fee10000 * (block.timestamp - ts)/(360*24*3600)/1e4;\n\t\tuint new_mf_image = mf.image + gross_balance.image * management_fee10000 * (block.timestamp - ts)/(360*24*3600)/1e4;\n\t\tnet_balance.stake = int(gross_balance.stake) - int(new_mf_stake) - max(profit.stake * int16(success_fee10000)/1e4, 0) - int(network_fee_compensation);\n\t\tnet_balance.image = int(gross_balance.image) - int(new_mf_image) - max(profit.image * int16(success_fee10000)/1e4, 0);\n\t\t// to save gas, we don't update mf when the balances don't change\n\t\tif (update) {\n\t\t\tmf.stake = new_mf_stake;\n\t\t\tmf.image = new_mf_image;\n\t\t\tts = block.timestamp;\n\t\t}\n\t}\n\n\t// part of the profit that has not diffused into the balance available for withdraw yet\n\tfunction getUnavailableProfit() public view returns (UintBalance memory) {\n\t\tuint elapsed = block.timestamp - recent_profit_ts;\n\t\treturn (elapsed >= profit_diffusion_period) \n\t\t\t? UintBalance(0, 0)\n\t\t\t: UintBalance({\n\t\t\t\tstake: recent_profit.stake * (profit_diffusion_period - elapsed) / profit_diffusion_period,\n\t\t\t\timage: recent_profit.image * (profit_diffusion_period - elapsed) / profit_diffusion_period\n\t\t\t});\n\t}\n\n\tfunction addRecentProfit(uint new_stake_profit, uint new_image_profit) internal {\n\t\tUintBalance memory unavailableProfit = getUnavailableProfit();\n\t\trecent_profit.stake = unavailableProfit.stake + new_stake_profit;\n\t\trecent_profit.image = unavailableProfit.image + new_image_profit;\n\t\trecent_profit_ts = block.timestamp;\n\t}\n\t\n\n\tfunction claim(string memory txid, uint32 txts, uint amount, int reward, string memory sender_address, address payable recipient_address, string memory data) onlyManager nonReentrant external {\n\t\tuint initial_gas = gasleft();\n\t\trequire(reward >= 0, \"negative reward\");\n\t\tuint claim_num = ImportWrapper(bridgeAddress).last_claim_num() + 1;\n\t\tuint required_stake = ImportWrapper(bridgeAddress).getRequiredStake(amount);\n\t\tuint paid_amount = amount - uint(reward);\n\t\trequire(required_stake < uint(type(int).max), \"required_stake too large\");\n\t\trequire(paid_amount < uint(type(int).max), \"paid_amount too large\");\n\t\t\n\t\t(, IntBalance memory net_balance) = updateMFAndGetBalances(0, 0, false);\n\t\trequire(net_balance.stake > 0, \"no net balance in stake asset\");\n\t\trequire(net_balance.image > 0, \"no net balance in image asset\");\n\t\trequire(required_stake <= uint(net_balance.stake), \"not enough balance in stake asset\");\n\t\trequire(paid_amount <= uint(net_balance.image), \"not enough balance in image asset\");\n\t\tbalance_in_work.stake += required_stake;\n\n\t\temit NewClaimFor(claim_num, recipient_address, txid, txts, amount, reward, required_stake);\n\n\t\tImportWrapper(bridgeAddress).claim{value: 0}(txid, txts, amount, reward, required_stake, sender_address, recipient_address, data);\n\n\t\t(uint num, uint den) = getOraclePriceOfNative(); // price of P3D in terms of stake token\n\t\tuint remaining_gas = gasleft();\n\t\tuint network_fee = getGasCostInStakeTokens(\n\t\t\tinitial_gas - remaining_gas \n\t\t\t+ 91008 // entry and exit gas (it's larger when the initial network_fee_compensation is 0)\n\t\t\t+ 120000, // withdrawal gas\n\t\t\tnum, den\n\t\t);\n\t\t// use the AMM pool price of stake asset in terms of image asset\n\t\tuint network_fee_in_image_asset = network_fee * uint(net_balance.image) / uint(net_balance.stake);\n\t\trequire(uint(reward) > network_fee_in_image_asset, \"network fee would exceed reward\");\n\t\tnetwork_fee_compensation += network_fee;\n\t\tbalances_in_work[claim_num] = UintBalance({stake: required_stake, image: paid_amount + network_fee_in_image_asset});\n\t\tbalance_in_work.image += paid_amount + network_fee_in_image_asset;\n\t}\n\n\tfunction challenge(uint claim_num, CounterstakeLibrary.Side stake_on, uint stake) onlyManager nonReentrant external {\n\t\tuint initial_gas = gasleft();\n\t\t(, IntBalance memory net_balance) = updateMFAndGetBalances(0, 0, false);\n\t\trequire(net_balance.stake > 0, \"no net balance\");\n\n\t\tuint missing_stake = ImportWrapper(bridgeAddress).getMissingStake(claim_num, stake_on);\n\t\tif (stake == 0 || stake > missing_stake) // send the stake without excess as we can't account for it\n\t\t\tstake = missing_stake;\n\n\t\trequire(stake <= uint(net_balance.stake), \"not enough balance\");\n\t\tImportWrapper(bridgeAddress).challenge{value: 0}(claim_num, stake_on, stake);\n\t\temit AssistantChallenge(claim_num, stake_on, stake);\n\t\t\n\t\t(uint num, uint den) = getOraclePriceOfNative(); // price of P3D in terms of stake token\n\t\tuint remaining_gas = gasleft();\n\t\tuint network_fee = getGasCostInStakeTokens(initial_gas - remaining_gas + 71641 - 15000, num, den);\n\t\tnetwork_fee_compensation += network_fee;\n\t\tbalances_in_work[claim_num].stake += stake + network_fee;\n\t\tbalance_in_work.stake += stake + network_fee;\n\t}\n\n\treceive() external payable onlyETH {\n\t\t// silently receive Ether from claims\n\t}\n\n\tfunction supportsInterface(bytes4 interfaceId) public view virtual override returns (bool) {\n\t\treturn interfaceId == type(CounterstakeReceiver).interfaceId || super.supportsInterface(interfaceId);\n\t}\n\n\tfunction onReceivedFromClaim(uint claim_num, uint claimed_amount, uint won_stake, string memory, address, string memory) onlyBridge override external {\n\t\tUintBalance storage invested = balances_in_work[claim_num];\n\t\trequire(invested.stake > 0, \"BUG: I didn't stake in this claim?\");\n\n\t\treceiveFromClaim(claim_num, claimed_amount, won_stake, invested);\n\t}\n\n\tfunction receiveFromClaim(uint claim_num, uint claimed_amount, uint won_stake, UintBalance storage invested) private {\n\t\tupdateMFAndGetBalances(won_stake, claimed_amount, true); // this is already added to our balance\n\n\t\tuint stake_profit;\n\t\tif (won_stake >= invested.stake){\n\t\t\tstake_profit = won_stake - invested.stake;\n\t\t\trequire(stake_profit < uint(type(int).max), \"stake profit too large\");\n\t\t\tprofit.stake += int(stake_profit);\n\t\t}\n\t\telse { // avoid negative values\n\t\t\tuint loss = invested.stake - won_stake;\n\t\t\trequire(loss < uint(type(int).max), \"stake loss too large\");\n\t\t\tprofit.stake -= int(loss);\n\t\t}\n\n\t\tuint image_profit;\n\t\tif (claimed_amount >= invested.image){\n\t\t\timage_profit = claimed_amount - invested.image;\n\t\t\trequire(image_profit < uint(type(int).max), \"image profit too large\");\n\t\t\tprofit.image += int(image_profit);\n\t\t}\n\t\telse { // avoid negative values\n\t\t\tuint loss = invested.image - claimed_amount;\n\t\t\trequire(loss < uint(type(int).max), \"image loss too large\");\n\t\t\tprofit.image -= int(loss);\n\t\t}\n\n\t\taddRecentProfit(stake_profit, image_profit);\n\n\t\tbalance_in_work.stake -= invested.stake;\n\t\tbalance_in_work.image -= invested.image;\n\t\tdelete balances_in_work[claim_num];\n\t}\n\n\t// Record a loss, called by anybody.\n\t// Should be called only if I staked on the losing side only.\n\t// If I staked on the winning side too, the above function should be called.\n\tfunction recordLoss(uint claim_num) nonReentrant external {\n\t\tupdateMFAndGetBalances(0, 0, true);\n\n\t\tUintBalance storage invested = balances_in_work[claim_num];\n\t\trequire(invested.stake > 0, \"this claim is already accounted for\");\n\t\t\n\t\tCounterstakeLibrary.Claim memory c = ImportWrapper(bridgeAddress).getClaim(claim_num);\n\t\trequire(c.amount > 0, \"no such claim\");\n\t\trequire(block.timestamp > c.expiry_ts, \"not expired yet\");\n\t\tCounterstakeLibrary.Side opposite_outcome = c.current_outcome == CounterstakeLibrary.Side.yes ? CounterstakeLibrary.Side.no : CounterstakeLibrary.Side.yes;\n\t\t\n\t\tuint my_winning_stake = ImportWrapper(bridgeAddress).stakes(claim_num, c.current_outcome, address(this));\n\t\trequire(my_winning_stake == 0, \"have a winning stake in this claim\");\n\t\t\n\t\tuint my_losing_stake = ImportWrapper(bridgeAddress).stakes(claim_num, opposite_outcome, address(this));\n\t\trequire(my_losing_stake > 0, \"no losing stake in this claim\");\n\t\trequire(invested.stake >= my_losing_stake, \"BUG: losing stake mismatch\"); // >= due to network fee\n\n\t\trequire(invested.stake < uint(type(int).max), \"stake loss too large\");\n\t\trequire(invested.image < uint(type(int).max), \"image loss too large\");\n\t\tprofit.stake -= int(invested.stake);\n\t\tprofit.image -= int(invested.image);\n\n\t\tbalance_in_work.stake -= invested.stake;\n\t\tbalance_in_work.image -= invested.image;\n\t\tdelete balances_in_work[claim_num];\n\t}\n\n\t// Record a win, called by anybody.\n\t// Should be called only if I missed onReceivedFromClaim (e.g. due to out-of-gas error).\n\tfunction recordWin(uint claim_num) nonReentrant external {\n\t\tUintBalance storage invested = balances_in_work[claim_num];\n\t\trequire(invested.stake > 0, \"this claim is already accounted for\");\n\t\t\n\t\tCounterstakeLibrary.Claim memory c = ImportWrapper(bridgeAddress).getClaim(claim_num);\n\t\trequire(c.amount > 0, \"no such claim\");\n\t\trequire(c.finished, \"not finished yet\");\n\t\tCounterstakeLibrary.Side opposite_outcome = c.current_outcome == CounterstakeLibrary.Side.yes ? CounterstakeLibrary.Side.no : CounterstakeLibrary.Side.yes;\n\t\t\n\t\tuint my_winning_stake = ImportWrapper(bridgeAddress).stakes(claim_num, c.current_outcome, address(this));\n\t\trequire(my_winning_stake == 0, \"my winning stake is not cleared yet\");\n\t\t\n\t\tuint my_losing_stake = ImportWrapper(bridgeAddress).stakes(claim_num, opposite_outcome, address(this));\n\t\tmy_winning_stake = invested.stake - my_losing_stake; // restore it\n\t\trequire(my_winning_stake > 0, \"I didn't stake on the winning side\");\n\t\t\n\t\tuint winning_stake = c.current_outcome == CounterstakeLibrary.Side.yes ? c.yes_stake : c.no_stake;\n\t\tuint won_stake = (c.yes_stake + c.no_stake) * my_winning_stake / winning_stake;\n\t\tuint claimed_amount = (c.claimant_address == address(this) && c.current_outcome == CounterstakeLibrary.Side.yes) ? c.amount : 0;\n\n\t\treceiveFromClaim(claim_num, claimed_amount, won_stake, invested);\n\t}\n\n\t// share issue/redeem functions\n\n\tfunction buyShares(uint stake_asset_amount, uint image_asset_amount) payable nonReentrant external {\n\t\tif (tokenAddress == Counterstake(bridgeAddress).P3D_PRECOMPILE()) {\n\t\t\trequire(msg.value == 0, \"don't send P3D\");\n\t\t\trequire(IP3D(tokenAddress).transferFrom(msg.sender, address(this), stake_asset_amount), \"P3D transferFrom failed\");\n\t\t} else if (CounterstakeLibrary.is3DPassERC20Precompile(tokenAddress)) {\n\t\t\trequire(msg.value == 0, \"don't send P3D\");\n\t\t\trequire(IPrecompileERC20(tokenAddress).transferFrom(msg.sender, address(this), stake_asset_amount), \"3DPass ERC20 transferFrom failed\");\n\t\t} else {\n\t\t\trevert(\"unsupported token type\");\n\t\t}\n\t\t\n\t\t// Transfer image assets from the precompile\n\t\tif (precompileAddress != address(0) && precompileAddress != Counterstake(bridgeAddress).P3D_PRECOMPILE()) {\n\t\t\trequire(IPrecompileERC20(precompileAddress).transferFrom(msg.sender, address(this), image_asset_amount), \"failed to pull image from precompile\");\n\t\t}\n\n\t\t(UintBalance memory gross_balance, IntBalance memory net_balance) = updateMFAndGetBalances(stake_asset_amount, image_asset_amount, true);\n\t\trequire((gross_balance.stake == 0) == (totalSupply() == 0), \"bad init state\");\n\t\tuint shares_amount;\n\t\tif (totalSupply() == 0){ // initial issue\n\t\t\trequire(stake_asset_amount > 0 && image_asset_amount > 0, \"must supply both assets for initial issue\");\n\t\t\tshares_amount = getShares(stake_asset_amount, image_asset_amount) / 10**(18 - decimals());\n\t\t}\n\t\telse {\n\t\t\trequire(net_balance.stake > 0, \"no stake net balance\");\n\t\t\trequire(net_balance.image > 0, \"no image net balance\");\n\t\t\tuint new_shares_supply = totalSupply() * getShares(uint(net_balance.stake) + stake_asset_amount, uint(net_balance.image) + image_asset_amount) / getShares(uint(net_balance.stake), uint(net_balance.image));\n\t\t\tshares_amount = new_shares_supply - totalSupply();\n\t\t}\n\t\t_mint(msg.sender, shares_amount);\n\n\t\t// this should overflow now, not when we try to redeem. We won't see the error message, will revert while trying to evaluate the expression\n\t\trequire(Math.max(gross_balance.stake + stake_asset_amount, gross_balance.image + image_asset_amount) * totalSupply()**exponent > 0, \"too many shares, would overflow\");\n\t}\n\n\tfunction redeemShares(uint shares_amount) nonReentrant external {\n\t\tuint old_shares_supply = totalSupply();\n\n\t\t_burn(msg.sender, shares_amount);\n\t\t(, IntBalance memory net_balance) = updateMFAndGetBalances(0, 0, true);\n\t\trequire(net_balance.stake > 0, \"negative net balance in stake asset\");\n\t\trequire(net_balance.image > 0, \"negative net balance in image asset\");\n\n\t\tUintBalance memory unavailable_balance = getUnavailableProfit();\n\t\trequire(uint(net_balance.stake) > unavailable_balance.stake, \"net balance too small in stake asset\");\n\t\trequire(uint(net_balance.image) > unavailable_balance.image, \"net balance too small in image asset\");\n\t\tnet_balance.stake -= int(unavailable_balance.stake);\n\t\tnet_balance.image -= int(unavailable_balance.image);\n\t\t\n\t\trequire(uint(net_balance.stake) > balance_in_work.stake, \"negative risk-free net balance in stake asset\");\n\t\trequire(uint(net_balance.image) > balance_in_work.image, \"negative risk-free net balance in image asset\");\n\n\t\t// we charge a swap fee from redemptions, otherwise we leave an opportunity of free swaps by buying and instantly redeeming shares\n\t\t\n\t\tuint stake_asset_amount = (uint(net_balance.stake) - balance_in_work.stake) * (old_shares_supply**exponent - (old_shares_supply - shares_amount)**exponent) / old_shares_supply**exponent;\n\t\tstake_asset_amount -= stake_asset_amount * (swap_fee10000 + exit_fee10000)/10000;\n\n\t\tuint image_asset_amount = (uint(net_balance.image) - balance_in_work.image) * (old_shares_supply**exponent - (old_shares_supply - shares_amount)**exponent) / old_shares_supply**exponent;\n\t\timage_asset_amount -= image_asset_amount * (swap_fee10000 + exit_fee10000)/10000;\n\t\t\n\t\tpayStakeTokens(msg.sender, stake_asset_amount);\n\t\tpayImageTokens(msg.sender, image_asset_amount);\n\t}\n\n\t// swapping functions\n\n\tfunction swapImage2Stake(uint image_asset_amount, uint min_amount_out) nonReentrant external {\n\t\t// Transfer image assets from the precompile\n\t\tif (precompileAddress != address(0) && precompileAddress != Counterstake(bridgeAddress).P3D_PRECOMPILE()) {\n\t\t\trequire(IPrecompileERC20(precompileAddress).transferFrom(msg.sender, address(this), image_asset_amount), \"failed to pull image from precompile\");\n\t\t}\n\n\t\t(, IntBalance memory net_balance) = updateMFAndGetBalances(0, image_asset_amount, false);\n\t\trequire(net_balance.stake > 0, \"negative net balance in stake asset\");\n\t\trequire(net_balance.image > 0, \"negative net balance in image asset\");\n\t\trequire(uint(net_balance.stake) > balance_in_work.stake, \"negative risk-free net balance in stake asset\");\n\n\t\tuint stake_asset_amount = (uint(net_balance.stake) - balance_in_work.stake) * image_asset_amount / (uint(net_balance.image) + image_asset_amount);\n\t\tstake_asset_amount -= stake_asset_amount * swap_fee10000/10000;\n\t\trequire(stake_asset_amount >= min_amount_out, \"would be less than min\");\n\n\t\tpayStakeTokens(msg.sender, stake_asset_amount);\n\t}\n\n\tfunction swapStake2Image(uint stake_asset_amount, uint min_amount_out) payable nonReentrant external {\n\t\tif (tokenAddress == Counterstake(bridgeAddress).P3D_PRECOMPILE()) {\n\t\t\trequire(msg.value == 0, \"don't send P3D\");\n\t\t\trequire(IP3D(tokenAddress).transferFrom(msg.sender, address(this), stake_asset_amount), \"P3D transferFrom failed\");\n\t\t} else if (CounterstakeLibrary.is3DPassERC20Precompile(tokenAddress)) {\n\t\t\trequire(msg.value == 0, \"don't send P3D\");\n\t\t\trequire(IPrecompileERC20(tokenAddress).transferFrom(msg.sender, address(this), stake_asset_amount), \"3DPass ERC20 transferFrom failed\");\n\t\t} else {\n\t\t\trevert(\"unsupported token type\");\n\t\t} \n\n\t\t(, IntBalance memory net_balance) = updateMFAndGetBalances(stake_asset_amount, 0, false);\n\t\trequire(net_balance.stake > 0, \"negative net balance in stake asset\");\n\t\trequire(net_balance.image > 0, \"negative net balance in image asset\");\n\t\trequire(uint(net_balance.image) > balance_in_work.image, \"negative risk-free net balance in image asset\");\n\n\t\tuint image_asset_amount = (uint(net_balance.image) - balance_in_work.image) * stake_asset_amount / (uint(net_balance.stake) + stake_asset_amount);\n\t\timage_asset_amount -= image_asset_amount * swap_fee10000/10000;\n\t\trequire(image_asset_amount >= min_amount_out, \"would be less than min\");\n\n\t\tpayImageTokens(msg.sender, image_asset_amount);\n\t}\n\n\t// manager functions\n\n\tfunction withdrawManagementFee() onlyManager nonReentrant external {\n\t\tupdateMFAndGetBalances(0, 0, true);\n\t\tpayStakeTokens(msg.sender, mf.stake + network_fee_compensation);\n\t\tpayImageTokens(msg.sender, mf.image);\n\t\tmf.stake = 0;\n\t\tmf.image = 0;\n\t\tnetwork_fee_compensation = 0;\n\t}\n\n\tfunction withdrawSuccessFee() onlyManager nonReentrant external {\n\t\tupdateMFAndGetBalances(0, 0, true);\n\t\tif (profit.stake > 0) {\n\t\t\tuint sf = uint(profit.stake) * success_fee10000/1e4;\n\t\t\tpayStakeTokens(msg.sender, sf);\n\t\t\tprofit.stake = 0;\n\t\t}\n\t\tif (profit.image > 0) {\n\t\t\tuint sf = uint(profit.image) * success_fee10000/1e4;\n\t\t\tpayImageTokens(msg.sender, sf);\n\t\t\tprofit.image = 0;\n\t\t}\n\t}\n\n\t// zero address and precompiles are not allowed\n    function assignNewManager(address newManager) onlyManager external {\n\t\trequire(newManager != address(0), \"zero address\");\n\t\trequire(newManager != CounterstakeLibrary.P3D_PRECOMPILE, \"P3D precompile cannot be manager\");\n\t\trequire(!CounterstakeLibrary.is3DPassERC20Precompile(newManager), \"ERC20 precompile cannot be manager\");\n\t\temit NewManager(managerAddress, newManager);\n        managerAddress = newManager;\n    }\n\n\t// governance functions\n\n\tmodifier onlyVotedValueContract(){\n\t\trequire(governance.addressBelongsToGovernance(msg.sender), \"not from voted value contract\");\n\t\t_;\n\t}\n\n\t// would be happy to call this from the constructor but unfortunately `this` is not set at that time yet\n\tfunction setupGovernance(GovernanceFactory governanceFactory, VotedValueFactory votedValueFactory) external {\n\t\trequire(address(governance) == address(0), \"already initialized\");\n\t\tgovernance = governanceFactory.createGovernance(address(this), address(this));\n\n\t\tgovernance.addVotedValue(\"profit_diffusion_period\", votedValueFactory.createVotedValueUint(governance, profit_diffusion_period, this.validateProfitDiffusionPeriod, this.setProfitDiffusionPeriod));\n\t\tgovernance.addVotedValue(\"swap_fee10000\", votedValueFactory.createVotedValueUint(governance, swap_fee10000, this.validateSwapFee, this.setSwapFee));\n\t\tgovernance.addVotedValue(\"exit_fee10000\", votedValueFactory.createVotedValueUint(governance, exit_fee10000, this.validateExitFee, this.setExitFee));\n\t}\n\n\tfunction validateProfitDiffusionPeriod(uint _profit_diffusion_period) pure external {\n\t\trequire(_profit_diffusion_period <= 365 days, \"profit diffusion period too long\");\n\t}\n\n\tfunction setProfitDiffusionPeriod(uint _profit_diffusion_period) onlyVotedValueContract external {\n\t\tprofit_diffusion_period = _profit_diffusion_period;\n\t}\n\n\tfunction validateSwapFee(uint _swap_fee10000) pure external {\n\t\trequire(_swap_fee10000 < 10000, \"bad swap fee\");\n\t}\n\n\tfunction setSwapFee(uint _swap_fee10000) onlyVotedValueContract external {\n\t\tswap_fee10000 = uint16(_swap_fee10000);\n\t}\n\n\tfunction validateExitFee(uint _exit_fee10000) pure external {\n\t\trequire(_exit_fee10000 < 10000, \"bad exit fee\");\n\t}\n\n\tfunction setExitFee(uint _exit_fee10000) onlyVotedValueContract external {\n\t\texit_fee10000 = uint16(_exit_fee10000);\n\t}\n\n\t// helper functions\n\n\tfunction getOraclePriceOfNative() view private returns (uint, uint) {\n\t\tif (tokenAddress == Counterstake(bridgeAddress).P3D_PRECOMPILE())\n\t\t\treturn (1, 1);\n\t\taddress oracleAddr = ImportWrapper(bridgeAddress).oracleAddress();\n\t\tstring memory symbol = CounterstakeLibrary.getPrecompileSymbol(tokenAddress);\n\t\t\n\t\t(uint num, uint den) = IOracle(oracleAddr).getPrice(\"_NATIVE_\", symbol);\n\t\trequire(num > 0, \"price num must be positive\");\n\t\trequire(den > 0, \"price den must be positive\");\n\t\treturn (num, den);\n\t}\n\n\tfunction getGasCostInStakeTokens(uint gas, uint num, uint den) view internal returns (uint) {\n\t\treturn gas * tx.gasprice * num/den;\n\t}\n\n\tfunction payStakeTokens(address to, uint amount) internal {\n\t\tif (tokenAddress == Counterstake(bridgeAddress).P3D_PRECOMPILE())\n\t\t\trequire(IP3D(tokenAddress).transfer(to, amount), \"P3D transfer failed\");\n\t\telse if (CounterstakeLibrary.is3DPassERC20Precompile(tokenAddress))\n\t\t\trequire(IPrecompileERC20(tokenAddress).transfer(to, amount), \"3DPass ERC20 transfer failed\");\n\t\telse\n\t\t\trevert(\"unsupported token type\");\n\t}\n\n\tfunction payImageTokens(address to, uint amount) internal {\n\t\t// Transfer image tokens from the precompile\n\t\tif (precompileAddress != address(0) && precompileAddress != Counterstake(bridgeAddress).P3D_PRECOMPILE()) {\n\t\t\trequire(IPrecompileERC20(precompileAddress).transfer(to, amount), \"failed to transfer image asset from precompile\");\n\t\t}\n\t}\n\n\tfunction getShares(uint stake_balance, uint image_balance) view internal returns (uint) {\n\t\tuint gm = sqrt(stake_balance * image_balance);\n\t\tif (exponent == 1)\n\t\t\treturn gm;\n\t\tif (exponent == 2)\n\t\t\treturn sqrt(gm);\n\t\tif (exponent == 4)\n\t\t\treturn sqrt(sqrt(gm));\n\t\trevert(\"bad exponent\");\n\t}\n\n\t// for large exponents, we need more room to **exponent without overflow\n\tfunction decimals() public view override returns (uint8) {\n\t\treturn exponent > 2 ? 9 : 18;\n\t}\n\n\tfunction max(int a, int b) internal pure returns (int) {\n\t\treturn a > b ? a : b;\n\t}\n\n\t// babylonian method (https://en.wikipedia.org/wiki/Methods_of_computing_square_roots#Babylonian_method)\n\tfunction sqrt(uint y) internal pure returns (uint z) {\n\t\tif (y > 3) {\n\t\t\tz = y;\n\t\t\tuint x = y / 2 + 1;\n\t\t\twhile (x < z) {\n\t\t\t\tz = x;\n\t\t\t\tx = (y / x + x) / 2;\n\t\t\t}\n\t\t} else if (y != 0) {\n\t\t\tz = 1;\n\t\t}\n\t}\n} ",
  "sourcePath": "/Users/jm/3DP-bridge/counterstake-bridge/evm/contracts/ImportWrapperAssistant.sol",
  "compiler": {
    "name": "solc",
    "version": "0.8.13+commit.abaa5c0e.Emscripten.clang"
  },
  "schemaVersion": "3.4.16",
  "updatedAt": "2025-08-19T12:12:03.428Z",
  "devdoc": {
    "kind": "dev",
    "methods": {
      "allowance(address,address)": {
        "details": "See {IERC20-allowance}."
      },
      "approve(address,uint256)": {
        "details": "See {IERC20-approve}. Requirements: - `spender` cannot be the zero address."
      },
      "balanceOf(address)": {
        "details": "See {IERC20-balanceOf}."
      },
      "decimals()": {
        "details": "Returns the number of decimals used to get its user representation. For example, if `decimals` equals `2`, a balance of `505` tokens should be displayed to a user as `5,05` (`505 / 10 ** 2`). Tokens usually opt for a value of 18, imitating the relationship between Ether and Wei. This is the value {ERC20} uses, unless this function is overloaded; NOTE: This information is only used for _display_ purposes: it in no way affects any of the arithmetic of the contract, including {IERC20-balanceOf} and {IERC20-transfer}."
      },
      "decreaseAllowance(address,uint256)": {
        "details": "Atomically decreases the allowance granted to `spender` by the caller. This is an alternative to {approve} that can be used as a mitigation for problems described in {IERC20-approve}. Emits an {Approval} event indicating the updated allowance. Requirements: - `spender` cannot be the zero address. - `spender` must have allowance for the caller of at least `subtractedValue`."
      },
      "increaseAllowance(address,uint256)": {
        "details": "Atomically increases the allowance granted to `spender` by the caller. This is an alternative to {approve} that can be used as a mitigation for problems described in {IERC20-approve}. Emits an {Approval} event indicating the updated allowance. Requirements: - `spender` cannot be the zero address."
      },
      "supportsInterface(bytes4)": {
        "details": "See {IERC165-supportsInterface}."
      },
      "totalSupply()": {
        "details": "See {IERC20-totalSupply}."
      },
      "transfer(address,uint256)": {
        "details": "See {IERC20-transfer}. Requirements: - `recipient` cannot be the zero address. - the caller must have a balance of at least `amount`."
      },
      "transferFrom(address,address,uint256)": {
        "details": "See {IERC20-transferFrom}. Emits an {Approval} event indicating the updated allowance. This is not required by the EIP. See the note at the beginning of {ERC20}. Requirements: - `sender` and `recipient` cannot be the zero address. - `sender` must have a balance of at least `amount`. - the caller must have allowance for ``sender``'s tokens of at least `amount`."
      }
    },
    "version": 1
  },
  "userdoc": {
    "kind": "user",
    "methods": {},
    "version": 1
  }
}