{
  "contractName": "ImportWrapper",
  "abi": [
    {
      "inputs": [
        {
          "internalType": "string",
          "name": "_home_network",
          "type": "string"
        },
        {
          "internalType": "string",
          "name": "_home_asset",
          "type": "string"
        },
        {
          "internalType": "address",
          "name": "_precompileAddress",
          "type": "address"
        },
        {
          "internalType": "address",
          "name": "stakeTokenAddr",
          "type": "address"
        },
        {
          "internalType": "address",
          "name": "oracleAddr",
          "type": "address"
        },
        {
          "internalType": "uint16",
          "name": "_counterstake_coef100",
          "type": "uint16"
        },
        {
          "internalType": "uint16",
          "name": "_ratio100",
          "type": "uint16"
        },
        {
          "internalType": "uint256",
          "name": "_large_threshold",
          "type": "uint256"
        },
        {
          "internalType": "uint256[]",
          "name": "_challenging_periods",
          "type": "uint256[]"
        },
        {
          "internalType": "uint256[]",
          "name": "_large_challenging_periods",
          "type": "uint256[]"
        }
      ],
      "stateMutability": "nonpayable",
      "type": "constructor"
    },
    {
      "anonymous": false,
      "inputs": [
        {
          "indexed": false,
          "internalType": "address",
          "name": "assistant",
          "type": "address"
        },
        {
          "indexed": false,
          "internalType": "address",
          "name": "user",
          "type": "address"
        },
        {
          "indexed": false,
          "internalType": "uint256",
          "name": "stake_amount",
          "type": "uint256"
        },
        {
          "indexed": false,
          "internalType": "uint256",
          "name": "image_amount",
          "type": "uint256"
        }
      ],
      "name": "AssistantTransferExecuted",
      "type": "event"
    },
    {
      "anonymous": false,
      "inputs": [
        {
          "indexed": true,
          "internalType": "uint256",
          "name": "claim_num",
          "type": "uint256"
        },
        {
          "indexed": false,
          "internalType": "enum CounterstakeLibrary.Side",
          "name": "outcome",
          "type": "uint8"
        }
      ],
      "name": "FinishedClaim",
      "type": "event"
    },
    {
      "anonymous": false,
      "inputs": [
        {
          "indexed": true,
          "internalType": "uint256",
          "name": "claim_num",
          "type": "uint256"
        },
        {
          "indexed": false,
          "internalType": "address",
          "name": "author_address",
          "type": "address"
        },
        {
          "indexed": false,
          "internalType": "uint256",
          "name": "stake",
          "type": "uint256"
        },
        {
          "indexed": false,
          "internalType": "enum CounterstakeLibrary.Side",
          "name": "outcome",
          "type": "uint8"
        },
        {
          "indexed": false,
          "internalType": "enum CounterstakeLibrary.Side",
          "name": "current_outcome",
          "type": "uint8"
        },
        {
          "indexed": false,
          "internalType": "uint256",
          "name": "yes_stake",
          "type": "uint256"
        },
        {
          "indexed": false,
          "internalType": "uint256",
          "name": "no_stake",
          "type": "uint256"
        },
        {
          "indexed": false,
          "internalType": "uint32",
          "name": "expiry_ts",
          "type": "uint32"
        },
        {
          "indexed": false,
          "internalType": "uint256",
          "name": "challenging_target",
          "type": "uint256"
        }
      ],
      "name": "NewChallenge",
      "type": "event"
    },
    {
      "anonymous": false,
      "inputs": [
        {
          "indexed": true,
          "internalType": "uint256",
          "name": "claim_num",
          "type": "uint256"
        },
        {
          "indexed": false,
          "internalType": "address",
          "name": "author_address",
          "type": "address"
        },
        {
          "indexed": false,
          "internalType": "string",
          "name": "sender_address",
          "type": "string"
        },
        {
          "indexed": false,
          "internalType": "address",
          "name": "recipient_address",
          "type": "address"
        },
        {
          "indexed": false,
          "internalType": "string",
          "name": "txid",
          "type": "string"
        },
        {
          "indexed": false,
          "internalType": "uint32",
          "name": "txts",
          "type": "uint32"
        },
        {
          "indexed": false,
          "internalType": "uint256",
          "name": "amount",
          "type": "uint256"
        },
        {
          "indexed": false,
          "internalType": "int256",
          "name": "reward",
          "type": "int256"
        },
        {
          "indexed": false,
          "internalType": "uint256",
          "name": "stake",
          "type": "uint256"
        },
        {
          "indexed": false,
          "internalType": "string",
          "name": "data",
          "type": "string"
        },
        {
          "indexed": false,
          "internalType": "uint32",
          "name": "expiry_ts",
          "type": "uint32"
        }
      ],
      "name": "NewClaim",
      "type": "event"
    },
    {
      "anonymous": false,
      "inputs": [
        {
          "indexed": false,
          "internalType": "address",
          "name": "sender_address",
          "type": "address"
        },
        {
          "indexed": false,
          "internalType": "uint256",
          "name": "amount",
          "type": "uint256"
        },
        {
          "indexed": false,
          "internalType": "uint256",
          "name": "reward",
          "type": "uint256"
        },
        {
          "indexed": false,
          "internalType": "string",
          "name": "home_address",
          "type": "string"
        },
        {
          "indexed": false,
          "internalType": "string",
          "name": "data",
          "type": "string"
        }
      ],
      "name": "NewRepatriation",
      "type": "event"
    },
    {
      "inputs": [],
      "name": "P3D_PRECOMPILE",
      "outputs": [
        {
          "internalType": "address",
          "name": "",
          "type": "address"
        }
      ],
      "stateMutability": "view",
      "type": "function"
    },
    {
      "inputs": [
        {
          "internalType": "uint256",
          "name": "claim_num",
          "type": "uint256"
        },
        {
          "internalType": "enum CounterstakeLibrary.Side",
          "name": "stake_on",
          "type": "uint8"
        },
        {
          "internalType": "uint256",
          "name": "stake",
          "type": "uint256"
        }
      ],
      "name": "challenge",
      "outputs": [],
      "stateMutability": "payable",
      "type": "function"
    },
    {
      "inputs": [
        {
          "internalType": "string",
          "name": "claim_id",
          "type": "string"
        },
        {
          "internalType": "enum CounterstakeLibrary.Side",
          "name": "stake_on",
          "type": "uint8"
        },
        {
          "internalType": "uint256",
          "name": "stake",
          "type": "uint256"
        }
      ],
      "name": "challenge",
      "outputs": [],
      "stateMutability": "payable",
      "type": "function"
    },
    {
      "inputs": [
        {
          "internalType": "string",
          "name": "txid",
          "type": "string"
        },
        {
          "internalType": "uint32",
          "name": "txts",
          "type": "uint32"
        },
        {
          "internalType": "uint256",
          "name": "amount",
          "type": "uint256"
        },
        {
          "internalType": "int256",
          "name": "reward",
          "type": "int256"
        },
        {
          "internalType": "uint256",
          "name": "stake",
          "type": "uint256"
        },
        {
          "internalType": "string",
          "name": "sender_address",
          "type": "string"
        },
        {
          "internalType": "address payable",
          "name": "recipient_address",
          "type": "address"
        },
        {
          "internalType": "string",
          "name": "data",
          "type": "string"
        }
      ],
      "name": "claim",
      "outputs": [],
      "stateMutability": "payable",
      "type": "function"
    },
    {
      "inputs": [
        {
          "internalType": "string",
          "name": "",
          "type": "string"
        }
      ],
      "name": "claim_nums",
      "outputs": [
        {
          "internalType": "uint256",
          "name": "",
          "type": "uint256"
        }
      ],
      "stateMutability": "view",
      "type": "function"
    },
    {
      "inputs": [
        {
          "internalType": "uint16",
          "name": "period_number",
          "type": "uint16"
        },
        {
          "internalType": "bool",
          "name": "bLarge",
          "type": "bool"
        }
      ],
      "name": "getChallengingPeriod",
      "outputs": [
        {
          "internalType": "uint256",
          "name": "",
          "type": "uint256"
        }
      ],
      "stateMutability": "view",
      "type": "function"
    },
    {
      "inputs": [
        {
          "internalType": "string",
          "name": "claim_id",
          "type": "string"
        }
      ],
      "name": "getClaim",
      "outputs": [
        {
          "components": [
            {
              "internalType": "uint256",
              "name": "amount",
              "type": "uint256"
            },
            {
              "internalType": "address payable",
              "name": "recipient_address",
              "type": "address"
            },
            {
              "internalType": "uint32",
              "name": "txts",
              "type": "uint32"
            },
            {
              "internalType": "uint32",
              "name": "ts",
              "type": "uint32"
            },
            {
              "internalType": "address payable",
              "name": "claimant_address",
              "type": "address"
            },
            {
              "internalType": "uint32",
              "name": "expiry_ts",
              "type": "uint32"
            },
            {
              "internalType": "uint16",
              "name": "period_number",
              "type": "uint16"
            },
            {
              "internalType": "enum CounterstakeLibrary.Side",
              "name": "current_outcome",
              "type": "uint8"
            },
            {
              "internalType": "bool",
              "name": "is_large",
              "type": "bool"
            },
            {
              "internalType": "bool",
              "name": "withdrawn",
              "type": "bool"
            },
            {
              "internalType": "bool",
              "name": "finished",
              "type": "bool"
            },
            {
              "internalType": "string",
              "name": "sender_address",
              "type": "string"
            },
            {
              "internalType": "string",
              "name": "data",
              "type": "string"
            },
            {
              "internalType": "uint256",
              "name": "yes_stake",
              "type": "uint256"
            },
            {
              "internalType": "uint256",
              "name": "no_stake",
              "type": "uint256"
            }
          ],
          "internalType": "struct CounterstakeLibrary.Claim",
          "name": "",
          "type": "tuple"
        }
      ],
      "stateMutability": "view",
      "type": "function"
    },
    {
      "inputs": [
        {
          "internalType": "uint256",
          "name": "claim_num",
          "type": "uint256"
        }
      ],
      "name": "getClaim",
      "outputs": [
        {
          "components": [
            {
              "internalType": "uint256",
              "name": "amount",
              "type": "uint256"
            },
            {
              "internalType": "address payable",
              "name": "recipient_address",
              "type": "address"
            },
            {
              "internalType": "uint32",
              "name": "txts",
              "type": "uint32"
            },
            {
              "internalType": "uint32",
              "name": "ts",
              "type": "uint32"
            },
            {
              "internalType": "address payable",
              "name": "claimant_address",
              "type": "address"
            },
            {
              "internalType": "uint32",
              "name": "expiry_ts",
              "type": "uint32"
            },
            {
              "internalType": "uint16",
              "name": "period_number",
              "type": "uint16"
            },
            {
              "internalType": "enum CounterstakeLibrary.Side",
              "name": "current_outcome",
              "type": "uint8"
            },
            {
              "internalType": "bool",
              "name": "is_large",
              "type": "bool"
            },
            {
              "internalType": "bool",
              "name": "withdrawn",
              "type": "bool"
            },
            {
              "internalType": "bool",
              "name": "finished",
              "type": "bool"
            },
            {
              "internalType": "string",
              "name": "sender_address",
              "type": "string"
            },
            {
              "internalType": "string",
              "name": "data",
              "type": "string"
            },
            {
              "internalType": "uint256",
              "name": "yes_stake",
              "type": "uint256"
            },
            {
              "internalType": "uint256",
              "name": "no_stake",
              "type": "uint256"
            }
          ],
          "internalType": "struct CounterstakeLibrary.Claim",
          "name": "",
          "type": "tuple"
        }
      ],
      "stateMutability": "view",
      "type": "function"
    },
    {
      "inputs": [
        {
          "internalType": "uint256",
          "name": "claim_num",
          "type": "uint256"
        },
        {
          "internalType": "enum CounterstakeLibrary.Side",
          "name": "stake_on",
          "type": "uint8"
        }
      ],
      "name": "getMissingStake",
      "outputs": [
        {
          "internalType": "uint256",
          "name": "",
          "type": "uint256"
        }
      ],
      "stateMutability": "view",
      "type": "function"
    },
    {
      "inputs": [],
      "name": "getOngoingClaimNums",
      "outputs": [
        {
          "internalType": "uint64[]",
          "name": "",
          "type": "uint64[]"
        }
      ],
      "stateMutability": "view",
      "type": "function"
    },
    {
      "inputs": [],
      "name": "governance",
      "outputs": [
        {
          "internalType": "contract Governance",
          "name": "",
          "type": "address"
        }
      ],
      "stateMutability": "view",
      "type": "function"
    },
    {
      "inputs": [],
      "name": "home_asset",
      "outputs": [
        {
          "internalType": "string",
          "name": "",
          "type": "string"
        }
      ],
      "stateMutability": "view",
      "type": "function"
    },
    {
      "inputs": [],
      "name": "home_network",
      "outputs": [
        {
          "internalType": "string",
          "name": "",
          "type": "string"
        }
      ],
      "stateMutability": "view",
      "type": "function"
    },
    {
      "inputs": [
        {
          "internalType": "address",
          "name": "_tokenAddr",
          "type": "address"
        },
        {
          "internalType": "uint16",
          "name": "_counterstake_coef100",
          "type": "uint16"
        },
        {
          "internalType": "uint16",
          "name": "_ratio100",
          "type": "uint16"
        },
        {
          "internalType": "uint256",
          "name": "_large_threshold",
          "type": "uint256"
        },
        {
          "internalType": "uint256[]",
          "name": "_challenging_periods",
          "type": "uint256[]"
        },
        {
          "internalType": "uint256[]",
          "name": "_large_challenging_periods",
          "type": "uint256[]"
        }
      ],
      "name": "initCounterstake",
      "outputs": [],
      "stateMutability": "nonpayable",
      "type": "function"
    },
    {
      "inputs": [],
      "name": "last_claim_num",
      "outputs": [
        {
          "internalType": "uint64",
          "name": "",
          "type": "uint64"
        }
      ],
      "stateMutability": "view",
      "type": "function"
    },
    {
      "inputs": [],
      "name": "min_price20",
      "outputs": [
        {
          "internalType": "uint256",
          "name": "",
          "type": "uint256"
        }
      ],
      "stateMutability": "view",
      "type": "function"
    },
    {
      "inputs": [
        {
          "internalType": "uint256",
          "name": "",
          "type": "uint256"
        }
      ],
      "name": "num2index",
      "outputs": [
        {
          "internalType": "uint256",
          "name": "",
          "type": "uint256"
        }
      ],
      "stateMutability": "view",
      "type": "function"
    },
    {
      "inputs": [
        {
          "internalType": "uint256",
          "name": "",
          "type": "uint256"
        }
      ],
      "name": "ongoing_claim_nums",
      "outputs": [
        {
          "internalType": "uint64",
          "name": "",
          "type": "uint64"
        }
      ],
      "stateMutability": "view",
      "type": "function"
    },
    {
      "inputs": [],
      "name": "oracleAddress",
      "outputs": [
        {
          "internalType": "address",
          "name": "",
          "type": "address"
        }
      ],
      "stateMutability": "view",
      "type": "function"
    },
    {
      "inputs": [],
      "name": "precompileAddress",
      "outputs": [
        {
          "internalType": "address",
          "name": "",
          "type": "address"
        }
      ],
      "stateMutability": "view",
      "type": "function"
    },
    {
      "inputs": [
        {
          "internalType": "uint256[]",
          "name": "_challenging_periods",
          "type": "uint256[]"
        }
      ],
      "name": "setChallengingPeriods",
      "outputs": [],
      "stateMutability": "nonpayable",
      "type": "function"
    },
    {
      "inputs": [
        {
          "internalType": "uint256",
          "name": "_counterstake_coef100",
          "type": "uint256"
        }
      ],
      "name": "setCounterstakeCoef",
      "outputs": [],
      "stateMutability": "nonpayable",
      "type": "function"
    },
    {
      "inputs": [
        {
          "internalType": "uint256[]",
          "name": "_large_challenging_periods",
          "type": "uint256[]"
        }
      ],
      "name": "setLargeChallengingPeriods",
      "outputs": [],
      "stateMutability": "nonpayable",
      "type": "function"
    },
    {
      "inputs": [
        {
          "internalType": "uint256",
          "name": "_large_threshold",
          "type": "uint256"
        }
      ],
      "name": "setLargeThreshold",
      "outputs": [],
      "stateMutability": "nonpayable",
      "type": "function"
    },
    {
      "inputs": [
        {
          "internalType": "uint256",
          "name": "_min_stake",
          "type": "uint256"
        }
      ],
      "name": "setMinStake",
      "outputs": [],
      "stateMutability": "nonpayable",
      "type": "function"
    },
    {
      "inputs": [
        {
          "internalType": "uint256",
          "name": "_min_tx_age",
          "type": "uint256"
        }
      ],
      "name": "setMinTxAge",
      "outputs": [],
      "stateMutability": "nonpayable",
      "type": "function"
    },
    {
      "inputs": [
        {
          "internalType": "uint256",
          "name": "_ratio100",
          "type": "uint256"
        }
      ],
      "name": "setRatio",
      "outputs": [],
      "stateMutability": "nonpayable",
      "type": "function"
    },
    {
      "inputs": [],
      "name": "settings",
      "outputs": [
        {
          "internalType": "address",
          "name": "tokenAddress",
          "type": "address"
        },
        {
          "internalType": "uint16",
          "name": "ratio100",
          "type": "uint16"
        },
        {
          "internalType": "uint16",
          "name": "counterstake_coef100",
          "type": "uint16"
        },
        {
          "internalType": "uint32",
          "name": "min_tx_age",
          "type": "uint32"
        },
        {
          "internalType": "uint256",
          "name": "min_stake",
          "type": "uint256"
        },
        {
          "internalType": "uint256",
          "name": "large_threshold",
          "type": "uint256"
        }
      ],
      "stateMutability": "view",
      "type": "function"
    },
    {
      "inputs": [
        {
          "internalType": "uint256",
          "name": "",
          "type": "uint256"
        },
        {
          "internalType": "enum CounterstakeLibrary.Side",
          "name": "",
          "type": "uint8"
        },
        {
          "internalType": "address",
          "name": "",
          "type": "address"
        }
      ],
      "name": "stakes",
      "outputs": [
        {
          "internalType": "uint256",
          "name": "",
          "type": "uint256"
        }
      ],
      "stateMutability": "view",
      "type": "function"
    },
    {
      "inputs": [
        {
          "internalType": "uint256[]",
          "name": "periods",
          "type": "uint256[]"
        }
      ],
      "name": "validateChallengingPeriods",
      "outputs": [],
      "stateMutability": "pure",
      "type": "function"
    },
    {
      "inputs": [
        {
          "internalType": "uint256",
          "name": "_counterstake_coef100",
          "type": "uint256"
        }
      ],
      "name": "validateCounterstakeCoef",
      "outputs": [],
      "stateMutability": "pure",
      "type": "function"
    },
    {
      "inputs": [
        {
          "internalType": "uint256",
          "name": "_large_threshold",
          "type": "uint256"
        }
      ],
      "name": "validateLargeThreshold",
      "outputs": [],
      "stateMutability": "pure",
      "type": "function"
    },
    {
      "inputs": [
        {
          "internalType": "uint256",
          "name": "_min_stake",
          "type": "uint256"
        }
      ],
      "name": "validateMinStake",
      "outputs": [],
      "stateMutability": "pure",
      "type": "function"
    },
    {
      "inputs": [
        {
          "internalType": "uint256",
          "name": "_min_tx_age",
          "type": "uint256"
        }
      ],
      "name": "validateMinTxAge",
      "outputs": [],
      "stateMutability": "pure",
      "type": "function"
    },
    {
      "inputs": [
        {
          "internalType": "uint256",
          "name": "_ratio100",
          "type": "uint256"
        }
      ],
      "name": "validateRatio",
      "outputs": [],
      "stateMutability": "pure",
      "type": "function"
    },
    {
      "inputs": [
        {
          "internalType": "uint256",
          "name": "claim_num",
          "type": "uint256"
        },
        {
          "internalType": "address payable",
          "name": "to_address",
          "type": "address"
        }
      ],
      "name": "withdraw",
      "outputs": [],
      "stateMutability": "nonpayable",
      "type": "function"
    },
    {
      "inputs": [
        {
          "internalType": "uint256",
          "name": "claim_num",
          "type": "uint256"
        }
      ],
      "name": "withdraw",
      "outputs": [],
      "stateMutability": "nonpayable",
      "type": "function"
    },
    {
      "inputs": [
        {
          "internalType": "string",
          "name": "claim_id",
          "type": "string"
        }
      ],
      "name": "withdraw",
      "outputs": [],
      "stateMutability": "nonpayable",
      "type": "function"
    },
    {
      "inputs": [
        {
          "internalType": "string",
          "name": "claim_id",
          "type": "string"
        },
        {
          "internalType": "address payable",
          "name": "to_address",
          "type": "address"
        }
      ],
      "name": "withdraw",
      "outputs": [],
      "stateMutability": "nonpayable",
      "type": "function"
    },
    {
      "inputs": [
        {
          "internalType": "string",
          "name": "_home_network",
          "type": "string"
        },
        {
          "internalType": "string",
          "name": "_home_asset",
          "type": "string"
        },
        {
          "internalType": "address",
          "name": "_precompileAddress",
          "type": "address"
        },
        {
          "internalType": "address",
          "name": "oracleAddr",
          "type": "address"
        }
      ],
      "name": "initImportWrapper",
      "outputs": [],
      "stateMutability": "nonpayable",
      "type": "function"
    },
    {
      "inputs": [
        {
          "internalType": "contract GovernanceFactory",
          "name": "governanceFactory",
          "type": "address"
        },
        {
          "internalType": "contract VotedValueFactory",
          "name": "votedValueFactory",
          "type": "address"
        }
      ],
      "name": "setupGovernance",
      "outputs": [],
      "stateMutability": "nonpayable",
      "type": "function"
    },
    {
      "inputs": [
        {
          "internalType": "address",
          "name": "oracleAddr",
          "type": "address"
        }
      ],
      "name": "validateOracle",
      "outputs": [],
      "stateMutability": "view",
      "type": "function"
    },
    {
      "inputs": [
        {
          "internalType": "address",
          "name": "oracleAddr",
          "type": "address"
        }
      ],
      "name": "setOracle",
      "outputs": [],
      "stateMutability": "nonpayable",
      "type": "function"
    },
    {
      "inputs": [
        {
          "internalType": "uint256",
          "name": "_min_price20",
          "type": "uint256"
        }
      ],
      "name": "validateMinPrice",
      "outputs": [],
      "stateMutability": "pure",
      "type": "function"
    },
    {
      "inputs": [
        {
          "internalType": "uint256",
          "name": "_min_price20",
          "type": "uint256"
        }
      ],
      "name": "setMinPrice",
      "outputs": [],
      "stateMutability": "nonpayable",
      "type": "function"
    },
    {
      "inputs": [],
      "name": "setupPrecompileRoles",
      "outputs": [],
      "stateMutability": "nonpayable",
      "type": "function"
    },
    {
      "inputs": [
        {
          "internalType": "string",
          "name": "name",
          "type": "string"
        },
        {
          "internalType": "string",
          "name": "symbol",
          "type": "string"
        },
        {
          "internalType": "uint8",
          "name": "decimals",
          "type": "uint8"
        }
      ],
      "name": "setPrecompileMetadata",
      "outputs": [],
      "stateMutability": "nonpayable",
      "type": "function"
    },
    {
      "inputs": [
        {
          "internalType": "string",
          "name": "home_address",
          "type": "string"
        },
        {
          "internalType": "string",
          "name": "data",
          "type": "string"
        },
        {
          "internalType": "uint256",
          "name": "amount",
          "type": "uint256"
        },
        {
          "internalType": "uint256",
          "name": "reward",
          "type": "uint256"
        }
      ],
      "name": "transferToHomeChain",
      "outputs": [],
      "stateMutability": "nonpayable",
      "type": "function"
    },
    {
      "inputs": [
        {
          "internalType": "uint256",
          "name": "amount",
          "type": "uint256"
        }
      ],
      "name": "getRequiredStake",
      "outputs": [
        {
          "internalType": "uint256",
          "name": "",
          "type": "uint256"
        }
      ],
      "stateMutability": "view",
      "type": "function"
    }
  ],
  "bytecode": "0x6080806040523462000111576200631a803803809162000020828562000150565b833981019061014081830312620001115780516001600160401b03929083811162000111578162000053918401620001cd565b9160208101518481116200011157826200006f918301620001cd565b6200007d6040830162000239565b6200008b6060840162000239565b620000996080850162000239565b90620000a860a086016200024e565b92620000b760c087016200024e565b9460e0870151966101008101518b8111620001115789620000da9183016200025e565b986101208201519b8c116200011157620001019b620000fa92016200025e565b98620002dc565b604051614f379081620013c38239f35b600080fd5b50634e487b7160e01b600052604160045260246000fd5b6001600160401b0381116200014157604052565b6200014b62000116565b604052565b601f909101601f19168101906001600160401b038211908210176200014157604052565b6040519061010082016001600160401b038111838210176200014157604052565b918091926000905b828210620001b7575011620001b0575050565b6000910152565b915080602091830151818601520182916200019d565b81601f82011215620001115780516001600160401b03811162000229575b6040519262000205601f8301601f19166020018562000150565b81845260208284010111620001115762000226916020808501910162000195565b90565b6200023362000116565b620001eb565b51906001600160a01b03821682036200011157565b519061ffff821682036200011157565b9080601f8301121562000111578151906001600160401b038211620002cc575b8160051b60405193602093620002978584018762000150565b8552838086019282010192831162000111578301905b828210620002bc575050505090565b81518152908301908301620002ad565b620002d662000116565b6200027e565b6001600081905554620003c79a9599939892979196620003c1969394926200039e9262000313906001600160a01b031615620003e0565b61ffff91606483831693620003288562000660565b82166200033581620006b2565b620003408762000732565b6200034b8862000732565b620003568a620007e0565b1115620003d657915b15620003c95762000393905b620003886200037962000174565b6001600160a01b039099168952565b61ffff166020880152565b61ffff166040860152565b600060608501526000608085015260a084015260c083015260e0820152620005b6565b62000b3d565b565b506200039360646200036b565b506096916200035f565b15620003e857565b60405162461bcd60e51b815260206004820152601360248201527f616c726561647920696e697469616c697a6564000000000000000000000000006044820152606490fd5b81811062000439575050565b600081556001016200042d565b805190680100000000000000008211620004ff575b60045482600455808310620004c1575b5060046000908152906020907f8a35acfbc15ff81a39ae7d344fd709f28e8600b4aa8c65c6b64bfe7fe36bd19b9082015b848410620004ab575050505050565b600183828293518555019201930192906200049c565b6004600052620004f8907f8a35acfbc15ff81a39ae7d344fd709f28e8600b4aa8c65c6b64bfe7fe36bd19b9081019084016200042d565b386200046b565b6200050962000116565b6200045b565b805190680100000000000000008211620005a6575b6005548260055580831062000579575b506005600090815290602090600080516020620062fa8339815191529082015b84841062000563575050505050565b6001838282935185550192019301929062000554565b60056000526200059f90600080516020620062fa8339815191529081019084016200042d565b3862000534565b620005b062000116565b62000524565b60e09060018060a01b038151166002549060208301519061ffff60b01b604085015160b01b169260018060c01b031916179061ffff60a01b9060a01b161717600255620006336200060e606083015163ffffffff1690565b6002805463ffffffff60c01b191660c09290921b63ffffffff60c01b16919091179055565b60808101516003556200064a60a082015162000446565b6200065960c08201516200050f565b0151600655565b8015159081620006a5575b50156200067457565b60405162461bcd60e51b815260206004820152600960248201526862616420726174696f60b81b6044820152606490fd5b61fa00915010386200066b565b6064811190816200070c575b5015620006c757565b60405162461bcd60e51b815260206004820152601560248201527f62616420636f756e7465727374616b6520636f656600000000000000000000006044820152606490fd5b61fa0091501038620006be565b60009103126200011157565b506040513d6000823e3d90fd5b73__CounterstakeLibrary___________________803b1562000111576040518092636a5106d560e11b8252602482016020908160048501528251809152816044850193019160005b828110620007c8575050505091818060009403915af48015620007b8575b620007a15750565b80620007b1620003c7926200012d565b8062000719565b620007c262000725565b62000799565b8351855287955093810193928101926001016200077b565b6001600160a01b03811661080214620008805760801c63ffffffff1663fbfbfbfa14620003c75760405162461bcd60e51b815260206004820152604560248201527f756e737570706f7274656420746f6b656e20747970653a206f6e6c792050334460448201527f20616e642033445061737320455243323020707265636f6d70696c657320616c6064820152641b1bddd95960da1b608482015260a490fd5b50565b90600182811c92168015620008b5575b60208310146200089f57565b634e487b7160e01b600052602260045260246000fd5b91607f169162000893565b90601f8211620008ce575050565b620003c791600f6000526020600020906020601f840160051c83019310620008ff575b601f0160051c01906200042d565b9091508190620008f1565b90601f821162000918575050565b620003c79160106000526020600020906020601f840160051c83019310620008ff57601f0160051c01906200042d565b80519091906001600160401b03811162000a3c575b62000975816200096f60105462000883565b6200090a565b602080601f8311600114620009b45750819293600092620009a8575b50508160011b916000199060031b1c191617601055565b01519050388062000991565b6010600052601f198316949091907f1b6847dc741a1b0cd08d278845f9d819d87b734759afb55fe2de5cb82a9ae672926000905b87821062000a2357505083600195961062000a09575b505050811b01601055565b015160001960f88460031b161c19169055388080620009fe565b80600185968294968601518155019501930190620009e8565b62000a4662000116565b6200095d565b1562000a5457565b60405162461bcd60e51b815260206004820152602160248201527f707265636f6d70696c6520616464726573732063616e6e6f74206265207a65726044820152606f60f81b6064820152608490fd5b1562000aab57565b60405162461bcd60e51b815260206004820152601d60248201527f63616e6e6f74207573652050334420617320696d6167652061737365740000006044820152606490fd5b1562000af857565b60405162461bcd60e51b815260206004820152601a60248201527f696e76616c696420707265636f6d70696c6520616464726573730000000000006044820152606490fd5b600180546001600160a01b039392919062000b5b90851615620003e0565b600d80546001600160a01b0319168786161790558151916001600160401b03831162000cf1575b62000b9a8362000b94600f5462000883565b620008c0565b60209081601f851160011462000c42575062000c309562000bf363fbfbfbfa96868063ffffffff98620003c79d9c9862000c25986108029860009462000c36575b50501b916000199060031b1c191617600f5562000948565b601180546001600160a01b0319166001600160a01b038616179055831662000c1d81151562000a4c565b141562000aa3565b60801c161462000af0565b62000e93565b01519250388062000bdb565b600f6000529293929190601f1984167f8d1108e10bcb7c27dddfc02ed9d693a074039d026cf4ea4240b40f7d581ac802936000905b82821062000cd957505063fbfbfbfa9663ffffffff968662000c25966108029662000c309c96620003c79f9e9a62000bf3971062000cbf575b505050811b01600f5562000948565b015160001960f88460031b161c1916905538808062000cb0565b80888697829497870151815501960194019062000c77565b62000cfb62000116565b62000b82565b1562000d0957565b60405162461bcd60e51b815260206004820152601d60248201527f6f7261636c652063616e6e6f74206265207a65726f20616464726573730000006044820152606490fd5b1562000d5657565b60405162461bcd60e51b815260206004820152601f60248201527f6f7261636c652063616e6e6f742062652050334420707265636f6d70696c65006044820152606490fd5b1562000da357565b60405162461bcd60e51b815260206004820152602160248201527f6f7261636c652063616e6e6f7420626520455243323020707265636f6d70696c6044820152606560f81b6064820152608490fd5b908160209103126200011157518015158103620001115790565b1562000e1457565b60405162461bcd60e51b815260206004820152600a602482015269626164206f7261636c6560b01b6044820152606490fd5b1562000e4e57565b60405162461bcd60e51b815260206004820152601460248201527f6e6f2070726963652066726f6d206f7261636c650000000000000000000000006044820152606490fd5b620003c79062000f3b9062000ec36108026001600160a01b03831662000ebb81151562000d01565b141562000d4e565b62000ede63fbfbfbfa63ffffffff8360801c16141562000d9b565b604051631627905560e01b81526001600160a01b038216600482015262000f359060208160248173__CounterstakeLibrary___________________5af490811562000f8e575b60009162000f59575b5062000e0c565b620011b2565b90159081159162000f4e575b5062000e46565b905015153862000f47565b62000f7f915060203d811162000f86575b62000f76818362000150565b81019062000df2565b3862000f2e565b503d62000f6a565b62000f9862000725565b62000f25565b6010546000929162000fb08262000883565b9160019081811690811562001005575060011462000fcd57505050565b9091929350601060005260209081600020906000915b85831062000ff357505050500190565b80548584015291830191810162000fe3565b60ff191683525050019150565b60408051636261736560e01b60208201908152600482529181016001600160401b0381118282101762001049575b60405251902090565b6200105362000116565b62001040565b60405160208101907f30783030303030303030303030303030303030303030303030303030303030308252690303030303030303030360b41b6040820152602a81526060810181811060018060401b03821117620010495760405251902090565b919082604091031262000111576020825192015190565b90602091620010ec8151809281855285808601910162000195565b601f01601f1916010190565b9092916040825260009184546200110f8162000883565b95866040840152600191828116908160001462001190575060011462001147575b5050620002269394506020818403910152620010d1565b9095919350600052602080600020956000965b8388106200117b575050505060606200022693948301019184933862001130565b8054868901606001529682019681016200115a565b60ff191660608501525094955085945050608081019250620002263862001130565b906040620012399281516020810190620011e081620011d18462000f9e565b03601f19810183528262000150565b519020600254909190620011fd906001600160a01b0316620012e8565b916200120862001012565b8114908115620012ab575b5015620012a357600f5b8351809681948293631e879a6d60e11b845260048401620010f8565b03916001600160a01b03165afa91821562001293575b60009081936200125e57509190565b90506200128791925060403d81116200128b575b6200127e818362000150565b810190620010ba565b9091565b503d62001272565b6200129d62000725565b6200124f565b60106200121d565b9050620012b762001059565b143862001213565b90602082820312620001115781516001600160401b0381116200011157620002269201620001cd565b6004906000906001600160a01b0381169061080282036200135c57506040516395d89b4160e01b815292839182905afa9081156200134c575b6000916200132d575090565b62000226913d8091833e62001343818362000150565b810190620012bf565b6200135662000725565b62001321565b60801c63ffffffff1663fbfbfbfa1482146200139a576040516395d89b4160e01b815292839182905afa9081156200134c576000916200132d575090565b6040516395d89b4160e01b815292839182905afa9081156200134c576000916200132d57509056fe60806040526004361015610013575b600080fd5b60003560e01c8062f714ce146103d457806309a2b0db146103cb578063170fd338146103b957806323b02589146103b9578063250a9904146103c25780632895febe146103b957806329b4c3d2146103b05780632bb81546146103a75780632d59457f1461039e5780632dcddf82146103955780632e1a7d4d1461038c5780632ec6a9ca1461038357806331fb67c21461037a5780633fd41d161461037157806348dfac50146103685780634dad247f1461035f578063506d3c4314610356578063559dba011461034d578063569f7a151461034457806358ce7fe41461033b5780635aa6e675146103325780635ad95ef2146103295780635aef2447146103205780635ea8cd12146103175780636255c2721461030e578063765ef822146103055780637adbf973146102fc57806389e4ae1c146102f35780638c80fd90146102ea578063969117ed146102e15780639bf31f5b146102d85780639d988a36146102cf578063a2f6255a146102c6578063a5dd3215146102bd578063a89ae4ba146102b4578063a8b6cf6c146102ab578063b2237ba3146102a2578063be47b67614610299578063c08d524014610290578063c0bce03214610287578063cecc131c1461027e578063d4a20daa14610275578063d9d7e8431461026c578063dce6636c14610263578063dd48622e1461025a578063e06174e414610251578063e706767a14610248578063ebcdac021461023f5763fcddcb2f1461023757600080fd5b61000e612327565b5061000e6122d0565b5061000e612187565b5061000e612129565b5061000e6120db565b5061000e6120b4565b5061000e611f50565b5061000e611ef5565b5061000e611e91565b5061000e611dfe565b5061000e611d8d565b5061000e611d63565b5061000e611cff565b5061000e611c72565b5061000e611c48565b5061000e611c22565b5061000e611b56565b5061000e611a44565b5061000e611a09565b5061000e61191c565b5061000e6118b5565b5061000e6117d3565b5061000e611755565b5061000e6116f8565b5061000e61169b565b5061000e61163e565b5061000e611606565b5061000e611335565b5061000e61130b565b5061000e611248565b5061000e611181565b5061000e611164565b5061000e611146565b5061000e61106a565b5061000e610fde565b5061000e610fbf565b5061000e610f9c565b5061000e610f1e565b5061000e610db0565b5061000e610cbb565b5061000e610c74565b5061000e610b21565b5061000e610818565b5061000e61061e565b5061000e61079d565b5061000e6105f4565b5061000e610409565b6001600160a01b031690565b6001600160a01b0381160361000e57565b60c43590610407826103e9565b565b503461000e57604036600319011261000e576104d560043560243561042d816103e9565b610435612ebd565b6001600160a01b038116156105d5575b610450821515612f13565b61045982610efe565b9061046682541515612abd565b6040516354513b1560e01b8152916060838061048785888660048501612f80565b038173__CounterstakeLibrary___________________5af49283156105c8575b600080918195610594575b506104e9575b600090156104e1575054905b6104d0838383614b80565b6131a5565b6104df6001600055565b005b9050906104c5565b6104f285610f0e565b546104fe600854612b19565b90818103610522575b5050610511612feb565b600061051c86610f0e565b556104b9565b61056561055461053f8461053a61058d968610612fa8565b61228b565b905460039190911b1c6001600160401b031690565b918061055f84612dd0565b5561228b565b9080546001600160401b0360039390931b83811b80199092169390941690931b909216179055565b3880610507565b9150506105b991935060603d81116105c1575b6105b181836106a6565b810190612f53565b9391386104b3565b503d6105a7565b6105d061296c565b6104a8565b5033610445565b600091031261000e57565b6001600160401b03169052565b503461000e57600036600319011261000e576007546040516001600160401b039091168152602090f35b503461000e57602036600319011261000e57005b6044359061ffff8216820361000e57565b6004359061ffff8216820361000e57565b50634e487b7160e01b600052604160045260246000fd5b6001600160401b03811161067e57604052565b610686610654565b604052565b606081019081106001600160401b0382111761067e57604052565b601f909101601f19168101906001600160401b0382119082101761067e57604052565b604051906101e082016001600160401b0381118382101761067e57604052565b6040519061010082016001600160401b0381118382101761067e57604052565b6040519061012082016001600160401b0381118382101761067e57604052565b9080601f8301121561000e578135906001600160401b038211610790575b8160051b6040519360209361075e858401876106a6565b8552838086019282010192831161000e578301905b828210610781575050505090565b81358152908301908301610773565b610798610654565b610747565b503461000e5760c036600319011261000e576004356107bb816103e9565b60243561ffff8116810361000e576107d1610632565b6001600160401b039260843584811161000e576107f2903690600401610729565b9160a43594851161000e5761080e6104df953690600401610729565b9360643592612835565b503461000e57600036600319011261000e5761084a61084361083e61083e6001546103dd565b6103dd565b3314614839565b6011546001600160a01b039061085f906103dd565b1661086b811515614877565b6108796108028214156148b8565b60405163c7d93c5960e01b8152306004820181905260248201819052604482015290602090829081600081606481015b03925af180156108e1575b6108ba57005b6104df9060203d81116108da575b6108d281836106a6565b810190612957565b503d6108c8565b6108e961296c565b6108b4565b6020906001600160401b03811161090b575b601f01601f19160190565b610913610654565b610900565b81601f8201121561000e5780359061092f826108ee565b9261093d60405194856106a6565b8284526020838301011161000e57816000926020809301838601378301015290565b602060031982011261000e57600435906001600160401b03821161000e5761098991600401610918565b90565b6002111561099657565b634e487b7160e01b600052602160045260246000fd5b9060028210156109965752565b918091926000905b8282106109d95750116109d2575050565b6000910152565b915080602091830151818601520182916109c1565b90602091610a07815180928185528580860191016109b9565b601f01601f1916010190565b60208082528251828201528201516001600160a01b03166040820152604082015163ffffffff166060820152606082015163ffffffff16608082015260808201516001600160a01b031660a082015260a082015163ffffffff1660c082015260c082015161ffff1660e082015260e0820151610a9561010091828401906109ac565b820151610aa9610120918284019015159052565b820151610abd610140918284019015159052565b820151610ad1610160918284019015159052565b820151916101e090610b0c610af36101809584878701526102008601906109ee565b94820151946101a095601f1986830301878701526109ee565b93810151906101c09182850152015191015290565b503461000e57610b41610b333661095f565b610b3b61250e565b506119e3565b54600052600b602052610c7060406000206006610b5c6106c9565b9180548352610c2d60ff6001830154610be260018060a01b0391610b8583821660208a0161259e565b610bba63ffffffff82610ba782809560a01c1660408d019063ffffffff169052565b60c01c1660608a019063ffffffff169052565b610bce600287015493841660808a0161259e565b8260a01c1660a088019063ffffffff169052565b60c081811c61ffff1690870152610c01828260d01c1660e088016125ad565b60d881901c8216151561010087015260e081901c8216151561012087015260e81c161515610140850152565b610c3960038201611b3b565b610160840152610c4b60048201611b3b565b61018084015260058101546101a084015201546101c082015260405191829182610a13565b0390f35b503461000e57602036600319011261000e576104df600435612908565b602060031982011261000e57600435906001600160401b03821161000e5761098991600401610729565b503461000e57610cca36610c91565b60019060018060a01b03825416610d0f6040518092630102942360e61b825233600483015281602460209586935afa908115610da3575b600091610d86575b50612979565b8151918190600160401b8411610d79575b60045484600455808510610d5b575b5001600460005281600020916000915b848310610d4857005b8051845592850192918501918101610d3f565b610d7390600460005285846000209182019101612698565b38610d2f565b610d81610654565b610d20565b610d9d9150833d85116108da576108d281836106a6565b38610d09565b610dab61296c565b610d01565b503461000e57602036600319011261000e576104d5600435610dd0612ebd565b610ddb811515612f13565b610de481610efe565b610df081541515612abd565b6040516354513b1560e01b81529060608280610e1133878660048501612f80565b038173__CounterstakeLibrary___________________5af4918215610ee2575b600080918194610ebe575b50610e66575b60009015610e5f5750545b610e59828233614b80565b336131a5565b9050610e4e565b610e6f84610f0e565b54610e7b600854612b19565b90818103610e9f575b5050610e8e612feb565b6000610e9985610f0e565b55610e43565b61056561055461053f8461053a610eb7968610612fa8565b3880610e84565b915050610eda91925060603d81116105c1576105b181836106a6565b929138610e3d565b610eea61296c565b610e32565b60243590600282101561000e57565b600052600b602052604060002090565b6000526009602052604060002090565b503461000e57606036600319011261000e57610f38610eef565b604435610f44816103e9565b6000916004358352600c60205260408320906002811015610f88578352602090815260408084206001600160a01b0393909316845291815291819020549051908152f35b634e487b7160e01b84526021600452602484fd5b503461000e576104d5610fb6610fb13661095f565b6119e3565b54610dd0612ebd565b503461000e57600036600319011261000e576020600e54604051908152f35b503461000e57602036600319011261000e57600154604051630102942360e61b815233600482015261103491602090829060249082906001600160a01b03165afa90811561105d575b6000916110455750612979565b6104df63ffffffff6004351661263d565b610d9d915060203d81116108da576108d281836106a6565b61106561296c565b611027565b503461000e5761107936610c91565b60019060018060a01b038254166110bc6040518092630102942360e61b825233600483015281602460209586935afa908115610da357600091610d865750612979565b8151918190600160401b8411611126575b60055484600555808510611108575b5001600560005281600020916000915b8483106110f557005b80518455928501929185019181016110ec565b61112090600560005285846000209182019101612698565b386110dc565b61112e610654565b6110cd565b6001600160a01b03909116815260200190565b503461000e57600036600319011261000e5760206040516108028152f35b503461000e57602036600319011261000e576104df6004356129c5565b503461000e57604036600319011261000e57610c706112226111a1610eef565b600435600052600b60205261121d61121660406000209260016005850154916111cb831515612abd565b6111d48161098c565b0361123d5780935b600281015460019060d01c60ff166111f38161098c565b0361123257505b6002546112109060b01c61ffff165b61ffff1690565b90612679565b6064900490565b612b36565b6040519081529081906020820190565b6006915001546111fa565b6006840154936111dc565b503461000e57606036600319011261000e576001600160401b0360043581811161000e5761127a903690600401610918565b9060243590811161000e57611293903690600401610918565b60443560ff8116810361000e576108a9926020926112bb61084361083e61083e6001546103dd565b6011546000906001600160a01b03906112d3906103dd565b16926112e0841515614877565b6112ee6108028514156148fe565b604051630df4b0bd60e21b81529687958694859360048501614947565b503461000e57600036600319011261000e576001546040516001600160a01b039091168152602090f35b503461000e5760408060031936011261000e576113f190600435611358816103e9565b61137060243591611368836103e9565b823091613996565b61137b6001546103dd565b600d546001600160a01b0392838316929190841690611399906103dd565b8551634d89ac5560e11b81526001600160a01b0393841660048201529216602483015230602090811b63a5dd32158117604090811b6044860152637adbf97391909117901b6064840152919586949085906084820190565b03938360009889968188875af19586156115f9575b85966115da575b50803b156115d6578651631beab6f960e01b80825260406004830152600d60448301526c6f7261636c654164647265737360981b60648301526001600160a01b039790971660248201526114e592859290919087908290608490829084905af180156115c9575b6115b6575b506114856001546103dd565b600e548951634a79346360e01b81526001600160a01b038316600482015260248101919091523060201b63170fd3388117604090811b6044840152635ea8cd1291909117901b606482015291169390928391908290889082906084820190565b03925af19283156115a9575b849361157a575b5050803b1561157657845193845260406004850152600b60448501526a06d696e5f707269636532360ac1b60648501526001600160a01b039190911660248401528290608490829084905af18015611569575b611553575051f35b806115606115669261066b565b806105dc565b51f35b61157161296c565b61154b565b8280fd5b61159a929350803d106115a2575b61159281836106a6565b810190613893565b9038806114f8565b503d611588565b6115b161296c565b6114f1565b806115606115c39261066b565b38611479565b6115d161296c565b611474565b8480fd5b6115f2919650843d86116115a25761159281836106a6565b943861140d565b61160161296c565b611406565b503461000e57602036600319011261000e5761162061250e565b50600435600052600b602052610c7060406000206006610b5c6106c9565b503461000e57602036600319011261000e57600154604051630102942360e61b815233600482015261169391602090829060249082906001600160a01b03165afa90811561105d576000916110455750612979565b600435600e55005b503461000e57602036600319011261000e576224ea0060043510156116bc57005b60405162461bcd60e51b81526020600482015260146024820152736d696e2074782061676520746f6f206c6172676560601b6044820152606490fd5b503461000e57602036600319011261000e57600154604051630102942360e61b815233600482015261174d91602090829060249082906001600160a01b03165afa90811561105d576000916110455750612979565b600435600655005b503461000e57602036600319011261000e57600435611773816103e9565b600154604051630102942360e61b81523360048201526001600160a01b0392916117ba91906020908290602490829088165afa90811561105d576000916110455750612979565b600d8054919092166001600160a01b0319909116179055005b50606036600319011261000e576004356117eb610eef565b6044356117f6612ebd565b6117ff816134d6565b6000928391818352600b6020526040832061181c81541515612abd565b73__CounterstakeLibrary___________________803b156115d65760c4926118726040519788968795631478dbcf60e11b8752600260048801526024870152600c6044870152606486015260848501906109ac565b60a48301525af480156118a8575b611895575b506118906001600055565b604051f35b806115606118a29261066b565b38611885565b6118b061296c565b611880565b503461000e57602036600319011261000e57600154604051630102942360e61b815233600482015261190a91602090829060249082906001600160a01b03165afa90811561105d576000916110455750612979565b600435600355005b8015150361000e57565b503461000e57604036600319011261000e57611936610643565b60243561194281611912565b61ffff6040519263fa3d060d60e01b8452600260048501521660248301521515604482015260208160648173__CounterstakeLibrary___________________5af49081156119d6575b60009161199f575b604051828152602090f35b6020813d82116119ce575b816119b7602093836106a6565b810103126119ca57519050610c70611994565b5080fd5b3d91506119aa565b6119de61296c565b61198c565b60206119fc9181604051938285809451938492016109b9565b8101600a81520301902090565b503461000e576020611a3181611a1e3661095f565b81604051938285809451938492016109b9565b8101600a81520301902054604051908152f35b503461000e57602036600319011261000e5760043560005260096020526020604060002054604051908152f35b90600182811c92168015611aa1575b6020831014611a8b57565b634e487b7160e01b600052602260045260246000fd5b91607f1691611a80565b9060009291805491611abc83611a71565b918282526001938481169081600014611b1e5750600114611ade575b50505050565b90919394506000526020928360002092846000945b838610611b0a575050505001019038808080611ad8565b805485870183015294019385908201611af3565b60ff19166020840152505060400193503891508190508080611ad8565b90610407611b4f9260405193848092611aab565b03836106a6565b503461000e57600080600319360112611c1f5760405181600f54611b7981611a71565b80845290600190818116908115611bfe5750600114611bb7575b610c7084611ba3818803826106a6565b6040519182916020835260208301906109ee565b600f835260209450600080516020614ee28339815191525b828410611beb5750505081610c7093611ba39282010193611b93565b8054858501870152928501928101611bcf565b60ff191660208601525050604083019350611ba39150829050610c70611b93565b80fd5b503461000e57602036600319011261000e576104df600435611c43816103e9565b614406565b503461000e57600036600319011261000e57600d546040516001600160a01b039091168152602090f35b5061010036600319011261000e576001600160401b0360043581811161000e57611ca0903690600401610918565b6024359063ffffffff8216820361000e5760a43583811161000e57611cc9903690600401610918565b611cd16103fa565b9160e43594851161000e57611ced6104df953690600401610918565b93608435916064359160443591612b4d565b503461000e57602036600319011261000e57600154604051630102942360e61b8152336004820152611d5491602090829060249082906001600160a01b03165afa90811561105d576000916110455750612979565b6104df61ffff600435166125fb565b503461000e57600036600319011261000e576011546040516001600160a01b039091168152602090f35b50606036600319011261000e576001600160401b0360043581811161000e573660238201121561000e57806004013591821161000e57366024838301011161000e5760246020611ddb610eef565b9260443594806040519485930183378101600a81520301902054916117f6612ebd565b503461000e57600080600319360112611c1f5760405181601054611e2181611a71565b80845290600190818116908115611bfe5750600114611e4a57610c7084611ba3818803826106a6565b6010835260209450600080516020614ec28339815191525b828410611e7e5750505081610c7093611ba39282010193611b93565b8054858501870152928501928101611e62565b503461000e57602036600319011261000e57600154604051630102942360e61b8152336004820152611ee691602090829060249082906001600160a01b03165afa90811561105d576000916110455750612979565b6104df61ffff6004351661261c565b503461000e576104df611f0736610c91565b612a21565b6020908160408183019282815285518094520193019160005b828110611f33575050505090565b83516001600160401b031685529381019392810192600101611f25565b503461000e57600036600319011261000e57604080516008548082529160208201600860005292600080516020614ea2833981519152906000915b8160038401106120555794611fc8928592610c70975491818110612033575b81811061200f575b818110611fe9575b10611fd2575b5003836106a6565b5191829182611f0c565b90611fe28160209360c01c6105e7565b0138611fc0565b9260019060209061200781608087901c6001600160401b03166105e7565b019301611fba565b9260019060209061202b81868b1c6001600160401b03166105e7565b019301611fb2565b9260019060209061204d816001600160401b0387166105e7565b019301611faa565b805490956004916001916001600160401b03916120a990612078838583166105e7565b6120896020840185838c1c166105e7565b61209c6080948a85019083871c166105e7565b606083019060c01c6105e7565b019601920191611f8b565b503461000e57602036600319011261000e5760206120d3600435614a1e565b604051908152f35b503461000e57604036600319011261000e576004356001600160401b03811161000e5761210f6104d5913690600401610918565b61211f60243591610fb1836103e9565b5490610435612ebd565b503461000e57600036600319011261000e5760c06002546003546006549063ffffffff6040519360018060a01b038116855261ffff808260a01c1660208701528160b01c166040860152851c166060840152608083015260a0820152f35b503461000e57608036600319011261000e576001600160401b0360043581811161000e576121b9903690600401610918565b60243591821161000e576121f27f4769528a977394d0b1b9c3ad55e7701566261bb71bb5d57c1af58bcb84db30cc923690600401610918565b601154604051632770a7eb60e21b81526044359261225b92909161224a9160209082906001600160a01b0316816000816122308b336004840161497a565b03925af190811561227e575b600091612260575b50614995565b6040519384936064359033866149df565b0390a1005b612278915060203d81116108da576108d281836106a6565b38612244565b61228661296c565b61223c565b906008548210156122ba576008600052600282901c600080516020614ea2833981519152019160031b60181690565b634e487b7160e01b600052603260045260246000fd5b503461000e57602036600319011261000e5760043560085481101561000e576008600052600281901c600080516020614ea2833981519152015460405160069290921b60c0161c6001600160401b03168152602090f35b503461000e57608036600319011261000e576001600160401b0360043581811161000e57612359903690600401610918565b9060243581811161000e57612372903690600401610918565b9160443592612380846103e9565b6064359261238d846103e9565b600180546001600160a01b0394906123a7908616156125b9565b600d80546001600160a01b0319168787161790558051928311612501575b6123d9836123d4600f54611a71565b613646565b60209081601f851160011461246e5750611c439561242a63fbfbfbfa96868063ffffffff986104df9d986124599861080298600094612463575b50501b916000199060031b1c191617600f556136c5565b601180546001600160a01b0319166001600160a01b03861617905583166124528115156137a8565b14156137fe565b60801c161461384a565b015192503880612413565b600f6000529293929190601f198416600080516020614ee2833981519152936000905b8282106124ea57505063fbfbfbfa9663ffffffff96866124599661080296611c439c966104df9f9a61242a97106124d1575b505050811b01600f556136c5565b015160001960f88460031b161c191690553880806124c3565b808886978294978701518155019601940190612491565b612509610654565b6123c5565b604051906101e082016001600160401b03811183821017612591575b604052816101c06000918281528260208201528260408201528260608201528260808201528260a08201528260c08201528260e082015282610100820152826101208201528261014082015260606101608201526060610180820152826101a08201520152565b612599610654565b61252a565b6001600160a01b039091169052565b60028210156109965752565b156125c057565b60405162461bcd60e51b8152602060048201526013602482015272185b1c9958591e481a5b9a5d1a585b1a5e9959606a1b6044820152606490fd5b6002805461ffff60a01b191660a09290921b61ffff60a01b16919091179055565b6002805461ffff60b01b191660b09290921b61ffff60b01b16919091179055565b6002805463ffffffff60c01b191660c09290921b63ffffffff60c01b16919091179055565b50634e487b7160e01b600052601160045260246000fd5b806000190482118115151661268c570290565b612694612662565b0290565b8181106126a3575050565b60008155600101612698565b805190600160401b8211612738575b6005548260055580831061270f575b506005600090815290602090600080516020614e828339815191529082015b8484106126fa575050505050565b600183828293518555019201930192906126ec565b600560005261273290600080516020614e82833981519152908101908401612698565b386126cd565b612740610654565b6126be565b60018060a01b0381511660018060a01b0319600254161760025561ffff6127816020916127768184860151166125fb565b60408401511661261c565b61279463ffffffff60608401511661263d565b608082015160035560a0820151805191908190600160401b8411612828575b6004548460045580851061280a575b5001906004600052806000206000925b8484106127f5575050505050806127ee60c060e09301516126af565b0151600655565b600183828293518555019201930192906127d2565b61282290600460005285846000209182019101612698565b386127c2565b612830610654565b6127b3565b93906128d290610407969361285f60018060a01b0361285861083e6001546103dd565b16156125b9565b61ffff9160648383169361287285612908565b821661287d816129c5565b61288687612a21565b61288f88612a21565b6128988a61336a565b11156128ff57915b156128f4576128c7905b6128bc6128b56106e9565b988961259e565b61ffff166020880152565b61ffff166040860152565b600060608501526000608085015260a084015260c083015260e0820152612745565b506128c760646128aa565b506096916128a0565b801515908161294b575b501561291a57565b60405162461bcd60e51b815260206004820152600960248201526862616420726174696f60b81b6044820152606490fd5b61fa0091501038612912565b9081602091031261000e575161098981611912565b506040513d6000823e3d90fd5b1561298057565b60405162461bcd60e51b815260206004820152601d60248201527f6e6f742066726f6d20766f7465642076616c756520636f6e74726163740000006044820152606490fd5b606481119081612a15575b50156129d857565b60405162461bcd60e51b81526020600482015260156024820152743130b21031b7bab73a32b939ba30b5b29031b7b2b360591b6044820152606490fd5b61fa00915010386129d0565b73__CounterstakeLibrary___________________803b1561000e576040518092636a5106d560e11b8252602482016020908160048501528251809152816044850193019160005b828110612aa6575050505091818060009403915af48015612a99575b612a8c5750565b806115606104079261066b565b612aa161296c565b612a85565b835185528795509381019392810192600101612a69565b15612ac457565b60405162461bcd60e51b815260206004820152600d60248201526c6e6f207375636820636c61696d60981b6044820152606490fd5b8115612b03570490565b634e487b7160e01b600052601260045260246000fd5b60018110612b29575b6000190190565b612b31612662565b612b22565b818110612b41570390565b612b49612662565b0390565b9396929695949195612b5d612ebd565b6001600160a01b0380871615612d34575b86163314159687612d28575b6000989697969087612d0b575b612b918a84614dfd565b612bb6612b9d82614a1e565b94612ba6610709565b98895263ffffffff166020890152565b60408701526060860152608085015260a0840152612bd78560c0850161259e565b60e0830152610100820152600754612c1d90612bfb906001600160401b0316612d7b565b600780546001600160401b0319166001600160401b0392909216919091179055565b600754612c32906001600160401b0316612da0565b612c3d600854612b19565b600754612c52906001600160401b0316612dd0565b5560075473__CounterstakeLibrary___________________91906001600160401b031690823b1561000e5760405163079b277560e31b815292600092849283918291612ca29160048401612dea565b03915af48015612cfe575b612ceb575b50612cc4575b50506104076001600055565b81612cd2612ce49383614e4d565b6007546001600160401b0316916130a0565b3880612cb8565b80611560612cf89261066b565b38612cb2565b612d0661296c565b612cad565b9850612d18818a11612d3c565b612d22818a612b36565b98612b87565b60008912159750612b7a565b339650612b6e565b15612d4357565b60405162461bcd60e51b815260206004820152601060248201526f72657761726420746f6f206c6172676560801b6044820152606490fd5b6001906001600160401b03908116908114612d94570190565b612d9c612662565b0190565b61040790610565600854600160401b811015612dc3575b6001810160085561228b565b612dcb610654565b612db7565b6001600160401b0316600090815260096020526040902090565b610989929160028252600a6020830152600b6040830152600c606083015260018060401b0316608082015260c060a08201528151906101c0612e3a610120938460c08501526101e08401906109ee565b602085015163ffffffff1660e084015292604085015161010084810191909152606086015191840191909152608085015161014084015260a085015161016084015260c08501516001600160a01b0316610180840152612ead60e08601519460bf199586868303016101a08701526109ee565b94015192828503019101526109ee565b600260005414612ece576002600055565b60405162461bcd60e51b815260206004820152601f60248201527f5265656e7472616e637947756172643a207265656e7472616e742063616c6c006044820152606490fd5b15612f1a57565b60405162461bcd60e51b81526020600482015260116024820152706e6f207375636820636c61696d206e756d60781b6044820152606490fd5b9081606091031261000e578051612f6981611912565b9160406020830151612f7a81611912565b92015190565b908152600c602082015260408101919091526001600160a01b03909116606082015260800190565b15612faf57565b60405162461bcd60e51b8152602060048201526014602482015273109551c81a5b99195e0818599d195c881b185cdd60621b6044820152606490fd5b600854801561301957600019016130018161228b565b81549060018060401b039060031b1b19169055600855565b634e487b7160e01b600052603160045260246000fd5b9192610989959361305992845260208401526000604084015260c0606084015260c0830190611aab565b6001600160a01b03909316608082015280830360a09190910152611aab565b926130599261098997959285526020850152604084015260c0606084015260c0830190611aab565b91604051631627905560e01b8152602081806130bf8760048301611133565b038173__CounterstakeLibrary___________________5af4908115613198575b60009161317a575b5080613162575b6130f857505050565b61310181610efe565b600181015490936001600160a01b03169061311b906103dd565b91813b1561000e576000809461315060405197889687958694635627fd2760e11b86526003600485019401916004870161302f565b03925af18015612a9957612a8c575b50565b506131756001600160a01b0384166132d5565b6130ef565b613192915060203d81116108da576108d281836106a6565b386130e8565b6131a061296c565b6130e0565b929091604051631627905560e01b8152602081806131c68860048301611133565b038173__CounterstakeLibrary___________________5af49081156132c8575b6000916132aa575b5080613292575b6132005750505050565b61320982610efe565b600181015490946001600160a01b03169190613224906103dd565b94823b1561000e5760009461325a869260405198899788968795635627fd2760e11b875260036004860195019260048801613078565b03925af18015613285575b613272575b808080611ad8565b8061156061327f9261066b565b3861326a565b61328d61296c565b613265565b506132a56001600160a01b0385166132d5565b6131f6565b6132c2915060203d81116108da576108d281836106a6565b386131ef565b6132d061296c565b6131e7565b6000809160405160208101906301ffc9a760e01b8252635627fd2760e11b6024820152602481526133058161068b565b5191617530fa3d15613363573d61331b816108ee565b9061332960405192836106a6565b81523d6000602083013e5b80516020811061335b578261334857505090565b6109899250602080918301019101612957565b505050600090565b6060613334565b6001600160a01b0381166108021461315f5760801c63ffffffff1663fbfbfbfa146104075760405162461bcd60e51b815260206004820152604560248201527f756e737570706f7274656420746f6b656e20747970653a206f6e6c792050334460448201527f20616e642033445061737320455243323020707265636f6d70696c657320616c6064820152641b1bddd95960da1b608482015260a490fd5b1561340f57565b60405162461bcd60e51b815260206004820152600e60248201526d191bdb89dd081cd95b9908140cd160921b6044820152606490fd5b1561344c57565b606460405162461bcd60e51b815260206004820152602060248201527f334450617373204552433230207472616e7366657246726f6d206661696c65646044820152fd5b1561349757565b60405162461bcd60e51b8152602060048201526017602482015276140cd1081d1c985b9cd9995c919c9bdb4819985a5b1959604a1b6044820152606490fd5b6134e16002546103dd565b61080291906001600160a01b038116908382036135855750506020613540610407936000936135103415613408565b6040516323b872dd60e01b8152336004820152306024820152604481019190915293849283919082906064820190565b03925af1908115613578575b60009161355a575b50613490565b613572915060203d81116108da576108d281836106a6565b38613554565b61358061296c565b61354c565b90925060801c63ffffffff1663fbfbfbfa036135f65760206135b1610407936000936135103415613408565b03925af19081156135e9575b6000916135cb575b50613445565b6135e3915060203d81116108da576108d281836106a6565b386135c5565b6135f161296c565b6135bd565b60405162461bcd60e51b815260206004820152602260248201527f756e737570706f7274656420746f6b656e207479706520666f72207374616b696044820152616e6760f01b6064820152608490fd5b90601f8211613653575050565b61040791600f6000526020600020906020601f840160051c83019310613681575b601f0160051c0190612698565b9091508190613674565b90601f8211613698575050565b6104079160106000526020600020906020601f840160051c8301931061368157601f0160051c0190612698565b80519091906001600160401b03811161379b575b6136ed816136e8601054611a71565b61368b565b602080601f8311600114613729575081929360009261371e575b50508160011b916000199060031b1c191617601055565b015190503880613707565b6010600052601f19831694909190600080516020614ec2833981519152926000905b87821061378357505083600195961061376a575b505050811b01601055565b015160001960f88460031b161c1916905538808061375f565b8060018596829496860151815501950193019061374b565b6137a3610654565b6136d9565b156137af57565b60405162461bcd60e51b815260206004820152602160248201527f707265636f6d70696c6520616464726573732063616e6e6f74206265207a65726044820152606f60f81b6064820152608490fd5b1561380557565b60405162461bcd60e51b815260206004820152601d60248201527f63616e6e6f74207573652050334420617320696d6167652061737365740000006044820152606490fd5b1561385157565b60405162461bcd60e51b815260206004820152601a602482015279696e76616c696420707265636f6d70696c65206164647265737360301b6044820152606490fd5b9081602091031261000e5751610989816103e9565b91939290608083019060018060a01b0316835260209060808285015260045480915260a08401906004600052826000209060005b81811061390b5750505091632dcddf829163d4a20daa60609497821b1760401b60408601521b1760401b910152565b8254845292840192600192830192016138dc565b91939290608083019060018060a01b0316835260209060808285015260055480915260a08401906005600052826000209060005b8181106139825750505091634dad247f9163d4a20daa60609497821b1760401b60408601521b1760401b910152565b825484529284019260019283019201613953565b60206139ed600092613a2d94956139bb60018060a01b0361285861083e6001546103dd565b6040516372ccf61760e11b81523060048201526001600160a01b03909116602482015293849283919082906044820190565b03926001600160a01b03165af190811561428f575b600091614270575b50600180546001600160a01b0319166001600160a01b0392909216919091179055565b613aa7613a3b6001546103dd565b6002546001600160a01b039093169260209060a01c61ffff1660408051634a79346360e01b81526001600160a01b038516600482015261ffff90921660248301523060201b632d59457f8117821b604484015263b2237ba317901b606482015292839081906084820190565b03816000875af1918215614263575b600092614242575b506001600160a01b0381163b1561000e5760408051631beab6f960e01b8152600481019190915260086044820152670726174696f3130360c41b60648201526001600160a01b03928316602482015291600091839160849183918591165af18015614235575b614222575b50613ba4613b386001546103dd565b6002546001600160a01b0382169160209160b01c61ffff1660408051634a79346360e01b81526001600160a01b03909316600484015261ffff90911660248301523060201b63559dba018117821b604484015263cecc131c17901b606482015292839081906084820190565b03816000875af1918215614215575b6000926141f4575b50803b1561000e5760408051631beab6f960e01b8152600481019190915260146044820152730636f756e7465727374616b655f636f65663130360641b60648201526001600160a01b039290921660248301526000908290608490829084905af180156141e7575b6141d4575b50613c95613c376001546103dd565b60035460408051634a79346360e01b81526001600160a01b039390931660048401819052602484019290925230602090811b632895febe8117831b6044860152638c80fd901790911b60648401529192909190839081906084820190565b03816000875af19182156141c7575b6000926141a6575b50803b1561000e5760408051631beab6f960e01b8152600481019190915260096044820152686d696e5f7374616b6560b81b60648201526001600160a01b039290921660248301526000908290608490829084905af18015614199575b614186575b50613d8d613d1d6001546103dd565b6002546001600160a01b0382169160209160c01c63ffffffff1660408051634a79346360e01b81526001600160a01b03909316600484015263ffffffff90911660248301523060201b636255c2728117821b60448401526348dfac5017901b606482015292839081906084820190565b03816000875af1918215614179575b600092614158575b50803b1561000e5760408051631beab6f960e01b81526004810191909152600a6044820152696d696e5f74785f61676560b01b60648201526001600160a01b039290921660248301526000908290608490829084905af1801561414b575b614138575b50613e74613e166001546103dd565b60065460408051634a79346360e01b81526001600160a01b039390931660048401819052602484019290925230602090811b6323b025898117831b604486015263765ef8221790911b60648401529192909190839081906084820190565b03816000875af191821561412b575b60009261410a575b50803b1561000e5760408051631beab6f960e01b81526004810191909152600f60448201526e1b185c99d957dd1a1c995cda1bdb19608a1b60648201526001600160a01b039290921660248301526000908290608490829084905af180156140fd575b6140ea575b50613eff6001546103dd565b60018060a01b0381166040519260208480613f2c631788388f60e11b9687835230903090600485016138a8565b03816000855af19384156140dd575b6000946140bc575b50813b1561000e5760408051631beab6f960e01b8152600481019190915260136044820152726368616c6c656e67696e675f706572696f647360681b60648201526001600160a01b03949094166024850152613fe7936020926000908290608490829084905af180156140af575b61409c575b50613fc26001546103dd565b9060018060a01b0382169360006040518097819582948352309030906004850161391f565b03925af191821561408f575b60009261406e575b50803b1561000e5760408051631beab6f960e01b8152600481019190915260196044820152786c617267655f6368616c6c656e67696e675f706572696f647360381b60648201526001600160a01b039290921660248301526000908290608490829084905af18015612a9957612a8c5750565b61408891925060203d6020116115a25761159281836106a6565b9038613ffb565b61409761296c565b613ff3565b806115606140a99261066b565b38613fb6565b6140b761296c565b613fb1565b6140d691945060203d6020116115a25761159281836106a6565b9238613f43565b6140e561296c565b613f3b565b806115606140f79261066b565b38613ef3565b61410561296c565b613eee565b61412491925060203d6020116115a25761159281836106a6565b9038613e8b565b61413361296c565b613e83565b806115606141459261066b565b38613e07565b61415361296c565b613e02565b61417291925060203d6020116115a25761159281836106a6565b9038613da4565b61418161296c565b613d9c565b806115606141939261066b565b38613d0e565b6141a161296c565b613d09565b6141c091925060203d6020116115a25761159281836106a6565b9038613cac565b6141cf61296c565b613ca4565b806115606141e19261066b565b38613c28565b6141ef61296c565b613c23565b61420e91925060203d6020116115a25761159281836106a6565b9038613bbb565b61421d61296c565b613bb3565b8061156061422f9261066b565b38613b29565b61423d61296c565b613b24565b61425c91925060203d6020116115a25761159281836106a6565b9038613abe565b61426b61296c565b613ab6565b614289915060203d6020116115a25761159281836106a6565b38613a0a565b61429761296c565b613a02565b156142a357565b60405162461bcd60e51b815260206004820152601d60248201527f6f7261636c652063616e6e6f74206265207a65726f20616464726573730000006044820152606490fd5b156142ef57565b60405162461bcd60e51b815260206004820152601f60248201527f6f7261636c652063616e6e6f742062652050334420707265636f6d70696c65006044820152606490fd5b1561433b57565b60405162461bcd60e51b815260206004820152602160248201527f6f7261636c652063616e6e6f7420626520455243323020707265636f6d70696c6044820152606560f81b6064820152608490fd5b1561439157565b60405162461bcd60e51b815260206004820152600a602482015269626164206f7261636c6560b01b6044820152606490fd5b156143ca57565b60405162461bcd60e51b81526020600482015260146024820152736e6f2070726963652066726f6d206f7261636c6560601b6044820152606490fd5b6104079061449f906144306108026001600160a01b03831661442981151561429c565b14156142e8565b61444963fbfbfbfa63ffffffff8360801c161415614334565b604051631627905560e01b815261449a906020818061446b8660048301611133565b038173__CounterstakeLibrary___________________5af49081156144d8575b6000916144ba575b5061438a565b614622565b9015908115916144b0575b506143c3565b90501515386144aa565b6144d2915060203d81116108da576108d281836106a6565b38614494565b6144e061296c565b61448c565b601054600092916144f582611a71565b91600190818116908115614546575060011461451057505050565b9091929350601060005260209081600020906000915b85831061453557505050500190565b805485840152918301918101614526565b60ff191683525050019150565b60408051636261736560e01b60208201908152600482529181016001600160401b03811182821017614589575b60405251902090565b614591610654565b614580565b60405160208101907f30783030303030303030303030303030303030303030303030303030303030308252690303030303030303030360b41b6040820152602a81526145e18161068b565b51902090565b919082604091031261000e576020825192015190565b909161461461098993604084526040840190611aab565b9160208184039101526109ee565b906040614699928151602081019061464b8161463d846144e5565b03601f1981018352826106a6565b5190209061466261465d6002546103dd565b61476e565b9161466b614553565b81149081156146ff575b50156146f857600f5b8351809681948293631e879a6d60e11b8452600484016145fd565b03916001600160a01b03165afa9182156146eb575b60009081936146bc57509190565b90506146e091925060403d81116146e4575b6146d881836106a6565b8101906145e7565b9091565b503d6146ce565b6146f361296c565b6146ae565b601061467e565b9050614709614596565b1438614675565b60208183031261000e578051906001600160401b03821161000e570181601f8201121561000e578051614742816108ee565b9261475060405194856106a6565b8184526020828401011161000e5761098991602080850191016109b9565b6004906000906001600160a01b0381169061080282036147d857506040516395d89b4160e01b815292839182905afa9081156147cb575b6000916147b0575090565b610989913d8091833e6147c381836106a6565b810190614710565b6147d361296c565b6147a5565b60801c63ffffffff1663fbfbfbfa148214614813576040516395d89b4160e01b815292839182905afa9081156147cb576000916147b0575090565b6040516395d89b4160e01b815292839182905afa9081156147cb576000916147b0575090565b1561484057565b60405162461bcd60e51b815260206004820152600f60248201526e6f6e6c7920676f7665726e616e636560881b6044820152606490fd5b1561487e57565b60405162461bcd60e51b81526020600482015260126024820152711c1c9958dbdb5c1a5b19481b9bdd081cd95d60721b6044820152606490fd5b156148bf57565b60405162461bcd60e51b815260206004820152601760248201527663616e6e6f74206d616e6167652050334420726f6c657360481b6044820152606490fd5b1561490557565b60405162461bcd60e51b815260206004820152601a60248201527963616e6e6f74206d6f6469667920503344206d6574616461746160301b6044820152606490fd5b9161497360ff916149656040949796976060875260608701906109ee565b9085820360208701526109ee565b9416910152565b6001600160a01b039091168152602081019190915260400190565b1561499c57565b60405162461bcd60e51b815260206004820152601b60248201527a189d5c9b88199c9bdb481c1c9958dbdb5c1a5b194819985a5b1959602a1b6044820152606490fd5b939092614a1092610989969460018060a01b031686526020860152604085015260a0606085015260a08401906109ee565b9160808184039101526109ee565b600d54614a33906001600160a01b0316614622565b908015614ae4578115614aa257614a93614a84614a7a614a9994614a75614a6e6112166109899961121061120960025461ffff9060a01c1690565b9586612679565b612af9565b92600e5490612679565b68056bc75e2d63100000900490565b90614b26565b60035490614b26565b60405162461bcd60e51b815260206004820152601a60248201527970726963652064656e206d75737420626520706f73697469766560301b6044820152606490fd5b60405162461bcd60e51b815260206004820152601a6024820152797072696365206e756d206d75737420626520706f73697469766560301b6044820152606490fd5b9080821115614b33575090565b905090565b15614b3f57565b60405162461bcd60e51b81526020600482015260196024820152781b5a5b9d081d1bc81c1c9958dbdb5c1a5b194819985a5b1959603a1b6044820152606490fd5b9080614ceb575b50600254610802916001600160a01b039081169190811690838203614c1657505061040792614bd192602092600060405180968195829463a9059cbb60e01b84526004840161497a565b03925af1908115614c09575b600091614beb575b50614dbb565b614c03915060203d81116108da576108d281836106a6565b38614be5565b614c1161296c565b614bdd565b90925060801c63ffffffff1663fbfbfbfa03614c9a5761040792614c5592602092600060405180968195829463a9059cbb60e01b84526004840161497a565b03925af1908115614c8d575b600091614c6f575b50614d70565b614c87915060203d81116108da576108d281836106a6565b38614c69565b614c9561296c565b614c61565b60405162461bcd60e51b8152602060048201526024808201527f756e737570706f7274656420746f6b656e207479706520666f72207472616e736044820152636665727360e01b6064820152608490fd5b6011546040516340c10f1960e01b8152614d3f92909160209183916001600160a01b03169082906000908290614d25908a6004840161497a565b03925af1908115614d63575b600091614d45575b50614b38565b38614b87565b614d5d915060203d81116108da576108d281836106a6565b38614d39565b614d6b61296c565b614d31565b15614d7757565b60405162461bcd60e51b815260206004820152601c60248201527b0cd114185cdcc8115490cc8c081d1c985b9cd9995c8819985a5b195960221b6044820152606490fd5b15614dc257565b60405162461bcd60e51b8152602060048201526013602482015272140cd1081d1c985b9cd9995c8819985a5b1959606a1b6044820152606490fd5b6104079180614e0d575b506134d6565b601154604051632770a7eb60e21b8152614e4792909160209183916001600160a01b0316908290600090829061223090336004840161497a565b38614e07565b602061040792614d259260018060a01b03601154169060006040518096819582946340c10f1960e01b84526004840161497a56fe036b6384b5eca791c62761152d0c79bb0604c104a5fb6f4eb0703f3154bb3db0f3f7a9fe364faab93b216da50a3214154f22a0a2b415b23a84c8169e8b636ee31b6847dc741a1b0cd08d278845f9d819d87b734759afb55fe2de5cb82a9ae6728d1108e10bcb7c27dddfc02ed9d693a074039d026cf4ea4240b40f7d581ac802a26469706673582212201a092b21f6170d0040aec7bb796406637d07f42ca8afc5e4cbfdd390dff39bf264736f6c634300080d0033036b6384b5eca791c62761152d0c79bb0604c104a5fb6f4eb0703f3154bb3db0",
  "immutableReferences": {},
  "source": "// SPDX-License-Identifier: MIT\npragma solidity ^0.8.3;\nimport \"@openzeppelin/contracts/utils/math/Math.sol\";\nimport \"@openzeppelin/contracts/token/ERC20/IERC20.sol\";\nimport \"./IOracle.sol\";\nimport \"./Counterstake.sol\";\nimport \"./VotedValueAddress.sol\";\nimport \"./CounterstakeLibrary.sol\";\nimport \"./IERC20WithSymbol.sol\";\nimport \"./IPrecompileERC20.sol\";\nimport \"./ILocalAsset.sol\";\n\n\ncontract ImportWrapper is Counterstake {\n\n\tusing SafeERC20 for IERC20;\n\n\tevent NewRepatriation(address sender_address, uint amount, uint reward, string home_address, string data);\n\tevent AssistantTransferExecuted(address assistant, address user, uint stake_amount, uint image_amount);\n\n\taddress public oracleAddress;\n\n\t// min price of imported asset in terms of stake asset, to protect against malicious oracles\n\t// The price is multiplied by 1e20\n\tuint public min_price20;\n\n\tstring public home_network;\n\tstring public home_asset;\n\n\t// The precompile address to use for this bridge\n\taddress public precompileAddress;\n\t\n\t// Batch precompile address (inherited from Counterstake)\n\n\tbytes32 private constant base_hash = keccak256(abi.encodePacked(\"base\"));\n\tbytes32 private constant zx_hash = keccak256(abi.encodePacked(\"0x0000000000000000000000000000000000000000\"));\n\n\n\tconstructor (string memory _home_network, string memory _home_asset, address _precompileAddress, address stakeTokenAddr, address oracleAddr, uint16 _counterstake_coef100, uint16 _ratio100, uint _large_threshold, uint[] memory _challenging_periods, uint[] memory _large_challenging_periods) \n\tCounterstake(stakeTokenAddr, _counterstake_coef100, _ratio100, _large_threshold, _challenging_periods, _large_challenging_periods) \n\t{\n\t\tinitImportWrapper(_home_network, _home_asset, _precompileAddress, oracleAddr);\n\t}\n\n\tfunction initImportWrapper(string memory _home_network, string memory _home_asset, address _precompileAddress, address oracleAddr) public\n\t{\n\t\trequire(address(governance) == address(0), \"already initialized\");\n\t\toracleAddress = oracleAddr;\n\t\thome_network = _home_network;\n\t\thome_asset = _home_asset;\n\t\tprecompileAddress = _precompileAddress;\n\t\t\n\t\t// Validate precompile address\n\t\trequire(_precompileAddress != address(0), \"precompile address cannot be zero\");\n\t\trequire(_precompileAddress != CounterstakeLibrary.P3D_PRECOMPILE, \"cannot use P3D as image asset\");\n\t\trequire(CounterstakeLibrary.is3DPassERC20Precompile(_precompileAddress), \"invalid precompile address\");\n\t\t\n\t\tvalidateOracle(oracleAddr);\n\t}\n\n\tfunction setupGovernance(GovernanceFactory governanceFactory, VotedValueFactory votedValueFactory) external {\n\t\tsetupCounterstakeGovernance(governanceFactory, votedValueFactory, address(this));\n\t\tgovernance.addVotedValue(\"oracleAddress\", votedValueFactory.createVotedValueAddress(governance, oracleAddress, this.validateOracle, this.setOracle));\n\t\tgovernance.addVotedValue(\"min_price20\", votedValueFactory.createVotedValueUint(governance, min_price20, this.validateMinPrice, this.setMinPrice));\n\t}\n\n\tfunction getOraclePrice(address oracleAddr) view private returns (uint, uint) {\n\t\tbytes32 home_asset_hash = keccak256(abi.encodePacked(home_asset));\n\t\tstring memory symbol = CounterstakeLibrary.getPrecompileSymbol(settings.tokenAddress);\n\t\treturn IOracle(oracleAddr).getPrice(\n\t\t\thome_asset_hash == base_hash || home_asset_hash == zx_hash ? home_network : home_asset, \n\t\t\tsymbol\n\t\t);\n\t}\n\n\tfunction validateOracle(address oracleAddr) view public {\n\t\trequire(oracleAddr != address(0), \"oracle cannot be zero address\");\n\t\trequire(oracleAddr != CounterstakeLibrary.P3D_PRECOMPILE, \"oracle cannot be P3D precompile\");\n\t\trequire(!CounterstakeLibrary.is3DPassERC20Precompile(oracleAddr), \"oracle cannot be ERC20 precompile\");\n\t\trequire(CounterstakeLibrary.isContract(oracleAddr), \"bad oracle\");\n\t\t(uint num, uint den) = getOraclePrice(oracleAddr);\n\t\trequire(num > 0 || den > 0, \"no price from oracle\");\n\t}\n\n\tfunction setOracle(address oracleAddr) onlyVotedValueContract external {\n\t\toracleAddress = oracleAddr;\n\t}\n\n\tfunction validateMinPrice(uint _min_price20) pure external {\n\t\t// anything goes\n\t}\n\n\tfunction setMinPrice(uint _min_price20) onlyVotedValueContract external {\n\t\tmin_price20 = _min_price20;\n\t}\n\n\t// Function to set up this contract as Issuer and Admin for the precompile\n\tfunction setupPrecompileRoles() external {\n\t\trequire(msg.sender == address(governance), \"only governance\");\n\t\trequire(precompileAddress != address(0), \"precompile not set\");\n\t\trequire(precompileAddress != CounterstakeLibrary.P3D_PRECOMPILE, \"cannot manage P3D roles\");\n\t\t\n\t\t// Set this contract as both Issuer and Admin\n\t\t// Issuer can mint, Admin can burn\n\t\tILocalAsset(precompileAddress).setTeam(\n\t\t\taddress(this), // issuer - can mint\n\t\t\taddress(this), // admin - can burn\n\t\t\taddress(this)  // freezer - can freeze/unfreeze\n\t\t);\n\t}\n\n\t// Function to set metadata for the precompile (optional)\n\tfunction setPrecompileMetadata(string memory name, string memory symbol, uint8 decimals) external {\n\t\trequire(msg.sender == address(governance), \"only governance\");\n\t\trequire(precompileAddress != address(0), \"precompile not set\");\n\t\trequire(precompileAddress != CounterstakeLibrary.P3D_PRECOMPILE, \"cannot modify P3D metadata\");\n\t\t\n\t\tILocalAsset(precompileAddress).setMetadata(name, symbol, decimals);\n\t}\n\n\t// repatriate\n\tfunction transferToHomeChain(string memory home_address, string memory data, uint amount, uint reward) external {\n\t\t// Burn tokens from the precompile\n\t\trequire(ILocalAsset(precompileAddress).burn(msg.sender, amount), \"burn from precompile failed\");\n\t\temit NewRepatriation(msg.sender, amount, reward, home_address, data);\n\t}\n\n\tfunction getRequiredStake(uint amount) public view override returns (uint) {\n\t\t(uint num, uint den) = getOraclePrice(oracleAddress);\n\t\trequire(num > 0, \"price num must be positive\");\n\t\trequire(den > 0, \"price den must be positive\");\n\t\tuint stake_in_image_asset = amount * settings.ratio100 / 100;\n\t\treturn Math.max(Math.max(stake_in_image_asset * num / den, stake_in_image_asset * min_price20 / 1e20), settings.min_stake);\n\t}\n\n\tfunction sendWithdrawals(address payable to_address, uint paid_claimed_amount, uint won_stake) internal override {\n\t\tif (paid_claimed_amount > 0){\n\t\t\t// Mint tokens to the user via precompile\n\t\t\trequire(ILocalAsset(precompileAddress).mint(to_address, paid_claimed_amount), \"mint to precompile failed\");\n\t\t}\n\t\ttransferTokens(settings.tokenAddress, to_address, won_stake);\n\t}\n     \n    function receiveMoneyInClaim(uint stake, uint paid_amount) internal override {\n         if (paid_amount > 0)\n\t\t    // Burn image tokens from the assistant account\n            require(ILocalAsset(precompileAddress).burn(msg.sender, paid_amount), \"burn from precompile failed\");\n        receiveStakeAsset(stake);\n    }\n\n    function sendToClaimRecipient(address payable to_address, uint paid_amount) internal override {\n            // Mint image tokens to the user after assistant calim\n            require(ILocalAsset(precompileAddress).mint(to_address, paid_amount), \"mint to precompile failed\");\n    }\n\n} ",
  "sourcePath": "/Users/jm/3DP-bridge/counterstake-bridge/evm/contracts/ImportWrapper.sol",
  "compiler": {
    "name": "solc",
    "version": "0.8.13+commit.abaa5c0e.Emscripten.clang"
  },
  "schemaVersion": "3.4.16",
  "updatedAt": "2025-08-11T16:27:16.728Z",
  "devdoc": {
    "kind": "dev",
    "methods": {},
    "version": 1
  },
  "userdoc": {
    "kind": "user",
    "methods": {},
    "version": 1
  }
}