{
  "contractName": "ImportWrapper",
  "abi": [
    {
      "inputs": [
        {
          "internalType": "string",
          "name": "_home_network",
          "type": "string"
        },
        {
          "internalType": "string",
          "name": "_home_asset",
          "type": "string"
        },
        {
          "internalType": "address",
          "name": "_precompileAddress",
          "type": "address"
        },
        {
          "internalType": "address",
          "name": "stakeTokenAddr",
          "type": "address"
        },
        {
          "internalType": "address",
          "name": "oracleAddr",
          "type": "address"
        },
        {
          "internalType": "uint16",
          "name": "_counterstake_coef100",
          "type": "uint16"
        },
        {
          "internalType": "uint16",
          "name": "_ratio100",
          "type": "uint16"
        },
        {
          "internalType": "uint256",
          "name": "_large_threshold",
          "type": "uint256"
        },
        {
          "internalType": "uint256[]",
          "name": "_challenging_periods",
          "type": "uint256[]"
        },
        {
          "internalType": "uint256[]",
          "name": "_large_challenging_periods",
          "type": "uint256[]"
        }
      ],
      "stateMutability": "nonpayable",
      "type": "constructor"
    },
    {
      "anonymous": false,
      "inputs": [
        {
          "indexed": true,
          "internalType": "uint256",
          "name": "claim_num",
          "type": "uint256"
        },
        {
          "indexed": false,
          "internalType": "enum CounterstakeLibrary.Side",
          "name": "outcome",
          "type": "uint8"
        }
      ],
      "name": "FinishedClaim",
      "type": "event"
    },
    {
      "anonymous": false,
      "inputs": [
        {
          "indexed": true,
          "internalType": "uint256",
          "name": "claim_num",
          "type": "uint256"
        },
        {
          "indexed": false,
          "internalType": "address",
          "name": "author_address",
          "type": "address"
        },
        {
          "indexed": false,
          "internalType": "uint256",
          "name": "stake",
          "type": "uint256"
        },
        {
          "indexed": false,
          "internalType": "enum CounterstakeLibrary.Side",
          "name": "outcome",
          "type": "uint8"
        },
        {
          "indexed": false,
          "internalType": "enum CounterstakeLibrary.Side",
          "name": "current_outcome",
          "type": "uint8"
        },
        {
          "indexed": false,
          "internalType": "uint256",
          "name": "yes_stake",
          "type": "uint256"
        },
        {
          "indexed": false,
          "internalType": "uint256",
          "name": "no_stake",
          "type": "uint256"
        },
        {
          "indexed": false,
          "internalType": "uint32",
          "name": "expiry_ts",
          "type": "uint32"
        },
        {
          "indexed": false,
          "internalType": "uint256",
          "name": "challenging_target",
          "type": "uint256"
        }
      ],
      "name": "NewChallenge",
      "type": "event"
    },
    {
      "anonymous": false,
      "inputs": [
        {
          "indexed": true,
          "internalType": "uint256",
          "name": "claim_num",
          "type": "uint256"
        },
        {
          "indexed": false,
          "internalType": "address",
          "name": "author_address",
          "type": "address"
        },
        {
          "indexed": false,
          "internalType": "string",
          "name": "sender_address",
          "type": "string"
        },
        {
          "indexed": false,
          "internalType": "address",
          "name": "recipient_address",
          "type": "address"
        },
        {
          "indexed": false,
          "internalType": "string",
          "name": "txid",
          "type": "string"
        },
        {
          "indexed": false,
          "internalType": "uint32",
          "name": "txts",
          "type": "uint32"
        },
        {
          "indexed": false,
          "internalType": "uint256",
          "name": "amount",
          "type": "uint256"
        },
        {
          "indexed": false,
          "internalType": "int256",
          "name": "reward",
          "type": "int256"
        },
        {
          "indexed": false,
          "internalType": "uint256",
          "name": "stake",
          "type": "uint256"
        },
        {
          "indexed": false,
          "internalType": "string",
          "name": "data",
          "type": "string"
        },
        {
          "indexed": false,
          "internalType": "uint32",
          "name": "expiry_ts",
          "type": "uint32"
        }
      ],
      "name": "NewClaim",
      "type": "event"
    },
    {
      "anonymous": false,
      "inputs": [
        {
          "indexed": false,
          "internalType": "address",
          "name": "sender_address",
          "type": "address"
        },
        {
          "indexed": false,
          "internalType": "uint256",
          "name": "amount",
          "type": "uint256"
        },
        {
          "indexed": false,
          "internalType": "uint256",
          "name": "reward",
          "type": "uint256"
        },
        {
          "indexed": false,
          "internalType": "string",
          "name": "home_address",
          "type": "string"
        },
        {
          "indexed": false,
          "internalType": "string",
          "name": "data",
          "type": "string"
        }
      ],
      "name": "NewRepatriation",
      "type": "event"
    },
    {
      "inputs": [],
      "name": "P3D_PRECOMPILE",
      "outputs": [
        {
          "internalType": "address",
          "name": "",
          "type": "address"
        }
      ],
      "stateMutability": "view",
      "type": "function"
    },
    {
      "inputs": [
        {
          "internalType": "uint256",
          "name": "claim_num",
          "type": "uint256"
        },
        {
          "internalType": "enum CounterstakeLibrary.Side",
          "name": "stake_on",
          "type": "uint8"
        },
        {
          "internalType": "uint256",
          "name": "stake",
          "type": "uint256"
        }
      ],
      "name": "challenge",
      "outputs": [],
      "stateMutability": "payable",
      "type": "function"
    },
    {
      "inputs": [
        {
          "internalType": "string",
          "name": "claim_id",
          "type": "string"
        },
        {
          "internalType": "enum CounterstakeLibrary.Side",
          "name": "stake_on",
          "type": "uint8"
        },
        {
          "internalType": "uint256",
          "name": "stake",
          "type": "uint256"
        }
      ],
      "name": "challenge",
      "outputs": [],
      "stateMutability": "payable",
      "type": "function"
    },
    {
      "inputs": [
        {
          "internalType": "string",
          "name": "txid",
          "type": "string"
        },
        {
          "internalType": "uint32",
          "name": "txts",
          "type": "uint32"
        },
        {
          "internalType": "uint256",
          "name": "amount",
          "type": "uint256"
        },
        {
          "internalType": "int256",
          "name": "reward",
          "type": "int256"
        },
        {
          "internalType": "uint256",
          "name": "stake",
          "type": "uint256"
        },
        {
          "internalType": "string",
          "name": "sender_address",
          "type": "string"
        },
        {
          "internalType": "address payable",
          "name": "recipient_address",
          "type": "address"
        },
        {
          "internalType": "string",
          "name": "data",
          "type": "string"
        }
      ],
      "name": "claim",
      "outputs": [],
      "stateMutability": "payable",
      "type": "function"
    },
    {
      "inputs": [
        {
          "internalType": "string",
          "name": "",
          "type": "string"
        }
      ],
      "name": "claim_nums",
      "outputs": [
        {
          "internalType": "uint256",
          "name": "",
          "type": "uint256"
        }
      ],
      "stateMutability": "view",
      "type": "function"
    },
    {
      "inputs": [
        {
          "internalType": "uint16",
          "name": "period_number",
          "type": "uint16"
        },
        {
          "internalType": "bool",
          "name": "bLarge",
          "type": "bool"
        }
      ],
      "name": "getChallengingPeriod",
      "outputs": [
        {
          "internalType": "uint256",
          "name": "",
          "type": "uint256"
        }
      ],
      "stateMutability": "view",
      "type": "function"
    },
    {
      "inputs": [
        {
          "internalType": "string",
          "name": "claim_id",
          "type": "string"
        }
      ],
      "name": "getClaim",
      "outputs": [
        {
          "components": [
            {
              "internalType": "uint256",
              "name": "amount",
              "type": "uint256"
            },
            {
              "internalType": "address payable",
              "name": "recipient_address",
              "type": "address"
            },
            {
              "internalType": "uint32",
              "name": "txts",
              "type": "uint32"
            },
            {
              "internalType": "uint32",
              "name": "ts",
              "type": "uint32"
            },
            {
              "internalType": "address payable",
              "name": "claimant_address",
              "type": "address"
            },
            {
              "internalType": "uint32",
              "name": "expiry_ts",
              "type": "uint32"
            },
            {
              "internalType": "uint16",
              "name": "period_number",
              "type": "uint16"
            },
            {
              "internalType": "enum CounterstakeLibrary.Side",
              "name": "current_outcome",
              "type": "uint8"
            },
            {
              "internalType": "bool",
              "name": "is_large",
              "type": "bool"
            },
            {
              "internalType": "bool",
              "name": "withdrawn",
              "type": "bool"
            },
            {
              "internalType": "bool",
              "name": "finished",
              "type": "bool"
            },
            {
              "internalType": "string",
              "name": "sender_address",
              "type": "string"
            },
            {
              "internalType": "string",
              "name": "data",
              "type": "string"
            },
            {
              "internalType": "uint256",
              "name": "yes_stake",
              "type": "uint256"
            },
            {
              "internalType": "uint256",
              "name": "no_stake",
              "type": "uint256"
            }
          ],
          "internalType": "struct CounterstakeLibrary.Claim",
          "name": "",
          "type": "tuple"
        }
      ],
      "stateMutability": "view",
      "type": "function"
    },
    {
      "inputs": [
        {
          "internalType": "uint256",
          "name": "claim_num",
          "type": "uint256"
        }
      ],
      "name": "getClaim",
      "outputs": [
        {
          "components": [
            {
              "internalType": "uint256",
              "name": "amount",
              "type": "uint256"
            },
            {
              "internalType": "address payable",
              "name": "recipient_address",
              "type": "address"
            },
            {
              "internalType": "uint32",
              "name": "txts",
              "type": "uint32"
            },
            {
              "internalType": "uint32",
              "name": "ts",
              "type": "uint32"
            },
            {
              "internalType": "address payable",
              "name": "claimant_address",
              "type": "address"
            },
            {
              "internalType": "uint32",
              "name": "expiry_ts",
              "type": "uint32"
            },
            {
              "internalType": "uint16",
              "name": "period_number",
              "type": "uint16"
            },
            {
              "internalType": "enum CounterstakeLibrary.Side",
              "name": "current_outcome",
              "type": "uint8"
            },
            {
              "internalType": "bool",
              "name": "is_large",
              "type": "bool"
            },
            {
              "internalType": "bool",
              "name": "withdrawn",
              "type": "bool"
            },
            {
              "internalType": "bool",
              "name": "finished",
              "type": "bool"
            },
            {
              "internalType": "string",
              "name": "sender_address",
              "type": "string"
            },
            {
              "internalType": "string",
              "name": "data",
              "type": "string"
            },
            {
              "internalType": "uint256",
              "name": "yes_stake",
              "type": "uint256"
            },
            {
              "internalType": "uint256",
              "name": "no_stake",
              "type": "uint256"
            }
          ],
          "internalType": "struct CounterstakeLibrary.Claim",
          "name": "",
          "type": "tuple"
        }
      ],
      "stateMutability": "view",
      "type": "function"
    },
    {
      "inputs": [
        {
          "internalType": "uint256",
          "name": "claim_num",
          "type": "uint256"
        },
        {
          "internalType": "enum CounterstakeLibrary.Side",
          "name": "stake_on",
          "type": "uint8"
        }
      ],
      "name": "getMissingStake",
      "outputs": [
        {
          "internalType": "uint256",
          "name": "",
          "type": "uint256"
        }
      ],
      "stateMutability": "view",
      "type": "function"
    },
    {
      "inputs": [],
      "name": "getOngoingClaimNums",
      "outputs": [
        {
          "internalType": "uint64[]",
          "name": "",
          "type": "uint64[]"
        }
      ],
      "stateMutability": "view",
      "type": "function"
    },
    {
      "inputs": [],
      "name": "governance",
      "outputs": [
        {
          "internalType": "contract Governance",
          "name": "",
          "type": "address"
        }
      ],
      "stateMutability": "view",
      "type": "function"
    },
    {
      "inputs": [],
      "name": "home_asset",
      "outputs": [
        {
          "internalType": "string",
          "name": "",
          "type": "string"
        }
      ],
      "stateMutability": "view",
      "type": "function"
    },
    {
      "inputs": [],
      "name": "home_network",
      "outputs": [
        {
          "internalType": "string",
          "name": "",
          "type": "string"
        }
      ],
      "stateMutability": "view",
      "type": "function"
    },
    {
      "inputs": [
        {
          "internalType": "address",
          "name": "_tokenAddr",
          "type": "address"
        },
        {
          "internalType": "uint16",
          "name": "_counterstake_coef100",
          "type": "uint16"
        },
        {
          "internalType": "uint16",
          "name": "_ratio100",
          "type": "uint16"
        },
        {
          "internalType": "uint256",
          "name": "_large_threshold",
          "type": "uint256"
        },
        {
          "internalType": "uint256[]",
          "name": "_challenging_periods",
          "type": "uint256[]"
        },
        {
          "internalType": "uint256[]",
          "name": "_large_challenging_periods",
          "type": "uint256[]"
        }
      ],
      "name": "initCounterstake",
      "outputs": [],
      "stateMutability": "nonpayable",
      "type": "function"
    },
    {
      "inputs": [],
      "name": "last_claim_num",
      "outputs": [
        {
          "internalType": "uint64",
          "name": "",
          "type": "uint64"
        }
      ],
      "stateMutability": "view",
      "type": "function"
    },
    {
      "inputs": [],
      "name": "min_price20",
      "outputs": [
        {
          "internalType": "uint256",
          "name": "",
          "type": "uint256"
        }
      ],
      "stateMutability": "view",
      "type": "function"
    },
    {
      "inputs": [
        {
          "internalType": "uint256",
          "name": "",
          "type": "uint256"
        }
      ],
      "name": "num2index",
      "outputs": [
        {
          "internalType": "uint256",
          "name": "",
          "type": "uint256"
        }
      ],
      "stateMutability": "view",
      "type": "function"
    },
    {
      "inputs": [
        {
          "internalType": "uint256",
          "name": "",
          "type": "uint256"
        }
      ],
      "name": "ongoing_claim_nums",
      "outputs": [
        {
          "internalType": "uint64",
          "name": "",
          "type": "uint64"
        }
      ],
      "stateMutability": "view",
      "type": "function"
    },
    {
      "inputs": [],
      "name": "oracleAddress",
      "outputs": [
        {
          "internalType": "address",
          "name": "",
          "type": "address"
        }
      ],
      "stateMutability": "view",
      "type": "function"
    },
    {
      "inputs": [],
      "name": "precompileAddress",
      "outputs": [
        {
          "internalType": "address",
          "name": "",
          "type": "address"
        }
      ],
      "stateMutability": "view",
      "type": "function"
    },
    {
      "inputs": [
        {
          "internalType": "uint256[]",
          "name": "_challenging_periods",
          "type": "uint256[]"
        }
      ],
      "name": "setChallengingPeriods",
      "outputs": [],
      "stateMutability": "nonpayable",
      "type": "function"
    },
    {
      "inputs": [
        {
          "internalType": "uint256",
          "name": "_counterstake_coef100",
          "type": "uint256"
        }
      ],
      "name": "setCounterstakeCoef",
      "outputs": [],
      "stateMutability": "nonpayable",
      "type": "function"
    },
    {
      "inputs": [
        {
          "internalType": "uint256[]",
          "name": "_large_challenging_periods",
          "type": "uint256[]"
        }
      ],
      "name": "setLargeChallengingPeriods",
      "outputs": [],
      "stateMutability": "nonpayable",
      "type": "function"
    },
    {
      "inputs": [
        {
          "internalType": "uint256",
          "name": "_large_threshold",
          "type": "uint256"
        }
      ],
      "name": "setLargeThreshold",
      "outputs": [],
      "stateMutability": "nonpayable",
      "type": "function"
    },
    {
      "inputs": [
        {
          "internalType": "uint256",
          "name": "_min_stake",
          "type": "uint256"
        }
      ],
      "name": "setMinStake",
      "outputs": [],
      "stateMutability": "nonpayable",
      "type": "function"
    },
    {
      "inputs": [
        {
          "internalType": "uint256",
          "name": "_min_tx_age",
          "type": "uint256"
        }
      ],
      "name": "setMinTxAge",
      "outputs": [],
      "stateMutability": "nonpayable",
      "type": "function"
    },
    {
      "inputs": [
        {
          "internalType": "uint256",
          "name": "_ratio100",
          "type": "uint256"
        }
      ],
      "name": "setRatio",
      "outputs": [],
      "stateMutability": "nonpayable",
      "type": "function"
    },
    {
      "inputs": [],
      "name": "settings",
      "outputs": [
        {
          "internalType": "address",
          "name": "tokenAddress",
          "type": "address"
        },
        {
          "internalType": "uint16",
          "name": "ratio100",
          "type": "uint16"
        },
        {
          "internalType": "uint16",
          "name": "counterstake_coef100",
          "type": "uint16"
        },
        {
          "internalType": "uint32",
          "name": "min_tx_age",
          "type": "uint32"
        },
        {
          "internalType": "uint256",
          "name": "min_stake",
          "type": "uint256"
        },
        {
          "internalType": "uint256",
          "name": "large_threshold",
          "type": "uint256"
        }
      ],
      "stateMutability": "view",
      "type": "function"
    },
    {
      "inputs": [
        {
          "internalType": "uint256",
          "name": "",
          "type": "uint256"
        },
        {
          "internalType": "enum CounterstakeLibrary.Side",
          "name": "",
          "type": "uint8"
        },
        {
          "internalType": "address",
          "name": "",
          "type": "address"
        }
      ],
      "name": "stakes",
      "outputs": [
        {
          "internalType": "uint256",
          "name": "",
          "type": "uint256"
        }
      ],
      "stateMutability": "view",
      "type": "function"
    },
    {
      "inputs": [
        {
          "internalType": "uint256[]",
          "name": "periods",
          "type": "uint256[]"
        }
      ],
      "name": "validateChallengingPeriods",
      "outputs": [],
      "stateMutability": "pure",
      "type": "function"
    },
    {
      "inputs": [
        {
          "internalType": "uint256",
          "name": "_counterstake_coef100",
          "type": "uint256"
        }
      ],
      "name": "validateCounterstakeCoef",
      "outputs": [],
      "stateMutability": "pure",
      "type": "function"
    },
    {
      "inputs": [
        {
          "internalType": "uint256",
          "name": "_large_threshold",
          "type": "uint256"
        }
      ],
      "name": "validateLargeThreshold",
      "outputs": [],
      "stateMutability": "pure",
      "type": "function"
    },
    {
      "inputs": [
        {
          "internalType": "uint256",
          "name": "_min_stake",
          "type": "uint256"
        }
      ],
      "name": "validateMinStake",
      "outputs": [],
      "stateMutability": "pure",
      "type": "function"
    },
    {
      "inputs": [
        {
          "internalType": "uint256",
          "name": "_min_tx_age",
          "type": "uint256"
        }
      ],
      "name": "validateMinTxAge",
      "outputs": [],
      "stateMutability": "pure",
      "type": "function"
    },
    {
      "inputs": [
        {
          "internalType": "uint256",
          "name": "_ratio100",
          "type": "uint256"
        }
      ],
      "name": "validateRatio",
      "outputs": [],
      "stateMutability": "pure",
      "type": "function"
    },
    {
      "inputs": [
        {
          "internalType": "uint256",
          "name": "claim_num",
          "type": "uint256"
        },
        {
          "internalType": "address payable",
          "name": "to_address",
          "type": "address"
        }
      ],
      "name": "withdraw",
      "outputs": [],
      "stateMutability": "nonpayable",
      "type": "function"
    },
    {
      "inputs": [
        {
          "internalType": "uint256",
          "name": "claim_num",
          "type": "uint256"
        }
      ],
      "name": "withdraw",
      "outputs": [],
      "stateMutability": "nonpayable",
      "type": "function"
    },
    {
      "inputs": [
        {
          "internalType": "string",
          "name": "claim_id",
          "type": "string"
        }
      ],
      "name": "withdraw",
      "outputs": [],
      "stateMutability": "nonpayable",
      "type": "function"
    },
    {
      "inputs": [
        {
          "internalType": "string",
          "name": "claim_id",
          "type": "string"
        },
        {
          "internalType": "address payable",
          "name": "to_address",
          "type": "address"
        }
      ],
      "name": "withdraw",
      "outputs": [],
      "stateMutability": "nonpayable",
      "type": "function"
    },
    {
      "inputs": [
        {
          "internalType": "string",
          "name": "_home_network",
          "type": "string"
        },
        {
          "internalType": "string",
          "name": "_home_asset",
          "type": "string"
        },
        {
          "internalType": "address",
          "name": "_precompileAddress",
          "type": "address"
        },
        {
          "internalType": "address",
          "name": "oracleAddr",
          "type": "address"
        }
      ],
      "name": "initImportWrapper",
      "outputs": [],
      "stateMutability": "nonpayable",
      "type": "function"
    },
    {
      "inputs": [
        {
          "internalType": "contract GovernanceFactory",
          "name": "governanceFactory",
          "type": "address"
        },
        {
          "internalType": "contract VotedValueFactory",
          "name": "votedValueFactory",
          "type": "address"
        }
      ],
      "name": "setupGovernance",
      "outputs": [],
      "stateMutability": "nonpayable",
      "type": "function"
    },
    {
      "inputs": [
        {
          "internalType": "address",
          "name": "oracleAddr",
          "type": "address"
        }
      ],
      "name": "validateOracle",
      "outputs": [],
      "stateMutability": "view",
      "type": "function"
    },
    {
      "inputs": [
        {
          "internalType": "address",
          "name": "oracleAddr",
          "type": "address"
        }
      ],
      "name": "setOracle",
      "outputs": [],
      "stateMutability": "nonpayable",
      "type": "function"
    },
    {
      "inputs": [
        {
          "internalType": "uint256",
          "name": "_min_price20",
          "type": "uint256"
        }
      ],
      "name": "validateMinPrice",
      "outputs": [],
      "stateMutability": "pure",
      "type": "function"
    },
    {
      "inputs": [
        {
          "internalType": "uint256",
          "name": "_min_price20",
          "type": "uint256"
        }
      ],
      "name": "setMinPrice",
      "outputs": [],
      "stateMutability": "nonpayable",
      "type": "function"
    },
    {
      "inputs": [
        {
          "internalType": "string",
          "name": "home_address",
          "type": "string"
        },
        {
          "internalType": "string",
          "name": "data",
          "type": "string"
        },
        {
          "internalType": "uint256",
          "name": "amount",
          "type": "uint256"
        },
        {
          "internalType": "uint256",
          "name": "reward",
          "type": "uint256"
        }
      ],
      "name": "transferToHomeChain",
      "outputs": [],
      "stateMutability": "nonpayable",
      "type": "function"
    },
    {
      "inputs": [
        {
          "internalType": "uint256",
          "name": "amount",
          "type": "uint256"
        }
      ],
      "name": "getRequiredStake",
      "outputs": [
        {
          "internalType": "uint256",
          "name": "",
          "type": "uint256"
        }
      ],
      "stateMutability": "view",
      "type": "function"
    }
  ],
  "bytecode": "0x6080806040523462000111576200602d803803809162000020828562000150565b833981019061014081830312620001115780516001600160401b03929083811162000111578162000053918401620001cd565b9160208101518481116200011157826200006f918301620001cd565b6200007d6040830162000239565b6200008b6060840162000239565b620000996080850162000239565b90620000a860a086016200024e565b92620000b760c087016200024e565b9460e0870151966101008101518b8111620001115789620000da9183016200025e565b986101208201519b8c116200011157620001019b620000fa92016200025e565b98620002dc565b604051614c4a9081620013c38239f35b600080fd5b50634e487b7160e01b600052604160045260246000fd5b6001600160401b0381116200014157604052565b6200014b62000116565b604052565b601f909101601f19168101906001600160401b038211908210176200014157604052565b6040519061010082016001600160401b038111838210176200014157604052565b918091926000905b828210620001b7575011620001b0575050565b6000910152565b915080602091830151818601520182916200019d565b81601f82011215620001115780516001600160401b03811162000229575b6040519262000205601f8301601f19166020018562000150565b81845260208284010111620001115762000226916020808501910162000195565b90565b6200023362000116565b620001eb565b51906001600160a01b03821682036200011157565b519061ffff821682036200011157565b9080601f8301121562000111578151906001600160401b038211620002cc575b8160051b60405193602093620002978584018762000150565b8552838086019282010192831162000111578301905b828210620002bc575050505090565b81518152908301908301620002ad565b620002d662000116565b6200027e565b6001600081905554620003c79a9599939892979196620003c1969394926200039e9262000313906001600160a01b031615620003e0565b61ffff91606483831693620003288562000660565b82166200033581620006b2565b620003408762000732565b6200034b8862000732565b620003568a620007e0565b1115620003d657915b15620003c95762000393905b620003886200037962000174565b6001600160a01b039099168952565b61ffff166020880152565b61ffff166040860152565b600060608501526000608085015260a084015260c083015260e0820152620005b6565b62000b3d565b565b506200039360646200036b565b506096916200035f565b15620003e857565b60405162461bcd60e51b815260206004820152601360248201527f616c726561647920696e697469616c697a6564000000000000000000000000006044820152606490fd5b81811062000439575050565b600081556001016200042d565b805190680100000000000000008211620004ff575b60045482600455808310620004c1575b5060046000908152906020907f8a35acfbc15ff81a39ae7d344fd709f28e8600b4aa8c65c6b64bfe7fe36bd19b9082015b848410620004ab575050505050565b600183828293518555019201930192906200049c565b6004600052620004f8907f8a35acfbc15ff81a39ae7d344fd709f28e8600b4aa8c65c6b64bfe7fe36bd19b9081019084016200042d565b386200046b565b6200050962000116565b6200045b565b805190680100000000000000008211620005a6575b6005548260055580831062000579575b5060056000908152906020906000805160206200600d8339815191529082015b84841062000563575050505050565b6001838282935185550192019301929062000554565b60056000526200059f906000805160206200600d8339815191529081019084016200042d565b3862000534565b620005b062000116565b62000524565b60e09060018060a01b038151166002549060208301519061ffff60b01b604085015160b01b169260018060c01b031916179061ffff60a01b9060a01b161717600255620006336200060e606083015163ffffffff1690565b6002805463ffffffff60c01b191660c09290921b63ffffffff60c01b16919091179055565b60808101516003556200064a60a082015162000446565b6200065960c08201516200050f565b0151600655565b8015159081620006a5575b50156200067457565b60405162461bcd60e51b815260206004820152600960248201526862616420726174696f60b81b6044820152606490fd5b61fa00915010386200066b565b6064811190816200070c575b5015620006c757565b60405162461bcd60e51b815260206004820152601560248201527f62616420636f756e7465727374616b6520636f656600000000000000000000006044820152606490fd5b61fa0091501038620006be565b60009103126200011157565b506040513d6000823e3d90fd5b73__CounterstakeLibrary___________________803b1562000111576040518092636a5106d560e11b8252602482016020908160048501528251809152816044850193019160005b828110620007c8575050505091818060009403915af48015620007b8575b620007a15750565b80620007b1620003c7926200012d565b8062000719565b620007c262000725565b62000799565b8351855287955093810193928101926001016200077b565b6001600160a01b03811661080214620008805760801c63ffffffff1663fbfbfbfa14620003c75760405162461bcd60e51b815260206004820152604560248201527f756e737570706f7274656420746f6b656e20747970653a206f6e6c792050334460448201527f20616e642033445061737320455243323020707265636f6d70696c657320616c6064820152641b1bddd95960da1b608482015260a490fd5b50565b90600182811c92168015620008b5575b60208310146200089f57565b634e487b7160e01b600052602260045260246000fd5b91607f169162000893565b90601f8211620008ce575050565b620003c791600f6000526020600020906020601f840160051c83019310620008ff575b601f0160051c01906200042d565b9091508190620008f1565b90601f821162000918575050565b620003c79160106000526020600020906020601f840160051c83019310620008ff57601f0160051c01906200042d565b80519091906001600160401b03811162000a3c575b62000975816200096f60105462000883565b6200090a565b602080601f8311600114620009b45750819293600092620009a8575b50508160011b916000199060031b1c191617601055565b01519050388062000991565b6010600052601f198316949091907f1b6847dc741a1b0cd08d278845f9d819d87b734759afb55fe2de5cb82a9ae672926000905b87821062000a2357505083600195961062000a09575b505050811b01601055565b015160001960f88460031b161c19169055388080620009fe565b80600185968294968601518155019501930190620009e8565b62000a4662000116565b6200095d565b1562000a5457565b60405162461bcd60e51b815260206004820152602160248201527f707265636f6d70696c6520616464726573732063616e6e6f74206265207a65726044820152606f60f81b6064820152608490fd5b1562000aab57565b60405162461bcd60e51b815260206004820152601d60248201527f63616e6e6f74207573652050334420617320696d6167652061737365740000006044820152606490fd5b1562000af857565b60405162461bcd60e51b815260206004820152601a60248201527f696e76616c696420707265636f6d70696c6520616464726573730000000000006044820152606490fd5b600180546001600160a01b039392919062000b5b90851615620003e0565b600d80546001600160a01b0319168786161790558151916001600160401b03831162000cf1575b62000b9a8362000b94600f5462000883565b620008c0565b60209081601f851160011462000c42575062000c309562000bf363fbfbfbfa96868063ffffffff98620003c79d9c9862000c25986108029860009462000c36575b50501b916000199060031b1c191617600f5562000948565b601180546001600160a01b0319166001600160a01b038616179055831662000c1d81151562000a4c565b141562000aa3565b60801c161462000af0565b62000e93565b01519250388062000bdb565b600f6000529293929190601f1984167f8d1108e10bcb7c27dddfc02ed9d693a074039d026cf4ea4240b40f7d581ac802936000905b82821062000cd957505063fbfbfbfa9663ffffffff968662000c25966108029662000c309c96620003c79f9e9a62000bf3971062000cbf575b505050811b01600f5562000948565b015160001960f88460031b161c1916905538808062000cb0565b80888697829497870151815501960194019062000c77565b62000cfb62000116565b62000b82565b1562000d0957565b60405162461bcd60e51b815260206004820152601d60248201527f6f7261636c652063616e6e6f74206265207a65726f20616464726573730000006044820152606490fd5b1562000d5657565b60405162461bcd60e51b815260206004820152601f60248201527f6f7261636c652063616e6e6f742062652050334420707265636f6d70696c65006044820152606490fd5b1562000da357565b60405162461bcd60e51b815260206004820152602160248201527f6f7261636c652063616e6e6f7420626520455243323020707265636f6d70696c6044820152606560f81b6064820152608490fd5b908160209103126200011157518015158103620001115790565b1562000e1457565b60405162461bcd60e51b815260206004820152600a602482015269626164206f7261636c6560b01b6044820152606490fd5b1562000e4e57565b60405162461bcd60e51b815260206004820152601460248201527f6e6f2070726963652066726f6d206f7261636c650000000000000000000000006044820152606490fd5b620003c79062000f3b9062000ec36108026001600160a01b03831662000ebb81151562000d01565b141562000d4e565b62000ede63fbfbfbfa63ffffffff8360801c16141562000d9b565b604051631627905560e01b81526001600160a01b038216600482015262000f359060208160248173__CounterstakeLibrary___________________5af490811562000f8e575b60009162000f59575b5062000e0c565b620011b2565b90159081159162000f4e575b5062000e46565b905015153862000f47565b62000f7f915060203d811162000f86575b62000f76818362000150565b81019062000df2565b3862000f2e565b503d62000f6a565b62000f9862000725565b62000f25565b6010546000929162000fb08262000883565b9160019081811690811562001005575060011462000fcd57505050565b9091929350601060005260209081600020906000915b85831062000ff357505050500190565b80548584015291830191810162000fe3565b60ff191683525050019150565b60408051636261736560e01b60208201908152600482529181016001600160401b0381118282101762001049575b60405251902090565b6200105362000116565b62001040565b60405160208101907f30783030303030303030303030303030303030303030303030303030303030308252690303030303030303030360b41b6040820152602a81526060810181811060018060401b03821117620010495760405251902090565b919082604091031262000111576020825192015190565b90602091620010ec8151809281855285808601910162000195565b601f01601f1916010190565b9092916040825260009184546200110f8162000883565b95866040840152600191828116908160001462001190575060011462001147575b5050620002269394506020818403910152620010d1565b9095919350600052602080600020956000965b8388106200117b575050505060606200022693948301019184933862001130565b8054868901606001529682019681016200115a565b60ff191660608501525094955085945050608081019250620002263862001130565b906040620012399281516020810190620011e081620011d18462000f9e565b03601f19810183528262000150565b519020600254909190620011fd906001600160a01b0316620012e8565b916200120862001012565b8114908115620012ab575b5015620012a357600f5b8351809681948293631e879a6d60e11b845260048401620010f8565b03916001600160a01b03165afa91821562001293575b60009081936200125e57509190565b90506200128791925060403d81116200128b575b6200127e818362000150565b810190620010ba565b9091565b503d62001272565b6200129d62000725565b6200124f565b60106200121d565b9050620012b762001059565b143862001213565b90602082820312620001115781516001600160401b0381116200011157620002269201620001cd565b6004906000906001600160a01b0381169061080282036200135c57506040516395d89b4160e01b815292839182905afa9081156200134c575b6000916200132d575090565b62000226913d8091833e62001343818362000150565b810190620012bf565b6200135662000725565b62001321565b60801c63ffffffff1663fbfbfbfa1482146200139a576040516395d89b4160e01b815292839182905afa9081156200134c576000916200132d575090565b6040516395d89b4160e01b815292839182905afa9081156200134c576000916200132d57509056fe60806040526004361015610013575b600080fd5b60003560e01c8062f714ce146103ac57806309a2b0db146103a3578063170fd3381461039157806323b0258914610391578063250a99041461039a5780632895febe146103915780632bb81546146103885780632d59457f1461037f5780632dcddf82146103765780632e1a7d4d1461036d5780632ec6a9ca1461036457806331fb67c21461035b5780633fd41d161461035257806348dfac50146103495780634dad247f14610340578063506d3c4314610337578063559dba011461032e578063569f7a15146103255780635aa6e6751461031c5780635ad95ef2146103135780635aef24471461030a5780635ea8cd12146103015780636255c272146102f8578063765ef822146102ef5780637adbf973146102e657806389e4ae1c146102dd5780638c80fd90146102d4578063969117ed146102cb5780639bf31f5b146102c25780639d988a36146102b9578063a2f6255a146102b0578063a5dd3215146102a7578063a89ae4ba1461029e578063a8b6cf6c14610295578063b2237ba31461028c578063be47b67614610283578063c08d52401461027a578063c0bce03214610271578063cecc131c14610268578063d4a20daa1461025f578063d9d7e84314610256578063dce6636c1461024d578063dd48622e14610244578063e06174e41461023b578063e706767a14610232578063ebcdac02146102295763fcddcb2f1461022157600080fd5b61000e612176565b5061000e61211f565b5061000e611fd6565b5061000e611f78565b5061000e611f2a565b5061000e611f03565b5061000e611d9f565b5061000e611d44565b5061000e611ce0565b5061000e611c4d565b5061000e611bdc565b5061000e611bb2565b5061000e611b4e565b5061000e611ac1565b5061000e611a97565b5061000e611a71565b5061000e6119a5565b5061000e611893565b5061000e611858565b5061000e61176b565b5061000e611704565b5061000e611622565b5061000e6115a4565b5061000e611547565b5061000e6114ea565b5061000e61148d565b5061000e611455565b5061000e611184565b5061000e61115a565b5061000e611093565b5061000e611076565b5061000e611058565b5061000e610f7c565b5061000e610ef0565b5061000e610ed1565b5061000e610eae565b5061000e610e30565b5061000e610cc2565b5061000e610bbd565b5061000e610b76565b5061000e610a23565b5061000e6105f6565b5061000e610775565b5061000e6105cc565b5061000e6103e1565b6001600160a01b031690565b6001600160a01b0381160361000e57565b60c435906103df826103c1565b565b503461000e57604036600319011261000e576104ad600435602435610405816103c1565b61040d612d11565b6001600160a01b038116156105ad575b610428821515612d67565b61043182610e10565b9061043e82541515612911565b6040516354513b1560e01b8152916060838061045f85888660048501612dd4565b038173__CounterstakeLibrary___________________5af49283156105a0575b60008091819561056c575b506104c1575b600090156104b9575054905b6104a8838383614893565b612ff9565b6104b76001600055565b005b90509061049d565b6104ca85610e20565b546104d660085461296d565b908181036104fa575b50506104e9612e3f565b60006104f486610e20565b55610491565b61053d61052c61051784610512610565968610612dfc565b6120da565b905460039190911b1c6001600160401b031690565b918061053784612c24565b556120da565b9080546001600160401b0360039390931b83811b80199092169390941690931b909216179055565b38806104df565b91505061059191935060603d8111610599575b610589818361067e565b810190612da7565b93913861048b565b503d61057f565b6105a86127c0565b610480565b503361041d565b600091031261000e57565b6001600160401b03169052565b503461000e57600036600319011261000e576007546040516001600160401b039091168152602090f35b503461000e57602036600319011261000e57005b6044359061ffff8216820361000e57565b6004359061ffff8216820361000e57565b50634e487b7160e01b600052604160045260246000fd5b6001600160401b03811161065657604052565b61065e61062c565b604052565b606081019081106001600160401b0382111761065657604052565b601f909101601f19168101906001600160401b0382119082101761065657604052565b604051906101e082016001600160401b0381118382101761065657604052565b6040519061010082016001600160401b0381118382101761065657604052565b6040519061012082016001600160401b0381118382101761065657604052565b9080601f8301121561000e578135906001600160401b038211610768575b8160051b604051936020936107368584018761067e565b8552838086019282010192831161000e578301905b828210610759575050505090565b8135815290830190830161074b565b61077061062c565b61071f565b503461000e5760c036600319011261000e57600435610793816103c1565b60243561ffff8116810361000e576107a961060a565b6001600160401b039260843584811161000e576107ca903690600401610701565b9160a43594851161000e576107e66104b7953690600401610701565b9360643592612684565b6020906001600160401b03811161080d575b601f01601f19160190565b61081561062c565b610802565b81601f8201121561000e57803590610831826107f0565b9261083f604051948561067e565b8284526020838301011161000e57816000926020809301838601378301015290565b602060031982011261000e57600435906001600160401b03821161000e5761088b9160040161081a565b90565b6002111561089857565b634e487b7160e01b600052602160045260246000fd5b9060028210156108985752565b918091926000905b8282106108db5750116108d4575050565b6000910152565b915080602091830151818601520182916108c3565b90602091610909815180928185528580860191016108bb565b601f01601f1916010190565b60208082528251828201528201516001600160a01b03166040820152604082015163ffffffff166060820152606082015163ffffffff16608082015260808201516001600160a01b031660a082015260a082015163ffffffff1660c082015260c082015161ffff1660e082015260e082015161099761010091828401906108ae565b8201516109ab610120918284019015159052565b8201516109bf610140918284019015159052565b8201516109d3610160918284019015159052565b820151916101e090610a0e6109f56101809584878701526102008601906108f0565b94820151946101a095601f1986830301878701526108f0565b93810151906101c09182850152015191015290565b503461000e57610a43610a3536610861565b610a3d61235d565b50611832565b54600052600b602052610b7260406000206006610a5e6106a1565b9180548352610b2f60ff6001830154610ae460018060a01b0391610a8783821660208a016123ed565b610abc63ffffffff82610aa982809560a01c1660408d019063ffffffff169052565b60c01c1660608a019063ffffffff169052565b610ad0600287015493841660808a016123ed565b8260a01c1660a088019063ffffffff169052565b60c081811c61ffff1690870152610b03828260d01c1660e088016123fc565b60d881901c8216151561010087015260e081901c8216151561012087015260e81c161515610140850152565b610b3b6003820161198a565b610160840152610b4d6004820161198a565b61018084015260058101546101a084015201546101c082015260405191829182610915565b0390f35b503461000e57602036600319011261000e576104b760043561275c565b602060031982011261000e57600435906001600160401b03821161000e5761088b91600401610701565b503461000e57610bcc36610b93565b60019060018060a01b03825416610c116040518092630102942360e61b825233600483015281602460209586935afa908115610cb5575b600091610c88575b506127cd565b8151918190600160401b8411610c7b575b60045484600455808510610c5d575b5001600460005281600020916000915b848310610c4a57005b8051845592850192918501918101610c41565b610c75906004600052858460002091820191016124e7565b38610c31565b610c8361062c565b610c22565b610ca89150833d8511610cae575b610ca0818361067e565b8101906127ab565b38610c0b565b503d610c96565b610cbd6127c0565b610c03565b503461000e57602036600319011261000e576104ad600435610ce2612d11565b610ced811515612d67565b610cf681610e10565b610d0281541515612911565b6040516354513b1560e01b81529060608280610d2333878660048501612dd4565b038173__CounterstakeLibrary___________________5af4918215610df4575b600080918194610dd0575b50610d78575b60009015610d715750545b610d6b828233614893565b33612ff9565b9050610d60565b610d8184610e20565b54610d8d60085461296d565b90818103610db1575b5050610da0612e3f565b6000610dab85610e20565b55610d55565b61053d61052c61051784610512610dc9968610612dfc565b3880610d96565b915050610dec91925060603d811161059957610589818361067e565b929138610d4f565b610dfc6127c0565b610d44565b60243590600282101561000e57565b600052600b602052604060002090565b6000526009602052604060002090565b503461000e57606036600319011261000e57610e4a610e01565b604435610e56816103c1565b6000916004358352600c60205260408320906002811015610e9a578352602090815260408084206001600160a01b0393909316845291815291819020549051908152f35b634e487b7160e01b84526021600452602484fd5b503461000e576104ad610ec8610ec336610861565b611832565b54610ce2612d11565b503461000e57600036600319011261000e576020600e54604051908152f35b503461000e57602036600319011261000e57600154604051630102942360e61b8152336004820152610f4691602090829060249082906001600160a01b03165afa908115610f6f575b600091610f5757506127cd565b6104b763ffffffff6004351661248c565b610ca8915060203d8111610cae57610ca0818361067e565b610f776127c0565b610f39565b503461000e57610f8b36610b93565b60019060018060a01b03825416610fce6040518092630102942360e61b825233600483015281602460209586935afa908115610cb557600091610c8857506127cd565b8151918190600160401b8411611038575b6005548460055580851061101a575b5001600560005281600020916000915b84831061100757005b8051845592850192918501918101610ffe565b611032906005600052858460002091820191016124e7565b38610fee565b61104061062c565b610fdf565b6001600160a01b03909116815260200190565b503461000e57600036600319011261000e5760206040516108028152f35b503461000e57602036600319011261000e576104b7600435612819565b503461000e57604036600319011261000e57610b726111346110b3610e01565b600435600052600b60205261112f61112860406000209260016005850154916110dd831515612911565b6110e68161088e565b0361114f5780935b600281015460019060d01c60ff166111058161088e565b0361114457505b6002546111229060b01c61ffff165b61ffff1690565b906124c8565b6064900490565b61298a565b6040519081529081906020820190565b60069150015461110c565b6006840154936110ee565b503461000e57600036600319011261000e576001546040516001600160a01b039091168152602090f35b503461000e5760408060031936011261000e57611240906004356111a7816103c1565b6111bf602435916111b7836103c1565b8230916137ea565b6111ca6001546103b5565b600d546001600160a01b03928383169291908416906111e8906103b5565b8551634d89ac5560e11b81526001600160a01b0393841660048201529216602483015230602090811b63a5dd32158117604090811b6044860152637adbf97391909117901b6064840152919586949085906084820190565b03938360009889968188875af1958615611448575b8596611429575b50803b15611425578651631beab6f960e01b80825260406004830152600d60448301526c6f7261636c654164647265737360981b60648301526001600160a01b0397909716602482015261133492859290919087908290608490829084905af18015611418575b611405575b506112d46001546103b5565b600e548951634a79346360e01b81526001600160a01b038316600482015260248101919091523060201b63170fd3388117604090811b6044840152635ea8cd1291909117901b606482015291169390928391908290889082906084820190565b03925af19283156113f8575b84936113c9575b5050803b156113c557845193845260406004850152600b60448501526a06d696e5f707269636532360ac1b60648501526001600160a01b039190911660248401528290608490829084905af180156113b8575b6113a2575051f35b806113af6113b592610643565b806105b4565b51f35b6113c06127c0565b61139a565b8280fd5b6113e9929350803d106113f1575b6113e1818361067e565b8101906136e7565b903880611347565b503d6113d7565b6114006127c0565b611340565b806113af61141292610643565b386112c8565b6114206127c0565b6112c3565b8480fd5b611441919650843d86116113f1576113e1818361067e565b943861125c565b6114506127c0565b611255565b503461000e57602036600319011261000e5761146f61235d565b50600435600052600b602052610b7260406000206006610a5e6106a1565b503461000e57602036600319011261000e57600154604051630102942360e61b81523360048201526114e291602090829060249082906001600160a01b03165afa908115610f6f57600091610f5757506127cd565b600435600e55005b503461000e57602036600319011261000e576224ea00600435101561150b57005b60405162461bcd60e51b81526020600482015260146024820152736d696e2074782061676520746f6f206c6172676560601b6044820152606490fd5b503461000e57602036600319011261000e57600154604051630102942360e61b815233600482015261159c91602090829060249082906001600160a01b03165afa908115610f6f57600091610f5757506127cd565b600435600655005b503461000e57602036600319011261000e576004356115c2816103c1565b600154604051630102942360e61b81523360048201526001600160a01b03929161160991906020908290602490829088165afa908115610f6f57600091610f5757506127cd565b600d8054919092166001600160a01b0319909116179055005b50606036600319011261000e5760043561163a610e01565b604435611645612d11565b61164e8161332a565b6000928391818352600b6020526040832061166b81541515612911565b73__CounterstakeLibrary___________________803b156114255760c4926116c16040519788968795631478dbcf60e11b8752600260048801526024870152600c6044870152606486015260848501906108ae565b60a48301525af480156116f7575b6116e4575b506116df6001600055565b604051f35b806113af6116f192610643565b386116d4565b6116ff6127c0565b6116cf565b503461000e57602036600319011261000e57600154604051630102942360e61b815233600482015261175991602090829060249082906001600160a01b03165afa908115610f6f57600091610f5757506127cd565b600435600355005b8015150361000e57565b503461000e57604036600319011261000e5761178561061b565b60243561179181611761565b61ffff6040519263fa3d060d60e01b8452600260048501521660248301521515604482015260208160648173__CounterstakeLibrary___________________5af4908115611825575b6000916117ee575b604051828152602090f35b6020813d821161181d575b816118066020938361067e565b8101031261181957519050610b726117e3565b5080fd5b3d91506117f9565b61182d6127c0565b6117db565b602061184b9181604051938285809451938492016108bb565b8101600a81520301902090565b503461000e5760206118808161186d36610861565b81604051938285809451938492016108bb565b8101600a81520301902054604051908152f35b503461000e57602036600319011261000e5760043560005260096020526020604060002054604051908152f35b90600182811c921680156118f0575b60208310146118da57565b634e487b7160e01b600052602260045260246000fd5b91607f16916118cf565b906000929180549161190b836118c0565b91828252600193848116908160001461196d575060011461192d575b50505050565b90919394506000526020928360002092846000945b838610611959575050505001019038808080611927565b805485870183015294019385908201611942565b60ff19166020840152505060400193503891508190508080611927565b906103df61199e92604051938480926118fa565b038361067e565b503461000e57600080600319360112611a6e5760405181600f546119c8816118c0565b80845290600190818116908115611a4d5750600114611a06575b610b72846119f28188038261067e565b6040519182916020835260208301906108f0565b600f835260209450600080516020614bf58339815191525b828410611a3a5750505081610b72936119f292820101936119e2565b8054858501870152928501928101611a1e565b60ff1916602086015250506040830193506119f29150829050610b726119e2565b80fd5b503461000e57602036600319011261000e576104b7600435611a92816103c1565b61425a565b503461000e57600036600319011261000e57600d546040516001600160a01b039091168152602090f35b5061010036600319011261000e576001600160401b0360043581811161000e57611aef90369060040161081a565b6024359063ffffffff8216820361000e5760a43583811161000e57611b1890369060040161081a565b611b206103d2565b9160e43594851161000e57611b3c6104b795369060040161081a565b936084359160643591604435916129a1565b503461000e57602036600319011261000e57600154604051630102942360e61b8152336004820152611ba391602090829060249082906001600160a01b03165afa908115610f6f57600091610f5757506127cd565b6104b761ffff6004351661244a565b503461000e57600036600319011261000e576011546040516001600160a01b039091168152602090f35b50606036600319011261000e576001600160401b0360043581811161000e573660238201121561000e57806004013591821161000e57366024838301011161000e5760246020611c2a610e01565b9260443594806040519485930183378101600a8152030190205491611645612d11565b503461000e57600080600319360112611a6e5760405181601054611c70816118c0565b80845290600190818116908115611a4d5750600114611c9957610b72846119f28188038261067e565b6010835260209450600080516020614bd58339815191525b828410611ccd5750505081610b72936119f292820101936119e2565b8054858501870152928501928101611cb1565b503461000e57602036600319011261000e57600154604051630102942360e61b8152336004820152611d3591602090829060249082906001600160a01b03165afa908115610f6f57600091610f5757506127cd565b6104b761ffff6004351661246b565b503461000e576104b7611d5636610b93565b612875565b6020908160408183019282815285518094520193019160005b828110611d82575050505090565b83516001600160401b031685529381019392810192600101611d74565b503461000e57600036600319011261000e57604080516008548082529160208201600860005292600080516020614bb5833981519152906000915b816003840110611ea45794611e17928592610b72975491818110611e82575b818110611e5e575b818110611e38575b10611e21575b50038361067e565b5191829182611d5b565b90611e318160209360c01c6105bf565b0138611e0f565b92600190602090611e5681608087901c6001600160401b03166105bf565b019301611e09565b92600190602090611e7a81868b1c6001600160401b03166105bf565b019301611e01565b92600190602090611e9c816001600160401b0387166105bf565b019301611df9565b805490956004916001916001600160401b0391611ef890611ec7838583166105bf565b611ed86020840185838c1c166105bf565b611eeb6080948a85019083871c166105bf565b606083019060c01c6105bf565b019601920191611dda565b503461000e57602036600319011261000e576020611f22600435614731565b604051908152f35b503461000e57604036600319011261000e576004356001600160401b03811161000e57611f5e6104ad91369060040161081a565b611f6e60243591610ec3836103c1565b549061040d612d11565b503461000e57600036600319011261000e5760c06002546003546006549063ffffffff6040519360018060a01b038116855261ffff808260a01c1660208701528160b01c166040860152851c166060840152608083015260a0820152f35b503461000e57608036600319011261000e576001600160401b0360043581811161000e5761200890369060040161081a565b60243591821161000e576120417f4769528a977394d0b1b9c3ad55e7701566261bb71bb5d57c1af58bcb84db30cc92369060040161081a565b601154604051632770a7eb60e21b8152604435926120aa9290916120999160209082906001600160a01b03168160008161207f8b336004840161468d565b03925af19081156120cd575b6000916120af575b506146a8565b6040519384936064359033866146f2565b0390a1005b6120c7915060203d8111610cae57610ca0818361067e565b38612093565b6120d56127c0565b61208b565b90600854821015612109576008600052600282901c600080516020614bb5833981519152019160031b60181690565b634e487b7160e01b600052603260045260246000fd5b503461000e57602036600319011261000e5760043560085481101561000e576008600052600281901c600080516020614bb5833981519152015460405160069290921b60c0161c6001600160401b03168152602090f35b503461000e57608036600319011261000e576001600160401b0360043581811161000e576121a890369060040161081a565b9060243581811161000e576121c190369060040161081a565b91604435926121cf846103c1565b606435926121dc846103c1565b600180546001600160a01b0394906121f690861615612408565b600d80546001600160a01b0319168787161790558051928311612350575b61222883612223600f546118c0565b61349a565b60209081601f85116001146122bd5750611a929561227963fbfbfbfa96868063ffffffff986104b79d986122a898610802986000946122b2575b50501b916000199060031b1c191617600f55613519565b601180546001600160a01b0319166001600160a01b03861617905583166122a18115156135fc565b1415613652565b60801c161461369e565b015192503880612262565b600f6000529293929190601f198416600080516020614bf5833981519152936000905b82821061233957505063fbfbfbfa9663ffffffff96866122a89661080296611a929c966104b79f9a6122799710612320575b505050811b01600f55613519565b015160001960f88460031b161c19169055388080612312565b8088869782949787015181550196019401906122e0565b61235861062c565b612214565b604051906101e082016001600160401b038111838210176123e0575b604052816101c06000918281528260208201528260408201528260608201528260808201528260a08201528260c08201528260e082015282610100820152826101208201528261014082015260606101608201526060610180820152826101a08201520152565b6123e861062c565b612379565b6001600160a01b039091169052565b60028210156108985752565b1561240f57565b60405162461bcd60e51b8152602060048201526013602482015272185b1c9958591e481a5b9a5d1a585b1a5e9959606a1b6044820152606490fd5b6002805461ffff60a01b191660a09290921b61ffff60a01b16919091179055565b6002805461ffff60b01b191660b09290921b61ffff60b01b16919091179055565b6002805463ffffffff60c01b191660c09290921b63ffffffff60c01b16919091179055565b50634e487b7160e01b600052601160045260246000fd5b80600019048211811515166124db570290565b6124e36124b1565b0290565b8181106124f2575050565b600081556001016124e7565b805190600160401b8211612587575b6005548260055580831061255e575b506005600090815290602090600080516020614b958339815191529082015b848410612549575050505050565b6001838282935185550192019301929061253b565b600560005261258190600080516020614b958339815191529081019084016124e7565b3861251c565b61258f61062c565b61250d565b60018060a01b0381511660018060a01b0319600254161760025561ffff6125d06020916125c581848601511661244a565b60408401511661246b565b6125e363ffffffff60608401511661248c565b608082015160035560a0820151805191908190600160401b8411612677575b60045484600455808510612659575b5001906004600052806000206000925b8484106126445750505050508061263d60c060e09301516124fe565b0151600655565b60018382829351855501920193019290612621565b612671906004600052858460002091820191016124e7565b38612611565b61267f61062c565b612602565b9390612726906103df96936126b360018060a01b036126ac6126a76001546103b5565b6103b5565b1615612408565b61ffff916064838316936126c68561275c565b82166126d181612819565b6126da87612875565b6126e388612875565b6126ec8a6131be565b111561275357915b156127485761271b905b6127106127096106c1565b98896123ed565b61ffff166020880152565b61ffff166040860152565b600060608501526000608085015260a084015260c083015260e0820152612594565b5061271b60646126fe565b506096916126f4565b801515908161279f575b501561276e57565b60405162461bcd60e51b815260206004820152600960248201526862616420726174696f60b81b6044820152606490fd5b61fa0091501038612766565b9081602091031261000e575161088b81611761565b506040513d6000823e3d90fd5b156127d457565b60405162461bcd60e51b815260206004820152601d60248201527f6e6f742066726f6d20766f7465642076616c756520636f6e74726163740000006044820152606490fd5b606481119081612869575b501561282c57565b60405162461bcd60e51b81526020600482015260156024820152743130b21031b7bab73a32b939ba30b5b29031b7b2b360591b6044820152606490fd5b61fa0091501038612824565b73__CounterstakeLibrary___________________803b1561000e576040518092636a5106d560e11b8252602482016020908160048501528251809152816044850193019160005b8281106128fa575050505091818060009403915af480156128ed575b6128e05750565b806113af6103df92610643565b6128f56127c0565b6128d9565b8351855287955093810193928101926001016128bd565b1561291857565b60405162461bcd60e51b815260206004820152600d60248201526c6e6f207375636820636c61696d60981b6044820152606490fd5b8115612957570490565b634e487b7160e01b600052601260045260246000fd5b6001811061297d575b6000190190565b6129856124b1565b612976565b818110612995570390565b61299d6124b1565b0390565b93969296959491956129b1612d11565b6001600160a01b0380871615612b88575b86163314159687612b7c575b6000989697969087612b5f575b6129e58a84614b10565b612a0a6129f182614731565b946129fa6106e1565b98895263ffffffff166020890152565b60408701526060860152608085015260a0840152612a2b8560c085016123ed565b60e0830152610100820152600754612a7190612a4f906001600160401b0316612bcf565b600780546001600160401b0319166001600160401b0392909216919091179055565b600754612a86906001600160401b0316612bf4565b612a9160085461296d565b600754612aa6906001600160401b0316612c24565b5560075473__CounterstakeLibrary___________________91906001600160401b031690823b1561000e5760405163079b277560e31b815292600092849283918291612af69160048401612c3e565b03915af48015612b52575b612b3f575b50612b18575b50506103df6001600055565b81612b26612b389383614b60565b6007546001600160401b031691612ef4565b3880612b0c565b806113af612b4c92610643565b38612b06565b612b5a6127c0565b612b01565b9850612b6c818a11612b90565b612b76818a61298a565b986129db565b600089121597506129ce565b3396506129c2565b15612b9757565b60405162461bcd60e51b815260206004820152601060248201526f72657761726420746f6f206c6172676560801b6044820152606490fd5b6001906001600160401b03908116908114612be8570190565b612bf06124b1565b0190565b6103df9061053d600854600160401b811015612c17575b600181016008556120da565b612c1f61062c565b612c0b565b6001600160401b0316600090815260096020526040902090565b61088b929160028252600a6020830152600b6040830152600c606083015260018060401b0316608082015260c060a08201528151906101c0612c8e610120938460c08501526101e08401906108f0565b602085015163ffffffff1660e084015292604085015161010084810191909152606086015191840191909152608085015161014084015260a085015161016084015260c08501516001600160a01b0316610180840152612d0160e08601519460bf199586868303016101a08701526108f0565b94015192828503019101526108f0565b600260005414612d22576002600055565b60405162461bcd60e51b815260206004820152601f60248201527f5265656e7472616e637947756172643a207265656e7472616e742063616c6c006044820152606490fd5b15612d6e57565b60405162461bcd60e51b81526020600482015260116024820152706e6f207375636820636c61696d206e756d60781b6044820152606490fd5b9081606091031261000e578051612dbd81611761565b9160406020830151612dce81611761565b92015190565b908152600c602082015260408101919091526001600160a01b03909116606082015260800190565b15612e0357565b60405162461bcd60e51b8152602060048201526014602482015273109551c81a5b99195e0818599d195c881b185cdd60621b6044820152606490fd5b6008548015612e6d5760001901612e55816120da565b81549060018060401b039060031b1b19169055600855565b634e487b7160e01b600052603160045260246000fd5b919261088b9593612ead92845260208401526000604084015260c0606084015260c08301906118fa565b6001600160a01b03909316608082015280830360a091909101526118fa565b92612ead9261088b97959285526020850152604084015260c0606084015260c08301906118fa565b91604051631627905560e01b815260208180612f138760048301611045565b038173__CounterstakeLibrary___________________5af4908115612fec575b600091612fce575b5080612fb6575b612f4c57505050565b612f5581610e10565b600181015490936001600160a01b031690612f6f906103b5565b91813b1561000e5760008094612fa460405197889687958694635627fd2760e11b865260036004850194019160048701612e83565b03925af180156128ed576128e0575b50565b50612fc96001600160a01b038416613129565b612f43565b612fe6915060203d8111610cae57610ca0818361067e565b38612f3c565b612ff46127c0565b612f34565b929091604051631627905560e01b81526020818061301a8860048301611045565b038173__CounterstakeLibrary___________________5af490811561311c575b6000916130fe575b50806130e6575b6130545750505050565b61305d82610e10565b600181015490946001600160a01b03169190613078906103b5565b94823b1561000e576000946130ae869260405198899788968795635627fd2760e11b875260036004860195019260048801612ecc565b03925af180156130d9575b6130c6575b808080611927565b806113af6130d392610643565b386130be565b6130e16127c0565b6130b9565b506130f96001600160a01b038516613129565b61304a565b613116915060203d8111610cae57610ca0818361067e565b38613043565b6131246127c0565b61303b565b6000809160405160208101906301ffc9a760e01b8252635627fd2760e11b60248201526024815261315981610663565b5191617530fa3d156131b7573d61316f816107f0565b9061317d604051928361067e565b81523d6000602083013e5b8051602081106131af578261319c57505090565b61088b92506020809183010191016127ab565b505050600090565b6060613188565b6001600160a01b03811661080214612fb35760801c63ffffffff1663fbfbfbfa146103df5760405162461bcd60e51b815260206004820152604560248201527f756e737570706f7274656420746f6b656e20747970653a206f6e6c792050334460448201527f20616e642033445061737320455243323020707265636f6d70696c657320616c6064820152641b1bddd95960da1b608482015260a490fd5b1561326357565b60405162461bcd60e51b815260206004820152600e60248201526d191bdb89dd081cd95b9908140cd160921b6044820152606490fd5b156132a057565b606460405162461bcd60e51b815260206004820152602060248201527f334450617373204552433230207472616e7366657246726f6d206661696c65646044820152fd5b156132eb57565b60405162461bcd60e51b8152602060048201526017602482015276140cd1081d1c985b9cd9995c919c9bdb4819985a5b1959604a1b6044820152606490fd5b6133356002546103b5565b61080291906001600160a01b038116908382036133d957505060206133946103df93600093613364341561325c565b6040516323b872dd60e01b8152336004820152306024820152604481019190915293849283919082906064820190565b03925af19081156133cc575b6000916133ae575b506132e4565b6133c6915060203d8111610cae57610ca0818361067e565b386133a8565b6133d46127c0565b6133a0565b90925060801c63ffffffff1663fbfbfbfa0361344a5760206134056103df93600093613364341561325c565b03925af190811561343d575b60009161341f575b50613299565b613437915060203d8111610cae57610ca0818361067e565b38613419565b6134456127c0565b613411565b60405162461bcd60e51b815260206004820152602260248201527f756e737570706f7274656420746f6b656e207479706520666f72207374616b696044820152616e6760f01b6064820152608490fd5b90601f82116134a7575050565b6103df91600f6000526020600020906020601f840160051c830193106134d5575b601f0160051c01906124e7565b90915081906134c8565b90601f82116134ec575050565b6103df9160106000526020600020906020601f840160051c830193106134d557601f0160051c01906124e7565b80519091906001600160401b0381116135ef575b6135418161353c6010546118c0565b6134df565b602080601f831160011461357d5750819293600092613572575b50508160011b916000199060031b1c191617601055565b01519050388061355b565b6010600052601f19831694909190600080516020614bd5833981519152926000905b8782106135d75750508360019596106135be575b505050811b01601055565b015160001960f88460031b161c191690553880806135b3565b8060018596829496860151815501950193019061359f565b6135f761062c565b61352d565b1561360357565b60405162461bcd60e51b815260206004820152602160248201527f707265636f6d70696c6520616464726573732063616e6e6f74206265207a65726044820152606f60f81b6064820152608490fd5b1561365957565b60405162461bcd60e51b815260206004820152601d60248201527f63616e6e6f74207573652050334420617320696d6167652061737365740000006044820152606490fd5b156136a557565b60405162461bcd60e51b815260206004820152601a602482015279696e76616c696420707265636f6d70696c65206164647265737360301b6044820152606490fd5b9081602091031261000e575161088b816103c1565b91939290608083019060018060a01b0316835260209060808285015260045480915260a08401906004600052826000209060005b81811061375f5750505091632dcddf829163d4a20daa60609497821b1760401b60408601521b1760401b910152565b825484529284019260019283019201613730565b91939290608083019060018060a01b0316835260209060808285015260055480915260a08401906005600052826000209060005b8181106137d65750505091634dad247f9163d4a20daa60609497821b1760401b60408601521b1760401b910152565b8254845292840192600192830192016137a7565b6020613841600092613881949561380f60018060a01b036126ac6126a76001546103b5565b6040516372ccf61760e11b81523060048201526001600160a01b03909116602482015293849283919082906044820190565b03926001600160a01b03165af19081156140e3575b6000916140c4575b50600180546001600160a01b0319166001600160a01b0392909216919091179055565b6138fb61388f6001546103b5565b6002546001600160a01b039093169260209060a01c61ffff1660408051634a79346360e01b81526001600160a01b038516600482015261ffff90921660248301523060201b632d59457f8117821b604484015263b2237ba317901b606482015292839081906084820190565b03816000875af19182156140b7575b600092614096575b506001600160a01b0381163b1561000e5760408051631beab6f960e01b8152600481019190915260086044820152670726174696f3130360c41b60648201526001600160a01b03928316602482015291600091839160849183918591165af18015614089575b614076575b506139f861398c6001546103b5565b6002546001600160a01b0382169160209160b01c61ffff1660408051634a79346360e01b81526001600160a01b03909316600484015261ffff90911660248301523060201b63559dba018117821b604484015263cecc131c17901b606482015292839081906084820190565b03816000875af1918215614069575b600092614048575b50803b1561000e5760408051631beab6f960e01b8152600481019190915260146044820152730636f756e7465727374616b655f636f65663130360641b60648201526001600160a01b039290921660248301526000908290608490829084905af1801561403b575b614028575b50613ae9613a8b6001546103b5565b60035460408051634a79346360e01b81526001600160a01b039390931660048401819052602484019290925230602090811b632895febe8117831b6044860152638c80fd901790911b60648401529192909190839081906084820190565b03816000875af191821561401b575b600092613ffa575b50803b1561000e5760408051631beab6f960e01b8152600481019190915260096044820152686d696e5f7374616b6560b81b60648201526001600160a01b039290921660248301526000908290608490829084905af18015613fed575b613fda575b50613be1613b716001546103b5565b6002546001600160a01b0382169160209160c01c63ffffffff1660408051634a79346360e01b81526001600160a01b03909316600484015263ffffffff90911660248301523060201b636255c2728117821b60448401526348dfac5017901b606482015292839081906084820190565b03816000875af1918215613fcd575b600092613fac575b50803b1561000e5760408051631beab6f960e01b81526004810191909152600a6044820152696d696e5f74785f61676560b01b60648201526001600160a01b039290921660248301526000908290608490829084905af18015613f9f575b613f8c575b50613cc8613c6a6001546103b5565b60065460408051634a79346360e01b81526001600160a01b039390931660048401819052602484019290925230602090811b6323b025898117831b604486015263765ef8221790911b60648401529192909190839081906084820190565b03816000875af1918215613f7f575b600092613f5e575b50803b1561000e5760408051631beab6f960e01b81526004810191909152600f60448201526e1b185c99d957dd1a1c995cda1bdb19608a1b60648201526001600160a01b039290921660248301526000908290608490829084905af18015613f51575b613f3e575b50613d536001546103b5565b60018060a01b0381166040519260208480613d80631788388f60e11b9687835230903090600485016136fc565b03816000855af1938415613f31575b600094613f10575b50813b1561000e5760408051631beab6f960e01b8152600481019190915260136044820152726368616c6c656e67696e675f706572696f647360681b60648201526001600160a01b03949094166024850152613e3b936020926000908290608490829084905af18015613f03575b613ef0575b50613e166001546103b5565b9060018060a01b03821693600060405180978195829483523090309060048501613773565b03925af1918215613ee3575b600092613ec2575b50803b1561000e5760408051631beab6f960e01b8152600481019190915260196044820152786c617267655f6368616c6c656e67696e675f706572696f647360381b60648201526001600160a01b039290921660248301526000908290608490829084905af180156128ed576128e05750565b613edc91925060203d6020116113f1576113e1818361067e565b9038613e4f565b613eeb6127c0565b613e47565b806113af613efd92610643565b38613e0a565b613f0b6127c0565b613e05565b613f2a91945060203d6020116113f1576113e1818361067e565b9238613d97565b613f396127c0565b613d8f565b806113af613f4b92610643565b38613d47565b613f596127c0565b613d42565b613f7891925060203d6020116113f1576113e1818361067e565b9038613cdf565b613f876127c0565b613cd7565b806113af613f9992610643565b38613c5b565b613fa76127c0565b613c56565b613fc691925060203d6020116113f1576113e1818361067e565b9038613bf8565b613fd56127c0565b613bf0565b806113af613fe792610643565b38613b62565b613ff56127c0565b613b5d565b61401491925060203d6020116113f1576113e1818361067e565b9038613b00565b6140236127c0565b613af8565b806113af61403592610643565b38613a7c565b6140436127c0565b613a77565b61406291925060203d6020116113f1576113e1818361067e565b9038613a0f565b6140716127c0565b613a07565b806113af61408392610643565b3861397d565b6140916127c0565b613978565b6140b091925060203d6020116113f1576113e1818361067e565b9038613912565b6140bf6127c0565b61390a565b6140dd915060203d6020116113f1576113e1818361067e565b3861385e565b6140eb6127c0565b613856565b156140f757565b60405162461bcd60e51b815260206004820152601d60248201527f6f7261636c652063616e6e6f74206265207a65726f20616464726573730000006044820152606490fd5b1561414357565b60405162461bcd60e51b815260206004820152601f60248201527f6f7261636c652063616e6e6f742062652050334420707265636f6d70696c65006044820152606490fd5b1561418f57565b60405162461bcd60e51b815260206004820152602160248201527f6f7261636c652063616e6e6f7420626520455243323020707265636f6d70696c6044820152606560f81b6064820152608490fd5b156141e557565b60405162461bcd60e51b815260206004820152600a602482015269626164206f7261636c6560b01b6044820152606490fd5b1561421e57565b60405162461bcd60e51b81526020600482015260146024820152736e6f2070726963652066726f6d206f7261636c6560601b6044820152606490fd5b6103df906142f3906142846108026001600160a01b03831661427d8115156140f0565b141561413c565b61429d63fbfbfbfa63ffffffff8360801c161415614188565b604051631627905560e01b81526142ee90602081806142bf8660048301611045565b038173__CounterstakeLibrary___________________5af490811561432c575b60009161430e575b506141de565b614476565b901590811591614304575b50614217565b90501515386142fe565b614326915060203d8111610cae57610ca0818361067e565b386142e8565b6143346127c0565b6142e0565b60105460009291614349826118c0565b9160019081811690811561439a575060011461436457505050565b9091929350601060005260209081600020906000915b85831061438957505050500190565b80548584015291830191810161437a565b60ff191683525050019150565b60408051636261736560e01b60208201908152600482529181016001600160401b038111828210176143dd575b60405251902090565b6143e561062c565b6143d4565b60405160208101907f30783030303030303030303030303030303030303030303030303030303030308252690303030303030303030360b41b6040820152602a815261443581610663565b51902090565b919082604091031261000e576020825192015190565b909161446861088b936040845260408401906118fa565b9160208184039101526108f0565b9060406144ed928151602081019061449f8161449184614339565b03601f19810183528261067e565b519020906144b66144b16002546103b5565b6145c2565b916144bf6143a7565b8114908115614553575b501561454c57600f5b8351809681948293631e879a6d60e11b845260048401614451565b03916001600160a01b03165afa91821561453f575b600090819361451057509190565b905061453491925060403d8111614538575b61452c818361067e565b81019061443b565b9091565b503d614522565b6145476127c0565b614502565b60106144d2565b905061455d6143ea565b14386144c9565b60208183031261000e578051906001600160401b03821161000e570181601f8201121561000e578051614596816107f0565b926145a4604051948561067e565b8184526020828401011161000e5761088b91602080850191016108bb565b6004906000906001600160a01b03811690610802820361462c57506040516395d89b4160e01b815292839182905afa90811561461f575b600091614604575090565b61088b913d8091833e614617818361067e565b810190614564565b6146276127c0565b6145f9565b60801c63ffffffff1663fbfbfbfa148214614667576040516395d89b4160e01b815292839182905afa90811561461f57600091614604575090565b6040516395d89b4160e01b815292839182905afa90811561461f57600091614604575090565b6001600160a01b039091168152602081019190915260400190565b156146af57565b60405162461bcd60e51b815260206004820152601b60248201527a189d5c9b88199c9bdb481c1c9958dbdb5c1a5b194819985a5b1959602a1b6044820152606490fd5b9390926147239261088b969460018060a01b031686526020860152604085015260a0606085015260a08401906108f0565b9160808184039101526108f0565b600d54614746906001600160a01b0316614476565b9080156147f75781156147b5576147a661479761478d6147ac9461478861478161112861088b9961112261111b60025461ffff9060a01c1690565b95866124c8565b61294d565b92600e54906124c8565b68056bc75e2d63100000900490565b90614839565b60035490614839565b60405162461bcd60e51b815260206004820152601a60248201527970726963652064656e206d75737420626520706f73697469766560301b6044820152606490fd5b60405162461bcd60e51b815260206004820152601a6024820152797072696365206e756d206d75737420626520706f73697469766560301b6044820152606490fd5b9080821115614846575090565b905090565b1561485257565b60405162461bcd60e51b81526020600482015260196024820152781b5a5b9d081d1bc81c1c9958dbdb5c1a5b194819985a5b1959603a1b6044820152606490fd5b90806149fe575b50600254610802916001600160a01b0390811691908116908382036149295750506103df926148e492602092600060405180968195829463a9059cbb60e01b84526004840161468d565b03925af190811561491c575b6000916148fe575b50614ace565b614916915060203d8111610cae57610ca0818361067e565b386148f8565b6149246127c0565b6148f0565b90925060801c63ffffffff1663fbfbfbfa036149ad576103df9261496892602092600060405180968195829463a9059cbb60e01b84526004840161468d565b03925af19081156149a0575b600091614982575b50614a83565b61499a915060203d8111610cae57610ca0818361067e565b3861497c565b6149a86127c0565b614974565b60405162461bcd60e51b8152602060048201526024808201527f756e737570706f7274656420746f6b656e207479706520666f72207472616e736044820152636665727360e01b6064820152608490fd5b6011546040516340c10f1960e01b8152614a5292909160209183916001600160a01b03169082906000908290614a38908a6004840161468d565b03925af1908115614a76575b600091614a58575b5061484b565b3861489a565b614a70915060203d8111610cae57610ca0818361067e565b38614a4c565b614a7e6127c0565b614a44565b15614a8a57565b60405162461bcd60e51b815260206004820152601c60248201527b0cd114185cdcc8115490cc8c081d1c985b9cd9995c8819985a5b195960221b6044820152606490fd5b15614ad557565b60405162461bcd60e51b8152602060048201526013602482015272140cd1081d1c985b9cd9995c8819985a5b1959606a1b6044820152606490fd5b6103df9180614b20575b5061332a565b601154604051632770a7eb60e21b8152614b5a92909160209183916001600160a01b0316908290600090829061207f90336004840161468d565b38614b1a565b60206103df92614a389260018060a01b03601154169060006040518096819582946340c10f1960e01b84526004840161468d56fe036b6384b5eca791c62761152d0c79bb0604c104a5fb6f4eb0703f3154bb3db0f3f7a9fe364faab93b216da50a3214154f22a0a2b415b23a84c8169e8b636ee31b6847dc741a1b0cd08d278845f9d819d87b734759afb55fe2de5cb82a9ae6728d1108e10bcb7c27dddfc02ed9d693a074039d026cf4ea4240b40f7d581ac802a2646970667358221220192101bfb939453be8e62098a8b749236818c36f345dcf7e3ca4a24cb0dfb2a064736f6c634300080d0033036b6384b5eca791c62761152d0c79bb0604c104a5fb6f4eb0703f3154bb3db0",
  "immutableReferences": {},
  "source": "// SPDX-License-Identifier: MIT\npragma solidity ^0.8.3;\nimport \"@openzeppelin/contracts/utils/math/Math.sol\";\nimport \"@openzeppelin/contracts/token/ERC20/IERC20.sol\";\nimport \"./IOracle.sol\";\nimport \"./Counterstake.sol\";\nimport \"./VotedValueAddress.sol\";\nimport \"./CounterstakeLibrary.sol\";\nimport \"./IERC20WithSymbol.sol\";\nimport \"./IPrecompileERC20.sol\";\nimport \"./ILocalAsset.sol\";\n\n\ncontract ImportWrapper is Counterstake {\n\n\tusing SafeERC20 for IERC20;\n\n\tevent NewRepatriation(address sender_address, uint amount, uint reward, string home_address, string data);\n\n\taddress public oracleAddress;\n\n\t// min price of imported asset in terms of stake asset, to protect against malicious oracles\n\t// The price is multiplied by 1e20\n\tuint public min_price20;\n\n\tstring public home_network;\n\tstring public home_asset;\n\n\t// The precompile address to use for this bridge\n\taddress public precompileAddress;\n\t\n\t// Batch precompile address (inherited from Counterstake)\n\n\tbytes32 private constant base_hash = keccak256(abi.encodePacked(\"base\"));\n\tbytes32 private constant zx_hash = keccak256(abi.encodePacked(\"0x0000000000000000000000000000000000000000\"));\n\n\n\tconstructor (string memory _home_network, string memory _home_asset, address _precompileAddress, address stakeTokenAddr, address oracleAddr, uint16 _counterstake_coef100, uint16 _ratio100, uint _large_threshold, uint[] memory _challenging_periods, uint[] memory _large_challenging_periods) \n\tCounterstake(stakeTokenAddr, _counterstake_coef100, _ratio100, _large_threshold, _challenging_periods, _large_challenging_periods) \n\t{\n\t\tinitImportWrapper(_home_network, _home_asset, _precompileAddress, oracleAddr);\n\t}\n\n\tfunction initImportWrapper(string memory _home_network, string memory _home_asset, address _precompileAddress, address oracleAddr) public\n\t{\n\t\trequire(address(governance) == address(0), \"already initialized\");\n\t\toracleAddress = oracleAddr;\n\t\thome_network = _home_network;\n\t\thome_asset = _home_asset;\n\t\tprecompileAddress = _precompileAddress;\n\t\t\n\t\t// Validate precompile address\n\t\trequire(_precompileAddress != address(0), \"precompile address cannot be zero\");\n\t\trequire(_precompileAddress != CounterstakeLibrary.P3D_PRECOMPILE, \"cannot use P3D as image asset\");\n\t\trequire(CounterstakeLibrary.is3DPassERC20Precompile(_precompileAddress), \"invalid precompile address\");\n\t\t\n\t\tvalidateOracle(oracleAddr);\n\t}\n\n\tfunction setupGovernance(GovernanceFactory governanceFactory, VotedValueFactory votedValueFactory) external {\n\t\tsetupCounterstakeGovernance(governanceFactory, votedValueFactory, address(this));\n\t\tgovernance.addVotedValue(\"oracleAddress\", votedValueFactory.createVotedValueAddress(governance, oracleAddress, this.validateOracle, this.setOracle));\n\t\tgovernance.addVotedValue(\"min_price20\", votedValueFactory.createVotedValueUint(governance, min_price20, this.validateMinPrice, this.setMinPrice));\n\t}\n\n\tfunction getOraclePrice(address oracleAddr) view private returns (uint, uint) {\n\t\tbytes32 home_asset_hash = keccak256(abi.encodePacked(home_asset));\n\t\tstring memory symbol = CounterstakeLibrary.getPrecompileSymbol(settings.tokenAddress);\n\t\treturn IOracle(oracleAddr).getPrice(\n\t\t\thome_asset_hash == base_hash || home_asset_hash == zx_hash ? home_network : home_asset, \n\t\t\tsymbol\n\t\t);\n\t}\n\n\tfunction validateOracle(address oracleAddr) view public {\n\t\trequire(oracleAddr != address(0), \"oracle cannot be zero address\");\n\t\trequire(oracleAddr != CounterstakeLibrary.P3D_PRECOMPILE, \"oracle cannot be P3D precompile\");\n\t\trequire(!CounterstakeLibrary.is3DPassERC20Precompile(oracleAddr), \"oracle cannot be ERC20 precompile\");\n\t\trequire(CounterstakeLibrary.isContract(oracleAddr), \"bad oracle\");\n\t\t(uint num, uint den) = getOraclePrice(oracleAddr);\n\t\trequire(num > 0 || den > 0, \"no price from oracle\");\n\t}\n\n\tfunction setOracle(address oracleAddr) onlyVotedValueContract external {\n\t\toracleAddress = oracleAddr;\n\t}\n\n\tfunction validateMinPrice(uint _min_price20) pure external {\n\t\t// anything goes\n\t}\n\n\tfunction setMinPrice(uint _min_price20) onlyVotedValueContract external {\n\t\tmin_price20 = _min_price20;\n\t}\n\n\t// repatriate\n\tfunction transferToHomeChain(string memory home_address, string memory data, uint amount, uint reward) external {\n\t\t// Burn tokens from the precompile\n\t\trequire(ILocalAsset(precompileAddress).burn(msg.sender, amount), \"burn from precompile failed\");\n\t\temit NewRepatriation(msg.sender, amount, reward, home_address, data);\n\t}\n\n\tfunction getRequiredStake(uint amount) public view override returns (uint) {\n\t\t(uint num, uint den) = getOraclePrice(oracleAddress);\n\t\trequire(num > 0, \"price num must be positive\");\n\t\trequire(den > 0, \"price den must be positive\");\n\t\tuint stake_in_image_asset = amount * settings.ratio100 / 100;\n\t\treturn Math.max(Math.max(stake_in_image_asset * num / den, stake_in_image_asset * min_price20 / 1e20), settings.min_stake);\n\t}\n\n\tfunction sendWithdrawals(address payable to_address, uint paid_claimed_amount, uint won_stake) internal override {\n\t\tif (paid_claimed_amount > 0){\n\t\t\t// Mint tokens to the user via precompile\n\t\t\trequire(ILocalAsset(precompileAddress).mint(to_address, paid_claimed_amount), \"mint to precompile failed\");\n\t\t}\n\t\ttransferTokens(settings.tokenAddress, to_address, won_stake);\n\t}\n     \n    function receiveMoneyInClaim(uint stake, uint paid_amount) internal override {\n         if (paid_amount > 0)\n\t\t    // Burn image tokens from the assistant account\n            require(ILocalAsset(precompileAddress).burn(msg.sender, paid_amount), \"burn from precompile failed\");\n        receiveStakeAsset(stake);\n    }\n\n    function sendToClaimRecipient(address payable to_address, uint paid_amount) internal override {\n            // Mint image tokens to the user after assistant calim\n            require(ILocalAsset(precompileAddress).mint(to_address, paid_amount), \"mint to precompile failed\");\n    }\n\n} ",
  "sourcePath": "/Users/jm/3DP-bridge/counterstake-bridge/evm/contracts/ImportWrapper.sol",
  "compiler": {
    "name": "solc",
    "version": "0.8.13+commit.abaa5c0e.Emscripten.clang"
  },
  "schemaVersion": "3.4.16",
  "updatedAt": "2025-08-19T12:12:03.405Z",
  "devdoc": {
    "kind": "dev",
    "methods": {},
    "version": 1
  },
  "userdoc": {
    "kind": "user",
    "methods": {},
    "version": 1
  }
}