{
  "contractName": "Oracle",
  "abi": [
    {
      "anonymous": false,
      "inputs": [
        {
          "indexed": true,
          "internalType": "address",
          "name": "previousOwner",
          "type": "address"
        },
        {
          "indexed": true,
          "internalType": "address",
          "name": "newOwner",
          "type": "address"
        }
      ],
      "name": "OwnershipTransferred",
      "type": "event"
    },
    {
      "inputs": [],
      "name": "owner",
      "outputs": [
        {
          "internalType": "address",
          "name": "",
          "type": "address"
        }
      ],
      "stateMutability": "view",
      "type": "function"
    },
    {
      "inputs": [
        {
          "internalType": "string",
          "name": "",
          "type": "string"
        },
        {
          "internalType": "string",
          "name": "",
          "type": "string"
        }
      ],
      "name": "prices",
      "outputs": [
        {
          "internalType": "uint256",
          "name": "num",
          "type": "uint256"
        },
        {
          "internalType": "uint256",
          "name": "den",
          "type": "uint256"
        }
      ],
      "stateMutability": "view",
      "type": "function"
    },
    {
      "inputs": [],
      "name": "renounceOwnership",
      "outputs": [],
      "stateMutability": "nonpayable",
      "type": "function"
    },
    {
      "inputs": [
        {
          "internalType": "address",
          "name": "newOwner",
          "type": "address"
        }
      ],
      "name": "transferOwnership",
      "outputs": [],
      "stateMutability": "nonpayable",
      "type": "function"
    },
    {
      "inputs": [
        {
          "internalType": "string",
          "name": "base",
          "type": "string"
        },
        {
          "internalType": "string",
          "name": "quote",
          "type": "string"
        }
      ],
      "name": "getPrice",
      "outputs": [
        {
          "internalType": "uint256",
          "name": "num",
          "type": "uint256"
        },
        {
          "internalType": "uint256",
          "name": "den",
          "type": "uint256"
        }
      ],
      "stateMutability": "view",
      "type": "function"
    },
    {
      "inputs": [
        {
          "internalType": "string",
          "name": "base",
          "type": "string"
        },
        {
          "internalType": "string",
          "name": "quote",
          "type": "string"
        },
        {
          "internalType": "uint256",
          "name": "num",
          "type": "uint256"
        },
        {
          "internalType": "uint256",
          "name": "den",
          "type": "uint256"
        }
      ],
      "name": "setPrice",
      "outputs": [],
      "stateMutability": "nonpayable",
      "type": "function"
    }
  ],
  "bytecode": "0x6080806040523461005b5760008054336001600160a01b0319821681178355916001600160a01b03909116907f8be0079c531659141344cd1fd0a4f28419497f9722a3daafe3b4186f6b6457e09084a361062e90816100618239f35b600080fdfe60806040526004361015610013575b600080fd5b6000803560e01c9081633d0f34da146101885781633edcd46c1461008557508063402b44301461007c578063715018a6146100735780638da5cb5b1461006a5763f2fde38b1461006257600080fd5b61000e610405565b5061000e6103db565b5061000e61038e565b5061000e610341565b34610185576080366003190112610185576001600160401b03600435818111610181576100b6903690600401610222565b90602435908111610181576100cf903690600401610222565b60443590606435926100df610497565b6101006040516020816100f281876102cc565b600181520301902082610324565b80541590811591610173575b5061014e57906101326101389261014995610125610213565b9586526020860152610307565b90610324565b906020600191805184550151910155565b604051f35b61013261013892610149959460405195610167876101c8565b86526020860152610307565b60019150015415158661010c565b8280fd5b80fd5b346101855761019f61019936610286565b90610529565b60408051928352602083019190915290f35b50634e487b7160e01b600052604160045260246000fd5b604081019081106001600160401b038211176101e357604052565b6101eb6101b1565b604052565b601f909101601f19168101906001600160401b038211908210176101e357604052565b60405190610220826101c8565b565b81601f8201121561000e578035906001600160401b038211610279575b60405192610257601f8401601f1916602001856101f0565b8284526020838301011161000e57816000926020809301838601378301015290565b6102816101b1565b61023f565b90604060031983011261000e576001600160401b0360043581811161000e57836102b291600401610222565b9260243591821161000e576102c991600401610222565b90565b90815180926000905b8282106102f05750116102e6570190565b6000828201520190565b9150806020809284010151818501520183916102d5565b602061031991604051928380926102cc565b600181520301902090565b60209061033792604051938480936102cc565b9081520301902090565b503461000e57610374602061036661035836610286565b9290604051928380926102cc565b600181520301902090610324565b805460019091015460408051928352602083019190915290f35b503461000e57600080600319360112610185576103a9610497565b80546001600160a01b0319811682556040519082906001600160a01b03166000805160206105d98339815191528284a3f35b503461000e57600036600319011261000e576000546040516001600160a01b039091168152602090f35b503461000e57602036600319011261000e576004356001600160a01b03811680820361000e57610433610497565b1561044357610441906104ef565b005b60405162461bcd60e51b815260206004820152602660248201527f4f776e61626c653a206e6577206f776e657220697320746865207a65726f206160448201526564647265737360d01b6064820152608490fd5b6000546001600160a01b031633036104ab57565b606460405162461bcd60e51b815260206004820152602060248201527f4f776e61626c653a2063616c6c6572206973206e6f7420746865206f776e65726044820152fd5b600080546001600160a01b039283166001600160a01b03198216811783556040519093909116916000805160206105d983398151915291a3565b919091604051602081018161053e82856102cc565b0391610552601f19938481018352826101f0565b5190209060405161057860208201928261056c858a6102cc565b039081018352826101f0565b519020146105cf5761059261058c82610307565b84610324565b805490816105c35750506101326105a99293610307565b90815491826105bb5750600091508190565b600101549190565b90935060019150015490565b5060019150819056fe8be0079c531659141344cd1fd0a4f28419497f9722a3daafe3b4186f6b6457e0a26469706673582212205e0ce28ec0ba0b7120992875024933ce696367c11aa6c980a498fd101b090a1b64736f6c634300080d0033",
  "immutableReferences": {},
  "source": "// SPDX-License-Identifier: MIT\npragma solidity ^0.8.3;\nimport \"@openzeppelin/contracts/access/Ownable.sol\";\nimport \"./IOracle.sol\";\n\ncontract Oracle is IOracle, Ownable {\n\tstruct Fraction {\n\t\tuint num;\n\t\tuint den;\n\t}\n\t\n\tmapping(string => mapping(string => Fraction)) public prices;\n\n\tfunction getPrice(string memory base, string memory quote) public override view returns (uint num, uint den) {\n\t\tif (keccak256(abi.encodePacked(base)) == keccak256(abi.encodePacked(quote)))\n\t\t\treturn (1, 1);\n\t\tFraction storage price = prices[base][quote];\n\t\tif (price.num > 0)\n\t\t\treturn (price.num, price.den);\n\t\t// try a reverse fraction\n\t\tprice = prices[quote][base];\n\t\tif (price.num > 0)\n\t\t\treturn (price.den, price.num);\n\t\treturn (0, 0);\n\t}\n\n\t// zero den is ok - infinite price\n\t// both zeros: stopped trading, no price\n\tfunction setPrice(string memory base, string memory quote, uint num, uint den) onlyOwner public {\n\t\tFraction storage reverse_price = prices[quote][base];\n\t\tbool reverse_price_exists = (reverse_price.num > 0 || reverse_price.den > 0);\n\t\tif (!reverse_price_exists)\n\t\t\tprices[base][quote] = Fraction({num: num, den: den});\n\t\telse\n\t\t\tprices[quote][base] = Fraction({num: den, den: num});\n\t}\n\n}\n",
  "sourcePath": "/Users/jm/counterstake-bridge/evm_substrate/contracts/Oracle.sol",
  "compiler": {
    "name": "solc",
    "version": "0.8.13+commit.abaa5c0e.Emscripten.clang"
  },
  "schemaVersion": "3.4.16",
  "updatedAt": "2025-08-14T11:37:37.890Z",
  "devdoc": {
    "kind": "dev",
    "methods": {
      "owner()": {
        "details": "Returns the address of the current owner."
      },
      "renounceOwnership()": {
        "details": "Leaves the contract without owner. It will not be possible to call `onlyOwner` functions. Can only be called by the current owner. NOTE: Renouncing ownership will leave the contract without an owner, thereby disabling any functionality that is only available to the owner."
      },
      "transferOwnership(address)": {
        "details": "Transfers ownership of the contract to a new account (`newOwner`). Can only be called by the current owner."
      }
    },
    "version": 1
  },
  "userdoc": {
    "kind": "user",
    "methods": {},
    "version": 1
  }
}