{
  "contractName": "VotedValueAddress",
  "abi": [
    {
      "inputs": [],
      "stateMutability": "nonpayable",
      "type": "constructor"
    },
    {
      "anonymous": false,
      "inputs": [
        {
          "indexed": true,
          "internalType": "address",
          "name": "who",
          "type": "address"
        },
        {
          "indexed": true,
          "internalType": "address",
          "name": "value",
          "type": "address"
        }
      ],
      "name": "Commit",
      "type": "event"
    },
    {
      "anonymous": false,
      "inputs": [
        {
          "indexed": true,
          "internalType": "address",
          "name": "who",
          "type": "address"
        },
        {
          "indexed": true,
          "internalType": "address",
          "name": "value",
          "type": "address"
        },
        {
          "indexed": false,
          "internalType": "uint256",
          "name": "votes",
          "type": "uint256"
        }
      ],
      "name": "Unvote",
      "type": "event"
    },
    {
      "anonymous": false,
      "inputs": [
        {
          "indexed": true,
          "internalType": "address",
          "name": "who",
          "type": "address"
        },
        {
          "indexed": true,
          "internalType": "address",
          "name": "value",
          "type": "address"
        },
        {
          "indexed": false,
          "internalType": "uint256",
          "name": "votes",
          "type": "uint256"
        },
        {
          "indexed": false,
          "internalType": "uint256",
          "name": "total_votes",
          "type": "uint256"
        },
        {
          "indexed": false,
          "internalType": "address",
          "name": "leader",
          "type": "address"
        },
        {
          "indexed": false,
          "internalType": "uint256",
          "name": "leader_total_votes",
          "type": "uint256"
        },
        {
          "indexed": false,
          "internalType": "uint256",
          "name": "expiry_ts",
          "type": "uint256"
        }
      ],
      "name": "Vote",
      "type": "event"
    },
    {
      "inputs": [],
      "name": "challenging_period_start_ts",
      "outputs": [
        {
          "internalType": "uint256",
          "name": "",
          "type": "uint256"
        }
      ],
      "stateMutability": "view",
      "type": "function"
    },
    {
      "inputs": [],
      "name": "checkChallengingPeriodExpiry",
      "outputs": [],
      "stateMutability": "view",
      "type": "function"
    },
    {
      "inputs": [],
      "name": "checkVoteChangeLock",
      "outputs": [],
      "stateMutability": "view",
      "type": "function"
    },
    {
      "inputs": [
        {
          "internalType": "address",
          "name": "",
          "type": "address"
        }
      ],
      "name": "choices",
      "outputs": [
        {
          "internalType": "address",
          "name": "",
          "type": "address"
        }
      ],
      "stateMutability": "view",
      "type": "function"
    },
    {
      "inputs": [],
      "name": "current_value",
      "outputs": [
        {
          "internalType": "address",
          "name": "",
          "type": "address"
        }
      ],
      "stateMutability": "view",
      "type": "function"
    },
    {
      "inputs": [],
      "name": "governance",
      "outputs": [
        {
          "internalType": "contract Governance",
          "name": "",
          "type": "address"
        }
      ],
      "stateMutability": "view",
      "type": "function"
    },
    {
      "inputs": [
        {
          "internalType": "address",
          "name": "",
          "type": "address"
        }
      ],
      "name": "hasVote",
      "outputs": [
        {
          "internalType": "bool",
          "name": "",
          "type": "bool"
        }
      ],
      "stateMutability": "view",
      "type": "function"
    },
    {
      "inputs": [],
      "name": "leader",
      "outputs": [
        {
          "internalType": "address",
          "name": "",
          "type": "address"
        }
      ],
      "stateMutability": "view",
      "type": "function"
    },
    {
      "inputs": [
        {
          "internalType": "address",
          "name": "",
          "type": "address"
        }
      ],
      "name": "votesByValue",
      "outputs": [
        {
          "internalType": "uint256",
          "name": "",
          "type": "uint256"
        }
      ],
      "stateMutability": "view",
      "type": "function"
    },
    {
      "inputs": [
        {
          "internalType": "address",
          "name": "",
          "type": "address"
        },
        {
          "internalType": "address",
          "name": "",
          "type": "address"
        }
      ],
      "name": "votesByValueAddress",
      "outputs": [
        {
          "internalType": "uint256",
          "name": "",
          "type": "uint256"
        }
      ],
      "stateMutability": "view",
      "type": "function"
    },
    {
      "inputs": [
        {
          "internalType": "contract Governance",
          "name": "_governance",
          "type": "address"
        },
        {
          "internalType": "address",
          "name": "initial_value",
          "type": "address"
        },
        {
          "internalType": "function (address) external",
          "name": "_validationCallback",
          "type": "function"
        },
        {
          "internalType": "function (address) external",
          "name": "_commitCallback",
          "type": "function"
        }
      ],
      "name": "init",
      "outputs": [],
      "stateMutability": "nonpayable",
      "type": "function"
    },
    {
      "inputs": [
        {
          "internalType": "address",
          "name": "value",
          "type": "address"
        }
      ],
      "name": "vote",
      "outputs": [],
      "stateMutability": "nonpayable",
      "type": "function"
    },
    {
      "inputs": [
        {
          "internalType": "address",
          "name": "value",
          "type": "address"
        },
        {
          "internalType": "uint256",
          "name": "amount",
          "type": "uint256"
        }
      ],
      "name": "voteAndDeposit",
      "outputs": [],
      "stateMutability": "payable",
      "type": "function"
    },
    {
      "inputs": [],
      "name": "unvote",
      "outputs": [],
      "stateMutability": "nonpayable",
      "type": "function"
    },
    {
      "inputs": [],
      "name": "commit",
      "outputs": [],
      "stateMutability": "nonpayable",
      "type": "function"
    }
  ],
  "bytecode": "0x6080806040523461002b576001600081905580546001600160a01b0319169055610f2490816100318239f35b600080fdfe60806040526004361015610013575b600080fd5b60003560e01c80632243b09a1461013f57806327efa0aa146101365780632a1a2d951461012d5780633174b68914610124578063345f2ffc1461011b5780633c7a3aff1461011257806340eedabb14610109578063410346b31461010057806345ede00f146100f75780635aa6e675146100ee57806362df40ea146100e55780636d497234146100dc5780636dd7d8ea146100d35780638eb6ecb2146100ca5763bfb723b6146100c257600080fd5b61000e610737565b5061000e61069b565b5061000e610666565b5061000e610612565b5061000e6105f8565b5061000e6105ce565b5061000e6104be565b5061000e61042f565b5061000e610405565b5061000e6102ce565b5061000e6102a4565b5061000e610275565b5061000e610237565b5061000e610218565b5061000e6101ca565b6001600160a01b031690565b6001600160a01b0381160361000e57565b6001600160a01b0316600090815260086020526040902090565b6001600160a01b0316600090815260036020526040902090565b6001600160a01b0316600090815260096020526040902090565b9060018060a01b0316600052602052604060002090565b503461000e57602036600319011261000e576004356101e881610154565b60018060a01b03166000526003602052602060ff604060002054166040519015158152f35b600091031261000e57565b503461000e57600036600319011261000e576020600254604051908152f35b503461000e57602036600319011261000e5760043561025581610154565b60018060a01b031660005260096020526020604060002054604051908152f35b503461000e57600036600319011261000e5761028f610d77565b005b6001600160a01b03909116815260200190565b503461000e57600036600319011261000e576007546040516001600160a01b039091168152602090f35b503461000e57600080600319360112610402576102e9610a00565b6102f4600654610148565b61034c61030a610305600754610148565b610148565b6001600160a01b039290610322908483161415610e88565b61032a61091c565b600780546001600160a01b0319166001600160a01b0392909216919091179055565b81610355610a56565b9190610362600654610148565b90803b156103fe57610386938360405180968195829460e01b835260048301610291565b03925af180156103f1575b6103d8575b506103a2600654610148565b1660405190337f815ca4497ab9fc80c76f210e6e842a5e198e195aa136034557eee144f790e7bb8484a36103d66001600055565bf35b806103e56103eb92610751565b8061020d565b38610396565b6103f96107ac565b610391565b8280fd5b80fd5b503461000e57600036600319011261000e576006546040516001600160a01b039091168152602090f35b503461000e57602036600319011261000e57602060043561044f81610154565b60018060a01b038091166000526008825260406000205416604051908152f35b63ffffffff8160401c169060601c91565b6044356001600160401b03198116810361000e5761049d9061046f565b9091565b6064356001600160401b03198116810361000e5761049d9061046f565b503461000e57608036600319011261000e576004356104dc81610154565b6024356104e881610154565b6104f0610480565b916104f96104a1565b60015490949193906001600160a01b031661059357600180546001600160a01b0319166001600160a01b039097169690961790955561028f9461056b926105439061032a816109de565b9063ffffffff60018060c01b0319600454169260018060c01b039060201b1691161717600455565b9063ffffffff60018060c01b0319600554169260018060c01b039060201b1691161717600555565b60405162461bcd60e51b8152602060048201526013602482015272185b1c9958591e481a5b9a5d1a585b1a5e9959606a1b6044820152606490fd5b503461000e57600036600319011261000e576001546040516001600160a01b039091168152602090f35b503461000e57600036600319011261000e5761028f610834565b503461000e57604036600319011261000e57602061065d60043561063581610154565b6024359061064282610154565b6001600160a01b03166000908152600a8452604090206101b3565b54604051908152f35b503461000e57602036600319011261000e5761069460043561068781610154565b61068f610a00565b610aab565b6001600055005b50604036600319011261000e576004356106b481610154565b6106bc610a00565b6001546001600160a01b031690813b1561000e576044600061070d93604051928380926311f9fbc960e21b8252336004830152602435602483015234905af1801561072a575b610717575b50610aab565b61028f6001600055565b806103e561072492610751565b38610707565b6107326107ac565b610702565b503461000e57600036600319011261000e5761028f61091c565b6001600160401b03811161076457604052565b634e487b7160e01b600052604160045260246000fd5b601f909101601f19168101906001600160401b0382119082101761076457604052565b9081602091031261000e575190565b506040513d6000823e3d90fd5b50634e487b7160e01b600052601160045260246000fd5b811981116107dc570190565b6107e46107b9565b0190565b156107ef57565b60405162461bcd60e51b815260206004820152601f60248201527f796f752063616e6e6f74206368616e676520796f757220766f746520796574006044820152606490fd5b6108b26108ab60025461084b610305600154610148565b600460405192636231483360e01b8452610880602094859283828681895afa91821561090f575b6000926108f0575b506107d0565b926040519283809263055a4e9160e51b82525afa9283156108e3575b6000936108b4575b50506107d0565b42116107e8565b565b6108d4929350803d106108dc575b6108cc818361077a565b81019061079d565b9038806108a4565b503d6108c2565b6108eb6107ac565b61089c565b610908919250843d86116108dc576108cc818361077a565b903861087a565b6109176107ac565b610872565b600254600154604051636231483360e01b815261095f929091602090839060049082906001600160a01b03165afa9182156109d1575b6000926109b857506107d0565b42111561096857565b60405162461bcd60e51b815260206004820152602260248201527f6368616c6c656e67696e6720706572696f64206e6f7420657870697265642079604482015261195d60f21b6064820152608490fd5b61090891925060203d81116108dc576108cc818361077a565b6109d96107ac565b610952565b600680546001600160a01b0319166001600160a01b0392909216919091179055565b600260005414610a11576002600055565b60405162461bcd60e51b815260206004820152601f60248201527f5265656e7472616e637947756172643a207265656e7472616e742063616c6c006044820152606490fd5b61049d60055460401b61046f565b61049d60045460401b61046f565b15610a7957565b60405162461bcd60e51b815260206004820152600a6024820152696e6f2062616c616e636560b01b6044820152606490fd5b610ab3610a64565b813b1561000e5760009060405192839160e01b8252818381610ad88860048301610291565b03925af18015610d6a575b610d57575b50610b02610af533610165565b546001600160a01b031690565b90610b16610b0f3361017f565b5460ff1690565b91610b25610305600654610148565b6001600160a01b03939082851614610d4a575b610d3b575b50610b4c610305600154610148565b6040516327e235e360e01b81526020939091849083908180610b713360048301610291565b03915afa918215610d2e575b600092610d01575b508192610ba2600080516020610ecf833981519152931515610a72565b610bab81610199565b610bb68582546107d0565b905583610bde33610bd98460018060a01b0316600052600a602052604060002090565b6101b3565b55610c0b81610bec33610165565b80546001600160a01b0319166001600160a01b03909216919091179055565b610c24610c173361017f565b805460ff19166001179055565b610c2d81610199565b54610c41610c3c600654610148565b610199565b5410610cea575b610ce5610c5482610199565b5495610c61600654610148565b90610cad610c6e83610199565b5491600254600482610c84610305600154610148565b604051636231483360e01b815292839182905afa9283156108e3576000936108b45750506107d0565b9160405195869516983398869192608093969594919660a08401978452602084015260018060a01b0316604083015260608201520152565b0390a3565b610cf3816109de565b610cfc42600255565b610c48565b600080516020610ecf8339815191529250610d2890853d87116108dc576108cc818361077a565b91610b85565b610d366107ac565b610b7d565b610d4490610e24565b38610b3d565b610d52610834565b610b38565b806103e5610d6492610751565b38610ae8565b610d726107ac565b610ae3565b33600052600360205260ff60406000205416156108b2576001600160a01b0380610da033610165565b541690600654168114610e17575b610db781610e24565b610dc033610165565b80546001600160a01b0319169055610dd73361017f565b805460ff19169055610de881610199565b546040519081527faa0e554f781c3c3b2be110a0557f260f11af9a8aa2c64bc1e7a31dbb21e32fa260203392a3565b610e1f610834565b610dae565b6001600160a01b03166000818152600a60205260408120909190610e499033906101b3565b54818352600960205260408320908154818110610e7b575b0390558152600a602052610e7833604083206101b3565b55565b610e836107b9565b610e61565b15610e8f57565b60405162461bcd60e51b815260206004820152601760248201527630b63932b0b23c9032b8bab0b6103a37903632b0b232b960491b6044820152606490fdfe6df85e5ad2dd03319340e4cc7ea39491f0ee679b52e90357270dd70ab170be8ea2646970667358221220f567c974ccbe674488e09c41530d1cfcb8af55dab1d13cd121422c0304825eb464736f6c634300080d0033",
  "immutableReferences": {},
  "source": "// SPDX-License-Identifier: MIT\npragma solidity ^0.8.3;\nimport \"./Governance.sol\";\nimport \"./VotedValue.sol\";\n\n\ncontract VotedValueAddress is VotedValue {\n\n\tfunction(address) external validationCallback;\n\tfunction(address) external commitCallback;\n\n\taddress public leader;\n\taddress public current_value;\n\n\t// mapping(who => value)\n\tmapping(address => address) public choices;\n\n\t// mapping(value => votes)\n\tmapping(address => uint) public votesByValue;\n\n\t// mapping(value => mapping(who => votes))\n\tmapping(address => mapping(address => uint)) public votesByValueAddress;\n\n\tevent Vote(address indexed who, address indexed value, uint votes, uint total_votes, address leader, uint leader_total_votes, uint expiry_ts);\n\tevent Unvote(address indexed who, address indexed value, uint votes);\n\tevent Commit(address indexed who, address indexed value);\n\n\tconstructor() VotedValue(Governance(address(0))) {}\n\n\t// constructor(Governance _governance, address initial_value, function(address) external _validationCallback, function(address) external _commitCallback) VotedValue(_governance) {\n\t// \tleader = initial_value;\n\t// \tcurrent_value = initial_value;\n\t// \tvalidationCallback = _validationCallback;\n\t// \tcommitCallback = _commitCallback;\n\t// }\n\n\tfunction init(Governance _governance, address initial_value, function(address) external _validationCallback, function(address) external _commitCallback) external {\n\t\trequire(address(governance) == address(0), \"already initialized\");\n\t\tgovernance = _governance;\n\t\tleader = initial_value;\n\t\tcurrent_value = initial_value;\n\t\tvalidationCallback = _validationCallback;\n\t\tcommitCallback = _commitCallback;\n\t}\n\n\tfunction vote(address value) nonReentrant external {\n\t\t_vote(value);\n\t}\n\n\tfunction voteAndDeposit(address value, uint amount) nonReentrant payable external {\n\t\tgovernance.deposit{value: msg.value}(msg.sender, amount);\n\t\t_vote(value);\n\t}\n\n\tfunction _vote(address value) private {\n\t\tvalidationCallback(value);\n\t\taddress prev_choice = choices[msg.sender];\n\t\tbool hadVote = hasVote[msg.sender];\n\t\tif (prev_choice == leader)\n\t\t\tcheckVoteChangeLock();\n\n\t\t// first, remove votes from the previous choice\n\t\tif (hadVote)\n\t\t\tremoveVote(prev_choice);\n\n\t\t// then, add them to the new choice\n\t\tuint balance = governance.balances(msg.sender);\n\t\trequire(balance > 0, \"no balance\");\n\t\tvotesByValue[value] += balance;\n\t\tvotesByValueAddress[value][msg.sender] = balance;\n\t\tchoices[msg.sender] = value;\n\t\thasVote[msg.sender] = true;\n\n\t\t// check if the leader has just changed\n\t\tif (votesByValue[value] > votesByValue[leader]){\n\t\t\tleader = value;\n\t\t\tchallenging_period_start_ts = block.timestamp;\n\t\t}\n\t\temit Vote(msg.sender, value, balance, votesByValue[value], leader, votesByValue[leader], challenging_period_start_ts + governance.governance_challenging_period());\n\t}\n\n\tfunction unvote() external {\n\t\tif (!hasVote[msg.sender])\n\t\t\treturn;\n\t\taddress prev_choice = choices[msg.sender];\n\t\tif (prev_choice == leader)\n\t\t\tcheckVoteChangeLock();\n\t\t\n\t\tremoveVote(prev_choice);\n\t\tdelete choices[msg.sender];\n\t\tdelete hasVote[msg.sender];\n\t\temit Unvote(msg.sender, prev_choice, votesByValue[prev_choice]);\n\t}\n\n\tfunction removeVote(address value) internal {\n\t\tvotesByValue[value] -= votesByValueAddress[value][msg.sender];\n\t\tvotesByValueAddress[value][msg.sender] = 0;\n\t}\n\n\tfunction commit() nonReentrant external {\n\t\trequire(leader != current_value, \"already equal to leader\");\n\t\tcheckChallengingPeriodExpiry();\n\t\tcurrent_value = leader;\n\t\tcommitCallback(leader);\n\t\temit Commit(msg.sender, leader);\n\t}\n}\n\n",
  "sourcePath": "/Users/jm/3DP-bridge/counterstake-bridge/evm/contracts/VotedValueAddress.sol",
  "compiler": {
    "name": "solc",
    "version": "0.8.13+commit.abaa5c0e.Emscripten.clang"
  },
  "schemaVersion": "3.4.16",
  "updatedAt": "2025-08-19T12:12:03.494Z",
  "devdoc": {
    "kind": "dev",
    "methods": {},
    "version": 1
  },
  "userdoc": {
    "kind": "user",
    "methods": {},
    "version": 1
  }
}