{
  "contractName": "VotedValueUint",
  "abi": [
    {
      "inputs": [],
      "stateMutability": "nonpayable",
      "type": "constructor"
    },
    {
      "anonymous": false,
      "inputs": [
        {
          "indexed": true,
          "internalType": "address",
          "name": "who",
          "type": "address"
        },
        {
          "indexed": true,
          "internalType": "uint256",
          "name": "value",
          "type": "uint256"
        }
      ],
      "name": "Commit",
      "type": "event"
    },
    {
      "anonymous": false,
      "inputs": [
        {
          "indexed": true,
          "internalType": "address",
          "name": "who",
          "type": "address"
        },
        {
          "indexed": true,
          "internalType": "uint256",
          "name": "value",
          "type": "uint256"
        },
        {
          "indexed": false,
          "internalType": "uint256",
          "name": "votes",
          "type": "uint256"
        }
      ],
      "name": "Unvote",
      "type": "event"
    },
    {
      "anonymous": false,
      "inputs": [
        {
          "indexed": true,
          "internalType": "address",
          "name": "who",
          "type": "address"
        },
        {
          "indexed": true,
          "internalType": "uint256",
          "name": "value",
          "type": "uint256"
        },
        {
          "indexed": false,
          "internalType": "uint256",
          "name": "votes",
          "type": "uint256"
        },
        {
          "indexed": false,
          "internalType": "uint256",
          "name": "total_votes",
          "type": "uint256"
        },
        {
          "indexed": false,
          "internalType": "uint256",
          "name": "leader",
          "type": "uint256"
        },
        {
          "indexed": false,
          "internalType": "uint256",
          "name": "leader_total_votes",
          "type": "uint256"
        },
        {
          "indexed": false,
          "internalType": "uint256",
          "name": "expiry_ts",
          "type": "uint256"
        }
      ],
      "name": "Vote",
      "type": "event"
    },
    {
      "inputs": [],
      "name": "challenging_period_start_ts",
      "outputs": [
        {
          "internalType": "uint256",
          "name": "",
          "type": "uint256"
        }
      ],
      "stateMutability": "view",
      "type": "function"
    },
    {
      "inputs": [],
      "name": "checkChallengingPeriodExpiry",
      "outputs": [],
      "stateMutability": "view",
      "type": "function"
    },
    {
      "inputs": [],
      "name": "checkVoteChangeLock",
      "outputs": [],
      "stateMutability": "view",
      "type": "function"
    },
    {
      "inputs": [
        {
          "internalType": "address",
          "name": "",
          "type": "address"
        }
      ],
      "name": "choices",
      "outputs": [
        {
          "internalType": "uint256",
          "name": "",
          "type": "uint256"
        }
      ],
      "stateMutability": "view",
      "type": "function"
    },
    {
      "inputs": [],
      "name": "current_value",
      "outputs": [
        {
          "internalType": "uint256",
          "name": "",
          "type": "uint256"
        }
      ],
      "stateMutability": "view",
      "type": "function"
    },
    {
      "inputs": [],
      "name": "governance",
      "outputs": [
        {
          "internalType": "contract Governance",
          "name": "",
          "type": "address"
        }
      ],
      "stateMutability": "view",
      "type": "function"
    },
    {
      "inputs": [
        {
          "internalType": "address",
          "name": "",
          "type": "address"
        }
      ],
      "name": "hasVote",
      "outputs": [
        {
          "internalType": "bool",
          "name": "",
          "type": "bool"
        }
      ],
      "stateMutability": "view",
      "type": "function"
    },
    {
      "inputs": [],
      "name": "leader",
      "outputs": [
        {
          "internalType": "uint256",
          "name": "",
          "type": "uint256"
        }
      ],
      "stateMutability": "view",
      "type": "function"
    },
    {
      "inputs": [
        {
          "internalType": "uint256",
          "name": "",
          "type": "uint256"
        }
      ],
      "name": "votesByValue",
      "outputs": [
        {
          "internalType": "uint256",
          "name": "",
          "type": "uint256"
        }
      ],
      "stateMutability": "view",
      "type": "function"
    },
    {
      "inputs": [
        {
          "internalType": "uint256",
          "name": "",
          "type": "uint256"
        },
        {
          "internalType": "address",
          "name": "",
          "type": "address"
        }
      ],
      "name": "votesByValueAddress",
      "outputs": [
        {
          "internalType": "uint256",
          "name": "",
          "type": "uint256"
        }
      ],
      "stateMutability": "view",
      "type": "function"
    },
    {
      "inputs": [
        {
          "internalType": "contract Governance",
          "name": "_governance",
          "type": "address"
        },
        {
          "internalType": "uint256",
          "name": "initial_value",
          "type": "uint256"
        },
        {
          "internalType": "function (uint256) external",
          "name": "_validationCallback",
          "type": "function"
        },
        {
          "internalType": "function (uint256) external",
          "name": "_commitCallback",
          "type": "function"
        }
      ],
      "name": "init",
      "outputs": [],
      "stateMutability": "nonpayable",
      "type": "function"
    },
    {
      "inputs": [
        {
          "internalType": "uint256",
          "name": "value",
          "type": "uint256"
        }
      ],
      "name": "vote",
      "outputs": [],
      "stateMutability": "nonpayable",
      "type": "function"
    },
    {
      "inputs": [
        {
          "internalType": "uint256",
          "name": "value",
          "type": "uint256"
        },
        {
          "internalType": "uint256",
          "name": "amount",
          "type": "uint256"
        }
      ],
      "name": "voteAndDeposit",
      "outputs": [],
      "stateMutability": "payable",
      "type": "function"
    },
    {
      "inputs": [],
      "name": "unvote",
      "outputs": [],
      "stateMutability": "nonpayable",
      "type": "function"
    },
    {
      "inputs": [],
      "name": "commit",
      "outputs": [],
      "stateMutability": "nonpayable",
      "type": "function"
    }
  ],
  "bytecode": "0x6080806040523461002b576001600081905580546001600160a01b0319169055610db690816100318239f35b600080fdfe60806040526004361015610013575b600080fd5b60003560e01c80630121b93f1461013f5780632243b09a1461013657806327efa0aa1461012d5780633174b68914610124578063345f2ffc1461011b5780633c7a3aff1461011257806340eedabb14610109578063410346b31461010057806350246b75146100f75780635aa6e675146100ee57806362df40ea146100e55780639e69a874146100dc578063bc17a493146100d3578063bfb723b6146100ca5763e224f753146100c257600080fd5b61000e61064a565b5061000e610630565b5061000e61059f565b5061000e61055f565b5061000e610535565b5061000e61050b565b5061000e610404565b5061000e610377565b5061000e610358565b5061000e61026f565b5061000e610250565b5061000e610234565b5061000e610215565b5061000e6101c7565b503461000e57602036600319011261000e57610159610915565b6101646004356109c0565b6001600055005b6001600160a01b0381160361000e57565b6001600160a01b0316600090815260086020526040902090565b6001600160a01b0316600090815260036020526040902090565b9060018060a01b0316600052602052604060002090565b503461000e57602036600319011261000e576004356101e58161016b565b60018060a01b03166000526003602052602060ff604060002054166040519015158152f35b600091031261000e57565b503461000e57600036600319011261000e576020600254604051908152f35b503461000e57600036600319011261000e5761024e610c2c565b005b503461000e57600036600319011261000e576020600754604051908152f35b503461000e576000806003193601126103555761028a610915565b6102ab60065461029e600754821415610d1a565b6102a6610853565b600755565b806102b461096b565b919060065490803b15610351576102e2938360405180968195829460e01b8352600483019190602083019252565b03925af18015610344575b61032b575b5060065460405190337f5e1dd8c4451717d5ca4ffbefdada35e22e0871220b9ed9dd03a351f0938c5ed78484a36103296001600055565bf35b8061033861033e92610677565b8061020a565b386102f2565b61034c6106d2565b6102ed565b8280fd5b80fd5b503461000e57600036600319011261000e576020600654604051908152f35b503461000e57602036600319011261000e576004356103958161016b565b60018060a01b031660005260086020526020604060002054604051908152f35b63ffffffff8160401c169060601c91565b6044356001600160401b03198116810361000e576103e3906103b5565b9091565b6064356001600160401b03198116810361000e576103e3906103b5565b503461000e57608036600319011261000e576004356104228161016b565b60243561042d6103c6565b916104366103e7565b60015490949193906001600160a01b03166104d057600180546001600160a01b0319166001600160a01b039097169690961790955561024e946104a892610480906102a681600655565b9063ffffffff60018060c01b0319600454169260018060c01b039060201b1691161717600455565b9063ffffffff60018060c01b0319600554169260018060c01b039060201b1691161717600555565b60405162461bcd60e51b8152602060048201526013602482015272185b1c9958591e481a5b9a5d1a585b1a5e9959606a1b6044820152606490fd5b503461000e57600036600319011261000e576001546040516001600160a01b039091168152602090f35b503461000e57600036600319011261000e5761024e61075a565b6000526009602052604060002090565b503461000e57604036600319011261000e5760206105966024356105828161016b565b600435600052600a835260406000206101b0565b54604051908152f35b50604036600319011261000e576105b4610915565b6001546001600160a01b0316803b1561000e576000604491604051928380926311f9fbc960e21b8252336004830152602435602483015234905af18015610623575b610610575b6106066004356109c0565b61024e6001600055565b8061033861061d92610677565b386105fb565b61062b6106d2565b6105f6565b503461000e57600036600319011261000e5761024e610853565b503461000e57602036600319011261000e5760043560005260096020526020604060002054604051908152f35b6001600160401b03811161068a57604052565b634e487b7160e01b600052604160045260246000fd5b601f909101601f19168101906001600160401b0382119082101761068a57604052565b9081602091031261000e575190565b506040513d6000823e3d90fd5b50634e487b7160e01b600052601160045260246000fd5b81198111610702570190565b61070a6106df565b0190565b1561071557565b60405162461bcd60e51b815260206004820152601f60248201527f796f752063616e6e6f74206368616e676520796f757220766f746520796574006044820152606490fd5b6002546001546107e9916107e291610782906001600160a01b03165b6001600160a01b031690565b600460405192636231483360e01b84526107b7602094859283828681895afa918215610846575b600092610827575b506106f6565b926040519283809263055a4e9160e51b82525afa92831561081a575b6000936107eb575b50506106f6565b421161070e565b565b61080b929350803d10610813575b61080381836106a0565b8101906106c3565b9038806107db565b503d6107f9565b6108226106d2565b6107d3565b61083f919250843d86116108135761080381836106a0565b90386107b1565b61084e6106d2565b6107a9565b600254600154604051636231483360e01b8152610896929091602090839060049082906001600160a01b03165afa918215610908575b6000926108ef57506106f6565b42111561089f57565b60405162461bcd60e51b815260206004820152602260248201527f6368616c6c656e67696e6720706572696f64206e6f7420657870697265642079604482015261195d60f21b6064820152608490fd5b61083f91925060203d81116108135761080381836106a0565b6109106106d2565b610889565b600260005414610926576002600055565b60405162461bcd60e51b815260206004820152601f60248201527f5265656e7472616e637947756172643a207265656e7472616e742063616c6c006044820152606490fd5b6103e360055460401b6103b5565b6103e360045460401b6103b5565b1561098e57565b60405162461bcd60e51b815260206004820152600a6024820152696e6f2062616c616e636560b01b6044820152606490fd5b6109c8610979565b813b1561000e5760009060405192839160e01b82528183816109f288600483019190602083019252565b03925af18015610c1f575b610c0c575b50610a0c3361017c565b54610a20610a1933610196565b5460ff1690565b6006548214610bff575b610bf0575b50600154610a45906001600160a01b0316610776565b6040516327e235e360e01b8152336004820152906020908190839060249082905afa918215610be3575b600092610bb4575b50600080516020610d6183398151915290610a93831515610987565b610a9c8461054f565b610aa78482546106f6565b905582610ac733610ac287600052600a602052604060002090565b6101b0565b5583610ad23361017c565b55610aec610adf33610196565b805460ff19166001179055565b610af58461054f565b54610b0160065461054f565b5410610b9d575b610b118461054f565b54610b9860065492610b6a610b258561054f565b5491600254600482610b4161077660015460018060a01b031690565b604051636231483360e01b815292839182905afa92831561081a576000936107eb5750506106f6565b906040519485943398869192608093969594919660a084019784526020840152604083015260608201520152565b0390a3565b610ba684600655565b610baf42600255565b610b08565b819250610bdc90600080516020610d61833981519152923d85116108135761080381836106a0565b9190610a77565b610beb6106d2565b610a6f565b610bf990610cc2565b38610a2f565b610c0761075a565b610a2a565b80610338610c1992610677565b38610a02565b610c276106d2565b6109fd565b33600052600360205260ff60406000205416156107e957610c4c3361017c565b546006548114610cb5575b610c6081610cc2565b6000610c6b3361017c565b55610c7533610196565b805460ff19169055610c868161054f565b546040519081527f5e5ccd7c40f80f9b92cb040349fa9e3710d1d600a1ebc063c4a446ba2e3e62c460203392a3565b610cbd61075a565b610c57565b600090808252600a602052610cdb6040832033906101b0565b54818352600960205260408320908154818110610d0d575b0390558152600a602052610d0a33604083206101b0565b55565b610d156106df565b610cf3565b15610d2157565b60405162461bcd60e51b815260206004820152601760248201527630b63932b0b23c9032b8bab0b6103a37903632b0b232b960491b6044820152606490fdfe14f054586d0778f9836a214e2a00d869801a7d7930d2002d0254ce90c9c50b24a26469706673582212208b624c59af22360146621374a32722fcbfd7acb602e09462fda3289a34eb370964736f6c634300080d0033",
  "immutableReferences": {},
  "source": "// SPDX-License-Identifier: MIT\npragma solidity ^0.8.3;\nimport \"./Governance.sol\";\nimport \"./VotedValue.sol\";\n\n\ncontract VotedValueUint is VotedValue {\n\n\tfunction(uint) external validationCallback;\n\tfunction(uint) external commitCallback;\n\n\tuint public leader;\n\tuint public current_value;\n\n\tmapping(address => uint) public choices;\n\tmapping(uint => uint) public votesByValue;\n\tmapping(uint => mapping(address => uint)) public votesByValueAddress;\n\n\tevent Vote(address indexed who, uint indexed value, uint votes, uint total_votes, uint leader, uint leader_total_votes, uint expiry_ts);\n\tevent Unvote(address indexed who, uint indexed value, uint votes);\n\tevent Commit(address indexed who, uint indexed value);\n\n\tconstructor() VotedValue(Governance(address(0))) {}\n\n\t// constructor(Governance _governance, uint initial_value, function(uint) external _validationCallback, function(uint) external _commitCallback) VotedValue(_governance) {\n\t// \tleader = initial_value;\n\t// \tcurrent_value = initial_value;\n\t// \tvalidationCallback = _validationCallback;\n\t// \tcommitCallback = _commitCallback;\n\t// }\n\n\tfunction init(Governance _governance, uint initial_value, function(uint) external _validationCallback, function(uint) external _commitCallback) external {\n\t\trequire(address(governance) == address(0), \"already initialized\");\n\t\tgovernance = _governance;\n\t\tleader = initial_value;\n\t\tcurrent_value = initial_value;\n\t\tvalidationCallback = _validationCallback;\n\t\tcommitCallback = _commitCallback;\n\t}\n\n\tfunction vote(uint value) nonReentrant external {\n\t\t_vote(value);\n\t}\n\n\tfunction voteAndDeposit(uint value, uint amount) nonReentrant payable external {\n\t\tgovernance.deposit{value: msg.value}(msg.sender, amount);\n\t\t_vote(value);\n\t}\n\n\tfunction _vote(uint value) private {\n\t\tvalidationCallback(value);\n\t\tuint prev_choice = choices[msg.sender];\n\t\tbool hadVote = hasVote[msg.sender];\n\t\tif (prev_choice == leader)\n\t\t\tcheckVoteChangeLock();\n\n\t\t// first, remove votes from the previous choice\n\t\tif (hadVote)\n\t\t\tremoveVote(prev_choice);\n\n\t\t// then, add them to the new choice\n\t\tuint balance = governance.balances(msg.sender);\n\t\trequire(balance > 0, \"no balance\");\n\t\tvotesByValue[value] += balance;\n\t\tvotesByValueAddress[value][msg.sender] = balance;\n\t\tchoices[msg.sender] = value;\n\t\thasVote[msg.sender] = true;\n\n\t\t// check if the leader has just changed\n\t\tif (votesByValue[value] > votesByValue[leader]){\n\t\t\tleader = value;\n\t\t\tchallenging_period_start_ts = block.timestamp;\n\t\t}\n\t\temit Vote(msg.sender, value, balance, votesByValue[value], leader, votesByValue[leader], challenging_period_start_ts + governance.governance_challenging_period());\n\t}\n\n\tfunction unvote() external {\n\t\tif (!hasVote[msg.sender])\n\t\t\treturn;\n\t\tuint prev_choice = choices[msg.sender];\n\t\tif (prev_choice == leader)\n\t\t\tcheckVoteChangeLock();\n\t\t\n\t\tremoveVote(prev_choice);\n\t\tdelete choices[msg.sender];\n\t\tdelete hasVote[msg.sender];\n\t\temit Unvote(msg.sender, prev_choice, votesByValue[prev_choice]);\n\t}\n\n\tfunction removeVote(uint value) internal {\n\t\tvotesByValue[value] -= votesByValueAddress[value][msg.sender];\n\t\tvotesByValueAddress[value][msg.sender] = 0;\n\t}\n\n\tfunction commit() nonReentrant external {\n\t\trequire(leader != current_value, \"already equal to leader\");\n\t\tcheckChallengingPeriodExpiry();\n\t\tcurrent_value = leader;\n\t\tcommitCallback(leader);\n\t\temit Commit(msg.sender, leader);\n\t}\n}\n\n",
  "sourcePath": "/Users/jm/counterstake-bridge/evm_substrate/contracts/VotedValueUint.sol",
  "compiler": {
    "name": "solc",
    "version": "0.8.13+commit.abaa5c0e.Emscripten.clang"
  },
  "schemaVersion": "3.4.16",
  "updatedAt": "2025-08-14T11:37:37.907Z",
  "devdoc": {
    "kind": "dev",
    "methods": {},
    "version": 1
  },
  "userdoc": {
    "kind": "user",
    "methods": {},
    "version": 1
  }
}