{
  "contractName": "VotedValueFactory",
  "abi": [
    {
      "inputs": [
        {
          "internalType": "address",
          "name": "_votedValueUintMaster",
          "type": "address"
        },
        {
          "internalType": "address",
          "name": "_votedValueUintArrayMaster",
          "type": "address"
        },
        {
          "internalType": "address",
          "name": "_votedValueAddressMaster",
          "type": "address"
        }
      ],
      "stateMutability": "nonpayable",
      "type": "constructor"
    },
    {
      "inputs": [],
      "name": "votedValueAddressMaster",
      "outputs": [
        {
          "internalType": "address",
          "name": "",
          "type": "address"
        }
      ],
      "stateMutability": "view",
      "type": "function"
    },
    {
      "inputs": [],
      "name": "votedValueUintArrayMaster",
      "outputs": [
        {
          "internalType": "address",
          "name": "",
          "type": "address"
        }
      ],
      "stateMutability": "view",
      "type": "function"
    },
    {
      "inputs": [],
      "name": "votedValueUintMaster",
      "outputs": [
        {
          "internalType": "address",
          "name": "",
          "type": "address"
        }
      ],
      "stateMutability": "view",
      "type": "function"
    },
    {
      "inputs": [
        {
          "internalType": "contract Governance",
          "name": "governance",
          "type": "address"
        },
        {
          "internalType": "uint256",
          "name": "initial_value",
          "type": "uint256"
        },
        {
          "internalType": "function (uint256) external",
          "name": "validationCallback",
          "type": "function"
        },
        {
          "internalType": "function (uint256) external",
          "name": "commitCallback",
          "type": "function"
        }
      ],
      "name": "createVotedValueUint",
      "outputs": [
        {
          "internalType": "contract VotedValueUint",
          "name": "",
          "type": "address"
        }
      ],
      "stateMutability": "nonpayable",
      "type": "function"
    },
    {
      "inputs": [
        {
          "internalType": "contract Governance",
          "name": "governance",
          "type": "address"
        },
        {
          "internalType": "uint256[]",
          "name": "initial_value",
          "type": "uint256[]"
        },
        {
          "internalType": "function (uint256[]) external",
          "name": "validationCallback",
          "type": "function"
        },
        {
          "internalType": "function (uint256[]) external",
          "name": "commitCallback",
          "type": "function"
        }
      ],
      "name": "createVotedValueUintArray",
      "outputs": [
        {
          "internalType": "contract VotedValueUintArray",
          "name": "",
          "type": "address"
        }
      ],
      "stateMutability": "nonpayable",
      "type": "function"
    },
    {
      "inputs": [
        {
          "internalType": "contract Governance",
          "name": "governance",
          "type": "address"
        },
        {
          "internalType": "address",
          "name": "initial_value",
          "type": "address"
        },
        {
          "internalType": "function (address) external",
          "name": "validationCallback",
          "type": "function"
        },
        {
          "internalType": "function (address) external",
          "name": "commitCallback",
          "type": "function"
        }
      ],
      "name": "createVotedValueAddress",
      "outputs": [
        {
          "internalType": "contract VotedValueAddress",
          "name": "",
          "type": "address"
        }
      ],
      "stateMutability": "nonpayable",
      "type": "function"
    }
  ],
  "bytecode": "0x60e0346100ae57601f61077638819003918201601f19168301916001600160401b038311848410176100b3578084926060946040528339810103126100ae578061004b610070926100c9565b90610064604061005d602084016100c9565b92016100c9565b9160805260a05260c052565b60405161069890816100de82396080518181816102d80152610356015260a05181818160a80152610587015260c05181818161010201526104620152f35b600080fd5b634e487b7160e01b600052604160045260246000fd5b51906001600160a01b03821682036100ae5756fe608080604052600436101561001357600080fd5b6000803560e01c918263200f3daa146100965750508063262ff7b41461008d5780632f10711e14610084578063307a4a431461007b5780634a7934631461007257639b1358aa14610065575b38600080fd5b61006d610408565b61005f565b5061006d610307565b5061006d6102c1565b5061006d6101f4565b5061006d6100eb565b346100d757816003193601126100d7577f00000000000000000000000000000000000000000000000000000000000000006001600160a01b03168152602090f35b5080fd5b60009103126100e657565b600080fd5b50346100e65760003660031901126100e6576040517f00000000000000000000000000000000000000000000000000000000000000006001600160a01b03168152602090f35b6001600160a01b038116036100e657565b50634e487b7160e01b600052604160045260246000fd5b6001600160401b03811161016c57604052565b610174610142565b604052565b601f909101601f19168101906001600160401b0382119082101761016c57604052565b6001600160401b03198116036100e657565b6101ce6044356101bd8161019c565b63ffffffff8160401c169060601c91565b9091565b6101ce6064356101bd8161019c565b6001600160a01b03909116815260200190565b50346100e65760803660031901126100e65760043561021281610131565b602435906001600160401b038083116100e657366023840112156100e65782600401359081116102b4575b8060051b926040519360209261025584830187610179565b8552602483860191830101913683116100e657602401905b8282106102a5576102a161029587876102846101ae565b9061028d6101d2565b949093610571565b604051918291826101e1565b0390f35b8135815290830190830161026d565b6102bc610142565b61023d565b50346100e65760003660031901126100e6576040517f00000000000000000000000000000000000000000000000000000000000000006001600160a01b03168152602090f35b50346100e65760803660031901126100e65760043561032581610131565b6103346044356101bd8161019c565b90916103456064356101bd8161019c565b6001600160a01b039391908461037a7f00000000000000000000000000000000000000000000000000000000000000006104dd565b1694853b156100e6576102a1966103bf946103b592604051976350246b7560e01b8952166004880152602435602488015260448701916104bd565b60648401916104bd565b60008160848183865af180156103fb575b6103e2575b50604051918291826101e1565b806103ef6103f592610159565b806100db565b386103d5565b6104036104d0565b6103d0565b50346100e65760803660031901126100e65760043561042681610131565b60243561043281610131565b6104416044356101bd8161019c565b9290916104536064356101bd8161019c565b6001600160a01b0392836104867f00000000000000000000000000000000000000000000000000000000000000006104dd565b1695863b156100e6576040516345ede00f60e01b81529585166004870152931660248501526102a1956103bf936103b59160448701915b9063ffffffff169060201b1760401b9052565b506040513d6000823e3d90fd5b6e5af43d82803e903d91602b57fd5bf390763d602d80600a3d3981f3363d3d373d3d3d363d7300000062ffffff8260881c161760005260781b17602052603760096000f0906001600160a01b0382161561053357565b60405162461bcd60e51b8152602060048201526016602482015275115490cc4c4d8dce8818dc99585d194819985a5b195960521b6044820152606490fd5b946001600160a01b0394919391929091856105ab7f00000000000000000000000000000000000000000000000000000000000000006104dd565b1696873b156100e657604051633d18e24760e21b8152961660048701526080602487015284516084870181905260a487019587959493929160209182019160005b82811061064b5750505050926000959261060f61061993879660448801916104bd565b60648501916104bd565b038183865af1801561063e575b61062e575090565b806103ef61063b92610159565b90565b6106466104d0565b610626565b83518a52988101988a9850928101926001016105ec56fea26469706673582212200afcf2535d9d394772487777882ca355ba50654edbd7f49241c667bfd037385764736f6c634300080d0033",
  "immutableReferences": {
    "13625": [
      {
        "length": 32,
        "start": 728
      },
      {
        "length": 32,
        "start": 854
      }
    ],
    "13627": [
      {
        "length": 32,
        "start": 168
      },
      {
        "length": 32,
        "start": 1415
      }
    ],
    "13629": [
      {
        "length": 32,
        "start": 258
      },
      {
        "length": 32,
        "start": 1122
      }
    ]
  },
  "source": "// SPDX-License-Identifier: MIT\npragma solidity ^0.8.3;\nimport \"@openzeppelin/contracts/proxy/Clones.sol\";\nimport \"./Governance.sol\";\nimport \"./VotedValue.sol\";\nimport \"./VotedValueUint.sol\";\nimport \"./VotedValueUintArray.sol\";\nimport \"./VotedValueAddress.sol\";\n\ncontract VotedValueFactory {\n\n\taddress public immutable votedValueUintMaster;\n\taddress public immutable votedValueUintArrayMaster;\n\taddress public immutable votedValueAddressMaster;\n\n\tconstructor(address _votedValueUintMaster, address _votedValueUintArrayMaster, address _votedValueAddressMaster) {\n\t\tvotedValueUintMaster = _votedValueUintMaster;\n\t\tvotedValueUintArrayMaster = _votedValueUintArrayMaster;\n\t\tvotedValueAddressMaster = _votedValueAddressMaster;\n\t}\n\n\n\tfunction createVotedValueUint(Governance governance, uint initial_value, function(uint) external validationCallback, function(uint) external commitCallback) external returns (VotedValueUint) {\n\t\tVotedValueUint vv = VotedValueUint(Clones.clone(votedValueUintMaster));\n\t\tvv.init(governance, initial_value, validationCallback, commitCallback);\n\t\treturn vv;\n\t}\n\n\tfunction createVotedValueUintArray(Governance governance, uint[] memory initial_value, function(uint[] memory) external validationCallback, function(uint[] memory) external commitCallback) external returns (VotedValueUintArray) {\n\t\tVotedValueUintArray vv = VotedValueUintArray(Clones.clone(votedValueUintArrayMaster));\n\t\tvv.init(governance, initial_value, validationCallback, commitCallback);\n\t\treturn vv;\n\t}\n\n\tfunction createVotedValueAddress(Governance governance, address initial_value, function(address) external validationCallback, function(address) external commitCallback) external returns (VotedValueAddress) {\n\t\tVotedValueAddress vv = VotedValueAddress(Clones.clone(votedValueAddressMaster));\n\t\tvv.init(governance, initial_value, validationCallback, commitCallback);\n\t\treturn vv;\n\t}\n\n}\n",
  "sourcePath": "/Users/jm/3DP-bridge/counterstake-bridge/evm/contracts/VotedValueFactory.sol",
  "compiler": {
    "name": "solc",
    "version": "0.8.13+commit.abaa5c0e.Emscripten.clang"
  },
  "schemaVersion": "3.4.16",
  "updatedAt": "2025-08-11T16:27:16.874Z",
  "devdoc": {
    "kind": "dev",
    "methods": {},
    "version": 1
  },
  "userdoc": {
    "kind": "user",
    "methods": {},
    "version": 1
  }
}