{
  "contractName": "VotedValueUintArray",
  "abi": [
    {
      "inputs": [],
      "stateMutability": "nonpayable",
      "type": "constructor"
    },
    {
      "anonymous": false,
      "inputs": [
        {
          "indexed": true,
          "internalType": "address",
          "name": "who",
          "type": "address"
        },
        {
          "indexed": false,
          "internalType": "uint256[]",
          "name": "value",
          "type": "uint256[]"
        }
      ],
      "name": "Commit",
      "type": "event"
    },
    {
      "anonymous": false,
      "inputs": [
        {
          "indexed": true,
          "internalType": "address",
          "name": "who",
          "type": "address"
        },
        {
          "indexed": false,
          "internalType": "uint256[]",
          "name": "value",
          "type": "uint256[]"
        },
        {
          "indexed": false,
          "internalType": "uint256",
          "name": "votes",
          "type": "uint256"
        }
      ],
      "name": "Unvote",
      "type": "event"
    },
    {
      "anonymous": false,
      "inputs": [
        {
          "indexed": true,
          "internalType": "address",
          "name": "who",
          "type": "address"
        },
        {
          "indexed": false,
          "internalType": "uint256[]",
          "name": "value",
          "type": "uint256[]"
        },
        {
          "indexed": false,
          "internalType": "uint256",
          "name": "votes",
          "type": "uint256"
        },
        {
          "indexed": false,
          "internalType": "uint256",
          "name": "total_votes",
          "type": "uint256"
        },
        {
          "indexed": false,
          "internalType": "uint256[]",
          "name": "leader",
          "type": "uint256[]"
        },
        {
          "indexed": false,
          "internalType": "uint256",
          "name": "leader_total_votes",
          "type": "uint256"
        },
        {
          "indexed": false,
          "internalType": "uint256",
          "name": "expiry_ts",
          "type": "uint256"
        }
      ],
      "name": "Vote",
      "type": "event"
    },
    {
      "inputs": [],
      "name": "challenging_period_start_ts",
      "outputs": [
        {
          "internalType": "uint256",
          "name": "",
          "type": "uint256"
        }
      ],
      "stateMutability": "view",
      "type": "function"
    },
    {
      "inputs": [],
      "name": "checkChallengingPeriodExpiry",
      "outputs": [],
      "stateMutability": "view",
      "type": "function"
    },
    {
      "inputs": [],
      "name": "checkVoteChangeLock",
      "outputs": [],
      "stateMutability": "view",
      "type": "function"
    },
    {
      "inputs": [
        {
          "internalType": "address",
          "name": "",
          "type": "address"
        },
        {
          "internalType": "uint256",
          "name": "",
          "type": "uint256"
        }
      ],
      "name": "choices",
      "outputs": [
        {
          "internalType": "uint256",
          "name": "",
          "type": "uint256"
        }
      ],
      "stateMutability": "view",
      "type": "function"
    },
    {
      "inputs": [
        {
          "internalType": "uint256",
          "name": "",
          "type": "uint256"
        }
      ],
      "name": "current_value",
      "outputs": [
        {
          "internalType": "uint256",
          "name": "",
          "type": "uint256"
        }
      ],
      "stateMutability": "view",
      "type": "function"
    },
    {
      "inputs": [],
      "name": "governance",
      "outputs": [
        {
          "internalType": "contract Governance",
          "name": "",
          "type": "address"
        }
      ],
      "stateMutability": "view",
      "type": "function"
    },
    {
      "inputs": [
        {
          "internalType": "address",
          "name": "",
          "type": "address"
        }
      ],
      "name": "hasVote",
      "outputs": [
        {
          "internalType": "bool",
          "name": "",
          "type": "bool"
        }
      ],
      "stateMutability": "view",
      "type": "function"
    },
    {
      "inputs": [
        {
          "internalType": "uint256",
          "name": "",
          "type": "uint256"
        }
      ],
      "name": "leader",
      "outputs": [
        {
          "internalType": "uint256",
          "name": "",
          "type": "uint256"
        }
      ],
      "stateMutability": "view",
      "type": "function"
    },
    {
      "inputs": [
        {
          "internalType": "bytes32",
          "name": "",
          "type": "bytes32"
        }
      ],
      "name": "votesByValue",
      "outputs": [
        {
          "internalType": "uint256",
          "name": "",
          "type": "uint256"
        }
      ],
      "stateMutability": "view",
      "type": "function"
    },
    {
      "inputs": [
        {
          "internalType": "bytes32",
          "name": "",
          "type": "bytes32"
        },
        {
          "internalType": "address",
          "name": "",
          "type": "address"
        }
      ],
      "name": "votesByValueAddress",
      "outputs": [
        {
          "internalType": "uint256",
          "name": "",
          "type": "uint256"
        }
      ],
      "stateMutability": "view",
      "type": "function"
    },
    {
      "inputs": [
        {
          "internalType": "contract Governance",
          "name": "_governance",
          "type": "address"
        },
        {
          "internalType": "uint256[]",
          "name": "initial_value",
          "type": "uint256[]"
        },
        {
          "internalType": "function (uint256[]) external",
          "name": "_validationCallback",
          "type": "function"
        },
        {
          "internalType": "function (uint256[]) external",
          "name": "_commitCallback",
          "type": "function"
        }
      ],
      "name": "init",
      "outputs": [],
      "stateMutability": "nonpayable",
      "type": "function"
    },
    {
      "inputs": [
        {
          "internalType": "uint256[]",
          "name": "a1",
          "type": "uint256[]"
        },
        {
          "internalType": "uint256[]",
          "name": "a2",
          "type": "uint256[]"
        }
      ],
      "name": "equal",
      "outputs": [
        {
          "internalType": "bool",
          "name": "",
          "type": "bool"
        }
      ],
      "stateMutability": "pure",
      "type": "function"
    },
    {
      "inputs": [
        {
          "internalType": "uint256[]",
          "name": "a",
          "type": "uint256[]"
        }
      ],
      "name": "getKey",
      "outputs": [
        {
          "internalType": "bytes32",
          "name": "",
          "type": "bytes32"
        }
      ],
      "stateMutability": "pure",
      "type": "function"
    },
    {
      "inputs": [
        {
          "internalType": "uint256[]",
          "name": "value",
          "type": "uint256[]"
        }
      ],
      "name": "vote",
      "outputs": [],
      "stateMutability": "nonpayable",
      "type": "function"
    },
    {
      "inputs": [
        {
          "internalType": "uint256[]",
          "name": "value",
          "type": "uint256[]"
        },
        {
          "internalType": "uint256",
          "name": "amount",
          "type": "uint256"
        }
      ],
      "name": "voteAndDeposit",
      "outputs": [],
      "stateMutability": "payable",
      "type": "function"
    },
    {
      "inputs": [],
      "name": "unvote",
      "outputs": [],
      "stateMutability": "nonpayable",
      "type": "function"
    },
    {
      "inputs": [],
      "name": "commit",
      "outputs": [],
      "stateMutability": "nonpayable",
      "type": "function"
    }
  ],
  "bytecode": "0x6080806040523461002b576001600081905580546001600160a01b031916905561154290816100318239f35b600080fdfe60806040526004361015610013575b600080fd5b60003560e01c80630508bcb4146101675780631360d05f1461015e5780632243b09a1461015557806327efa0aa1461014c5780633174b689146101435780633c7a3aff1461013a57806342569421146101315780635aa6e67514610128578063601cdb081461011f57806362df40ea1461011657806373a6bb1b1461010d578063bfb723b614610104578063ce11f2bb146100fb578063df75ab64146100f2578063e7da4c7e146100e9578063ed9df00f146100e05763f463891c146100d857600080fd5b61000e61079a565b5061000e61069c565b5061000e610641565b5061000e610601565b5061000e6105db565b5061000e6105c1565b5061000e610568565b5061000e61054e565b5061000e61050e565b5061000e6104e4565b5061000e6104b7565b5061000e6103a8565b5061000e61038c565b5061000e61036d565b5061000e61031f565b5061000e6102a2565b503461000e57602036600319011261000e5760043560065481101561000e5760066000526000805160206114ed8339815191520154604051908152602090f35b50634e487b7160e01b600052604160045260246000fd5b6001600160401b0381116101d157604052565b6101d96101a7565b604052565b601f909101601f19168101906001600160401b038211908210176101d157604052565b9080601f8301121561000e578135906001600160401b038211610268575b8160051b60405193602093610236858401876101de565b8552838086019282010192831161000e578301905b828210610259575050505090565b8135815290830190830161024b565b6102706101a7565b61021f565b602060031982011261000e57600435906001600160401b03821161000e5761029f91600401610201565b90565b503461000e5760206102bb6102b636610275565b610da8565b604051908152f35b6001600160a01b0381160361000e57565b6001600160a01b0316600090815260086020526040902090565b6001600160a01b0316600090815260036020526040902090565b9060018060a01b0316600052602052604060002090565b503461000e57602036600319011261000e5760043561033d816102c3565b60018060a01b03166000526003602052602060ff604060002054166040519015158152f35b600091031261000e57565b503461000e57600036600319011261000e576020600254604051908152f35b503461000e57600036600319011261000e576103a66112c0565b005b503461000e576000806003193601126104a4576103c3610df7565b6103eb6103e66103e26103d4610f4f565b6103dc610f60565b90610d3e565b1590565b611401565b6103f3610a52565b6103fb611447565b80610404610e4d565b8192913b156104a05760405192839160e01b8252818381610427600482016114bd565b03925af18015610493575b61047a575b506040517ff8b5857c41922d7ddea2f4fa9bb41ae81c7469c0a0d01eabd7c76aa6f6486f22339180610468816114bd565b0390a26104756001600055565b604051f35b8061048761048d926101be565b80610362565b38610437565b61049b6108d1565b610432565b5080fd5b80fd5b6000526009602052604060002090565b503461000e57602036600319011261000e5760043560005260096020526020604060002054604051908152f35b503461000e57600036600319011261000e576001546040516001600160a01b039091168152602090f35b503461000e57602036600319011261000e5760043560075481101561000e5760076000526000805160206114cd8339815191520154604051908152602090f35b503461000e57600036600319011261000e576103a6610959565b503461000e57604036600319011261000e57600435610586816102c3565b6001600160a01b03166000908152600860205260408120805460243591908210156105bd5782526020918290200154604051908152f35b8280fd5b503461000e57600036600319011261000e576103a6610a52565b503461000e576105fa6105ed36610275565b6105f5610df7565b611028565b6001600055005b503461000e57604036600319011261000e576020610638602435610624816102c3565b600435600052600a83526040600020610308565b54604051908152f35b503461000e57604036600319011261000e576001600160401b0360043581811161000e57610673903690600401610201565b9060243590811161000e576020916103dc610692923690600401610201565b6040519015158152f35b50604036600319011261000e576004356001600160401b03811161000e576106c8903690600401610201565b6106d0610df7565b6001546001600160a01b031690813b1561000e576044600061072193604051928380926311f9fbc960e21b8252336004830152602435602483015234905af1801561073e575b61072b575b50611028565b6103a66001600055565b80610487610738926101be565b3861071b565b6107466108d1565b610716565b63ffffffff8160401c169060601c91565b6044356001600160401b03198116810361000e576107799061074b565b9091565b6064356001600160401b03198116810361000e576107799061074b565b503461000e57608036600319011261000e576004356107b8816102c3565b6024356001600160401b03811161000e576107d7903690600401610201565b6107df61075c565b916107e861077d565b60015490949193906001600160a01b031661088757600180546001600160a01b0319166001600160a01b03909716969096179095556103a69461085f926108379061083281610b9d565b610c40565b9063ffffffff60018060c01b0319600454169260018060c01b039060201b1691161717600455565b9063ffffffff60018060c01b0319600554169260018060c01b039060201b1691161717600555565b60405162461bcd60e51b8152602060048201526013602482015272185b1c9958591e481a5b9a5d1a585b1a5e9959606a1b6044820152606490fd5b9081602091031261000e575190565b506040513d6000823e3d90fd5b50634e487b7160e01b600052601160045260246000fd5b81198111610901570190565b6109096108de565b0190565b1561091457565b60405162461bcd60e51b815260206004820152601f60248201527f796f752063616e6e6f74206368616e676520796f757220766f746520796574006044820152606490fd5b6002546001546109e8916109e191610981906001600160a01b03165b6001600160a01b031690565b600460405192636231483360e01b84526109b6602094859283828681895afa918215610a45575b600092610a26575b506108f5565b926040519283809263055a4e9160e51b82525afa928315610a19575b6000936109ea575b50506108f5565b421161090d565b565b610a0a929350803d10610a12575b610a0281836101de565b8101906108c2565b9038806109da565b503d6109f8565b610a216108d1565b6109d2565b610a3e919250843d8611610a1257610a0281836101de565b90386109b0565b610a4d6108d1565b6109a8565b600254600154604051636231483360e01b8152610a95929091602090839060049082906001600160a01b03165afa918215610b07575b600092610aee57506108f5565b421115610a9e57565b60405162461bcd60e51b815260206004820152602260248201527f6368616c6c656e67696e6720706572696f64206e6f7420657870697265642079604482015261195d60f21b6064820152608490fd5b610a3e91925060203d8111610a1257610a0281836101de565b610b0f6108d1565b610a88565b80549060009081815582610b2757505050565b815260208120918201915b828110610b3e57505050565b818155600101610b32565b600160401b8111610b90575b6007549080600755818110610b68575050565b600090600782526020822092830192015b828110610b8557505050565b818155600101610b79565b610b986101a7565b610b55565b805190600160401b8211610c33575b60065482600655808310610bfd575b5060066000908152906020906000805160206114ed8339815191529082015b848410610be8575050505050565b60018382829351855501920193019290610bda565b600660009081526000805160206114ed8339815191529182019184015b828110610c28575050610bbb565b818155600101610c1a565b610c3b6101a7565b610bac565b805190610c4c82610b49565b60076000908152906020906000805160206114cd8339815191529082015b848410610c78575050505050565b60018382829351855501920193019290610c6a565b815191600160401b8311610d07575b8154838355808410610cde575b50602080910191600052806000206000925b848410610cc9575050505050565b60018382829351855501920193019290610cbb565b6000838152846020822092830192015b828110610cfc575050610ca9565b818155600101610cee565b610d0f6101a7565b610c9c565b8051821015610d285760209160051b010190565b634e487b7160e01b600052603260045260246000fd5b908151815103610da157600090815b8351811015610d9857610d608185610d14565b51610d6b8284610d14565b5103610d91576001906000198114610d84575b01610d4d565b610d8c6108de565b610d7e565b5050905090565b50505050600190565b5050600090565b60405160208181810193848382519192019360005b828110610de057505050610dda925003601f1981018352826101de565b51902090565b855184529481019486945092810192600101610dbd565b600260005414610e08576002600055565b60405162461bcd60e51b815260206004820152601f60248201527f5265656e7472616e637947756172643a207265656e7472616e742063616c6c006044820152606490fd5b61077960055460401b61074b565b61077960045460401b61074b565b90815180825260208080930193019160005b828110610e89575050505090565b835185529381019392810192600101610e7b565b90602061029f928181520190610e69565b6006805480835260009182526020928301926000805160206114ed83398151915292905b828210610ee0575050505090565b835485529384019360019384019390910190610ed2565b90815480825260208092019260005281600020916000905b828210610f1d575050505090565b835485529384019360019384019390910190610f0f565b906109e8610f489260405193848092610ef7565b03836101de565b604051906109e882610f4881610eae565b604051906007548083528260209182820190600760005283600020936000905b828210610f96575050506109e8925003836101de565b855484526001958601958895509381019390910190610f80565b15610fb757565b60405162461bcd60e51b815260206004820152600a6024820152696e6f2062616c616e636560b01b6044820152606490fd5b9160a09361100661101e939897969860c0865260c0860190610e69565b91602085015260408401528281036060840152610eae565b9460808201520152565b611030610e5b565b813b1561000e5760009060405192839160e01b82528183816110558860048301610e9d565b03925af18015611297575b611284575b5061106f336102d4565b61108261107b336102ee565b5460ff1690565b61109661108e83610f34565b6103dc610f4f565b611277575b611260575b507f01a4aca4fddb288d8c5113b967eae60208fe5fc01011fb2efecef1983975337a6110cb82610da8565b6001546110e0906001600160a01b0316610975565b6040516327e235e360e01b815233600482015260209290918390839060249082905afa918215611253575b60009261122c575b506111ae61121591611126841515610fb0565b61112f816104a7565b61113a8582546108f5565b90558361115a3361115584600052600a602052604060002090565b610308565b5561116d87611168336102d4565b610c8d565b611186611179336102ee565b805460ff19166001179055565b61118f816104a7565b546111a361119e6102b6610f4f565b6104a7565b541061121a576104a7565b54926112066111c161119e6102b6610f4f565b54916002546004826111dd61097560015460018060a01b031690565b604051636231483360e01b815292839182905afa928315610a19576000936109ea5750506108f5565b90604051948594339886610fe9565b0390a2565b61122387610b9d565b61119e42600255565b61121591925061124b6111ae91853d8711610a1257610a0281836101de565b929150611113565b61125b6108d1565b61110b565b61126c61127191610f34565b6113a0565b386110a0565b61127f610959565b61109b565b80610487611291926101be565b38611065565b61129f6108d1565b611060565b9291906112bb602091604086526040860190610ef7565b930152565b33600052600360205260ff60406000205416156109e8576112e0336102d4565b6113116040516112fb816112f48186610ef7565b03826101de565b6040519061130c82610f4881610eae565b610d3e565b611393575b61132a60405161126c816112f48186610ef7565b61133b611336336102d4565b610b14565b611351611347336102ee565b805460ff19169055565b7fdb81daa272eaa8d409cb16d1b534c190e7f3dd17dc5f0423b064ad9d49d98ce361121561138461119e6102b685610f34565b546040519182913395836112a4565b61139b610959565b611316565b6113a990610da8565b600090808252600a6020526113c2604083203390610308565b548183526009602052604083209081548181106113f4575b0390558152600a6020526113f13360408320610308565b55565b6113fc6108de565b6113da565b1561140857565b60405162461bcd60e51b815260206004820152601760248201527630b63932b0b23c9032b8bab0b6103a37903632b0b232b960491b6044820152606490fd5b6006546001600160401b0381116114b0575b61146281610b49565b600760009081526000805160206114ed83398151915280546000805160206114cd83398151915291905b84841061149a575050505050565b600180919201938454928185015501929061148c565b6114b86101a7565b611459565b602061029f9181815201610eae56fea66cc928b5edb82af9bd49922954155ab7b0942694bea4ce44661d9a8736c688f652222313e28459528d920b65115c16c04f3efc82aaedc97be59f3f377c0d3fa26469706673582212203139395c79c58493b31d2f6d2e7d8d39e98bb031a6429140b17b2b0af6898dfa64736f6c634300080d0033",
  "immutableReferences": {},
  "source": "// SPDX-License-Identifier: MIT\npragma solidity ^0.8.3;\nimport \"./Governance.sol\";\nimport \"./VotedValue.sol\";\n\n\ncontract VotedValueUintArray is VotedValue {\n\n\tfunction(uint[] memory) external validationCallback;\n\tfunction(uint[] memory) external commitCallback;\n\n\tuint[] public leader;\n\tuint[] public current_value;\n\n\tmapping(address => uint[]) public choices;\n\tmapping(bytes32 => uint) public votesByValue;\n\tmapping(bytes32 => mapping(address => uint)) public votesByValueAddress;\n\n\tevent Vote(address indexed who, uint[] value, uint votes, uint total_votes, uint[] leader, uint leader_total_votes, uint expiry_ts);\n\tevent Unvote(address indexed who, uint[] value, uint votes);\n\tevent Commit(address indexed who, uint[] value);\n\n\tconstructor() VotedValue(Governance(address(0))) {}\n\n\t// constructor(Governance _governance, uint[] memory initial_value, function(uint[] memory) external _validationCallback, function(uint[] memory) external _commitCallback) VotedValue(_governance) {\n\t// \tleader = initial_value;\n\t// \tcurrent_value = initial_value;\n\t// \tvalidationCallback = _validationCallback;\n\t// \tcommitCallback = _commitCallback;\n\t// }\n\n\tfunction init(Governance _governance, uint[] memory initial_value, function(uint[] memory) external _validationCallback, function(uint[] memory) external _commitCallback) external {\n\t\trequire(address(governance) == address(0), \"already initialized\");\n\t\tgovernance = _governance;\n\t\tleader = initial_value;\n\t\tcurrent_value = initial_value;\n\t\tvalidationCallback = _validationCallback;\n\t\tcommitCallback = _commitCallback;\n\t}\n\n\tfunction equal(uint[] memory a1, uint[] memory a2) public pure returns (bool) {\n\t\tif (a1.length != a2.length)\n\t\t\treturn false;\n\t\tfor (uint i = 0; i < a1.length; i++)\n\t\t\tif (a1[i] != a2[i])\n\t\t\t\treturn false;\n\t\treturn true;\n\t}\n\n\tfunction getKey(uint[] memory a) public pure returns (bytes32){\n\t\treturn keccak256(abi.encodePacked(a));\n\t}\n\n\tfunction vote(uint[] memory value) nonReentrant external {\n\t\t_vote(value);\n\t}\n\n\tfunction voteAndDeposit(uint[] memory value, uint amount) nonReentrant payable external {\n\t\tgovernance.deposit{value: msg.value}(msg.sender, amount);\n\t\t_vote(value);\n\t}\n\n\tfunction _vote(uint[] memory value) private {\n\t\tvalidationCallback(value);\n\t\tuint[] storage prev_choice = choices[msg.sender];\n\t\tbool hadVote = hasVote[msg.sender];\n\t\tif (equal(prev_choice, leader))\n\t\t\tcheckVoteChangeLock();\n\n\t\t// remove one's vote from the previous choice first\n\t\tif (hadVote)\n\t\t\tremoveVote(prev_choice);\n\n\t\t// then, add it to the new choice, if any\n\t\tbytes32 key = getKey(value);\n\t\tuint balance = governance.balances(msg.sender);\n\t\trequire(balance > 0, \"no balance\");\n\t\tvotesByValue[key] += balance;\n\t\tvotesByValueAddress[key][msg.sender] = balance;\n\t\tchoices[msg.sender] = value;\n\t\thasVote[msg.sender] = true;\n\n\t\t// check if the leader has just changed\n\t\tif (votesByValue[key] > votesByValue[getKey(leader)]){\n\t\t\tleader = value;\n\t\t\tchallenging_period_start_ts = block.timestamp;\n\t\t}\n\t\temit Vote(msg.sender, value, balance, votesByValue[key], leader, votesByValue[getKey(leader)], challenging_period_start_ts + governance.governance_challenging_period());\n\t}\n\n\tfunction unvote() external {\n\t\tif (!hasVote[msg.sender])\n\t\t\treturn;\n\t\tuint[] storage prev_choice = choices[msg.sender];\n\t\tif (equal(prev_choice, leader))\n\t\t\tcheckVoteChangeLock();\n\t\t\n\t\tremoveVote(prev_choice);\n\t\tdelete choices[msg.sender];\n\t\tdelete hasVote[msg.sender];\n\t\temit Unvote(msg.sender, prev_choice, votesByValue[getKey(prev_choice)]);\n\t}\n\n\tfunction removeVote(uint[] memory value) internal {\n\t\tbytes32 key = getKey(value);\n\t\tvotesByValue[key] -= votesByValueAddress[key][msg.sender];\n\t\tvotesByValueAddress[key][msg.sender] = 0;\n\t}\n\n\tfunction commit() nonReentrant external {\n\t\trequire(!equal(leader, current_value), \"already equal to leader\");\n\t\tcheckChallengingPeriodExpiry();\n\t\tcurrent_value = leader;\n\t\tcommitCallback(leader);\n\t\temit Commit(msg.sender, leader);\n\t}\n}\n",
  "sourcePath": "/Users/jm/3DP-bridge/counterstake-bridge/evm/contracts/VotedValueUintArray.sol",
  "compiler": {
    "name": "solc",
    "version": "0.8.13+commit.abaa5c0e.Emscripten.clang"
  },
  "schemaVersion": "3.4.16",
  "updatedAt": "2025-08-19T12:12:03.509Z",
  "devdoc": {
    "kind": "dev",
    "methods": {},
    "version": 1
  },
  "userdoc": {
    "kind": "user",
    "methods": {},
    "version": 1
  }
}